:020000040800F2
:10000000780500209D010008C90B0008790A000846
:10001000C50B0008410900080D150008000000008C
:10002000000000000000000000000000D50E0008E5
:100030004709000800000000C50C0008FD13000877
:10004000B7010008B7010008B7010008B7010008B0
:10005000B7010008B7010008B7010008B7010008A0
:10006000B7010008B7010008B7010008B701000890
:10007000B7010008B7010008B7010008B701000880
:10008000B7010008B7010008B7010008B701000870
:10009000C1140008B701000845090008B7010008AD
:1000A000B7010008B7010008B7010008B701000850
:1000B000B701000871140008B7010008B701000873
:1000C000B7010008B7010008B7010008B701000830
:1000D000B7010008B7010008B7010008B701000820
:1000E000B7010008B7010008B7010008B701000810
:1000F000B7010008B7010008B7010008B701000800
:10010000B7010008B70100088D140008B701000806
:10011000B7010008B7010008B7010008B7010008DF
:10012000B7010008B7010008B7010008B7010008CF
:10013000B7010008B7010008B7010008B7010008BF
:1001400000000000000000000000000000000000AF
:10015000B7010008B7010008B7010008B70100089F
:10016000B7010008B7010008B7010008B70100088F
:10017000B7010008B7010008B7010008B70100087F
:10018000B7010008DFF810D000F0DCFA00480047A3
:100190004D320008AFF30080780500200648804704
:1001A00006480047FEE7FEE7FEE7FEE7FEE7FEE75C
:1001B000FEE7FEE7FEE7FEE7011400088501000800
:1001C00000F0004230F000400AD0C10D01F560712E
:1001D000C0F3160042EA0151C208400711437047BC
:1001E000002001467047000030B5041E71F1000484
:1001F00004DB4FF00044404264EB0101141E73F134
:10020000000405DB1C464FF00043524263EB04033D
:100210008B4208BF824230BD01F0004330B421F070
:10022000004150EA010206D00A0DA2F56072C1F346
:100230001301002A02DC30BC00207047440F44EA5E
:10024000C104C100E01830BC00EBC25000F047B858
:1002500030B50B46014600202022012409E021FA96
:1002600002F59D4205D303FA02F5491B04FA02F593
:100270002844151EA2F10102F1DC30BD2DE9F05F2A
:100280000546002092469B46884606468146402405
:100290001BE0284641464746224600F074FA534682
:1002A0005A46C01A914110D311461846224600F012
:1002B0005BFA2D1A67EB01084F4622460120002108
:1002C00000F052FA17EB00094E41201EA4F1010480
:1002D000DFDC484631462A464346BDE8F09F002908
:1002E000A8BF7047401C490008BF20F001007047BC
:1002F00010B4B0FA80FC00FA0CF050EA010404BF1C
:1003000010BC704749B1CCF1200421FA04F411FA71
:100310000CF118BF012121430843A3EB0C01CB1DB5
:100320004FEA00614FEA102042BF002010BC704726
:1003300000EBC35010440029A4BF10BC7047401C00
:10034000490008BF20F0010010BC70472DE9FE4FA6
:10035000804681EA0300C00F0C46009021F0004166
:1003600023F00045B8EB0200A94105D240462146E2
:1003700090461C460B46024623F00040104347D0EF
:10038000270DC7F30A00C3F30A510290401A0190E7
:1003900040286BDAC3F3130040F4801B00989246A8
:1003A00020B10023D2EB030A63EB0B0B01985946F3
:1003B000C0F14002504600F0D7F906460D465046BF
:1003C0005946019A00F0EFF910EB08006141002452
:1003D00087EA115284EAE7731A4340D0009A62B365
:1003E000019A012A4FEA075215DC001B61EB02015A
:1003F0004FF0004202EA0752CDE90042001C41F5ED
:10040000801132462B4600F0EFF903B0BDE8F08FC3
:1004100040462146F9E7001B61EB0201001C41F553
:10042000801300185B412018A2F5001747EB030169
:1004300040EAD570B6196D4111E06D084FEA3606F5
:1004400045EAC0754FEA0752001B61EB0201001C30
:1004500041F5801149084FEA3000001951413246F8
:100460002B4603B0BDE8F04F00F0AFB90098012271
:1004700040000023D0EB020263EBE07300982146BA
:100480004FEAE074B8EB000061EB0401E9E783F0A8
:1004900000435BE781F0004158E72DE9FE4F81EA18
:1004A000030404F0004421F0004100944FF0000BDD
:1004B00023F0004350EA01045ED052EA03045BD00B
:1004C000C3F30A54C1F30A552C44A4F2F334019443
:1004D000A0FB0254C1F3130141F48011C3F31303D1
:1004E00043F4801301FB024400FB034E840A970A85
:1004F00044EA815447EA8357A4FB076802958D0AB2
:1005000005FB07854FEA932C04FB0C542705029D3D
:100510004FEA065847EA1637B5EB08056EEB070CAD
:10052000870E920E47EA811742EA8312A7FB020167
:10053000B6EB0B0164EB00042B0D43EA0C335E18A1
:1005400044EB1C50DA465146E7FB0201C5F31304A5
:100550004FEA0B3343EA14534FEA0432019C43EA57
:100560000603A4F10C040294009CCDE900B400F051
:100570003BF903B0BDE8F08F00200146F9E72DE913
:10058000F04D81EA030404F0004B21F000451446CD
:100590004FF0000A23F0004150EA050220D054EA4F
:1005A00001021DD0C5F30A570246C5F31303C1F378
:1005B0001300C1F30A5640F4801543F48013A7EBEF
:1005C0000608101BD64608F2FD3873EB050002D36F
:1005D00008F1010801E092185B41B8F1000F03DA5D
:1005E00000200146BDE8F08D00204FF48011064642
:1005F00084460EE0171B73EB050705D3121B63EB54
:10060000050306434CEA010C49084FEA30009218F2
:100610005B4150EA0107EDD152EA030012D082EAB1
:10062000040083EA0501084305D0101BAB4106D244
:100630000122002306E000224FF0004302E06FF0A9
:10064000010253101AEB06004CEB085110EB0A00A4
:1006500041EB0B01BDE8F04D00F0B7B82DE9FE4FBE
:10066000C3F30A5701F000450024C1F30A56C3F34F
:100670001303C1F3130143F4801312EB020AA646DD
:1006800041F48011009543EB030CA7F1010B16E038
:10069000B0EB0A0061EB0C01071E71F1000707DAED
:1006A0004FF00008D0EB080085F0004568EB010131
:1006B000171A73EB0107EBD3761E001849415E450C
:1006C000F6DA50EA010209D0CDE900E5002213462E
:1006D000029600F089F803B0BDE8F08F204600993B
:1006E000F9E7C1F30A52C1F3130140F2FF3341F4B9
:1006F00080119A4202DA00200146704740F23343EB
:100700009A42A2F2334202DC524200F03CB800F0BE
:100710002BB8000030B5041E71F1000404DB4FF06B
:100720000044404264EB0101141E73F1000405DB38
:100730001C464FF00043524263EB0403994208BF4A
:10074000904230BD064C074D06E0E06840F00103E2
:1007500094E8070098471034AC42F6D3FFF716FD33
:10076000804F0008A04F0008202A04DB203A00FA3E
:1007700002F1002070479140C2F1200320FA03F3F8
:10078000194390407047202A04DB203A21FA02F0F6
:100790000021704721FA02F3D040C2F120029140BB
:1007A000084319467047202A06DBCB17203A41FA46
:1007B00002F043EAE07306E041FA02F3D040C2F1EE
:1007C0002002914008431946704710B5141E73F17A
:1007D000000408DA401C41F1000192185B411A4301
:1007E00001D120F0010010BD2DE9F04D92469B464D
:1007F00011B1B1FA81F202E0B0FA80F220329046F3
:10080000FFF7B2FF04460F4640EA0A0041EA0B0137
:1008100053465A46084313D0114653EA010019D0F3
:10082000C8F140025046FFF7AEFF05460E4650465F
:1008300059464246FFF798FF084305D0012004E0DF
:1008400020463946BDE8F08D0020054346EAE076B3
:100850002C4337430A986305E40AA0EB0800002202
:10086000FD0A44EA47540A3002D500200146E9E770
:10087000010510196941DDE9084500196941BDE824
:10088000F04DA2E770B58C1810F8015B15F0070366
:1008900001D110F8013B2A1106D110F8012B03E019
:1008A00010F8016B01F8016B5B1EF9D12B0705D421
:1008B0000023521E0DD401F8013BFAE710F8013B6A
:1008C000CB1A921C03E013F8015B01F8015B521E86
:1008D000F9D5A142D8D3002070BD000010B52DED90
:1008E000068BB0EE408A18EE100AFFF769FC41EC67
:1008F0001A0B9FED101BB0EE4A0AF0EE6A0A00F0E8
:100900003DFEB0EE409AF0EE609A51EC190BFFF705
:1009100083FC08EE900AF5EEC08AF1EE10FA04DBD3
:10092000B0EE680ABDEC068B10BD9FED040A38EEF0
:10093000800AF7E700000000FA211940D00FC940F3
:1009400000BFFEE77047704710B50446204602F02E
:1009500035FB207A012806D13F48408820803E4858
:100960000088608008E0207A022805D13B48408852
:1009700020803A48008860802088A188401A00EED4
:10098000100AB8EEC00A9FED361AC0EE010A9FEDBC
:10099000350A20EE800ADFED340A20EE200A84EDCD
:1009A000070A6088A188401A00EE100AF8EEC00A13
:1009B0009FED2B1A80EE810ADFED2A0A20EE200A35
:1009C000DFED290A20EE200A84ED080A94ED070ADB
:1009D000DFED260A30EEC00AD4ED080A30EE600AD8
:1009E00084ED070A204601F0ABFE204602F058FDD8
:1009F00094ED0F0AF0EE400A9FED1C0A1C4800F02F
:100A000004F984ED0D0A94ED0E0AF0EE400A9FED14
:100A1000170A174800F0F9F884ED0C0A9FED130A45
:100A200084ED0D0AB1EE080A84ED0C0A204602F0AE
:100A3000C3FB94ED041AF0EE410A94ED031AB0EEF4
:100A4000410A0C48006800F047FA0A48016820464D
:100A500002F05BFD10BD0000180000201C0000200B
:100A6000000080453333534000004842000000003E
:100A7000200000206C01002000BFFEE710B50446F6
:100A8000A4F10A020621024802F0E2FF10BD0000B4
:100A90000008004010B50446A4F10A02042108072A
:100AA00002F0D6FF10BD000070B52DED028B1021B5
:100AB0001B4802F0C5FA00211A4800F0E1F904468B
:100AC0000021184800F0DCF905460021154800F027
:100AD000D7F906461021124802F0B4FA200440EA81
:100AE00005203043801208EE100AB8EE480ADFED08
:100AF0000E0A20EE200ADFED0D0A80EE201AF0EE3D
:100B0000418A9FED0B0A28EE800ADFED070A80EE8E
:100B1000201AF0EE418AB0EE680ABDEC028B70BD7F
:100B200000080140003001400000B443000080464E
:100B3000D00FC94070B52DED028B4FF480511C4889
:100B400002F07EFA00211B4800F09AF904460021C9
:100B5000184800F095F905460021164800F090F974
:100B600006464FF48051124802F06CFA200440EA25
:100B700005203043801208EE100AB8EE480ADFED77
:100B80000E0A20EE200ADFED0D0A80EE201AF0EEAC
:100B9000418A9FED0B0A28EE800ADFED070A80EEFE
:100BA000201AF0EE418AB0EE680ABDEC028B70BDEF
:100BB000000C0140003800400000B44300008046B3
:100BC000D00FC94000BFFEE77047F0B503460C46A2
:100BD00003F00701C1F10700042801D9042001E056
:100BE000C1F107000646081D072801D2002000E0D9
:100BF000C81E05460120B040401E2040A8400127E5
:100C0000AF407F1E17403843F0BDB0EE401A31EEC2
:100C1000600A80ED020A90ED020AD0ED031A30EE70
:100C2000610AD0ED001A20EE210AD0ED011A90EDF4
:100C3000022A01EE820A80ED040A90ED040AD0ED4A
:100C4000061AB4EEE10AF1EE10FA04DD90ED060AA0
:100C500080ED040A0CE090ED040AD0ED071AB4EE22
:100C6000E10AF1EE10FA03D290ED070A80ED040AD2
:100C700090ED050AD0ED041A30EE210A80ED050A48
:100C800090ED050AD0ED061AB4EEE10AF1EE10FA85
:100C900004DD90ED060A80ED050A0CE090ED050AF2
:100CA000D0ED071AB4EEE10AF1EE10FA03D290ED9E
:100CB000070A80ED050A90ED020A80ED030A90ED27
:100CC000050A70477047000010B5214800F020FC6D
:100CD00020A000F01DFC28A000F01AFC2B4800F01A
:100CE00017FC2B4800F014FC2A4800F011FC2AA045
:100CF00000F00EFC29A000F00BFC2D4800F008FCD1
:100D00002C4800F005FC24A000F002FC2AA000F012
:100D1000FFFB2FA000F0FCFB33A000F0F9FB3A48EA
:100D200000F0F6FB1CA000F0F3FB38A000F0F0FB95
:100D30003BA000F0EDFB18A000F0EAFB40A000F0A3
:100D4000E7FB15A000F0E4FB4C4800F0E1FB10BD10
:100D5000A44C0008E4BAA7E59381E5908DE7A7B01D
:100D6000EFBC9AE58F8CE8B7AF464F43E9A9B1E5F0
:100D70008AA8E599A80D0A00E6A0B8E5BF83E58A30
:100D80009FE883BDEFBC9A0D0A0000001C4F0008CD
:100D9000584E0008C84E00080D0A0000E7A1ACE458
:100DA000BBB6E9858DE7BDAEEFBC9A0D0A00000029
:100DB000984D0008F84D0008E5BC80E58F91E8806B
:100DC00085E4BFA1E681AFEFBC9A0D0A00000000E8
:100DD0002D20E4BD9CE88085EFBC9AE69D8EE680E0
:100DE00080E694BF0D0A00002D2042E7AB995550D4
:100DF000E4B8BBEFBC9AE788B1E994A6E5AE9DE5FF
:100E000084BFE592A90D0A00544D0008E78988E6E1
:100E10009CACE4BFA1E681AFEFBC9A0D0A000000D4
:100E20002D20E69BB4E696B0E697B6E997B4EFBC02
:100E30009A323032342F332F31310D0A0000000046
:100E4000E6849FE8B0A2E682A8E585B3E6B3A8E60B
:100E50009CACE9A1B9E79BAEEFBC8CE69BB4E5A4E2
:100E60009AE4BFA1E681AFE695ACE8AFB7E69C9FF8
:100E7000E5BE85EFBC810D0A00000000FC4C0008B7
:100E800070B505460E46002406E0601C80B204469C
:100E9000C82801DD002070BD0221284602F03CFC7C
:100EA0000028F2D03146284602F034FC002406E047
:100EB000601C80B20446C82801DD0020EBE7012158
:100EC000284602F029FC0028F2D0284602F01EFC39
:100ED000C0B2E0E77047000090ED001ADFEDFE1AA7
:100EE00021EE211AF2EE081A81EE212A80ED112A54
:100EF00090ED111A21EE201A80ED051A9FEDF71AD8
:100F000020EE011AF6EE001A01EEE01AD0ED111AE9
:100F100021EE211A80ED061A9FEDF11A20EE011A3A
:100F2000F6EE001A01EEE01AD0ED111A21EE211AA8
:100F300080ED071A90ED051AB5EEC01AF1EE10FA21
:100F400001DD012100E0002190ED061AB5EEC01A86
:100F5000F1EE10FA01DD012200E0002201EB420176
:100F600090ED071AB5EEC01AF1EE10FA01DD01227C
:100F700000E0002201EB82010171017907297DD295
:100F8000DFE801F07C5EFE04FDBEFC0090ED061A79
:100F900080ED0B1A90ED051A80ED0D1A90ED0B1AED
:100FA000D0ED0D1A31EE211A80ED0F1A90ED0F1AC7
:100FB000D0ED001AB4EEE11AF1EE10FA17DD90ED63
:100FC000001AD0ED0F1A81EE212A80ED102A90ED43
:100FD0000B1AD0ED101A21EE211A80ED0B1A90EDAC
:100FE0000D1AD0ED101A21EE211A80ED0D1A90ED98
:100FF000001AD0ED0B1A31EE611AD0ED0D1A31EE58
:10100000611AF0EE001A81EE212A80ED0E2A90ED91
:101010000B1AD0ED0D1A31EE211AD0ED0E1A31EE69
:10102000211A80ED021A90ED0D1AD0ED0E1A31EE54
:10103000211A80ED031A90ED0E1A80ED041ADBE1FF
:1010400090ED061AB1EE411A80ED091A90ED071ADB
:10105000B1EE411A80ED0D1A90ED091AD0ED0D1A7E
:1010600031EE211A80ED0F1A90ED0F1AD0ED001A13
:10107000B4EEE11AF1EE10FA19DD00E0BBE190EDFB
:10108000001AD0ED0F1A81EE212A80ED102A90ED82
:10109000091AD0ED101A21EE211A80ED091A90EDEF
:1010A0000D1AD0ED101A21EE211A80ED0D1A90EDD7
:1010B000001AD0ED091A31EE611AD0ED0D1A31EE99
:1010C000611AF0EE001A81EE212A80ED0E2A90EDD1
:1010D0000D1AD0ED0E1A31EE211A80ED021A90EDA4
:1010E000091AD0ED0D1A31EE211AD0ED0E1A31EE9B
:1010F000211A80ED031A90ED0E1A80ED041A7BE19F
:1011000090ED051A80ED091A90ED071A80ED0A1A84
:1011100090ED091AD0ED0A1A31EE211A80ED0F1A5E
:1011200090ED0F1AD0ED001AB4EEE11AF1EE10FABC
:1011300017DD90ED001AD0ED0F1A81EE212A80ED17
:10114000102A90ED091AD0ED101A21EE211A80ED27
:10115000091A90ED0A1AD0ED101A21EE211A80ED2D
:101160000A1A90ED001AD0ED091A31EE611AD0ED8D
:101170000A1A31EE611AF0EE001A02E07CE01DE07E
:10118000DBE081EE212A80ED0E2A90ED0E1A80ED33
:10119000021A90ED091AD0ED0A1A31EE211AD0ED9B
:1011A0000E1A31EE211A80ED031A90ED0A1AD0EDD5
:1011B0000E1A31EE211A80ED041A1DE190ED051A88
:1011C000B1EE411A80ED081A90ED061AB1EE411AFF
:1011D00080ED0A1A90ED081AD0ED0A1A31EE211AA4
:1011E00080ED0F1A90ED0F1AD0ED001AB4EEE11A4F
:1011F000F1EE10FA17DD90ED001AD0ED0F1A81EE26
:10120000212A80ED102A90ED081AD0ED101A21EE57
:10121000211A80ED081A90ED0A1AD0ED101A21EE6D
:10122000211A80ED0A1A90ED001AD0ED081A31EE5D
:10123000611AD0ED0A1A31EE611AF0EE001A81EE51
:10124000212A80ED0E2A90ED0E1A80ED021A90ED03
:101250000A1AD0ED0E1A31EE211A80ED031A90ED24
:10126000081AD0ED0A1A31EE211AD0ED0E1A31EE1D
:10127000211A80ED041ABFE090ED071A80ED081ADC
:1012800090ED061A80ED0C1A90ED081AD0ED0C1AAC
:1012900031EE211A80ED0F1A90ED0F1AD0ED001AE1
:1012A000B4EEE11AF1EE10FA1EDD90ED001AD0ED69
:1012B0000F1A81EE212A80ED102A90ED081AD0ED48
:1012C000101A21EE211A80ED081A90ED0C1AD0EDBB
:1012D000101A21EE211A05E02DB2DD3F2DB25D3F3F
:1012E0002DB25DBF80ED0C1A90ED001AD0ED081AFA
:1012F00031EE611AD0ED0C1A31EE611AF0EE001ADF
:1013000081EE212A80ED0E2A90ED0C1AD0ED0E1AF6
:1013100031EE211A80ED021A90ED0E1A80ED031ABB
:1013200090ED081AD0ED0C1A31EE211AD0ED0E1AFC
:1013300031EE211A80ED041A5EE090ED071AB1EE4D
:10134000411A80ED0B1A90ED051AB1EE411A80EDAD
:101350000C1A90ED0B1AD0ED0C1A31EE211A80ED1B
:101360000F1A90ED0F1AD0ED001AB4EEE11AF1EE5B
:1013700010FA17DD90ED001AD0ED0F1A81EE212A38
:1013800080ED102A90ED0B1AD0ED101A21EE211AE3
:1013900080ED0B1A90ED0C1AD0ED101A21EE211AE7
:1013A00080ED0C1A90ED001AD0ED0B1A31EE611A97
:1013B000D0ED0C1A31EE611AF0EE001A81EE212AFE
:1013C00080ED0E2A90ED0B1AD0ED0C1A31EE211A99
:1013D000D0ED0E1A31EE211A80ED021A90ED0E1AA0
:1013E00080ED031A90ED0C1AD0ED0E1A31EE211A91
:1013F00080ED041A00E000BF00BF70477047000096
:101400001848006840F470001649086016480068E3
:1014100020F00100401C1449086000BF1248006819
:10142000C0F340000028F9D00F48406820F00300C6
:101430000D49486000BF0C484068C0F38100002897
:10144000F9D10948006809490840074908600020A7
:10145000486008634FF41F008860C8030149803961
:101460000860704788ED00E000100240FFFFF2FEC8
:1014700010B504480068FFF767FA0121024802F03E
:101480000AFB10BDB80000200004004010B50A4857
:101490000068401C0849086008460068B0F57A7F7B
:1014A00005D1002000F0CAFE002003490860012198
:1014B000024802F0F0FA10BD04000020000C0040C9
:1014C00000B585B009210A4801F034F870B1094827
:1014D0000068401C074908606A460021044801F082
:1014E000AAF80448016804A000F012F805B000BD95
:1014F000006400400000002025640963616E312013
:1015000072782064617461200D0A000000BFFEE75C
:101510000FB4054B10B503A9044A029800F0ACF9CA
:1015200010BC5DF814FB0000892F0008700100203A
:1015300002480068C0F30220704700000CED00E094
:1015400010B5002804DB0A07130E054A135406E001
:101550000A07140E034A00F00F031B1FD45410BDDA
:1015600000E400E018ED00E02DED020B019820F002
:10157000004001909DED000B02B0704710B52DEDBD
:10158000040B86B09DED060B10EE100A10EE901ABB
:101590008DED000B002818BF0120084320F000400B
:1015A000C0F17F6000F1E040C00F21D19DED080B3C
:1015B00010EE101A10EE900A8DED000B002918BFE6
:1015C0000121084320F00040C0F17F6000F1E040BD
:1015D000C00F0DD129490798B1EB400F04BF069801
:1015E000002842D00998400004BF089800283CD049
:1015F0009DED080B53EC102B9DED060B51EC100BE1
:10160000FFF72CF8CDE902019DED020B40F2FF71CE
:1016100010EE900A8DED000B31EA105021D00798A2
:10162000039900F0004001F00041884219D09DED7F
:10163000080B8DED040B9DED020B8DED000B10EEF4
:10164000900A059961F31E0005909DED041B9DED28
:10165000020B51EC110B53EC102BFEF71BFFCDE9E5
:1016600002019DED020B0AB010BD012000F028F828
:101670000AB0BDE8104000F003B800000000E0FF31
:101680009FED050B10B553EC102B51EC100BFEF732
:1016900076FF41EC100B10BD0000000000000000C0
:1016A00002E008C8121F08C1002AFAD1704770472B
:1016B000002001E001C1121F002AFBD17047000089
:1016C00001490860704700007401002010B504460D
:1016D000206D804784ED100AD4ED100AB2EE061A90
:1016E00060EE810AB0EE600AFFF7F8F884ED110AA7
:1016F00010BD00002DE9FF5F82B00021DDE904305C
:10170000020DDDF840B0034318D044F61050A2F2A9
:10171000FF3242431514119801281FD0A5EB0B008E
:10172000401C5FEA000A4FF000064E4FDFF8389188
:10173000B046504615D5CAF1000413E011980124B3
:101740004AA3012801D16FEA0B010298119AC0E95E
:101750000031C0E9024206B0BDE8F09FCBF10000C5
:10176000DFE704460021404A491842EB0450CDE926
:10177000001012E0E00707D032463B46404649469B
:10178000FEF78BFE8046894632463B461046194698
:10179000FEF783FE06460F466410002CEAD1DDE911
:1017A0000401DDE90023BAF1000F06DAFEF775FE49
:1017B00042464B46FEF771FE05E0FEF7E0FE42466C
:1017C0004B46FEF7DCFE04460E460022284BFEF791
:1017D000A1FF03D84FF0FF30014607E00022254B60
:1017E00020463146FEF7B2FDFEF77BFF102409E0EC
:1017F000002C0ADB0A220023FEF740FD039B303257
:101800001A55641E50EA0102F2D1641C039AC4F115
:1018100011031444119A012A03D0012208430DD167
:101820000AE0084304D000204FF0110B119072E73A
:10183000A3EB0B056D1E0DE05B4504DD4FF00002D0
:1018400005F1010504E003DA4FF00002A5F10105FE
:10185000002AECD002981199C0E90231C0E9004594
:1018600079E70000000014400000F03F3000000065
:101870000000F0430000E03F2DE9FF4F95B09A468D
:10188000884606460025EEE1252877D10024274624
:10189000F94A0121039400E0044316F8013F203B7C
:1018A00001FA03F01042F7D130782A2811D06FF0F6
:1018B0002F033078A0F13002092A16D8039A44F099
:1018C000020402EB820203EB42021044761C0390F6
:1018D000EFE758F8042B0392002A03DA504244F44D
:1018E0000054039044F00204761C30782E2816D160
:1018F00016F8010F44F004042A280DD06FF02F02CF
:101900003078A0F13003092B09D807EB870302EBED
:101910004303C718761CF3E758F8047B761C30782D
:101920006C280FD006DC4C2817D068280DD06A2808
:1019300014D104E0742810D07A280FD10DE044F4BB
:1019400000140AE044F4801401E044F44014727876
:10195000824202D104F58014761C761C3078662809
:101960000BD013DC582877D009DC002875D0452827
:10197000F6D04628F4D047281AD193E118E063281E
:1019800035D0642879D0652812D18BE1702873D0C6
:1019900008DC6728F1D069286FD06E280DD06F2839
:1019A00006D1ACE073282CD0752874D0782853D099
:1019B0005246179990476D1C54E1C4F30250022817
:1019C00009D003280DD0D8F8001004280DD00D60E0
:1019D00008F1040846E1D8F80010EA17C1E90052FE
:1019E000F6E7D8F800100D80F2E70D70F0E718F870
:1019F000041B8DF8001000208DF80100EB4601203B
:101A000003E058F804BB4FF0FF3061074FF00001CE
:101A100002D40DE009F101018946B9420FDA81458E
:101A2000F8DB1BF809100029F4D108E009F10101E5
:101A300089468142FADB1BF809100029F6D1039888
:101A40005346A0EB090721463846179A00F080FA62
:101A5000284400EB090507E044E008E10DE01BF82D
:101A6000010B524617999047B9F10109F7D2534635
:101A700021463846179AF2E039E00A21C4F30252AF
:101A80004FF0000B0091022A06D058F8040BC11742
:101A9000032A09D00AE023E008F1070020F007023A
:101AA000F2E80201904605E000B2C117042A01D114
:101AB00040B2C117002906DA0A460021404261EB14
:101AC00002012D2202E0220504D52B228DF80420EC
:101AD000012203E0E20701D02022F7E7914657E018
:101AE0000A2100E010214FF0000B00910BE01021C3
:101AF0004FF0000B44F004040827009103E0082095
:101B00004FF0000B0090C4F30252022A05D058F89F
:101B1000040B0021032A08D008E008F1070020F098
:101B20000702F2E80201904603E080B2042A00D1E5
:101B3000C0B24FF0000922072AD53278702A07D0A8
:101B4000DDF800C08CF0100C5CEA0B0C05D00EE048
:101B500040228DF80420012208E050EA010306D05B
:101B600030238DF804308DF8052002229146009B29
:101B700083F0080353EA0B030AD150EA010201D1B2
:101B8000620705D530228DF804204FF001097F1E31
:101B90003278582A04D039A20C920CAA02920BE097
:101BA0003BA2F9E75B46009AFEF768FB0C9B9B5C47
:101BB000029A521E0292137050EA0102F2D1029868
:101BC00004A9081A00F1200B600702D524F4803420
:101BD00000E001275F4502DDA7EB0B0000E00020DD
:101BE00000EB0B01009003984944401A0390E00376
:101BF00006D453462146179A039800F0A9F90544E4
:101C0000002706E001A85246C05D179990476D1C59
:101C10007F1C4F45F6DBE0030CD553462146179A4F
:101C2000039800F095F9054404E0302052461799D6
:101C300090476D1C0099481E00900029F5DC08E0D3
:101C40000298029952460078491C029117999047D0
:101C50006D1CBBF10001ABF1010BF1DC5BE100F0AD
:101C600065F90544761C307800287FF40DAE19B074
:101C70002846BDE8F08F00000928010030313233DA
:101C800034353637383961626364656600000000B8
:101C900030313233343536373839414243444546A2
:101CA00000000000600700D4062708F1070020F0BC
:101CB0000700F0E80223804603F0004C5FEA0C00C6
:101CC00001D097A009E0200501D596A005E0E00726
:101CD00001D095A001E0AFF24C001390307823F0D2
:101CE000004365280CD006DC452809D046281DD0C5
:101CF00047287FD13BE0662818D067287AD136E0A4
:101D00000021112F01DB112000E0781CCDE900013A
:101D100004A90CA8FFF7EEFCDDE90D010C9A4FF0C9
:101D2000000B07F10109109200914EE04FF00040C6
:101D30000097CDE9011004A90CA8FFF7DBFCDDE951
:101D40000D020C9B0F994FF0000B914610930092DF
:101D500011B9791C00EB0109B7EB090003D4C0F1FC
:101D6000FF3B07F10109A9EB0700019042E0012FB9
:101D700000DA01270021112F01DD112000E0384693
:101D8000CDE9000104A90CA8FFF7B4FCDDE90D01C1
:101D90000C9A00914FF0000BB946109221070FD416
:101DA000009A4A4503DA914601E0A9F10109B9F127
:101DB000010F05DD109AA9F10101515C3029F4D021
:101DC000B84202DA10F1040F03DA0121CDE9011063
:101DD00010E0002803DC8344A9EB000102E0411C71
:101DE000494500DD8946A0EB0B00401C01904FF0F7
:101DF00000400290200705D40198484502DB4FF0CF
:101E0000FF30019000208DF84B0002980DF14B0738
:101E1000B0F1004F25D002200C902B200D9002989D
:101E200000280CDA404202902D200D9007E00A2194
:101E30000298FEF70DFA3031029007F8011D0C9957
:101E4000481E0C900029F2DC02980028EFD1791E80
:101E50000D980870307800F0200040F0450007F839
:101E6000020D11A8C01BC01D02901398007800B18C
:101E7000012000EB0901019801EBE0710298014497
:101E80000398401A401E0390E00306D453462146AF
:101E9000179A039800F05CF805441398007818B17D
:101EA0005246179990476D1CE00323D553462146AF
:101EB000179A039800F04CF805441BE0BBF1000FA3
:101EC00007DB0098584504DD1098179910F80B00AF
:101ED00001E0179930205246904701980BF1010B11
:101EE000401E05F10105019004D12E20524617999C
:101EF00090476D1CB9F10001A9F10109DEDC05E094
:101F000017F8010B5246179990476D1C0299481E0D
:101F100002900029F4DC53462146179A03989EE666
:101F20002D0000002B000000200000002DE9F041F2
:101F3000044600251E461746880404D405E03946A9
:101F40002020B0476D1C641EF9D52846BDE8F081FD
:101F50002DE9F041044600251E469046C80301D5F0
:101F6000302700E02027880404D505E041463846A4
:101F7000B0476D1C641EF9D52846BDE8F0810B788A
:101F8000426863F3082242604B78826863F341023F
:101F900082608B78826863F3CB228260CA78521E9B
:101FA000C36A62F31753C362704700210170417026
:101FB00081700121C1707047816821F008010831EA
:101FC0008160704701468868C0F3C00008B10120F5
:101FD00070470020FCE7816821F00401091D816041
:101FE000704701468868C0F3800008B1012070473F
:101FF0000020FCE70349096860F31341014A1160BE
:102000007047000004240140826861F30822826066
:102010007047826861F300028260704770B50446C1
:102020000A290CDA206901EB41060725B540A843CF
:1020300001EB410503FA05F5284320610FE0E06854
:10204000A1F10A0505EB45060725B540A843A1F116
:102050000A0505EB450503FA05F52843E0600D2A5E
:1020600010DBE06AA2F10D0505EB85061F25B540E2
:10207000A843A2F10D0505EB850501FA05F52843F6
:10208000E0621EE0072A0EDB206BD51F05EB8506FC
:102090001F25B540A843D51F05EB850501FA05F5B9
:1020A000284320630DE0606B551E05EB85061F2558
:1020B000B540A843551E05EB850501FA05F52843F3
:1020C000606370BD07290ADD836823F0007303F1A4
:1020D00000738360836861F35343836007E0836820
:1020E00023F000738360836861F3534383608368E4
:1020F00062F3145383607047426861F3CB224260FD
:102100007047000070B52DED068B82B00446204666
:1021100001F09CFB4FF47A7000F03AFD9FED2C0A21
:10212000B0EE408A0A252046FFF7D0FA00261AE0D2
:102130002046FFF7CBFA94ED110A10EE101A08466C
:10214000FEF73EF841EC190B53EC192B21A0FFF7D9
:10215000DFF994ED110A30EE080AB0EE408A0A2049
:1021600000F016FD761CAE42E2DB00EE105AB8EE2F
:10217000C00AC8EE000AC4ED130A204600F01EFF94
:1021800094ED120A10EE101A0846FEF719F841EC09
:10219000190B94ED130A10EE101A0846FEF710F80A
:1021A00041EC1A0B8DED009B53EC1A2B10A0FFF79E
:1021B000AFF994ED120AB5EEC00AF1EE10FA03D1B0
:1021C000217A17A0FFF7A4F902B0BDEC068B70BD11
:1021D000000000005F656C656374726963616C4147
:1021E0006E676C65203A20256C660D0A00000000C1
:1021F00070464F432D3E7A65726F206973203A20F6
:1022000025662C2070464F432D3E636F72725F61CE
:102210006E676C65206973203A20256C660D0A0094
:102220006D6F746F7220256420616E676C655F69E5
:102230006E6974204F4B20210D0A0000002800DD3C
:102240007047094931F8101059B1084951F8201068
:10225000C968054A32F810205140044A52F820203B
:10226000D16000BFECE700001C0100201801002035
:1022700030B5024600200023146824F002041460E4
:10228000146824F00104641C146000E05B1C5468B2
:1022900004F001041CB94FF6FF74A342F6D1546850
:1022A00004F00104002C3FD04D78146865F3C71486
:1022B00014608D78146865F386141460CD78146802
:1022C00065F3451414600D79146865F30414146003
:1022D0004D79146865F3C30414608D79146865F34F
:1022E000820414600C78D56964F39E75D5610C780E
:1022F0006508D46965F3DF74D461146824F00104BF
:102300001460002300E05B1C546804F001041CB15D
:102310004FF6FF74A342F6D1546804F001040CB1E7
:10232000002002E0012000E0002030BD30B5024670
:1023300000200023146824F002041460146824F0C0
:102340000104641C146000E05B1C546804F0010488
:102350001CB94FF6FF74A342F6D1546804F001048F
:102360005CB30C88641ED56964F30B05D5618D7868
:10237000D46965F31964D461CD78D46965F31344E5
:10238000D4610D79D46965F31654D461146824F0CE
:1023900001041460002300E05B1C546804F0010495
:1023A0001CB14FF6FF74A342F6D1546804F0010447
:1023B0000CB1002002E0012000E0002030BD00212F
:1023C00041708170C17001714171817101707047FC
:1023D00030B50022CC78012303FA04F2D0F80032A1
:1023E00023F001035B1CC0F80032D0F81C32934389
:1023F000C0F81C320B7913B1012B5AD12CE0D0F864
:102400000C329343C0F80C328B891C04CD7800F554
:10241000107343F83540CC7853F834300C8923439B
:10242000CD7800F5107444F835304B891C04CD7814
:1024300000F5107303EBC5035C60CC7800F51073F6
:1024400003EBC4035B68CC882343CD7800F510749C
:1024500004EBC50463602DE0D0F80C321343C0F8E0
:102460000C32CB881C04CD7800F5107343F835404E
:10247000CC7853F834300C892343CD7800F51074B0
:1024800044F835304B891C04CD7800F5107303EB0C
:10249000C5035C60CC7800F5107303EBC4035B6884
:1024A0008C892343CD7800F5107404EBC504636078
:1024B00000E000BF00BF4B7813B1012B0CD105E049
:1024C000D0F804329343C0F8043206E0D0F8043266
:1024D0001343C0F8043200E000BF00BF8B7813B193
:1024E000012B0CD105E0D0F814329343C0F814321C
:1024F00006E0D0F814321343C0F8143200E000BFF5
:1025000000BF0B783BB1012B0BD1D0F81C32134329
:10251000C0F81C3206E0D0F81C329343C0F81C32DD
:1025200000E000BF00BFD0F8003223F00103C0F884
:10253000003230BD0246002012296FD2DFE801F0E0
:102540006E090D11151D2125292D35393D45494DA2
:10255000515D936903F0010062E09369C3F34000A9
:102560005EE09369C3F380005AE09369C3F30213FA
:102570000BB1012000E0002052E05368C3F380005B
:102580004EE0936803F001004AE09368C3F3002033
:1025900046E09368C3F3004042E0D36803F00303CE
:1025A0000BB1012000E000203AE0D368C3F3C00083
:1025B00036E0D368C3F3001032E0136903F003037D
:1025C0000BB1012000E000202AE01369C3F3C00032
:1025D00026E01369C3F3001022E05368C3F3C00080
:1025E0001EE05368C3F340031BB95368C3F30013E1
:1025F0000BB1012000E0002012E09368C3F3806378
:102600003BB99368C3F3C0631BB99368C3F300730A
:102610000BB1012000E0002002E0FFE7002000BF36
:1026200000BF70471AB143690B43436102E043693D
:102630008B434361704730B505460C46134605F59C
:10264000D87000EB04100068C0F380001872187A8C
:1026500010B1012813D107E005F5D87000EB041084
:102660000068400D18600BE005F5D87000EB041011
:1026700000686FF0604101EAD000586000E000BFE0
:1026800000BF05F5D87000EB04100068C0F34000EF
:10269000587205F5D87000EB0410406800F00F0088
:1026A000987205F5D87000EB04104068000AD874E1
:1026B00005F5D87000EB04108068D87205F5D87065
:1026C00000EB04108068010A197305F5D87000EB5F
:1026D00004108068010C597305F5D87000EB0410E4
:1026E0008068010E997305F5D87000EB0410C0687E
:1026F000D87305F5D87000EB0410C068010A19748E
:1027000005F5D87000EB0410C068010C597405F58C
:10271000D87000EB0410C068010E99742146284659
:1027200000F001F830BD11B1012906D102E02022EC
:10273000C26003E02022026100E000BF00BF7047DA
:1027400090ED070AB1EE400A80ED070A90ED080A05
:10275000B1EE400A80ED080A90ED070A80ED050A07
:1027600090ED070AD0ED080AB0EE001A01EE200A3B
:10277000DFED030A20EE200A80ED060A7047000014
:1027800056CE133F0649496860F38F31044A5160C1
:1027900082080349496862F31C71014A516070471D
:1027A000001002400349496860F30711014A516073
:1027B00070470000001002400349496860F30A2195
:1027C000014A516070470000001002400349496807
:1027D00060F3CD21014A51607047000000100240B3
:1027E000012807D10749496D21F030013031054AF0
:1027F000516505E00349496D21F03001014A5165F9
:102800007047000000100240052827D2DFE800F0E2
:10281000030A11181F00134A126861F30002114BDA
:102820001A601CE00F4A126861F310420D4B1A60E7
:1028300015E00C4A126861F318620A4B1A600EE048
:10284000084A126A61F30002064B1A6207E0054A61
:10285000526A61F30002034B5A6200E000BF00BFFE
:1028600070470000001002402DE9F04101460027AA
:102870000022002590460023002400F065F906465A
:1028800026B1012E12D0022E43D112E03948406DFC
:10289000C0F3402038B13748006BC0F3406010B13E
:1028A0003548086001E03548086035E03348086085
:1028B00032E030484068C0F300482E484068C0F31A
:1028C00083422C484068C0F341750DB90F2A03D1EB
:1028D0002801401C024400E0921CB8F1000F03D113
:1028E00027485043086013E022484068C0F3404046
:1028F00058B12048406DC0F30137B81CDFF87CC0E8
:10290000BCFBF0F05043086002E01C4850430860F4
:1029100002E01A48086000BF00BF16484068C0F3D4
:1029200003131848C45C0868E040486011484068D8
:10293000C0F302231448C45C4868E040C8600D48F6
:102940004068C0F3C2231148C45C4868E040886016
:1029500008484068C0F3007306484068C0F38130FF
:1029600040EA83030A48C45C8868B0FBF4F008615D
:10297000BDE8F08100100240006CDC0200127A0019
:1029800000093D00284C0008384C0008404C000865
:10299000484C000810B501460020094B03EB1142DA
:1029A000126801F01F040123A3401A4001F01F0424
:1029B0000123A3409A4200D000E0012010BD000096
:1029C0000010024030B50024002500E0641C1120F6
:1029D000FFF7E0FF012802D0B4F5405FF6D31120E5
:1029E000FFF7D8FF012801D0002500E00125284687
:1029F00030BD000010B501290DD10E4B03EB104284
:102A0000126800F01F040123A3401A43094C04EB91
:102A100010431A600CE0074B03EB1042126800F001
:102A20001F040123A3409A43024C04EB10431A6095
:102A300010BD00000010024010B568B91C4B5B6867
:102A400023F480331A4C636023461B6B23F000731E
:102A500003F10073236317E0154B5B6823F48033A5
:102A600003F58033124C6360012805D123465B686F
:102A700023F40033636007E00D4B5B6823F40033FD
:102A800003F500330A4C6360094B5B6861F39543BF
:102A9000074C63600C09064B5B6864F35E73044C7F
:102AA000636023465B6862F3DF73636010BD000000
:102AB000001002401348006820F00100401C11493A
:102AC000086000BF0F480068C0F340000028F9D03C
:102AD0000C48406820F003000A49486000BF0948DC
:102AE0004068C0F381000028F9D106480068064913
:102AF0000840044908600020486008634FF41F0044
:102B00008860704700100240FFFFF2FE0D494968DF
:102B100060F301010B4A516000BF00BF00BF00BF5E
:102B200000BF00BF00BF00BF00BF00BF00BF00BFAD
:102B300000BF00BF00BF00BF00BF00BF00BF00BF9D
:102B4000704700000010024002484068C0F3810056
:102B5000704700000010024010B5042000F05CFF38
:102B6000074800680749B0FBF1F0074908600846CC
:102B700000684FF47A7148430449086010BD0000B2
:102B80000C00002040420F00100000201400002024
:102B9000002131E032280ADD194A126832235A43F3
:102BA0004FF0E0235A61A0F1320290B206E0144ADD
:102BB000126842434FF0E0235A61002000224FF098
:102BC000E0239A611A46126942F001021A6100BFBD
:102BD0004FF0E022116901F001021AB101F48032D4
:102BE000002AF5D04FF0E022126922F001024FF0E6
:102BF000E0231A6100229A610028CBD170470000BF
:102C000014000020026861F3000202607047002196
:102C10000160416001814181017341738173C1731E
:102C2000017441747047D0F8A430C3F300633BB91A
:102C3000D0F8A43023F0807303F18073C0F8A4307F
:102C4000012906D1D0F8A03062F30703C0F8A03004
:102C500034E0022906D1D0F8A03062F30F23C0F887
:102C6000A0302BE0032906D1D0F8A03062F317433F
:102C7000C0F8A03022E0042906D1D0F8A03062F3D9
:102C80001F63C0F8A03019E0052906D1D0F8A430A0
:102C900062F30703C0F8A43010E0062906D1D0F88B
:102CA000A43062F30F23C0F8A43007E0072905D150
:102CB000D0F8A43062F31743C0F8A430704702681C
:102CC0004BF6EF731A40026002680B891A430260E8
:102CD0004B7C026863F30D320260CB7B026863F3C6
:102CE0008B2202608B7B026863F3092202604B7BBC
:102CF000026863F3C71202600B7B026863F38612FB
:102D000002600B7C026863F3451202604A894260EC
:102D10000A6882604A68C260704700000021026849
:102D200022F0010202600022026042608260C26002
:102D3000014640F2FF420A40B2F5816F0DD2CAB29D
:102D4000083A1423B2FBF3F293000F229A400D4B82
:102D50005B681A430B4B5A6012E040F2FF420A4094
:102D6000B2F5916F0CD2CAB2083A1423B2FBF3F257
:102D700093000F229A40044B1B681A43024B1A60BF
:102D8000704700000000024004040240F0EE400AD8
:102D90009FED270A20EE800ABDEEC00A10EE100A51
:102DA00000EE100AB8EEC01ADFED221AB0EE600A8B
:102DB00001EE610AF0EE400A00F0010179B1F5EE92
:102DC000C00AF1EE10FA04DD9FED1A0A30EEC00AD7
:102DD00003E09FED180A30EE800AF0EE400A20EE84
:102DE000A00ADFED151AB0EE611ADFED141A41EEFC
:102DF000001AB0EE611ADFED121A41EE001AB0EEC1
:102E0000611ADFED101A41EE001AB0EE611ADFED23
:102E10000E1A41EE001AB0EE611ADFED0C1A41EE07
:102E2000001A20EEA01AB7EE000A01EE210A704740
:102E300083F9A23EDA0F4940F2A3ED30017591B457
:102E4000B3CCCF371408B6BA83AA2A3DFDFFFFBE24
:102E5000F0EE400A9FED280A20EE800ABDEEC00A7F
:102E600010EE100A00EE100AB8EEC01ADFED231AB9
:102E7000B0EE600A01EE610AF0EE400A00F00101D6
:102E800079B1F5EEC00AF1EE10FA04DD9FED1B0AF0
:102E900030EEC00A03E09FED190A30EE800AF0EE32
:102EA000400A20EEA00ADFED161AB0EE611ADFED3F
:102EB000151A41EE001AB0EE611ADFED131A41EE59
:102EC000001AB0EE611ADFED111A41EE001AB0EEF1
:102ED000611ADFED0F1A41EE001AB0EE611ADFED54
:102EE0000D1A41EE001A20EEA00A20EE201AB0EED4
:102EF000600A01EE210A704783F9A23EDA0F4940C9
:102F00007ABF142FCA32D4B235C538369E0A50B9AA
:102F10007888083CAAAA2ABE10B504460020608022
:102F2000208000BF1BE0217A01290AD16188134A61
:102F30001288114461802188104A528811442180EE
:102F40000CE0217A022909D161880D4A12881144C6
:102F5000618021880A4A528811442180401C10282F
:102F6000E1DB20880011A08060880011E080E38808
:102F7000A288217A0348FEF7CBFA10BD1800002082
:102F80001C000020604C000870B504460D4600BFD0
:102F90008021094800F0B7FE0028F9D0A1B2064808
:102FA00000F0A8FE00BF4021034800F0ACFE00285E
:102FB000F9D0204670BD00000038014010B52DED5D
:102FC000048B04462046FEF781FBD4ED110A94EDF4
:102FD000131A70EEC10AB0EE600AFDF77FFC84EDB3
:102FE000120A94ED120ADFED120A30EE600A10EEBA
:102FF000101A0846FDF7E4F841EC190BB0EE490A47
:10300000F0EE690AFEF7B0FAB0EE408AF0EE608AA0
:103010009FED080B53EC102B51EC180BFDF7E4F867
:1030200003D29FED060A84ED120ABDEC048B10BD9D
:10303000D00FC9408DEDB5A0F7C6B03E000000002E
:1030400041617047016170474FF6FF7101600021D7
:1030500081710171042141710121C1717047F0B585
:103060000A461588ABB29579032D01D100241AE0E8
:10307000957965B9557905F00F045579182D01D169
:10308000036110E05579282D0DD143610BE095794E
:1030900005F00805167906F004063543D67906F0E2
:1030A000030645EA0604DDB2A5B1002110E00125C2
:1030B0008D401D405DB105688F000F26BE40B543B1
:1030C000056005688E0004FA06F635430560491C64
:1030D0000829ECD3FF2B15DD1B12002110E0012580
:1030E0008D401D405DB145688F000F26BE40B54341
:1030F000456045688E0004FA06F635434560491C74
:103100000829ECD3F0BD0000F0B50C46104F07EBDA
:103110001062C0F30741C0F30725C6B2C5F120070E
:10312000A7EB010C4FF0FF3707FA0CF3C5F12007AE
:103130007F1AFB40CB408B4017689F4317602CB130
:1031400006FA01FC176847EA0C071760F0BD00009B
:103150000000014090ED030AF1EE080A30EE200A6B
:1031600080ED090A90ED030AD0ED040A9FED101AD4
:1031700011EE200AB0EE001AC0EE010AB1EE080A04
:1031800030EE800A80ED0A0A90ED030AD0ED040AC1
:103190009FED081A11EE200AB0EE001AC0EE010AE7
:1031A000B1EE080A30EE800A80ED0B0A704700008D
:1031B0002DB2DD3F2DB2DDBF10B52DED028B0446E3
:1031C000D4ED120AB0EE600AFFF742FED4ED0C0A0D
:1031D000F1EE600A20EE208AD4ED120AB0EE600A09
:1031E000FFF7D4FDD4ED0D0A00EE808A84ED038A4A
:1031F000D4ED120AB0EE600AFFF7C8FDD4ED0C0A58
:1032000020EE208AD4ED120AB0EE600AFFF720FE0D
:10321000D4ED0D0A00EE808A84ED048ABDEC028BA9
:1032200010BDF0EE401AF4EEC11AF1EE10FA02DB16
:10323000B0EE410A7047F4EEE01AF1EE10FA02D84F
:10324000B0EE600AF6E7B0EE610AF3E72DED068B0B
:1032500084B001F089F901F063F800F057FF00F045
:10326000EBFF01F0CDF900F059FF0223414A42493A
:10327000424800F0A3FF01214048FFF7C3FC00F0E3
:1032800075FF02233E4A3F493C48143000F096FF48
:1032900001213A481430FFF7B5FC01F033FC01F08E
:1032A0007BFC01F091F801F0F7F800F0D7FD00F099
:1032B00037FE01F0C7F901F0DBFA01F0FBFA01F08B
:1032C000FFFB00F08DFE00F07DFFFFF745FCFDF7F2
:1032D000FBFC41F27070FDF7D1FB41F27070FDF71D
:1032E000D9FB0A20FFF754FC27480068FFF714FEBB
:1032F00026480068FFF710FE23480068FEF702FF2B
:1033000001221146224800F0C9FB01221146214842
:1033100000F0C4FB2CE02048006890ED040A10EE99
:10332000101A0846FCF74CFF41EC180B1A480068CD
:1033300090ED030A10EE101A0846FCF741FF41EC2D
:10334000190B1548006890ED020A10EE101A084695
:10335000FCF736FF41EC1A0B8DED028B8DED009BD7
:103360000D480068017953EC1A2B0CA0FEF7D0F839
:10337000D1E700001C0000204C3C01400800024046
:10338000180000204C240140B80000201401002047
:10339000000C0040000400406C01002025642C2536
:1033A0006C662C256C662C256C660D0A00000000EE
:1033B0002DE9F0470B4614464FF0000C00BF2C4A95
:1033C0001268C2F302211D4626460A46C2F10709C9
:1033D000B9F1040F02D94FF0040901E0C2F1070965
:1033E000C84602F10409B9F1070F02D24FF00009F3
:1033F00001E0A2F103094F464FF0010909FA08F96B
:10340000A9F1010909EA050909FA07F94FF0010ACA
:103410000AFA07FAAAF1010A0AEA060A49EA0A09B7
:10342000CC4601466246002904DB15072E0E114DDD
:103430006E5407E015072F0E0D4D0C3501F00F06E9
:10344000361FAF5500BF014600290DDB00BF00BF8E
:1034500001F01F050122AA404D09AD0005F1E0254C
:10346000C5F8002100BF00BF00BFBDE8F087000025
:103470000CED00E000E400E000BF00F00702064BA6
:1034800019684FF6FF031940044B0B4343EA02212E
:10349000014B196000BF70470CED00E00000FA0519
:1034A00010B52DED028B0446D4ED120AB0EE600A81
:1034B000FFF76CFCD4ED050A20EE208AD4ED120A49
:1034C000B0EE600AFFF7C4FCD4ED060A00EE808A75
:1034D00084ED0F8AD4ED120AB0EE600AFFF7B8FC53
:1034E000D4ED050AF1EE600A20EE208AD4ED120A2E
:1034F000B0EE600AFFF74AFCD4ED060A00EE808ABF
:1035000084ED0E8ABDEC028B10BD70B505460C46ED
:10351000D4ED041AB0EE611AD4ED031AF0EE610A8C
:10352000D4ED021AB0EE610A686D804770BD0000EC
:1035300010B52DED048B0446D4ED090AB0EE600AF7
:10354000B2EE081ADFED2F0AFFF76BFE84ED090AD1
:10355000D4ED0A0AB0EE600AB2EE081ADFED290ACD
:10356000FFF75FFE84ED0A0AD4ED0B0AB0EE600AA5
:10357000B2EE081ADFED230AFFF753FE84ED0B0AC3
:1035800094ED090AF2EE080A80EE201AF0EE419A54
:10359000B7EE001ADFED1B0AB0EE690AFFF741FE35
:1035A000B0EE408A94ED0A0AF2EE080A80EE201A84
:1035B000F0EE419AB7EE001ADFED120AB0EE690A9A
:1035C000FFF72FFEF0EE408A94ED0B0AF2EE080AA8
:1035D00080EE201AF0EE419AB7EE001ADFED090AEC
:1035E000B0EE690AFFF71DFEB0EE409AB0EE491A40
:1035F000F0EE680AB0EE480A606D8047BDEC048BBF
:1036000010BD00000000000010B52DED048BB0EEE1
:10361000408AF0EE608AB0EE419A9FED130A28EEE0
:10362000000ABCEEC00A10EE102A04210F4800F078
:103630000FFA9FED0D0A28EE800ABCEEC00A10EECC
:10364000102A0221094800F003FA9FED070A29EE2B
:10365000000ABCEEC00A10EE102A0021034800F058
:10366000F7F9BDEC048B10BD0080BB45000800409D
:1036700010B52DED048BB0EE408AF0EE608AB0EE0E
:10368000419A9FED140A28EE000ABCEEC00A10EE23
:10369000102A06214FF0804000F0DAF99FED0D0A64
:1036A00028EE800ABCEEC00A10EE102A022148075C
:1036B00000F0CEF99FED070A29EE000ABCEEC00A21
:1036C00010EE102A00214FF0804000F0C1F9BDEC4F
:1036D000048B10BD0080BB45026861F34D3202606F
:1036E0007047026961F30F020261704700210170A7
:1036F00041708170C1700171417181710121C1718D
:103700007047026861F38612026070470146C8681C
:1037100080B27047C16070470246002093680B403A
:1037200003B900E001207047C26922F40062C2615F
:103730000A7862B9026822F400420260026822F448
:1037400080420260026822F48062026036E00A78F9
:10375000012A0ED1026822F400420260026822F4BB
:1037600080420260026822F4806202F58062026098
:1037700024E00A78022A0ED1026822F4004202F5FF
:1037800000420260026822F480420260026822F471
:103790008062026012E00A78032A0FD1026822F4E4
:1037A000004202F500420260026822F4804202F503
:1037B00080420260026822F480620260CB79026873
:1037C00063F3492202604A78012A09D1CA79012AA1
:1037D00006D1026822F4807202F58072026003E072
:1037E000026822F4807202604B78026863F38202FE
:1037F00002608A78072A0BDD426822F4807202F5A3
:10380000807242608A78036862F3C503036008E04F
:10381000426822F4807242608B78026863F3C502CA
:103820000260CB78026863F3C71202600B7902680A
:1038300063F3CB2202604B79026863F341020260BA
:103840008B79026863F300020260704710B504468A
:10385000B0EE000A84ED0D0A9FED080A84ED0C0A13
:10386000204600F00DF82046FFF7A6FC2046FFF7A3
:1038700071FC2046FFF75CFE10BD00000000000058
:1038800010B52DED048B04469FED210A84ED100A3E
:10389000D4ED100AB2EE061A60EE810AB0EE600AAC
:1038A000FDF71CF884ED110AD4ED110A94ED131AFA
:1038B00070EEC10AB0EE600AFDF710F884ED120A4E
:1038C00094ED120ADFED130A30EE600A10EE101AC2
:1038D0000846FCF775FC41EC190BB0EE490AF0EE16
:1038E000690AFDF741FEB0EE408AF0EE608A9FED76
:1038F0000A0B53EC102B51EC180BFCF775FC03D2A0
:103900009FED030A84ED120ABDEC048B10BD00008C
:1039100000000000D00FC9408DEDB5A0F7C6B03E45
:103920002DE9F0470026002400250027A046A146E7
:10393000FFF70AF98246BAF1000F06D0BAF1010F7B
:1039400015D0BAF1020F46D115E02D48406DC0F3F5
:10395000402040B12A48006BC0F3406018B12948AC
:103960002949086002E029482749086037E02748CC
:103970002549086033E022484068C0F300472048EA
:103980004068C0F383441E484068C0F341750DB9D8
:103990000F2C03D12801401C044400E0A41C27B9CB
:1039A0001B4860431849086014E015484068C0F39C
:1039B000404058B11248406DC0F30136B01C134965
:1039C000B1FBF0F060431049086003E00F4860432A
:1039D0000D49086003E00D480B49086000BF00BFB7
:1039E00007484068C0F303180A4810F808900648D2
:1039F000006820FA09F004490860BDE8F08700007B
:103A000000100240006CDC020C00002000127A0062
:103A100000093D00504C0008042808D14FF0E02177
:103A2000096941F004014FF0E022116107E04FF015
:103A3000E021096921F004014FF0E0221161704793
:103A4000C1628262436923F001035B1C43617047DA
:103A50000B4633B1022B06D0042B06D0062B08D11F
:103A600005E0426306E0826304E0C26302E00264B0
:103A700000E000BF00BF7047026861F309220260E6
:103A80007047026861F3061202607047026861F3D2
:103A9000000202607047CA4302617047012A03D1E5
:103AA000C3680B43C36003E012B9C3688B43C360B0
:103AB000704710B50B4633B1022B09D0042B0CD044
:103AC000062B14D10EE0846962F3C30484610FE015
:103AD000846962F3CB2484610AE0C46962F3C3049D
:103AE000C46105E0C46962F3CB24C46100E000BF97
:103AF00000BF10BD2DE9F04100250026002701F18F
:103B000008035C1C92F801C00CFA03FC1FFA8CF548
:103B100092F802C00CFA04FC1FFA8CF6D0F804C02C
:103B20004FF0010808FA04F82CEA080CC0F804C0A9
:103B3000D0F804C04CEA060CC0F804C0D0F804C0A9
:103B40004FF0010808FA03F82CEA080CC0F804C08A
:103B5000D0F804C04CEA050CC0F804C00F4637B1D9
:103B6000022F0DD0042F14D0062F24D11AE092F882
:103B70000080D0F818C068F3061CC0F818C01BE01D
:103B800092F80080D0F818C068F30E3CC0F818C056
:103B900012E092F80080D0F81CC068F3061CC0F850
:103BA0001CC009E092F80080D0F81CC068F30E3CFD
:103BB000C0F81CC000E000BF00BF4FF0010C0CEBD0
:103BC00041034FF0030C0CEB410492F803C00CFAD4
:103BD00003FC1FFA8CF592F804C00CFA04FC1FFADF
:103BE0008CF64FF0010808FA04F8D0F820C02CEA4F
:103BF000080CC0F820C0D0F820C04CEA060CC0F871
:103C000020C04FF0010C0CFA03FCD0F8208028EA09
:103C10000C08C0F82080D0F820C04CEA050CC0F891
:103C200020C04B004FF0020C0CEB410492F805C091
:103C30004FEA41080CFA08FC1FFA8CF592F806C00E
:103C40004FF0020808EB41080CFA08FC1FFA8CF64A
:103C50004FF0010808FA04F8D0F820C02CEA080C4C
:103C6000C0F820C0D0F820C04CEA060CC0F820C034
:103C70004FF0010808FA03F8D0F820C02CEA080C2D
:103C8000C0F820C0D0F820C04CEA050CC0F820C015
:103C9000BDE8F08110B50B4633B1022B09D0042BDF
:103CA0000CD0062B14D10EE0846962F38204846187
:103CB0000FE0846962F38A2484610AE0C46962F3D4
:103CC0008204C46105E0C46962F38A24C46100E02F
:103CD00000BF00BF10BD026861F3C71202607047E9
:103CE000426861F3061242607047826861F3C7124E
:103CF00082607047C1F3080242607047C26861F396
:103D00004D32C260704702461068084008B1012079
:103D100070470020FCE741B9426922F48072426199
:103D2000426922F40072426127E001290AD1426906
:103D300022F4807202F580724261426922F40072BC
:103D400042611AE002290AD1426922F4807242617A
:103D5000426922F4007202F5007242610DE003290B
:103D60000BD1426922F4807202F58072426142698D
:103D700022F4007202F50072426170472DE9F043AF
:103D800085B004460F46904699466846FEF76CFD9E
:103D90001748844205D01748844202D0164884420E
:103DA00001D1029E00E0039E06EB86004000B0FBBE
:103DB000F7F50A20B5FBF0F100FB1150052803D2FE
:103DC0000A20B5FBF0F503E00A20B5FBF0F0451C36
:103DD000A06865F30F00A060E06868F30C30E06055
:103DE000206969F30D30206105B0BDE8F083000063
:103DF00000380140006001400064014041B9C268E0
:103E000022F40072C260C26822F48062C2601AE0CA
:103E100001290AD1C26822F40072C260C26822F489
:103E2000806202F58062C2600DE002290BD1C26897
:103E300022F4007202F50072C260C26822F480624D
:103E400002F58062C2607047C26861F38202C2609C
:103E50007047C26861F3C302C26070470EB501A823
:103E6000FFF7F2F803208DF80A000120019001A964
:103E70002948FFF7F4F803208DF80A00022001908A
:103E800001A92548FFF7EBF80220FEF77BFC002094
:103E9000FEF7B0F86846FEF788F801208DF80000BC
:103EA00000208DF801008DF8020002208DF803003B
:103EB00069461A48FEF763F80023012208211748D3
:103EC000FEF7ACF80023022209211448FEF7A6F8F9
:103ED000012205211148FEF7F5F800210F48FEF7F1
:103EE0000BF901210D48FEF78FF801210B48FEF771
:103EF00090F80A48FEF760F800BF0848FEF762F83D
:103F00000028FAD10548FEF766F800BF0348FEF71F
:103F100068F80028FAD10EBD000C014000240140D1
:103F20000EB501A8FFF790F803208DF80A000120D4
:103F3000019001A92848FFF792F803208DF80A00A4
:103F40000220019001A92448FFF789F80220FEF71A
:103F500019FC6846FEF729F801208DF800000020C2
:103F60008DF801008DF8020002208DF803006946EB
:103F70001A48FEF704F80023012219461748FEF7F5
:103F80004DF80023022201211448FEF747F80122D0
:103F900011461248FEF796F800211048FEF7ACF8DB
:103FA00001210E48FEF730F801210C48FEF731F8E8
:103FB0000A48FEF701F800BF0848FEF703F800289A
:103FC000FAD10648FEF707F800BF0448FEF709F8E3
:103FD0000028FAD10EBD000000080140003C01405D
:103FE00000B58BB009A8FFF72FF802208DF82B0041
:103FF00000208DF8280008208DF82A004002099042
:1040000004208DF8290009A93E48FFF728F801206F
:104010008DF82B0000208DF828008DF82A004FF431
:104020000060099004208DF8290009A93548FFF7A0
:1040300016F807A8FEF7C3F900208DF81C008DF8CC
:104040001D0001208DF81E008DF81F0000208DF846
:1040500020008DF821008DF8220007A92A48FEF7DC
:1040600007F91E20ADF8140000208DF81600052079
:104070008DF8170000208DF8180005A92248FEF7DA
:1040800055F901208DF8040000208DF807008DF807
:1040900006008DF808008DF80500ADF80A00ADF8AF
:1040A0000C00ADF80E00ADF8100001A91648FEF79F
:1040B0008FF901208DF804008DF807008DF80600B7
:1040C00000208DF808008DF80500ADF80A00ADF865
:1040D0000C00ADF80E00ADF8100001A90A48FEF77B
:1040E00077F9012212210848FEF79CFA0122D10239
:1040F0000548FEF797FA0122D1030348FEF792FA2A
:104100000BB000BD000801400064004010B5012163
:104110000148FEF7F9FF10BD0203103000B585B06D
:104120001148FEF7FBFD6846FEF771FD0020ADF873
:10413000080001208DF80F008DF80D008DF80E009D
:1041400000208DF80C008DF8110001208DF8100072
:1041500069460548FEF7B3FD0322012102480838ED
:10416000FEF761FD05B000BD0800024000B585B056
:104170001148FEF7D3FD6846FEF749FD0020ADF873
:10418000080001208DF80F008DF80D008DF80E004D
:1041900000208DF80C008DF8110001208DF8100022
:1041A00069460548FEF78BFD0122022102481C38B2
:1041B000FEF739FD05B000BD1C0002404360816080
:1041C000C26070471CB56846FEF73EFF4FF4887129
:1041D0001748FEF735FF41F230011648FEF730FF71
:1041E00002208DF8070000208DF8040010208DF8C3
:1041F00006004FF48870009004208DF80500694691
:104200000B48FEF72CFF02208DF8070000208DF8E8
:10421000040010208DF8060041F2300000900420C8
:104220008DF8050069460348FEF719FF1CBD000024
:1042300000080140000C014070B50320FFF71CF995
:10424000FDF776F9054600221146FCF7BEFC044650
:1042500021466FF00B00FDF773F9FDF769F905468C
:1042600000221146FCF7B1FC044621466FF00A001B
:10427000FDF766F9FDF75CF9054600221146FCF7EB
:10428000A4FC044621466FF00900FDF759F9FDF73B
:104290004FF9054600221146FCF797FC04462146DB
:1042A0006FF00400FDF74CF9FDF742F905460022D6
:1042B0001146FCF78AFC044621466FF00300FDF727
:1042C0003FF9FDF735F9054600221146FCF77DFC64
:1042D000044621466FF00100FDF732F9FDF728F999
:1042E000054600220F21FCF770FC044621464FF0E2
:1042F000FF30FDF725F9002201211420FFF758F8BF
:10430000002201211620FFF753F8002201211D2071
:10431000FFF74EF8002204213220FFF749F870BD64
:1043200010B501214FF4A010FEF764FB01214FF4FA
:10433000C010FEF75FFB01212148FEF75BFB012166
:104340001F48401CFEF756FB01211D48C01CFEF70C
:1043500051FB01211A48C01DFEF74CFB01211848F2
:104360000A30FEF747FB012115480C30FEF742FBEF
:10437000012113480D30FEF73DFB01214FF4E01001
:10438000FEF738FB01210F48FEF734FB01210D48F1
:10439000401CFEF72FFB01210A48801CFEF72AFB78
:1043A000012108480D30FEF725FB01210548113099
:1043B000FEF720FB012103481830FEF71BFB10BD60
:1043C0000200180001001C001FB502A8FEF73CFE09
:1043D0006846FFF78BF902208DF80F0000208DF85A
:1043E0000C0008208DF80E002020029004208DF88B
:1043F0000D0002A92648FEF732FE02208DF80F00BC
:1044000000208DF80C008DF80E0040200290042052
:104410008DF80D0002A91E48FEF721FE02208DF83E
:104420000F0000208DF80C0008208DF80E00802071
:10443000029004208DF80D0002A91548FEF70FFE2A
:1044400000208DF8000001208DF8010000208DF87B
:1044500004008DF8030002208DF8020000208DF882
:10446000050001208DF806008DF80700694609480F
:10447000FFF75AF907210748FFF733F901210548EB
:10448000FFF72AF901210348FFF73BF91FBD0000A0
:1044900000080140003001401FB502A8FEF7D4FD1E
:1044A0006846FFF723F902208DF80F0000208DF8F1
:1044B0000C0008208DF80E008002029004208DF878
:1044C0000D0002A92648FEF7CAFD02208DF80F0054
:1044D00000208DF80C008DF80E004FF48040029003
:1044E00004208DF80D0002A91D48FEF7B8FD02203A
:1044F0008DF80F0000208DF80C0008208DF80E00BC
:104500000003029004208DF80D0002A91448FEF764
:10451000A6FD00208DF8000001208DF8010000208C
:104520008DF804008DF8030002208DF802000020B1
:104530008DF8050001208DF806008DF8070069460A
:104540000848FFF7F1F807210648FFF7CAF80121EC
:104550000448FFF7C1F801210248FFF7D2F81FBD58
:10456000000C01400038004010B5FEF7A3FA01210D
:104570000420FEF749F900BF2048FEF70BFA012896
:10458000FAD101210846FEF73FF900BFFEF71AFAFB
:104590000028FBD001210020FEF736F900BF0120E2
:1045A000FEF7F8F90128FAD101221D211046FEF785
:1045B00043FA01210220FEF727F900BF1920FEF778
:1045C000E9F90128FAD10020FEF7ECF80420FEF703
:1045D000FDF80420FEF7F0F80120FEF701F90220B3
:1045E000FEF794FA00BFFEF7AFFA0228FBD10020D5
:1045F000FEF7F6F8FFF794F910BD00000100240063
:1046000010B586B0002401A8FEF72EF9029C042004
:10461000FFF702FA0948B4FBF0F0094908600020EE
:104620004FF0E02188616FF07F40486108460069E3
:1046300040F00100086106B010BD000040420F00CC
:10464000080000201FB502A8FEF7FEFC042002901F
:1046500008208DF80E0000208DF80C0004208DF845
:104660000D0002208DF80F0002A97E48FEF7F7FC2E
:10467000082002908DF80E0000208DF80C00042018
:104680008DF80D0002208DF80F0002A97548FEF785
:10469000E6FC4FF40040029008208DF80E00002048
:1046A0008DF80C0004208DF80D0002208DF80F000D
:1046B00002A96C48FEF7D3FC082002908DF80E008A
:1046C00000208DF80C0004208DF80D0002208DF8DC
:1046D0000F0002A96448FEF7C2FC01216348FEF7FF
:1046E00013FD02214807FFF7CCF900214FF080406D
:1046F000FFF7C2F900214FF08040FFF7ECFA0022EB
:1047000041F26F714FF08040FFF79AF900214FF0AE
:104710008040FFF7EAFA00214FF08040FFF7E0FA0F
:1047200006208DF8000001208DF8050000208DF88E
:1047300006008DF803008DF804008DF801008DF857
:1047400002006A4600214FF08040FFF7D3F90022B3
:1047500011464FF08040FFF77BF9002211464FF0E1
:104760008040FFF7A6F9002211464FF08040FFF786
:1047700091FA06208DF8000001208DF80500002038
:104780008DF806008DF803008DF804008DF8010007
:104790008DF802006A4602214807FFF7ABF90022B4
:1047A00002214807FFF754F9002202214807FFF7CA
:1047B00080F9002202214807FFF76CFA06208DF8E5
:1047C000000001208DF8050000208DF806008DF80E
:1047D00003008DF804008DF801008DF802006A4690
:1047E00004210807FFF786F9002204210807FFF7D4
:1047F0002FF9002204210807FFF75BF900220421AA
:104800000807FFF747FA06208DF8000001208DF811
:10481000050000208DF806008DF803008DF80400D7
:104820008DF801008DF802006A4606214FF08040A5
:10483000FFF760F9002206214FF08040FFF708F9EA
:10484000002206214FF08040FFF733F900220621B5
:104850004FF08040FFF71EFA01218807FFF716F995
:104860001FBD000000080140000C014001020424AB
:1048700010B500210E48FFF704F900210C48FFF79E
:10488000FBF800210A48FFF726FA042240F65F11E0
:104890000748FFF7D5F800210548FFF726FA002161
:1048A0000348FFF71DFA01210148FFF7EFF810BD9B
:1048B000000400401FB502A8FEF7C6FB402002908E
:1048C00008208DF80E0000208DF80C0004208DF8D3
:1048D0000D0002208DF80F0002A97748FEF7BFFBFC
:1048E0008020029008208DF80E0000208DF80C002A
:1048F00004208DF80D0002208DF80F0002A96E48EB
:10490000FEF7ADFB4FF48070029008208DF80E008A
:1049100000208DF80C0004208DF80D0002208DF889
:104920000F0002A96448FEF79AFB4FF40070029052
:1049300008208DF80E0000208DF80C0004208DF862
:104940000D0002208DF80F0002A95B48FEF787FBDF
:1049500002215A48FFF795F800215848FFF78CF8D4
:1049600000215648FFF7B7F9002241F26F71534812
:10497000FFF766F800215148FFF7B7F900214F48CB
:10498000FFF7AEF906208DF8000001208DF8050034
:1049900000208DF806008DF803008DF804008DF8D6
:1049A00001008DF802006A4600214448FFF7A2F892
:1049B000002211464148FFF74BF8002211463F48BC
:1049C000FFF777F8002211463C48FFF763F906200D
:1049D0008DF8000001208DF8050000208DF80600FC
:1049E0008DF803008DF804008DF801008DF80200A9
:1049F0006A4602213148FFF77DF8002202212F4844
:104A0000FFF726F8002202212C48FFF752F8002277
:104A100002212A48FFF73EF906208DF80000012008
:104A20008DF8050000208DF806008DF803008DF844
:104A300004008DF801008DF802006A4604211F4829
:104A4000FFF758F8002204211C48FFF701F8002264
:104A500004211A48FFF72DF8002204211748FFF718
:104A600019F906208DF8000001208DF805000020BE
:104A70008DF806008DF803008DF804008DF8010014
:104A80008DF802006A4606210C48FFF733F8002231
:104A900006210A48FEF7DCFF002206210748FFF73F
:104AA00008F8002206210548FFF7F4F80121034821
:104AB000FEF7ECFF1FBD0000000C014000080040A5
:104AC00010B500210E48FEF7DCFF00210C48FEF770
:104AD000D3FF00210A48FFF7FEF8092245F6BF512F
:104AE0000748FEF7ADFF00210548FFF7FEF800215B
:104AF0000348FFF7F5F801210148FEF7C7FF10BD95
:104B0000000C00401CB56846FEF79EFA02208DF8A6
:104B1000070000208DF8040008208DF806008001B1
:104B2000009004208DF8050069461848FEF797FAB2
:104B300002208DF8070000208DF804008DF8060093
:104B40004FF48060009004208DF8050069460F48FE
:104B5000FEF785FA00231A460D490E48FFF70EF9B5
:104B600001210C48FFF775F901210A48FFF76CF99C
:104B700000210848FFF742F900210648FFF7CBF86B
:104B800001210448FFF7BAF81CBD000000080140ED
:104B900000941100003801401CB56846FEF754FA35
:104BA00002208DF8070000208DF8040008208DF801
:104BB0000600C001009004208DF8050069461848E1
:104BC000FEF74DFA02208DF8070000208DF8040052
:104BD0008DF806004FF40060009004208DF8050069
:104BE00069460F48FEF73BFA00231A464FF4E131BD
:104BF0000C48FFF7C3F801210A48FFF72AF9012101
:104C00000848FFF721F900210648FFF7F7F80021CF
:104C10000448FFF780F801210248FFF76FF81CBD38
:104C2000000C0140004800400000000000000000AF
:104C30000102030406070809000000000102030442
:104C4000000000000102030402040608020C081020
:104C5000000000000000000001020304060708092C
:104C60006D6F746F72202564203A20556120766F35
:104C70006C74616765206F66667365742069732064
:104C80002564202C205562200D0A20766F6C7461FB
:104C90006765206F666673657420697320202564DC
:104CA0000D0A00002F2A2A2A2A2A2A2A2A2A2A2AF0
:104CB0002A2A2A2A2A2A2A2A2A2A2A2A2A2A2A2A54
:104CC0002A2050726F64756374204F76657276691E
:104CD0006577202A2A2A2A2A2A2A2A2A2A2A2A2AB6
:104CE0002A2A2A2A2A2A2A2A2A2A2A2A2A2A2A2A24
:104CF0002A2A2A2A2A2F200D0A0000002F2A2A2ACF
:104D00002A2A2A2A2A2A2A2A2A2A2A2A2A2A2A2A03
:104D10002A2A2A2A2A2A2A2A2A2A2A2A2A2A2A2AF3
:104D20002A2A2A2A2A2A2A2A2A2A2A2A2A2A2A2AE3
:104D30002A2A2A2A2A2A2A2A2A2A2A2A2A2A2A2AD3
:104D40002A2A2A2A2A2A2A2A2A2A2A2A2A2F200DE5
:104D50000A0000002D20476974487562E9A1B9E78F
:104D60009BAEE59CB0E59D80EFBC9A68747470734F
:104D70003A2F2F6769746875622E636F6D2F6C68A8
:104D80007A6C6F766579796A2F415433325F464F7A
:104D9000432E6769740D0A002D20E4B8BBE68EA788
:104DA000E88AAFE78987EFBC9A4154333246343002
:104DB000374143475437EFBC8CE59FBAE4BA8E4184
:104DC000524D20436F727465782D4D34E58685E62B
:104DD000A0B8EFBC8CE585B7E5A487E9AB98E68081
:104DE000A7E883BDE8BF90E7AE97E883BDE58A9B5F
:104DF000E380820D0A0000002D20E9A9B1E58AA810
:104E0000E88AAFE78987EFBC9A454732313333EF01
:104E1000BC8CE694AFE68C81E9AB98E69588E88394
:104E2000BDE794B5E69CBAE9A9B1E58AA8EFBC8CC8
:104E3000E585B7E5A487E4BC98E5BC82E79A84E7FA
:104E400094B5E6B581E68EA7E588B6E883BDE58A28
:104E50009BE380820D0A00002D20E99B86E6889066
:104E6000E794B5E6B581E78EAFE38081E9809FE501
:104E7000BAA6E78EAFE38081E4BD8DE7BDAEE78ED5
:104E8000AFE4B889E997ADE78EAFE68EA7E588B6BF
:104E9000EFBC8CE7A1AEE4BF9DE794B5E69CBAE811
:104EA000BF90E8A18CE79A84E9AB98E7A8B3E5AE98
:104EB0009AE680A7E5928CE9AB98E7B2BEE5BAA680
:104EC000E380820D0A0000002D20E585B7E5A48768
:104ED000E8BF87E6B581E38081E8BF87E58E8BE395
:104EE0008081E8BF87E6B8A9E7AD89E5A49AE9879C
:104EF0008DE4BF9DE68AA4E69CBAE588B6EFBC8C3B
:104F0000E68F90E58D87E7B3BBE7BB9FE58FAFE901
:104F10009DA0E680A7E380820D0A00002D20E69484
:104F2000AFE68C81E58F8CE8B7AFE794B5E69CBA25
:104F3000464F43EFBC884669656C64204F726965D3
:104F40006E74656420436F6E74726F6CEFBC89E69B
:104F50008EA7E588B6EFBC8CE5AE9EE78EB0E9ABD8
:104F600098E69588E7B2BEE58786E79A84E794B528
:104F7000E69CBAE68EA7E588B6E380820D0A0000BB
:104F8000A04F0008000000207801000084080008FD
:104F9000E84F00087801002000040000B016000867
:104FA000D10311127AA0090AD7233CCDCCCC3D1BEA
:104FB0002041040A18C1201BC040040210C002474F
:104FC0000113A90A140809361B08608581024702EB
:104FD00013350B1B08715C2ABC5C4C080140B503FF
:084FE00048803F8B2001B40062
:040000050800018569
:00000001FF
