:020000040800F2
:10000000680400209D01000889090008EF08000825
:1000100085090008E9080008ED0A00080000000052
:10002000000000000000000000000000210A00089D
:10003000ED08000800000000CB090008230A0008B2
:10004000B7010008B7010008B7010008B7010008B0
:10005000B7010008B7010008B7010008B7010008A0
:10006000B7010008B7010008B7010008B701000890
:10007000B7010008B7010008B7010008B701000880
:10008000B7010008B7010008B7010008B701000870
:10009000B7010008B7010008B7010008B701000860
:1000A000B7010008B7010008B7010008B701000850
:1000B000B7010008950A0008B7010008B701000859
:1000C000B7010008B7010008B7010008B701000830
:1000D000B7010008B7010008B7010008B701000820
:1000E000B7010008B7010008B7010008B701000810
:1000F000B7010008B7010008B7010008B701000800
:10010000B7010008B7010008B7010008B7010008EF
:10011000B7010008B7010008B7010008B7010008DF
:10012000B7010008B7010008B7010008B7010008CF
:10013000B7010008B7010008B7010008B7010008BF
:1001400000000000000000000000000000000000AF
:10015000B7010008B7010008B7010008B70100089F
:10016000B7010008B7010008B7010008B70100088F
:10017000B7010008B7010008B7010008B70100087F
:10018000B7010008DFF810D000F0DCFA00480047A3
:1001900095240008AFF300806804002006488047DB
:1001A00006480047FEE7FEE7FEE7FEE7FEE7FEE75C
:1001B000FEE7FEE7FEE7FEE7250A000885010008E6
:1001C00000F0004230F000400AD0C10D01F560712E
:1001D000C0F3160042EA0151C208400711437047BC
:1001E000002001467047000030B5041E71F1000484
:1001F00004DB4FF00044404264EB0101141E73F134
:10020000000405DB1C464FF00043524263EB04033D
:100210008B4208BF824230BD01F0004330B421F070
:10022000004150EA010206D00A0DA2F56072C1F346
:100230001301002A02DC30BC00207047440F44EA5E
:10024000C104C100E01830BC00EBC25000F047B858
:1002500030B50B46014600202022012409E021FA96
:1002600002F59D4205D303FA02F5491B04FA02F593
:100270002844151EA2F10102F1DC30BD2DE9F05F2A
:100280000546002092469B46884606468146402405
:100290001BE0284641464746224600F074FA534682
:1002A0005A46C01A914110D311461846224600F012
:1002B0005BFA2D1A67EB01084F4622460120002108
:1002C00000F052FA17EB00094E41201EA4F1010480
:1002D000DFDC484631462A464346BDE8F09F002908
:1002E000A8BF7047401C490008BF20F001007047BC
:1002F00010B4B0FA80FC00FA0CF050EA010404BF1C
:1003000010BC704749B1CCF1200421FA04F411FA71
:100310000CF118BF012121430843A3EB0C01CB1DB5
:100320004FEA00614FEA102042BF002010BC704726
:1003300000EBC35010440029A4BF10BC7047401C00
:10034000490008BF20F0010010BC70472DE9FE4FA6
:10035000804681EA0300C00F0C46009021F0004166
:1003600023F00045B8EB0200A94105D240462146E2
:1003700090461C460B46024623F00040104347D0EF
:10038000270DC7F30A00C3F30A510290401A0190E7
:1003900040286BDAC3F3130040F4801B00989246A8
:1003A00020B10023D2EB030A63EB0B0B01985946F3
:1003B000C0F14002504600F0D7F906460D465046BF
:1003C0005946019A00F0EFF910EB08006141002452
:1003D00087EA115284EAE7731A4340D0009A62B365
:1003E000019A012A4FEA075215DC001B61EB02015A
:1003F0004FF0004202EA0752CDE90042001C41F5ED
:10040000801132462B4600F0EFF903B0BDE8F08FC3
:1004100040462146F9E7001B61EB0201001C41F553
:10042000801300185B412018A2F5001747EB030169
:1004300040EAD570B6196D4111E06D084FEA3606F5
:1004400045EAC0754FEA0752001B61EB0201001C30
:1004500041F5801149084FEA3000001951413246F8
:100460002B4603B0BDE8F04F00F0AFB90098012271
:1004700040000023D0EB020263EBE07300982146BA
:100480004FEAE074B8EB000061EB0401E9E783F0A8
:1004900000435BE781F0004158E72DE9FE4F81EA18
:1004A000030404F0004421F0004100944FF0000BDD
:1004B00023F0004350EA01045ED052EA03045BD00B
:1004C000C3F30A54C1F30A552C44A4F2F334019443
:1004D000A0FB0254C1F3130141F48011C3F31303D1
:1004E00043F4801301FB024400FB034E840A970A85
:1004F00044EA815447EA8357A4FB076802958D0AB2
:1005000005FB07854FEA932C04FB0C542705029D3D
:100510004FEA065847EA1637B5EB08056EEB070CAD
:10052000870E920E47EA811742EA8312A7FB020167
:10053000B6EB0B0164EB00042B0D43EA0C335E18A1
:1005400044EB1C50DA465146E7FB0201C5F31304A5
:100550004FEA0B3343EA14534FEA0432019C43EA57
:100560000603A4F10C040294009CCDE900B400F051
:100570003BF903B0BDE8F08F00200146F9E72DE913
:10058000F04D81EA030404F0004B21F000451446CD
:100590004FF0000A23F0004150EA050220D054EA4F
:1005A00001021DD0C5F30A570246C5F31303C1F378
:1005B0001300C1F30A5640F4801543F48013A7EBEF
:1005C0000608101BD64608F2FD3873EB050002D36F
:1005D00008F1010801E092185B41B8F1000F03DA5D
:1005E00000200146BDE8F08D00204FF48011064642
:1005F00084460EE0171B73EB050705D3121B63EB54
:10060000050306434CEA010C49084FEA30009218F2
:100610005B4150EA0107EDD152EA030012D082EAB1
:10062000040083EA0501084305D0101BAB4106D244
:100630000122002306E000224FF0004302E06FF0A9
:10064000010253101AEB06004CEB085110EB0A00A4
:1006500041EB0B01BDE8F04D00F0B7B82DE9FE4FBE
:10066000C3F30A5701F000450024C1F30A56C3F34F
:100670001303C1F3130143F4801312EB020AA646DD
:1006800041F48011009543EB030CA7F1010B16E038
:10069000B0EB0A0061EB0C01071E71F1000707DAED
:1006A0004FF00008D0EB080085F0004568EB010131
:1006B000171A73EB0107EBD3761E001849415E450C
:1006C000F6DA50EA010209D0CDE900E5002213462E
:1006D000029600F089F803B0BDE8F08F204600993B
:1006E000F9E7C1F30A52C1F3130140F2FF3341F4B9
:1006F00080119A4202DA00200146704740F23343EB
:100700009A42A2F2334202DC524200F03CB800F0BE
:100710002BB8000030B5041E71F1000404DB4FF06B
:100720000044404264EB0101141E73F1000405DB38
:100730001C464FF00043524263EB0403994208BF4A
:10074000904230BD064C074D06E0E06840F00103E2
:1007500094E8070098471034AC42F6D3FFF716FD33
:10076000A43C0008C43C0008202A04DB203A00FA1C
:1007700002F1002070479140C2F1200320FA03F3F8
:10078000194390407047202A04DB203A21FA02F0F6
:100790000021704721FA02F3D040C2F120029140BB
:1007A000084319467047202A06DBCB17203A41FA46
:1007B00002F043EAE07306E041FA02F3D040C2F1EE
:1007C0002002914008431946704710B5141E73F17A
:1007D000000408DA401C41F1000192185B411A4301
:1007E00001D120F0010010BD2DE9F04D92469B464D
:1007F00011B1B1FA81F202E0B0FA80F220329046F3
:10080000FFF7B2FF04460F4640EA0A0041EA0B0137
:1008100053465A46084313D0114653EA010019D0F3
:10082000C8F140025046FFF7AEFF05460E4650465F
:1008300059464246FFF798FF084305D0012004E0DF
:1008400020463946BDE8F08D0020054346EAE076B3
:100850002C4337430A986305E40AA0EB0800002202
:10086000FD0A44EA47540A3002D500200146E9E770
:10087000010510196941DDE9084500196941BDE824
:10088000F04DA2E710B52DED068BB0EE408A18EEC4
:10089000100AFFF795FC41EC1A0B9FED101BB0EE10
:1008A0004A0AF0EE6A0A00F059F9B0EE409AF0EE0A
:1008B000609A51EC190BFFF7AFFC08EE900AF5EEC9
:1008C000C08AF1EE10FA04DBB0EE680ABDEC068BCC
:1008D00010BD9FED040A38EE800AF7E70000000023
:1008E000FA211940D00FC94000BFFEE7704700BF92
:1008F000FEE7000070B52DED028B4FF480511C48CF
:1009000001F02CFD00211B4800F060F80446002196
:10091000184800F05BF805460021164800F056F82C
:1009200006464FF48051124801F01AFD200440EAB7
:1009300005203043801208EE100AB8EE480ADFEDB9
:100940000E0A20EE200ADFED0D0A80EE201AF0EEEE
:10095000418A9FED0B0A28EE800ADFED070A80EE40
:10096000201AF0EE418AB0EE680ABDEC028B70BD31
:10097000000C0140003800400000B44300008046F5
:10098000D00FC94000BFFEE77047F0B503460C46E4
:1009900003F00701C1F10700042801D9042001E098
:1009A000C1F107000646081D072801D2002000E01B
:1009B000C81E05460120B040401E2040A840012727
:1009C000AF407F1E17403843F0BD704770B50546F5
:1009D0000E46002406E0601C80B20446C82801DDF3
:1009E000002070BD0221284601F0C2FF0028F2D08D
:1009F0003146284601F0BAFF002406E0601C80B2B0
:100A00000446C82801DD0020EBE70121284601F05B
:100A1000AFFF0028F2D0284601F0A4FFC0B2E0E703
:100A2000704770471848006840F470001649086025
:100A30001648006820F00100401C1449086000BFFF
:100A400012480068C0F340000028F9D00F48406801
:100A500020F003000D49486000BF0C484068C0F317
:100A600081000028F9D10948006809490840074970
:100A700008600020486008634FF41F008860C803C6
:100A8000014980390860704788ED00E0001002409D
:100A9000FFFFF2FE10B52DED028B11480068401CDF
:100AA0000F4908600846006841F28831884205D144
:100AB000002000F097FE002009490860FFF71AFFA8
:100AC000B0EE408A074A51881088B1EE480A01F01A
:100AD000D5FD0121044802F0A0F8BDEC028B10BD49
:100AE00000000020180000200004004000BFFEE7C6
:100AF0000FB4054B10B503A9044A029800F0A8F9F9
:100B000010BC5DF814FB0000952200085C0000207A
:100B100002480068C0F30220704700000CED00E0BE
:100B200010B5002804DB0A07130E054A135406E02B
:100B30000A07140E034A00F00F031B1FD45410BD04
:100B400000E400E018ED00E02DED020B019820F02C
:100B5000004001909DED000B02B0704710B52DEDE7
:100B6000040B86B09DED060B10EE100A10EE901AE5
:100B70008DED000B002818BF0120084320F0004035
:100B8000C0F17F6000F1E040C00F21D19DED080B66
:100B900010EE101A10EE900A8DED000B002918BF10
:100BA0000121084320F00040C0F17F6000F1E040E7
:100BB000C00F0DD129490798B1EB400F04BF06982B
:100BC000002842D00998400004BF089800283CD073
:100BD0009DED080B53EC102B9DED060B51EC100B0B
:100BE000FFF73CFDCDE902019DED020B40F2FF71E4
:100BF00010EE900A8DED000B31EA105021D00798CD
:100C0000039900F0004001F00041884219D09DEDA9
:100C1000080B8DED040B9DED020B8DED000B10EE1E
:100C2000900A059961F31E0005909DED041B9DED52
:100C3000020B51EC110B53EC102BFFF72BFCCDE901
:100C400002019DED020B0AB010BD012000F028F852
:100C50000AB0BDE8104000F003B800000000E0FF5B
:100C60009FED050B10B553EC102B51EC100BFFF75B
:100C700086FC41EC100B10BD0000000000000000DD
:100C800002E008C8121F08C1002AFAD17047704755
:100C9000002001E001C1121F002AFBD170470000B3
:100CA00001490860704700006000002010B52DED7C
:100CB000028BB0EE408AF2EE060A68EE200AB0EE31
:100CC000600AFFF7DFFDBDEC028B10BD2DE9FF5F71
:100CD00082B00021DDE90430020DDDF840B00343AD
:100CE00018D044F61050A2F2FF3242431514119866
:100CF00001281FD0A5EB0B00401C5FEA000A4FF053
:100D000000064E4FDFF83891B046504615D5CAF16F
:100D1000000413E0119801244AA3012801D16FEACD
:100D20000B010298119AC0E90031C0E9024206B0F5
:100D3000BDE8F09FCBF10000DFE704460021404A08
:100D4000491842EB0450CDE9001012E0E00707D04B
:100D500032463B4640464946FFF79FFB8046894660
:100D600032463B4610461946FFF797FB06460F46AC
:100D70006410002CEAD1DDE90401DDE90023BAF1B9
:100D8000000F06DAFFF789FB42464B46FFF785FB6B
:100D900005E0FFF7F4FB42464B46FFF7F0FB044645
:100DA0000E460022284BFFF7B5FC03D84FF0FF306A
:100DB000014607E00022254B20463146FFF7C6FAE0
:100DC000FFF78FFC102409E0002C0ADB0A22002325
:100DD000FFF754FA039B30321A55641E50EA0102A1
:100DE000F2D1641C039AC4F111031444119A012A2C
:100DF00003D0012208430DD10AE0084304D00020AB
:100E00004FF0110B119072E7A3EB0B056D1E0DE077
:100E10005B4504DD4FF0000205F1010504E003DA53
:100E20004FF00002A5F10105002AECD002981199BB
:100E3000C0E90231C0E9004579E700000000144034
:100E40000000F03F300000000000F0430000E03FF1
:100E50002DE9FF4F95B09A46884606460025EEE1FB
:100E6000252877D100242746F94A0121039400E080
:100E7000044316F8013F203B01FA03F01042F7D17A
:100E800030782A2811D06FF02F033078A0F130028B
:100E9000092A16D8039A44F0020402EB820203EBFB
:100EA00042021044761C0390EFE758F8042B03929B
:100EB000002A03DA504244F40054039044F0020440
:100EC000761C30782E2816D116F8010F44F0040451
:100ED0002A280DD06FF02F023078A0F13003092BB3
:100EE00009D807EB870302EB4303C718761CF3E727
:100EF00058F8047B761C30786C280FD006DC4C2820
:100F000017D068280DD06A2814D104E0742810D0B6
:100F10007A280FD10DE044F400140AE044F4801460
:100F200001E044F440147278824202D104F5801446
:100F3000761C761C307866280BD013DC582877D0C6
:100F400009DC002875D04528F6D04628F4D047287B
:100F50001AD193E118E0632835D0642879D0652848
:100F600012D18BE1702873D008DC6728F1D0692892
:100F70006FD06E280DD06F2806D1ACE073282CD02E
:100F8000752874D0782853D05246179990476D1C15
:100F900054E1C4F30250022809D003280DD0D8F838
:100FA000001004280DD00D6008F1040846E1D8F8BF
:100FB0000010EA17C1E90052F6E7D8F800100D80DA
:100FC000F2E70D70F0E718F8041B8DF80010002010
:100FD0008DF80100EB46012003E058F804BB4FF008
:100FE000FF3061074FF0000102D40DE009F101016B
:100FF0008946B9420FDA8145F8DB1BF80910002950
:10100000F4D108E009F1010189468142FADB1BF8BD
:1010100009100029F6D103985346A0EB0907214691
:101020003846179A00F080FA284400EB090507E0DB
:1010300044E008E10DE01BF8010B52461799904778
:10104000B9F10109F7D2534621463846179AF2E022
:1010500039E00A21C4F302524FF0000B0091022A3A
:1010600006D058F8040BC117032A09D00AE023E080
:1010700008F1070020F00702F2E80201904605E0BF
:1010800000B2C117042A01D140B2C117002906DA03
:101090000A460021404261EB02012D2202E02205B6
:1010A00004D52B228DF80420012203E0E20701D0B1
:1010B0002022F7E7914657E00A2100E010214FF087
:1010C000000B00910BE010214FF0000B44F00404E2
:1010D0000827009103E008204FF0000B0090C4F3B4
:1010E0000252022A05D058F8040B0021032A08D026
:1010F00008E008F1070020F00702F2E8020190463C
:1011000003E080B2042A00D1C0B24FF000092207E8
:101110002AD53278702A07D0DDF800C08CF0100C88
:101120005CEA0B0C05D00EE040228DF80420012271
:1011300008E050EA010306D030238DF804308DF822
:10114000052002229146009B83F0080353EA0B031B
:101150000AD150EA010201D1620705D530228DF88B
:1011600004204FF001097F1E3278582A04D039A29A
:101170000C920CAA02920BE03BA2F9E75B46009AA4
:10118000FFF77CF80C9B9B5C029A521E0292137034
:1011900050EA0102F2D1029804A9081A00F1200BCA
:1011A000600702D524F4803400E001275F4502DDAA
:1011B000A7EB0B0000E0002000EB0B010090039870
:1011C0004944401A0390E00306D453462146179A37
:1011D000039800F0A9F90544002706E001A852464B
:1011E000C05D179990476D1C7F1C4F45F6DBE003EF
:1011F0000CD553462146179A039800F095F90544FB
:1012000004E030205246179990476D1C0099481E03
:1012100000900029F5DC08E0029802995246007817
:10122000491C0291179990476D1CBBF10001ABF16D
:10123000010BF1DC5BE100F065F90544761C3078C8
:1012400000287FF40DAE19B02846BDE8F08F0000ED
:10125000092801003031323334353637383961628C
:101260006364656600000000303132333435363750
:10127000383941424344454600000000600700D42D
:10128000062708F1070020F00700F0E80223804657
:1012900003F0004C5FEA0C0001D097A009E02005A4
:1012A00001D596A005E0E00701D095A001E0AFF2DE
:1012B0004C001390307823F0004365280CD006DCF6
:1012C000452809D046281DD047287FD13BE0662815
:1012D00018D067287AD136E00021112F01DB1120C8
:1012E00000E0781CCDE9000104A90CA8FFF7EEFC92
:1012F000DDE90D010C9A4FF0000B07F10109109286
:1013000000914EE04FF000400097CDE9011004A994
:101310000CA8FFF7DBFCDDE90D020C9B0F994FF0E9
:10132000000B91461093009211B9791C00EB010952
:10133000B7EB090003D4C0F1FF3B07F10109A9EBAA
:101340000700019042E0012F00DA01270021112F50
:1013500001DD112000E03846CDE9000104A90CA808
:10136000FFF7B4FCDDE90D010C9A00914FF0000B82
:10137000B946109221070FD4009A4A4503DA9146E4
:1013800001E0A9F10109B9F1010F05DD109AA9F1F8
:101390000101515C3029F4D0B84202DA10F1040F97
:1013A00003DA0121CDE9011010E0002803DC8344B9
:1013B000A9EB000102E0411C494500DD8946A0EB94
:1013C0000B00401C01904FF000400290200705D414
:1013D0000198484502DB4FF0FF30019000208DF866
:1013E0004B0002980DF14B07B0F1004F25D00220C1
:1013F0000C902B200D90029800280CDA40420290AD
:101400002D200D9007E00A210298FEF721FF3031D0
:10141000029007F8011D0C99481E0C900029F2DC7F
:1014200002980028EFD1791E0D980870307800F0EE
:10143000200040F0450007F8020D11A8C01BC01D98
:1014400002901398007800B1012000EB0901019887
:1014500001EBE071029801440398401A401E03908A
:10146000E00306D453462146179A039800F05CF82F
:1014700005441398007818B15246179990476D1C8F
:10148000E00323D553462146179A039800F04CF801
:1014900005441BE0BBF1000F07DB0098584504DD55
:1014A0001098179910F80B0001E017993020524658
:1014B000904701980BF1010B401E05F101050190C9
:1014C00004D12E205246179990476D1CB9F10001A6
:1014D000A9F10109DEDC05E017F8010B5246179966
:1014E00090476D1C0299481E02900029F4DC534677
:1014F0002146179A03989EE62D0000002B0000005D
:10150000200000002DE9F041044600251E46174644
:10151000880404D405E039462020B0476D1C641EC1
:10152000F9D52846BDE8F0812DE9F04104460025B3
:101530001E469046C80301D5302700E020278804C6
:1015400004D505E041463846B0476D1C641EF9D508
:101550002846BDE8F0810B78426863F308224260B8
:101560004B78826863F3410282608B78826863F310
:10157000CB228260CA78521EC36A62F31753C362D9
:10158000704700210170417081700121C170704766
:10159000816821F008010831816070470146886840
:1015A000C0F3C00008B1012070470020FCE781684B
:1015B00021F00401091D8160704701468868C0F36D
:1015C000800008B1012070470020FCE7034909684A
:1015D00060F31341014A1160704700000424014088
:1015E000826861F3082282607047826861F30002BA
:1015F0008260704770B504460A290CDA206901EB55
:1016000041060725B540A84301EB410503FA05F55E
:10161000284320610FE0E068A1F10A0505EB4506CB
:101620000725B540A843A1F10A0505EB450503FAD6
:1016300005F52843E0600D2A10DBE06AA2F10D05F4
:1016400005EB85061F25B540A843A2F10D0505EB66
:10165000850501FA05F52843E0621EE0072A0EDB46
:10166000206BD51F05EB85061F25B540A843D51F68
:1016700005EB850501FA05F5284320630DE0606B55
:10168000551E05EB85061F25B540A843551E05EBE5
:10169000850501FA05F52843606370BD07290ADD59
:1016A000836823F0007303F100738360836861F340
:1016B0005343836007E0836823F00073836083688B
:1016C00061F353438360836862F31453836070470C
:1016D000426861F3CB224260704710B50446A4F122
:1016E0000A020421080701F075FA10BDF0B52DEDCE
:1016F000068B83B004469FED2D0A0221002000F0E6
:10170000BDFF4FF47A7000F001FC9FED280AB0EEA7
:10171000408A0A2500261DE0A047F0EE408AFFF728
:10172000C5FA10EE107A3846FEF74AFD41EC190B67
:1017300053EC192B1EA0FFF7DBF9A047F0EE408A0F
:10174000FFF7B4FA30EE080AB0EE408A0A2000F043
:10175000DDFB761CAE42DFDB00EE105AB8EEC00AAD
:10176000C8EE000A1448C0ED000AA047F0EE408A17
:1017700000F0AAFD10EE106A3046FEF721FD41ECA4
:10178000190B0D480068FEF71BFD41EC1A0B8DED9F
:10179000009B53EC1A2B09A0FFF7AAF90DA0FFF745
:1017A000A7F903B0BDEC068BF0BD000000000000FF
:1017B000256C660D0A00000014000020C1E3B5E7A7
:1017C000CEBBBDC7B6C83A2025662C256C660D0A6F
:1017D00000000000B3F5CABCBBAFCDEAB3C90D0A27
:1017E00000000000002800DD7047094931F81010A2
:1017F00059B1084951F82010C968054A32F810203B
:101800005140044A52F82020D16000BFECE70000AC
:10181000580000205400002030B50246002000236C
:10182000146824F002041460146824F00104641C99
:10183000146000E05B1C546804F001041CB94FF60E
:10184000FF74A342F6D1546804F00104002C3FD089
:101850004D78146865F3C71414608D78146865F3C7
:1018600086141460CD78146865F3451414600D79FE
:10187000146865F3041414604D79146865F3C304A7
:1018800014608D79146865F3820414600C78D5694E
:1018900064F39E75D5610C786508D46965F3DF74CF
:1018A000D461146824F001041460002300E05B1C80
:1018B000546804F001041CB14FF6FF74A342F6D142
:1018C000546804F001040CB1002002E0012000E0A3
:1018D000002030BD30B5024600200023146824F0FB
:1018E00002041460146824F00104641C146000E015
:1018F0005B1C546804F001041CB94FF6FF74A3424A
:10190000F6D1546804F001045CB30C88641ED569F8
:1019100064F30B05D5618D78D46965F31964D461DE
:10192000CD78D46965F31344D4610D79D46965F336
:101930001654D461146824F001041460002300E0FC
:101940005B1C546804F001041CB14FF6FF74A34201
:10195000F6D1546804F001040CB1002002E001202B
:1019600000E0002030BD002141708170C170017124
:10197000417181710170704730B50022CC7801232C
:1019800003FA04F2D0F8003223F001035B1CC0F824
:101990000032D0F81C329343C0F81C320B7913B1DB
:1019A000012B5AD12CE0D0F80C329343C0F80C3202
:1019B0008B891C04CD7800F5107343F83540CC7842
:1019C00053F834300C892343CD7800F5107444F873
:1019D00035304B891C04CD7800F5107303EBC5033B
:1019E0005C60CC7800F5107303EBC4035B68CC88B3
:1019F0002343CD7800F5107404EBC50463602DE03B
:101A0000D0F80C321343C0F80C32CB881C04CD78CC
:101A100000F5107343F83540CC7853F834300C8916
:101A20002343CD7800F5107444F835304B891C04FD
:101A3000CD7800F5107303EBC5035C60CC7800F53E
:101A4000107303EBC4035B688C892343CD7800F5E6
:101A5000107404EBC504636000E000BF00BF4B7866
:101A600013B1012B0CD105E0D0F804329343C0F838
:101A7000043206E0D0F804321343C0F8043200E028
:101A800000BF00BF8B7813B1012B0CD105E0D0F85B
:101A900014329343C0F8143206E0D0F814321343E2
:101AA000C0F8143200E000BF00BF0B783BB1012B3F
:101AB0000BD1D0F81C321343C0F81C3206E0D0F82A
:101AC0001C329343C0F81C3200E000BF00BFD0F8C6
:101AD000003223F00103C0F8003230BD80ED000A6F
:101AE000F0EE001AB0EE401A01EEA01ADFED031A74
:101AF00021EE211A81ED001A7047000056CE133FE7
:101B00000649496860F38F31044A516082080349ED
:101B1000496862F31C71014A51607047001002402D
:101B20000349496860F30711014A5160704700009A
:101B3000001002400349496860F30A21014A5160DC
:101B400070470000001002400349496860F3CD214E
:101B5000014A51607047000000100240012807D17F
:101B60000749496D21F030013031054A516505E0E2
:101B70000349496D21F03001014A51657047000069
:101B800000100240052827D2DFE800F0030A1118F0
:101B90001F00134A126861F30002114B1A601CE027
:101BA0000F4A126861F310420D4B1A6015E00C4A9F
:101BB000126861F318620A4B1A600EE0084A126A52
:101BC00061F30002064B1A6207E0054A526A61F3AC
:101BD0000002034B5A6200E000BF00BF70470000E4
:101BE000001002402DE9F0410146002700220025A7
:101BF00090460023002400F065F9064626B1012E28
:101C000012D0022E43D112E03948406DC0F340207B
:101C100038B13748006BC0F3406010B135480860F8
:101C200001E03548086035E03348086032E030486C
:101C30004068C0F300482E484068C0F383422C48F7
:101C40004068C0F341750DB90F2A03D12801401C2B
:101C5000024400E0921CB8F1000F03D12748504322
:101C6000086013E022484068C0F3404058B1204863
:101C7000406DC0F30137B81CDFF87CC0BCFBF0F04E
:101C80005043086002E01C485043086002E01A48D4
:101C9000086000BF00BF16484068C0F3031318482F
:101CA000C45C0868E040486011484068C0F3022303
:101CB0001448C45C4868E040C8600D484068C0F300
:101CC000C2231148C45C4868E04088600848406806
:101CD000C0F3007306484068C0F3813040EA8303D4
:101CE0000A48C45C8868B0FBF4F00861BDE8F08184
:101CF00000100240006CDC0200127A0000093D0076
:101D00006C3C00087C3C0008843C00088C3C0008CB
:101D100010B501460020094B03EB1142126801F097
:101D20001F040123A3401A4001F01F040123A34014
:101D30009A4200D000E0012010BD000000100240D7
:101D400030B50024002500E0641C1120FFF7E0FFFF
:101D5000012802D0B4F5405FF6D31120FFF7D8FF79
:101D6000012801D0002500E00125284630BD0000F3
:101D700010B501290DD10E4B03EB1042126800F093
:101D80001F040123A3401A43094C04EB10431A60BB
:101D90000CE0074B03EB1042126800F01F04012314
:101DA000A3409A43024C04EB10431A6010BD00009C
:101DB0000010024010B568B91C4B5B6823F48033F7
:101DC0001A4C636023461B6B23F0007303F100730E
:101DD000236317E0154B5B6823F4803303F58033EE
:101DE000124C6360012805D123465B6823F400335D
:101DF000636007E00D4B5B6823F4003303F50033A9
:101E00000A4C6360094B5B6861F39543074C636060
:101E10000C09064B5B6864F35E73044C63602346F5
:101E20005B6862F3DF73636010BD00000010024066
:101E30001348006820F00100401C1149086000BFF1
:101E40000F480068C0F340000028F9D00C484068F3
:101E500020F003000A49486000BF09484068C0F309
:101E600081000028F9D10648006806490840044965
:101E700008600020486008634FF41F0088607047C6
:101E800000100240FFFFF2FE0D49496860F30101B6
:101E90000B4A516000BF00BF00BF00BF00BF00BFC2
:101EA00000BF00BF00BF00BF00BF00BF00BF00BF3A
:101EB00000BF00BF00BF00BF00BF00BF70470000F1
:101EC0000010024002484068C0F3810070470000E3
:101ED0000010024010B5042000F060FE07480068C2
:101EE0000749B0FBF1F007490860084600684FF465
:101EF0007A7148430449086010BD000008000020C2
:101F000040420F000C00002010000020002131E0B2
:101F100032280ADD194A126832235A434FF0E0236F
:101F20005A61A0F1320290B206E0144A12684243AC
:101F30004FF0E0235A61002000224FF0E0239A6125
:101F40001A46126942F001021A6100BF4FF0E02206
:101F5000116901F001021AB101F48032002AF5D0B2
:101F60004FF0E022126922F001024FF0E0231A61E3
:101F700000229A610028CBD1704700001000002099
:101F8000026861F300020260704700210160416055
:101F900001814181017341738173C1730174417483
:101FA0007047D0F8A430C3F300633BB9D0F8A43035
:101FB00023F0807303F18073C0F8A430012906D1A7
:101FC000D0F8A03062F30703C0F8A03034E0022953
:101FD00006D1D0F8A03062F30F23C0F8A0302BE078
:101FE000032906D1D0F8A03062F31743C0F8A0301F
:101FF00022E0042906D1D0F8A03062F31F63C0F8B4
:10200000A03019E0052906D1D0F8A43062F3070307
:10201000C0F8A43010E0062906D1D0F8A43062F34D
:102020000F23C0F8A43007E0072905D1D0F8A43069
:1020300062F31743C0F8A430704702684BF6EF73A1
:102040001A40026002680B891A4302604B7C0268E6
:1020500063F30D320260CB7B026863F38B22026074
:102060008B7B026863F3092202604B7B026863F397
:10207000C71202600B7B026863F3861202600B7C5E
:10208000026863F3451202604A8942600A6882600E
:102090004A68C260704700000021026822F0010215
:1020A00002600022026042608260C260014640F22B
:1020B000FF420A40B2F5816F0DD2CAB2083A14232A
:1020C000B2FBF3F293000F229A400D4B5B681A4368
:1020D0000B4B5A6012E040F2FF420A40B2F5916F9A
:1020E0000CD2CAB2083A1423B2FBF3F293000F22C7
:1020F0009A40044B1B681A43024B1A607047000059
:102100000000024004040240F0EE400A9FED270A5E
:1021100020EE800ABDEEC00A10EE100A00EE100A92
:10212000B8EEC01ADFED221AB0EE600A01EE610AC5
:10213000F0EE400A00F0010179B1F5EEC00AF1EECF
:1021400010FA04DD9FED1A0A30EEC00A03E09FED9D
:10215000180A30EE800AF0EE400A20EEA00ADFED09
:10216000151AB0EE611ADFED141A41EE001AB0EE46
:10217000611ADFED121A41EE001AB0EE611ADFEDBE
:10218000101A41EE001AB0EE611ADFED0E1A41EEA0
:10219000001AB0EE611ADFED0C1A41EE001A20EEC3
:1021A000A01AB7EE000A01EE210A704783F9A23E99
:1021B000DA0F4940F2A3ED30017591B4B3CCCF37BB
:1021C0001408B6BA83AA2A3DFDFFFFBEF0EE400A0E
:1021D0009FED280A20EE800ABDEEC00A10EE100A1C
:1021E00000EE100AB8EEC01ADFED231AB0EE600A56
:1021F00001EE610AF0EE400A00F0010179B1F5EE5E
:10220000C00AF1EE10FA04DD9FED1B0A30EEC00AA1
:1022100003E09FED190A30EE800AF0EE400A20EE4E
:10222000A00ADFED161AB0EE611ADFED151A41EEC5
:10223000001AB0EE611ADFED131A41EE001AB0EE8B
:10224000611ADFED111A41EE001AB0EE611ADFEDEE
:102250000F1A41EE001AB0EE611ADFED0D1A41EED1
:10226000001A20EEA00A20EE201AB0EE600A01EE5D
:10227000210A704783F9A23EDA0F49407ABF142F32
:10228000CA32D4B235C538369E0A50B97888083C6F
:10229000AAAA2ABE70B504460D4600BF802109488F
:1022A00000F0F3FD0028F9D0A1B2064800F0E4FDEB
:1022B00000BF4021034800F0E8FD0028F9D0204687
:1022C00070BD00000038014010B52DED088BF0EE18
:1022D000408AB0EE680AFEF7E9FCB0EE409A1A4870
:1022E00090ED000A39EE400AB0EE408AB0EE480A9E
:1022F000FEF7C8FAB0EE408A9FED140A38EE400AA5
:1023000010EE101A0846FDF75BFF41EC1B0BB0EE18
:102310004B0AF0EE6B0AFEF717FCB0EE40AAF0EEA7
:1023200060AA9FED0B0B53EC102B51EC1A0BFDF731
:102330005BFF03D29FED080AB0EE408AB0EE480A78
:10234000BDEC088B10BD000014000020D00FC94068
:102350008DEDB5A0F7C6B03E0000000041617047AA
:10236000016170474FF6FF710160002181710171B9
:10237000042141710121C1717047F0B50A461588E9
:10238000ABB29579032D01D100241AE0957965B996
:10239000557905F00F045579182D01D1036110E02E
:1023A0005579282D0DD143610BE0957905F008058D
:1023B000167906F004063543D67906F0030645EA99
:1023C0000604DDB2A5B1002110E001258D401D40BD
:1023D0005DB105688F000F26BE40B54305600568F6
:1023E0008E0004FA06F635430560491C0829ECD333
:1023F000FF2B15DD1B12002110E001258D401D4033
:102400005DB145688F000F26BE40B5434560456805
:102410008E0004FA06F635434560491C0829ECD3C2
:10242000F0BD0000F0B50C46104F07EB1062C0F392
:102430000741C0F30725C6B2C5F12007A7EB010C81
:102440004FF0FF3707FA0CF3C5F120077F1AFB4066
:10245000CB408B4017689F4317602CB106FA01FCF4
:10246000176847EA0C071760F0BD00000000014044
:10247000B4EEC10AF1EE10FA02DBB0EE410A08E058
:10248000B4EEE00AF1EE10FA02D8B0EE600A00E015
:1024900000BF704701F0C0F800F09EFF00F0C8FEDA
:1024A00000F034FF01F004F900F0CAFE02231A4ADA
:1024B0001A491B4800F0ECFE01211948FFF760FDA6
:1024C00001F042FB01F08AFB00F0D6FF01F03CF87E
:1024D00000F086FD00F0DCFD01F00CF901F020FABF
:1024E00001F040FA00F034FE00F0D6FEFFF7F2FCF7
:1024F00041F27070FFF7F1F80A48FFF7F7F8012290
:102500001146094800F08CFB05E003484288018829
:1025100006A0FEF7EDFAF8E7180000204C3C014059
:1025200008000240F50800080004004025642C253E
:10253000640D0A002DE9F0470B4614464FF0000CDD
:1025400000BF2C4A1268C2F302211D4626460A46E5
:10255000C2F10709B9F1040F02D94FF0040901E0F3
:10256000C2F10709C84602F10409B9F1070F02D206
:102570004FF0000901E0A2F103094F464FF00109B5
:1025800009FA08F9A9F1010909EA050909FA07F99F
:102590004FF0010A0AFA07FAAAF1010A0AEA060A42
:1025A00049EA0A09CC4601466246002904DB1507C0
:1025B0002E0E114D6E5407E015072F0E0D4D0C35E4
:1025C00001F00F06361FAF5500BF014600290DDB95
:1025D00000BF00BF01F01F050122AA404D09AD0058
:1025E00005F1E025C5F8002100BF00BF00BFBDE830
:1025F000F08700000CED00E000E400E000BF00F018
:102600000702064B19684FF6FF031940044B0B43B2
:1026100043EA0221014B196000BF70470CED00E056
:102620000000FA0570B52DED048BB0EE408AF0EE97
:10263000608AB0EE419A04460D46B0EE490AFFF7B3
:1026400063FD60EE089AB0EE490AFFF7BFFD48EE61
:10265000809AC4ED009AB0EE490AFFF7B7FDF1EE9B
:10266000480A60EE209AB0EE490AFFF74DFD48EEA9
:10267000809AC5ED009ABDEC048B70BD70B52DED50
:10268000048B04460D46F0EE408AB1EE081AF9EECE
:10269000080A4E4890ED000AFFF7EAFE4B4880ED2D
:1026A000000AB0EE680AFFF70FFEB0EE408A484914
:1026B000484800EE105AF8EE400A00EE104AB8EE14
:1026C000400AFFF70BFA44494448B0EE481A404A22
:1026D000D2ED000A3F4A92ED000AFFF7A3FFB0EEE9
:1026E000000A3A4880ED000A9FED3D0A3D4880ED22
:1026F000000AB0EE480AFFF769FD3448D0ED000A41
:10270000F1EE600A20EE209AB0EE480AFFF7FCFCDA
:102710003448D0ED000A00EE809A334880ED009AEC
:10272000B0EE480AFFF7F0FC2848D0ED000A20EE92
:10273000209AB0EE480AFFF749FD2A48D0ED000A7A
:1027400000EE809A294880ED009A274890ED000A13
:10275000F1EE080A30EE200A254880ED000A2248F2
:1027600090ED000A2148D0ED000A9FED221A11EEEB
:10277000200AF0EE000A80EE201AB1EE080A31EECF
:10278000000A1D4880ED000A174890ED000A17481E
:10279000D0ED000A9FED191A11EE200AB0EE001AD2
:1027A000C0EE010AB1EE080A30EE800A144880ED4E
:1027B000000A90ED001A1048D0ED000A0C4890ED88
:1027C000000A00F01FF8BDEC048B70BD440000202F
:1027D00034000020300000204C0000205000002079
:1027E0000000000048000020280000202C000020ED
:1027F000380000202DB2DD3F3C0000202DB2DDBFAF
:102800004000002010B52DED048BB0EE409AB0EEE4
:10281000608AF0EE418AB2EE081ADFED400AB0EEAF
:10282000490AFFF725FEB0EE409AB2EE081ADFED36
:102830003B0AB0EE480AFFF71BFEB0EE408AB2EE4C
:10284000081ADFED360AB0EE680AFFF711FEF0EE67
:10285000408AB2EE080AC9EE000AF0EE601AB7EE3E
:10286000001ADFED2E0AB0EE610AFFF701FE2C48D8
:1028700080ED000AB2EE080AC8EE000AF0EE601A17
:10288000B7EE001ADFED250AB0EE610AFFF7F0FDA2
:10289000244880ED000AB2EE080AC8EE800AF0EE85
:1028A000601AB7EE001ADFED1D0AB0EE610AFFF7FD
:1028B000DFFD1D4880ED000A194890ED000ADFEDAC
:1028C0001B0A20EE200ABCEEC00A10EE102A0021DE
:1028D0004FF0804000F07EF9124890ED000ADFEDE5
:1028E000130A20EE200ABCEEC00A10EE102A0221C4
:1028F000480700F06FF90C4890ED000ADFED0B0A75
:1029000020EE200ABCEEC00A10EE102A06214FF07D
:10291000804000F05FF9BDEC048B10BD00000000AA
:102920001C00002020000020240000200080BB4567
:10293000026861F34D3202607047026961F30F0271
:10294000026170470021017041708170C170017196
:10295000417181710121C1717047026861F3861272
:10296000026070470146C86880B27047C160704716
:102970000246002093680B4003B900E00120704735
:10298000C26922F40062C2610A7862B9026822F464
:1029900000420260026822F480420260026822F46F
:1029A0008062026036E00A78012A0ED1026822F4C1
:1029B00000420260026822F480420260026822F44F
:1029C000806202F58062026024E00A78022A0ED159
:1029D000026822F4004202F500420260026822F41A
:1029E00080420260026822F48062026012E00A788B
:1029F000032A0FD1026822F4004202F5004202606D
:102A0000026822F4804202F580420260026822F4E9
:102A100080620260CB79026863F3492202604A78DF
:102A2000012A09D1CA79012A06D1026822F48072EA
:102A300002F58072026003E0026822F48072026094
:102A40004B78026863F3820202608A78072A0BDD02
:102A5000426822F4807202F5807242608A780368CC
:102A600062F3C503036008E0426822F480724260AA
:102A70008B78026863F3C5020260CB78026863F367
:102A8000C71202600B79026863F3CB2202604B79B4
:102A9000026863F3410202608B79026863F300020B
:102AA000026070472DE9F04700260024002500272A
:102AB000A046A146FFF706FA8246BAF1000F06D0FB
:102AC000BAF1010F15D0BAF1020F46D115E02D4829
:102AD000406DC0F3402040B12A48006BC0F3406015
:102AE00018B129482949086002E0294827490860A7
:102AF00037E027482549086033E022484068C0F3A2
:102B0000004720484068C0F383441E484068C0F333
:102B100041750DB90F2C03D12801401C044400E07D
:102B2000A41C27B91B4860431849086014E01548E5
:102B30004068C0F3404058B11248406DC0F30136C0
:102B4000B01C1349B1FBF0F060431049086003E08A
:102B50000F4860430D49086003E00D480B490860C9
:102B600000BF00BF07484068C0F303180A4810F8C8
:102B700008900648006820FA09F004490860BDE89A
:102B8000F087000000100240006CDC02080000200A
:102B900000127A0000093D00943C0008042808D186
:102BA0004FF0E021096941F004014FF0E02211618A
:102BB00007E04FF0E021096921F004014FF0E02225
:102BC00011617047C1628262436923F001035B1C9B
:102BD000436170470B4633B1022B06D0042B06D05D
:102BE000062B08D105E0426306E0826304E0C2637D
:102BF00002E0026400E000BF00BF7047026861F3BA
:102C0000092202607047026861F306120260704791
:102C1000026861F3000202607047CA4302617047B4
:102C2000012A03D1C3680B43C36003E012B9C36830
:102C30008B43C360704710B50B4633B1022B09D0EC
:102C4000042B0CD0062B14D10EE0846962F3C3046C
:102C500084610FE0846962F3CB2484610AE0C46973
:102C600062F3C304C46105E0C46962F3CB24C461A8
:102C700000E000BF00BF10BD2DE9F0410025002697
:102C8000002701F108035C1C92F801C00CFA03FC58
:102C90001FFA8CF592F802C00CFA04FC1FFA8CF6AD
:102CA000D0F804C04FF0010808FA04F82CEA080C28
:102CB000C0F804C0D0F804C04CEA060CC0F804C048
:102CC000D0F804C04FF0010808FA03F82CEA080C09
:102CD000C0F804C0D0F804C04CEA050CC0F804C029
:102CE0000F4637B1022F0DD0042F14D0062F24D158
:102CF0001AE092F80080D0F818C068F3061CC0F8FB
:102D000018C01BE092F80080D0F818C068F30E3CA1
:102D1000C0F818C012E092F80080D0F81CC068F328
:102D2000061CC0F81CC009E092F80080D0F81CC056
:102D300068F30E3CC0F81CC000E000BF00BF4FF0BD
:102D4000010C0CEB41034FF0030C0CEB410492F827
:102D500003C00CFA03FC1FFA8CF592F804C00CFABD
:102D600004FC1FFA8CF64FF0010808FA04F8D0F8BA
:102D700020C02CEA080CC0F820C0D0F820C04CEAD3
:102D8000060CC0F820C04FF0010C0CFA03FCD0F880
:102D9000208028EA0C08C0F82080D0F820C04CEA37
:102DA000050CC0F820C04B004FF0020C0CEB4104A6
:102DB00092F805C04FEA41080CFA08FC1FFA8CF59E
:102DC00092F806C04FF0020808EB41080CFA08FC24
:102DD0001FFA8CF64FF0010808FA04F8D0F820C06A
:102DE0002CEA080CC0F820C0D0F820C04CEA060C31
:102DF000C0F820C04FF0010808FA03F8D0F820C04E
:102E00002CEA080CC0F820C0D0F820C04CEA050C11
:102E1000C0F820C0BDE8F08110B50B4633B1022BDD
:102E200009D0042B0CD0062B14D10EE0846962F378
:102E3000820484610FE0846962F38A2484610AE079
:102E4000C46962F38204C46105E0C46962F38A2440
:102E5000C46100E000BF00BF10BD026861F3C7128B
:102E600002607047426861F30612426070478268F0
:102E700061F3C71282607047C1F308024260704775
:102E8000C26861F34D32C260704702461068084064
:102E900008B1012070470020FCE741B9426922F4E3
:102EA00080724261426922F40072426127E0012986
:102EB0000AD1426922F4807202F58072426142694D
:102EC00022F4007242611AE002290AD1426922F416
:102ED00080724261426922F4007202F5007242611E
:102EE0000DE003290BD1426922F4807202F5807251
:102EF0004261426922F4007202F500724261704739
:102F00002DE9F04385B004460F4690469946684641
:102F1000FEF768FE1748844205D01748844202D065
:102F20001648844201D1029E00E0039E06EB860013
:102F30004000B0FBF7F50A20B5FBF0F100FB1150A3
:102F4000052803D20A20B5FBF0F503E00A20B5FB03
:102F5000F0F0451CA06865F30F00A060E06868F31E
:102F60000C30E060206969F30D30206105B0BDE8E8
:102F7000F08300000038014000600140006401401F
:102F800041B9C26822F40072C260C26822F4806251
:102F9000C2601AE001290AD1C26822F40072C2603C
:102FA000C26822F4806202F58062C2600DE00229EC
:102FB0000BD1C26822F4007202F50072C260C268CE
:102FC00022F4806202F58062C2607047C26861F3D9
:102FD0008202C2607047C26861F3C302C260704778
:102FE0000EB501A8FFF7BEF903208DF80A000120F5
:102FF000019001A92448FFF7C0F903208DF80A00C9
:103000000220019001A92048FFF7B7F90220FEF73E
:1030100077FD0020FEF7DAFA6846FEF7B2FA0020E4
:103020008DF800008DF801008DF8020001208DF868
:10303000030069461548FEF78EFA00230122082195
:103040001248FEF7D7FA012205211048FEF726FBA9
:1030500000210E48FEF73CFB01210C48FEF7C5FAA3
:103060000A48FEF795FA00BF0848FEF797FA0028CD
:10307000FAD10648FEF79BFA00BF0448FEF79DFA16
:103080000028FAD10EBD0000000C014000240140D0
:103090000EB501A8FFF766F903208DF80A0001209C
:1030A000019001A92848FFF768F903208DF80A006C
:1030B0000220019001A92448FFF75FF90220FEF7E2
:1030C0001FFD6846FEF75DFA01208DF80000002024
:1030D0008DF801008DF8020002208DF8030069468A
:1030E0001A48FEF738FA0023012219461748FEF75E
:1030F00081FA0023022201211448FEF77BFA012203
:1031000011461248FEF7CAFA00211048FEF7E0FA0D
:1031100001210E48FEF764FA01210C48FEF765FA1A
:103120000A48FEF735FA00BF0848FEF737FA0028CC
:10313000FAD10648FEF73BFA00BF0448FEF73DFA15
:103140000028FAD10EBD000000080140003C0140FB
:1031500000B58BB009A8FFF705F902208DF82B0008
:1031600000208DF8280008208DF82A0040020990E0
:1031700004208DF8290009A92B48FFF7FEF801204B
:103180008DF82B0000208DF828008DF82A004FF4D0
:103190000060099004208DF8290009A92248FFF752
:1031A000ECF807A8FEF7DFFB00208DF81C008DF877
:1031B0001D0001208DF81E008DF81F0000208DF8E5
:1031C00020008DF821008DF8220007A91748FEF78E
:1031D00023FB1E20ADF8140000208DF816000520FA
:1031E0008DF8170000208DF8180005A90F48FEF78C
:1031F00071FB01208DF8040000208DF807008DF888
:1032000006008DF808008DF80500ADF80A00ADF84D
:103210000C00ADF80E00ADF8100001A90348FEF750
:10322000ABFB0BB000BD0000000801400064004093
:1032300010B501210148FFF7F5F810BD0203103069
:1032400000B585B01148FEF727FF6846FEF79DFEE2
:103250000020ADF8080001208DF80F008DF80D005A
:103260008DF80E0000208DF80C008DF81100012063
:103270008DF8100069460548FEF7DFFE03220121A4
:1032800002480838FEF78DFE05B000BD0800024078
:1032900043608160C26070471CB56846FFF762F802
:1032A0004FF488711748FFF759F841F2300116487A
:1032B000FFF754F802208DF8070000208DF8040075
:1032C00010208DF806004FF48870009004208DF8CF
:1032D000050069460B48FFF750F802208DF80700FB
:1032E00000208DF8040010208DF8060041F2300017
:1032F000009004208DF8050069460348FFF73DF86B
:103300001CBD000000080140000C014070B5032006
:10331000FFF774F9FDF7FCFB054600221146FDF7A7
:1033200034FB044621466FF00B00FDF7F9FBFDF777
:10333000EFFB054600221146FDF727FB0446214618
:103340006FF00A00FDF7ECFBFDF7E2FB05460022FB
:103350001146FDF71AFB044621466FF00900FDF700
:10336000DFFBFDF7D5FB054600221146FDF70DFBFF
:10337000044621466FF00400FDF7D2FBFDF7C8FBC1
:10338000054600221146FDF700FB044621466FF07A
:103390000300FDF7C5FBFDF7BBFB05460022114608
:1033A000FDF7F3FA044621466FF00100FDF7B8FB84
:1033B000FDF7AEFB054600220F21FDF7E6FA0446B5
:1033C00021464FF0FF30FDF7ABFB002211461D20D8
:1033D000FFF7B0F870BD000010B501214FF4A01048
:1033E000FEF7C6FC01214FF4C010FEF7C1FC01211D
:1033F0001F48FEF7BDFC01211D48401CFEF7B8FC2C
:1034000001211B48C01CFEF7B3FC01211848C01D58
:10341000FEF7AEFC012116480A30FEF7A9FC012197
:1034200013480C30FEF7A4FC012111480D30FEF7C3
:103430009FFC01214FF4E010FEF79AFC01210D489A
:10344000FEF796FC01210B48401CFEF791FC012180
:1034500008480D30FEF78CFC012106481130FEF7BC
:1034600087FC012103481830FEF782FC10BD0000E4
:103470000200180001001C001FB502A8FEF772FF31
:103480006846FFF75FFA02208DF80F0000208DF8E4
:103490000C0008208DF80E002020029004208DF8EA
:1034A0000D0002A92648FEF768FF02208DF80F00E4
:1034B00000208DF80C008DF80E00402002900420B2
:1034C0008DF80D0002A91E48FEF757FF02208DF867
:1034D0000F0000208DF80C0008208DF80E008020D1
:1034E000029004208DF80D0002A91548FEF745FF53
:1034F00000208DF8000001208DF8010000208DF8DB
:1035000004008DF8030002208DF8020000208DF8E1
:10351000050001208DF806008DF80700694609486E
:10352000FFF72EFA07210748FFF707FA01210548A0
:10353000FFF7FEF901210348FFF70FFA1FBD000056
:1035400000080140003001401FB502A8FEF70AFF45
:103550006846FFF7F7F902208DF80F0000208DF87C
:103560000C0008208DF80E008002029004208DF8D7
:103570000D0002A92648FEF700FF02208DF80F007B
:1035800000208DF80C008DF80E004FF48040029062
:1035900004208DF80D0002A91D48FEF7EEFE022062
:1035A0008DF80F0000208DF80C0008208DF80E001B
:1035B0000003029004208DF80D0002A91448FEF7C4
:1035C000DCFE00208DF8000001208DF801000020B5
:1035D0008DF804008DF8030002208DF80200002011
:1035E0008DF8050001208DF806008DF8070069466A
:1035F0000848FFF7C5F907210648FFF79EF90121A2
:103600000448FFF795F901210248FFF7A6F91FBD0D
:10361000000C01400038004010B5FEF709FC012104
:103620000420FEF7AFFA00BF2048FEF771FB012827
:10363000FAD101210846FEF7A5FA00BFFEF780FB8C
:103640000028FBD001210020FEF79CFA00BF0120DA
:10365000FEF75EFB0128FAD101221D211046FEF77C
:10366000A9FB01210220FEF78DFA00BF1920FEF709
:103670004FFB0128FAD10020FEF752FA0420FEF792
:1036800063FA0420FEF756FA0120FEF767FA0220DB
:10369000FEF7FAFB00BFFEF715FC0228FBD1002065
:1036A000FEF75CFAFFF7FEF910BD000001002400F0
:1036B00010B586B0002401A8FEF794FA029C0420FD
:1036C000FFF76CFA0948B4FBF0F0094908600020E4
:1036D0004FF0E02188616FF07F4048610846006943
:1036E00040F00100086106B010BD000040420F002C
:1036F000040000201FB502A8FEF734FE042002904B
:1037000008208DF80E0000208DF80C0004208DF8A4
:103710000D0002208DF80F0002A97E48FEF72DFE55
:10372000082002908DF80E0000208DF80C00042077
:103730008DF80D0002208DF80F0002A97548FEF7E4
:103740001CFE4FF40040029008208DF80E0000206F
:103750008DF80C0004208DF80D0002208DF80F006C
:1037600002A96C48FEF709FE082002908DF80E00B1
:1037700000208DF80C0004208DF80D0002208DF83B
:103780000F0002A96448FEF7F8FD01216348FEF727
:1037900049FE02214807FFF736FA00214FF080402A
:1037A000FFF72CFA00214FF08040FFF756FB002274
:1037B00041F26F714FF08040FFF704FA00214FF0A3
:1037C0008040FFF754FB00214FF08040FFF74AFB99
:1037D00006208DF8000001208DF8050000208DF8EE
:1037E00006008DF803008DF804008DF801008DF8B7
:1037F00002006A4600214FF08040FFF73DFA0022A8
:1038000011464FF08040FFF7E5F9002211464FF0D6
:103810008040FFF710FA002211464FF08040FFF77A
:10382000FBFA06208DF8000001208DF8050000202D
:103830008DF806008DF803008DF804008DF8010066
:103840008DF802006A4602214807FFF715FA0022A8
:1038500002214807FFF7BEF9002202214807FFF7BF
:10386000EAF9002202214807FFF7D6FA06208DF870
:10387000000001208DF8050000208DF806008DF86D
:1038800003008DF804008DF801008DF802006A46EF
:1038900004210807FFF7F0F9002204210807FFF7C9
:1038A00099F9002204210807FFF7C5F90022042135
:1038B0000807FFF7B1FA06208DF8000001208DF807
:1038C000050000208DF806008DF803008DF8040037
:1038D0008DF801008DF802006A4606214FF0804005
:1038E000FFF7CAF9002206214FF08040FFF772F976
:1038F000002206214FF08040FFF79DF900220621AB
:103900004FF08040FFF788FA01218807FFF780F920
:103910001FBD000000080140000C0140010204240A
:1039200010B500210E48FFF76EF900210C48FFF793
:1039300065F900210A48FFF790FA092240F65F1165
:103940000748FFF73FF900210548FFF790FA0021EB
:103950000348FFF787FA01210148FFF759F910BD25
:10396000000400401FB502A8FEF7FCFC40200290B6
:1039700008208DF80E0000208DF80C0004208DF832
:103980000D0002208DF80F0002A96D48FEF7F5FC2E
:103990008020029008208DF80E0000208DF80C0089
:1039A00004208DF80D0002208DF80F0002A9644854
:1039B000FEF7E3FC4FF48070029008208DF80E00B3
:1039C00000208DF80C0004208DF80D0002208DF8E9
:1039D0000F0002A95A48FEF7D0FC4FF40070029085
:1039E00008208DF80E0000208DF80C0004208DF8C2
:1039F0000D0002208DF80F0002A95148FEF7BDFC12
:103A000000215048FFF7FFF800214E48FFF7F6F875
:103A100000214C48FFF721FA00224FF6FF71494878
:103A2000FFF7D0F800214748FFF721FA0021454869
:103A3000FFF718FA00208DF8000001208DF805002E
:103A400000208DF806008DF803008DF804008DF835
:103A500001008DF802006A4600213A48FFF70CF990
:103A6000002211463748FFF7B5F8002211463548C5
:103A7000FFF7E1F800208DF8000001208DF8050027
:103A800000208DF806008DF803008DF804008DF8F5
:103A900001008DF802006A4602212A48FFF7ECF87F
:103AA000002202212748FFF795F80022022125482D
:103AB000FFF7C1F800208DF8000001208DF8050007
:103AC00000208DF806008DF803008DF804008DF8B5
:103AD00001008DF802006A4604211A48FFF7CCF86D
:103AE000002204211748FFF775F800220421154829
:103AF000FFF7A1F800208DF8000001208DF80500E7
:103B000000208DF806008DF803008DF804008DF874
:103B100001008DF802006A4606210A48FFF7ACF85A
:103B2000002206210748FFF755F800220621054824
:103B3000FFF781F801210348FFF76AF81FBD000075
:103B4000000C0140000800401CB56846FEF70AFC66
:103B500002208DF8070000208DF8040008208DF861
:103B600006008001009004208DF805006946184881
:103B7000FEF703FC02208DF8070000208DF80400FA
:103B80008DF806004FF48060009004208DF8050049
:103B900069460F48FEF7F1FB00231A460D490E480F
:103BA000FFF7AEF901210C48FFF715FA01210A4889
:103BB000FFF70CFA00210848FFF7E2F90021064858
:103BC000FFF76BF901210448FFF75AF91CBD00000B
:103BD0000008014000941100003801401CB56846FF
:103BE000FEF7C0FB02208DF8070000208DF80400CE
:103BF00008208DF80600C001009004208DF8050013
:103C000069461848FEF7B9FB02208DF8070000202E
:103C10008DF804008DF806004FF400600090042039
:103C20008DF8050069460F48FEF7A7FB00231A46EA
:103C30004FF4E1310C48FFF763F901210A48FFF71F
:103C4000CAF901210848FFF7C1F900210648FFF72A
:103C500097F900210448FFF720F901210248FFF7F6
:103C60000FF91CBD000C014000480040000000009E
:103C7000000000000102030406070809000000001C
:103C8000010203040000000001020304020406080C
:103C9000020C0810000000000000000001020304F4
:103CA00006070809C43C000800000020640000006A
:103CB000800C0008283D0008640000200404000077
:103CC000900C0008000000000000000000127A00C4
:103CD00000000000000000000000000000000000E4
:103CE00000000000000000000000000000000000D4
:103CF00000000000000000000000000000000000C4
:103D000000000000000000000000000000000000B3
:103D10000000000000000000000801400001000059
:083D200000000000000000009B
:040000050800018569
:00000001FF
