:020000040800F2
:10000000280500209D01000819090008C7070008FD
:10001000150900087B070008BD0B00080000000060
:10002000000000000000000000000000150B0008A8
:10003000C5070008000000005B090008170B000856
:10004000B7010008B7010008B7010008B7010008B0
:10005000B7010008B7010008B7010008B7010008A0
:10006000B7010008B7010008B7010008B701000890
:10007000B701000881070008B7010008B7010008B0
:10008000B7010008B7010008B7010008B701000870
:10009000B7010008B7010008B7010008B701000860
:1000A000B7010008B7010008B7010008B701000850
:1000B000B7010008B7010008B7010008B701000840
:1000C000B7010008B7010008B7010008B701000830
:1000D000B7010008B7010008B7010008B701000820
:1000E000B7010008B7010008B7010008B701000810
:1000F000B7010008B7010008B7010008B701000800
:10010000B7010008B7010008890B0008B701000813
:10011000B7010008B7010008B7010008B7010008DF
:10012000B7010008B7010008B7010008B7010008CF
:10013000B7010008B7010008B7010008B7010008BF
:1001400000000000000000000000000000000000AF
:10015000B7010008B7010008B7010008B70100089F
:10016000B7010008B7010008B7010008B70100088F
:10017000B7010008B7010008B7010008B70100087F
:10018000B7010008DFF810D000F0C4FA00480047BB
:1001900061210008AFF30080280500200648804751
:1001A00006480047FEE7FEE7FEE7FEE7FEE7FEE75C
:1001B000FEE7FEE7FEE7FEE7190B000885010008F1
:1001C0002DE9FE4F81EA030404F0004421F00041D0
:1001D00000944FF0000B23F0004350EA01045ED07E
:1001E00052EA03045BD0C3F30A54C1F30A552C440A
:1001F000A4F2F3340194A0FB0254C1F3130141F4BF
:100200008011C3F3130343F4801301FB024400FB8A
:10021000034E840A970A44EA815447EA8357A4FBB1
:10022000076802958D0A05FB07854FEA932C04FBAE
:100230000C542705029D4FEA065847EA1637B5EBDE
:1002400008056EEB070C870E920E47EA811742EA0B
:100250008312A7FB0201B6EB0B0164EB00042B0D2C
:1002600043EA0C335E1844EB1C50DA465146E7FB78
:100270000201C5F313044FEA0B3343EA14534FEA68
:100280000432019C43EA0603A4F10C040294009C8E
:10029000CDE900B400F0A9F803B0BDE8F08F00206C
:1002A0000146F9E70EB5C10F80EAE0700844CA07BD
:1002B000002140F233438DE80E000A460B4600F061
:1002C00094F803B000BDC1F30A5210B5C1F3130195
:1002D00040F2FF3341F480119A4201DA002010BD50
:1002E00040F233439A42A2F2334203DC524200F01E
:1002F0005DF810BD904010BD00F0004230F00040AD
:100300000AD0C10D01F56071C0F3160042EA015137
:10031000C20840071143704700200146704730B5BE
:100320000B46014600202022012409E021FA02F5B3
:100330009D4205D303FA02F5491B04FA02F528444D
:10034000151EA2F10102F1DC30BD2DE9F05F05467A
:10035000002092469B4688460646814640241BE084
:10036000284641464746224600F020F853465A4662
:10037000C01A914110D311461846224600F0DCF90C
:100380002D1A67EB01084F4622460120002100F09C
:10039000D3F917EB00094E41201EA4F10104DFDC64
:1003A000484631462A464346BDE8F09F202A04DBF2
:1003B000203A21FA02F00021704721FA02F3D040DE
:1003C000C2F12002914008431946704710B5141E2F
:1003D00073F1000408DA401C41F1000192185B41FE
:1003E0001A4301D120F0010010BD2DE9F04D9246D5
:1003F0009B4611B1B1FA81F202E0B0FA80F22032EC
:10040000904600F099F904460F4640EA0A0041EA96
:100410000B0153465A46084313D0114653EA0100D4
:1004200019D0C8F140025046FFF7C0FF05460E46FE
:1004300050465946424600F07FF9084305D0012056
:1004400004E020463946BDE8F08D0020054346EA29
:10045000E0762C4337430A986305E40AA0EB0800D2
:100460000022FD0A44EA47540A3002D50020014622
:10047000E9E7010510196941DDE9084500196941FD
:10048000BDE8F04DA2E72DE9FE4F804681EA03006A
:10049000C00F0C46009021F0004123F00045B8EB5E
:1004A0000200A94105D24046214690461C460B4613
:1004B000024623F00040104347D0270DC7F30A003F
:1004C000C3F30A510290401A019040286BDAC3F33B
:1004D000130040F4801B0098924620B10023D2EB19
:1004E000030A63EB0B0B01985946C0F140025046DA
:1004F00000F022F906460D4650465946019A00F092
:100500002AF910EB08006141002487EA115284EABD
:10051000E7731A4340D0009A62B3019A012A4FEA66
:10052000075215DC001B61EB02014FF0004202EAAA
:100530000752CDE90042001C41F5801132462B469E
:10054000FFF753FF03B0BDE8F08F40462146F9E7BF
:10055000001B61EB0201001C41F5801300185B4198
:100560002018A2F5001747EB030140EAD570B61931
:100570006D4111E06D084FEA360645EAC0754FEA55
:100580000752001B61EB0201001C41F58011490874
:100590004FEA30000019514132462B4603B0BDE806
:1005A000F04FFFF713BF0098012240000023D0EB6B
:1005B000020263EBE073009821464FEAE074B8EB67
:1005C000000061EB0401E9E783F000435BE781F0A1
:1005D000004158E72DE9F04D81EA030404F0004B97
:1005E00021F0004514464FF0000A23F0004150EA84
:1005F000050220D054EA01021DD0C5F30A57024675
:10060000C5F31303C1F31300C1F30A5640F4801578
:1006100043F48013A7EB0608101BD64608F2FD38FA
:1006200073EB050002D308F1010801E092185B4169
:10063000B8F1000F03DA00200146BDE8F08D00207C
:100640004FF48011064684460EE0171B73EB050736
:1006500005D3121B63EB050306434CEA010C490862
:100660004FEA300092185B4150EA0107EDD152EA9F
:10067000030012D082EA040083EA0501084305D092
:10068000101BAB4106D20122002306E000224FF0EE
:10069000004302E06FF0010253101AEB06004CEB2E
:1006A000085110EB0A0041EB0B01BDE8F04DFFF7DC
:1006B0008DBEC1F30A52C1F3130140F2FF3341F47E
:1006C00080119A4202DA00200146704740F233431B
:1006D0009A42A2F2334202DC5242FFF767BE00F0B8
:1006E0002BB8000030B5041E71F1000404DB4FF09C
:1006F0000044404264EB0101141E73F1000405DB69
:100700001C464FF00043524263EB0403994208BF7A
:10071000904230BD064C074D06E0E06840F0010312
:1007200094E8070098471034AC42F6D3FFF72EFD4B
:100730003C3D00085C3D0008202A04DB203A00FA1A
:1007400002F1002070479140C2F1200320FA03F328
:10075000194390407047202A06DBCB17203A41FA14
:1007600002F043EAE07306E041FA02F3D040C2F13E
:100770002002914008431946704700BFFEE7000081
:1007800010B54FF4007001F03DFB98B14FF40070CC
:1007900001F028FB0021084801F012FB0021064867
:1007A000143801F00DFB1021044801F051FC012028
:1007B0000349087010BD00004400024000080140D9
:1007C0001A000020704700BFFEE7000070B52DED55
:1007D000048B04462046FFF765FD41EC190B9FEDA5
:1007E000090B53EC102BFFF7EBFC41EC180BFFF758
:1007F0006AFD05462A460621044801F0FDFFBDECCE
:10080000048B70BD666666666666EE3F0008004053
:1008100070B52DED048B04462046FFF743FD41ECF7
:10082000190B9FED090B53EC102BFFF7C9FC41ECA2
:10083000180BFFF748FD05462A460421080701F07A
:10084000DBFFBDEC048B70BD666666666666EE3FD8
:10085000DFED170AB0EE600A1648007830B316488C
:10086000007800041449497840EA01201249897847
:100870000843801200EE900AB8EE601ADFED0F1AFE
:1008800021EE211ADFED0E1A81EE212AB0EE420A86
:100890009FED0C1A20EE011ADFED081A81EE212AD5
:1008A000B0EE420A00200349087000BF7047000004
:1008B000000000001A000020170000200000B443D0
:1008C00000008046D00FC94010B510210D4801F03E
:1008D000BDFB00200C49087001210C4801F070FAA2
:1008E00001210A48143801F06BFA00BF02210848C0
:1008F00001F050FE0028F9D00021054801F03EFE2D
:1009000010BD0000000801401A0000204400024011
:100910000030014000BFFEE77047F0B503460C46CB
:1009200003F00701C1F10700042801D9042001E008
:10093000C1F107000646081D072801D2002000E08B
:10094000C81E05460120B040401E2040A840012797
:10095000AF407F1E17403843F0BD704710B52148A7
:1009600000F02EF920A000F02BF928A000F028F9C3
:100970002B4800F025F92B4800F022F92A4800F016
:100980001FF92AA000F01CF929A000F019F92D4840
:1009900000F016F92C4800F013F924A000F010F92B
:1009A0002AA000F00DF92FA000F00AF933A000F002
:1009B00007F93A4800F004F91CA000F001F938A04A
:1009C00000F0FEF83BA000F0FBF818A000F0F8F8EB
:1009D00040A000F0F5F815A000F0F2F84C4800F047
:1009E000EFF810BD603A0008E4BAA7E59381E590FE
:1009F0008DE7A7B0EFBC9AE58F8CE8B7AF464F43C1
:100A0000E9A9B1E58AA8E599A80D0A00E6A0B8E52C
:100A1000BF83E58A9FE883BDEFBC9A0D0A00000002
:100A2000D83C0008143C0008843C00080D0A000073
:100A3000E7A1ACE4BBB6E9858DE7BDAEEFBC9A0D8E
:100A40000A000000543B0008B43B0008E5BC80E508
:100A50008F91E88085E4BFA1E681AFEFBC9A0D0AD3
:100A6000000000002D20E4BD9CE88085EFBC9AE6E4
:100A70009D8EE68080E694BF0D0A00002D2042E79F
:100A8000AB995550E4B8BBEFBC9AE788B1E994A69E
:100A9000E5AE9DE584BFE592A90D0A00103B000874
:100AA000E78988E69CACE4BFA1E681AFEFBC9A0D74
:100AB0000A0000002D20E69BB4E696B0E697B6E962
:100AC00097B4EFBC9A323032342F332F31310D0AC4
:100AD00000000000E6849FE8B0A2E682A8E585B3A6
:100AE000E6B3A8E69CACE9A1B9E79BAEEFBC8CE607
:100AF0009BB4E5A49AE4BFA1E681AFE695ACE8AF6C
:100B0000B7E69C9FE5BE85EFBC810D0A00000000A2
:100B1000B83A0008704770471848006840F4700001
:100B2000164908601648006820F00100401C14496E
:100B3000086000BF12480068C0F340000028F9D0E8
:100B40000F48406820F003000D49486000BF0C4882
:100B50004068C0F381000028F9D1094800680949BC
:100B60000840074908600020486008634FF41F00F0
:100B70008860C803014980390860704788ED00E04B
:100B800000100240FFFFF2FE10B50A480068401C4A
:100B90000849086008460068B0F57A7F05D1002052
:100BA00000F052FD0020034908600121024801F0D5
:100BB00046FE10BD00000020000C004000BFFEE714
:100BC0000FB4054B10B503A9044A029800F0F6F8DB
:100BD00010BC5DF814FB000019200008240100205F
:100BE00002480068C0F30220704700000CED00E0EE
:100BF00010B5002804DB0A07130E054A135406E05B
:100C00000A07140E034A00F00F031B1FD45410BD33
:100C100000E400E018ED00E002E008C8121F08C17F
:100C2000002AFAD170477047002001E001C1121F6D
:100C3000002AFBD1704700002DE9FF5F82B0002140
:100C4000DDE90430020DDDF840B0034318D044F66E
:100C50001050A2F2FF3242431514119801281FD000
:100C6000A5EB0B00401C5FEA000A4FF000064E4F58
:100C7000DFF83891B046504615D5CAF1000413E0AC
:100C8000119801244AA3012801D16FEA0B010298AF
:100C9000119AC0E90031C0E9024206B0BDE8F09FF8
:100CA000CBF10000DFE704460021404A491842EB3F
:100CB0000450CDE9001012E0E00707D032463B4671
:100CC00040464946FFF77CFA8046894632463B4615
:100CD00010461946FFF774FA06460F466410002CBA
:100CE000EAD1DDE90401DDE90023BAF1000F06DAFB
:100CF000FFF766FA42464B46FFF762FA05E0FFF758
:100D000069FC42464B46FFF765FC04460E4600224E
:100D1000284BFFF7E7FC03D84FF0FF30014607E010
:100D20000022254B20463146FFF7ADFBFFF7C1FC03
:100D3000102409E0002C0ADB0A220023FFF705FB40
:100D4000039B30321A55641E50EA0102F2D1641C32
:100D5000039AC4F111031444119A012A03D0012209
:100D600008430DD10AE0084304D000204FF0110BD6
:100D7000119072E7A3EB0B056D1E0DE05B4504DDE2
:100D80004FF0000205F1010504E003DA4FF0000224
:100D9000A5F10105002AECD002981199C0E90231B1
:100DA000C0E9004579E70000000014400000F03F72
:100DB000300000000000F0430000E03F2DE9FF4F4D
:100DC00095B09A46884606460025EEE1252877D15B
:100DD00000242746F94A0121039400E0044316F851
:100DE000013F203B01FA03F01042F7D130782A2866
:100DF00011D06FF02F033078A0F13002092A16D8F5
:100E0000039A44F0020402EB820203EB4202104414
:100E1000761C0390EFE758F8042B0392002A03DABC
:100E2000504244F40054039044F00204761C30789D
:100E30002E2816D116F8010F44F004042A280DD0EC
:100E40006FF02F023078A0F13003092B09D807EB9F
:100E5000870302EB4303C718761CF3E758F8047BBB
:100E6000761C30786C280FD006DC4C2817D0682808
:100E70000DD06A2814D104E0742810D07A280FD13C
:100E80000DE044F400140AE044F4801401E044F45A
:100E900040147278824202D104F58014761C761CCC
:100EA000307866280BD013DC582877D009DC00286E
:100EB00075D04528F6D04628F4D047281AD193E1BA
:100EC00018E0632835D0642879D0652812D18BE1E9
:100ED000702873D008DC6728F1D069286FD06E289D
:100EE0000DD06F2806D1ACE073282CD0752874D0B3
:100EF000782853D05246179990476D1C54E1C4F39B
:100F00000250022809D003280DD0D8F80010042878
:100F10000DD00D6008F1040846E1D8F80010EA177A
:100F2000C1E90052F6E7D8F800100D80F2E70D7025
:100F3000F0E718F8041B8DF8001000208DF8010070
:100F4000EB46012003E058F804BB4FF0FF30610787
:100F50004FF0000102D40DE009F101018946B942C8
:100F60000FDA8145F8DB1BF809100029F4D108E0FD
:100F700009F1010189468142FADB1BF809100029B9
:100F8000F6D103985346A0EB090721463846179A35
:100F900000F080FA284400EB090507E044E008E18E
:100FA0000DE01BF8010B524617999047B9F1010962
:100FB000F7D2534621463846179AF2E039E00A2123
:100FC000C4F302524FF0000B0091022A06D058F8E9
:100FD000040BC117032A09D00AE023E008F1070037
:100FE00020F00702F2E80201904605E000B2C117C6
:100FF000042A01D140B2C117002906DA0A460021AD
:10100000404261EB02012D2202E0220504D52B2291
:101010008DF80420012203E0E20701D02022F7E747
:10102000914657E00A2100E010214FF0000B00919B
:101030000BE010214FF0000B44F00404082700914E
:1010400003E008204FF0000B0090C4F30252022A84
:1010500005D058F8040B0021032A08D008E008F155
:10106000070020F00702F2E80201904603E080B298
:10107000042A00D1C0B24FF0000922072AD53278E5
:10108000702A07D0DDF800C08CF0100C5CEA0B0C65
:1010900005D00EE040228DF80420012208E050EA3D
:1010A000010306D030238DF804308DF8052002228C
:1010B0009146009B83F0080353EA0B030AD150EAE0
:1010C000010201D1620705D530228DF804204FF0CE
:1010D00001097F1E3278582A04D039A20C920CAA3A
:1010E00002920BE03BA2F9E75B46009AFFF72DF96D
:1010F0000C9B9B5C029A521E0292137050EA0102F2
:10110000F2D1029804A9081A00F1200B600702D559
:1011100024F4803400E001275F4502DDA7EB0B00DB
:1011200000E0002000EB0B01009003984944401AB6
:101130000390E00306D453462146179A039800F023
:10114000A9F90544002706E001A85246C05D179999
:1011500090476D1C7F1C4F45F6DBE0030CD55346D2
:101160002146179A039800F095F9054404E03020D1
:101170005246179990476D1C0099481E009000290F
:10118000F5DC08E00298029952460078491C029169
:10119000179990476D1CBBF10001ABF1010BF1DC1D
:1011A0005BE100F065F90544761C307800287FF497
:1011B0000DAE19B02846BDE8F08F000009280100E7
:1011C00030313233343536373839616263646566BD
:1011D000000000003031323334353637383941427F
:1011E0004344454600000000600700D4062708F18C
:1011F000070020F00700F0E80223804603F0004CCF
:101200005FEA0C0001D097A009E0200501D596A067
:1012100005E0E00701D095A001E0AFF24C0013908B
:10122000307823F0004365280CD006DC452809D02F
:1012300046281DD047287FD13BE0662818D0672874
:101240007AD136E00021112F01DB112000E0781C5B
:10125000CDE9000104A90CA8FFF7EEFCDDE90D01C2
:101260000C9A4FF0000B07F10109109200914EE02B
:101270004FF000400097CDE9011004A90CA8FFF73A
:10128000DBFCDDE90D020C9B0F994FF0000B914642
:101290001093009211B9791C00EB0109B7EB09001A
:1012A00003D4C0F1FF3B07F10109A9EB070001904E
:1012B00042E0012F00DA01270021112F01DD11206A
:1012C00000E03846CDE9000104A90CA8FFF7B4FC02
:1012D000DDE90D010C9A00914FF0000BB946109218
:1012E00021070FD4009A4A4503DA914601E0A9F19B
:1012F0000109B9F1010F05DD109AA9F10101515C55
:101300003029F4D0B84202DA10F1040F03DA0121D7
:10131000CDE9011010E0002803DC8344A9EB0001B3
:1013200002E0411C494500DD8946A0EB0B00401C52
:1013300001904FF000400290200705D401984845E5
:1013400002DB4FF0FF30019000208DF84B00029837
:101350000DF14B07B0F1004F25D002200C902B204F
:101360000D90029800280CDA404202902D200D903A
:1013700007E00A210298FEF7D2FF3031029007F809
:10138000011D0C99481E0C900029F2DC02980028DF
:10139000EFD1791E0D980870307800F0200040F0F1
:1013A000450007F8020D11A8C01BC01D029013983C
:1013B000007800B1012000EB0901019801EBE07118
:1013C000029801440398401A401E0390E00306D49B
:1013D00053462146179A039800F05CF80544139889
:1013E000007818B15246179990476D1CE00323D539
:1013F00053462146179A039800F04CF805441BE029
:10140000BBF1000F07DB0098584504DD10981799D1
:1014100010F80B0001E017993020524690470198D0
:101420000BF1010B401E05F10105019004D12E20A6
:101430005246179990476D1CB9F10001A9F10109B5
:10144000DEDC05E017F8010B5246179990476D1C3A
:101450000299481E02900029F4DC53462146179A4F
:1014600003989EE62D0000002B00000020000000E5
:101470002DE9F041044600251E461746880404D491
:1014800005E039462020B0476D1C641EF9D528467A
:10149000BDE8F0812DE9F041044600251E46904646
:1014A000C80301D5302700E02027880404D505E0D3
:1014B00041463846B0476D1C641EF9D52846BDE844
:1014C000F0810B78426863F3082242604B788268AF
:1014D00063F3410282608B78826863F3CB2282607F
:1014E000CA78521EC36A62F31753C3627047002161
:1014F0000170417081700121C1707047816821F0D5
:10150000080108318160704701468868C0F3C00057
:1015100008B1012070470020FCE7816821F0040138
:10152000091D8160704701468868C0F3800008B1DA
:10153000012070470020FCE70349096860F313416C
:10154000014A11607047000004240140826861F381
:10155000082282607047826861F3000282607047EF
:1015600070B504460A290CDA206901EB410607250B
:10157000B540A84301EB410503FA05F52843206176
:101580000FE0E068A1F10A0505EB45060725B54027
:10159000A843A1F10A0505EB450503FA05F5284323
:1015A000E0600D2A10DBE06AA2F10D0505EB85066F
:1015B0001F25B540A843A2F10D0505EB850501FAED
:1015C00005F52843E0621EE0072A0EDB206BD51FDD
:1015D00005EB85061F25B540A843D51F05EB8505FE
:1015E00001FA05F5284320630DE0606B551E05EBFD
:1015F00085061F25B540A843551E05EB850501FA54
:1016000005F52843606370BD07290ADD836823F070
:10161000007303F100738360836861F35343836055
:1016200007E0836823F000738360836861F35343AA
:101630008360836862F3145383607047426861F388
:10164000CB22426070470000002800DD7047094946
:1016500031F8101059B1084951F82010C968054AED
:1016600032F810205140044A52F82020D16000BFC7
:10167000ECE70000200100201C01002030B50246EC
:1016800000200023146824F002041460146824F07D
:101690000104641C146000E05B1C546804F0010445
:1016A0001CB94FF6FF74A342F6D1546804F001044C
:1016B000002C3FD04D78146865F3C71414608D7802
:1016C000146865F386141460CD78146865F34514C6
:1016D00014600D79146865F3041414604D7914686E
:1016E00065F3C30414608D79146865F38204146093
:1016F0000C78D56964F39E75D5610C786508D4695A
:1017000065F3DF74D461146824F0010414600023CD
:1017100000E05B1C546804F001041CB14FF6FF7438
:10172000A342F6D1546804F001040CB1002002E099
:10173000012000E0002030BD30B50246002000232B
:10174000146824F002041460146824F00104641C7A
:10175000146000E05B1C546804F001041CB94FF6EF
:10176000FF74A342F6D1546804F001045CB30C8802
:10177000641ED56964F30B05D5618D78D46965F372
:101780001964D461CD78D46965F31344D4610D79BB
:10179000D46965F31654D461146824F0010414600C
:1017A000002300E05B1C546804F001041CB14FF6F8
:1017B000FF74A342F6D1546804F001040CB1002078
:1017C00002E0012000E0002030BD00214170817066
:1017D000C1700171417181710170704730B5002293
:1017E000CC78012303FA04F2D0F8003223F001038D
:1017F0005B1CC0F80032D0F81C329343C0F81C3296
:101800000B7913B1012B5AD12CE0D0F80C32934351
:10181000C0F80C328B891C04CD7800F5107343F8A6
:101820003540CC7853F834300C892343CD7800F51B
:10183000107444F835304B891C04CD7800F51073D2
:1018400003EBC5035C60CC7800F5107303EBC403B5
:101850005B68CC882343CD7800F5107404EBC50495
:1018600063602DE0D0F80C321343C0F80C32CB8803
:101870001C04CD7800F5107343F83540CC7853F84C
:1018800034300C892343CD7800F5107444F835309A
:101890004B891C04CD7800F5107303EBC5035C6025
:1018A000CC7800F5107303EBC4035B688C89234389
:1018B000CD7800F5107404EBC504636000E000BF50
:1018C00000BF4B7813B1012B0CD105E0D0F80432E6
:1018D0009343C0F8043206E0D0F804321343C0F852
:1018E000043200E000BF00BF8B7813B1012B0CD194
:1018F00005E0D0F814329343C0F8143206E0D0F873
:1019000014321343C0F8143200E000BF00BF0B785C
:101910003BB1012B0BD1D0F81C321343C0F81C3261
:1019200006E0D0F81C329343C0F81C3200E000BF40
:1019300000BFD0F8003223F00103C0F8003230BD00
:101940000649496860F38F31044A516082080349AF
:10195000496862F31C71014A5160704700100240EF
:101960000349496860F30711014A5160704700005C
:10197000001002400349496860F30A21014A51609E
:1019800070470000001002400349496860F3CD2110
:10199000014A51607047000000100240012807D141
:1019A0000749496D21F030013031054A516505E0A4
:1019B0000349496D21F03001014A5165704700002B
:1019C00000100240052827D2DFE800F0030A1118B2
:1019D0001F00134A126861F30002114B1A601CE0E9
:1019E0000F4A126861F310420D4B1A6015E00C4A61
:1019F000126861F318620A4B1A600EE0084A126A14
:101A000061F30002064B1A6207E0054A526A61F36D
:101A10000002034B5A6200E000BF00BF70470000A5
:101A2000001002402DE9F041014600270022002568
:101A300090460023002400F065F9064626B1012EE9
:101A400012D0022E43D112E03948406DC0F340203D
:101A500038B13748006BC0F3406010B135480860BA
:101A600001E03548086035E03348086032E030482E
:101A70004068C0F300482E484068C0F383422C48B9
:101A80004068C0F341750DB90F2A03D12801401CED
:101A9000024400E0921CB8F1000F03D127485043E4
:101AA000086013E022484068C0F3404058B1204825
:101AB000406DC0F30137B81CDFF87CC0BCFBF0F010
:101AC0005043086002E01C485043086002E01A4896
:101AD000086000BF00BF16484068C0F303131848F1
:101AE000C45C0868E040486011484068C0F30223C5
:101AF0001448C45C4868E040C8600D484068C0F3C2
:101B0000C2231148C45C4868E040886008484068C7
:101B1000C0F3007306484068C0F3813040EA830395
:101B20000A48C45C8868B0FBF4F00861BDE8F08145
:101B300000100240006CDC0200127A0000093D0037
:101B4000E4390008F4390008FC390008043A0008B8
:101B500010B501460020094B03EB1142126801F059
:101B60001F040123A3401A4001F01F040123A340D6
:101B70009A4200D000E0012010BD00000010024099
:101B800030B50024002500E0641C1120FFF7E0FFC1
:101B9000012802D0B4F5405FF6D31120FFF7D8FF3B
:101BA000012801D0002500E00125284630BD0000B5
:101BB00010B501290DD10E4B03EB1042126800F055
:101BC0001F040123A3401A43094C04EB10431A607D
:101BD0000CE0074B03EB1042126800F01F040123D6
:101BE000A3409A43024C04EB10431A6010BD00005E
:101BF0000010024010B568B91C4B5B6823F48033B9
:101C00001A4C636023461B6B23F0007303F10073CF
:101C1000236317E0154B5B6823F4803303F58033AF
:101C2000124C6360012805D123465B6823F400331E
:101C3000636007E00D4B5B6823F4003303F500336A
:101C40000A4C6360094B5B6861F39543074C636022
:101C50000C09064B5B6864F35E73044C63602346B7
:101C60005B6862F3DF73636010BD00000010024028
:101C70001348006820F00100401C1149086000BFB3
:101C80000F480068C0F340000028F9D00C484068B5
:101C900020F003000A49486000BF09484068C0F3CB
:101CA00081000028F9D10648006806490840044927
:101CB00008600020486008634FF41F008860704788
:101CC00000100240FFFFF2FE0D49496860F3010178
:101CD0000B4A516000BF00BF00BF00BF00BF00BF84
:101CE00000BF00BF00BF00BF00BF00BF00BF00BFFC
:101CF00000BF00BF00BF00BF00BF00BF70470000B3
:101D00000010024002484068C0F3810070470000A4
:101D10000010024010B5042000F052FD0748006892
:101D20000749B0FBF1F007490860084600684FF426
:101D30007A7148430449086010BD00000800002083
:101D400040420F000C00002010000020002131E074
:101D500032280ADD194A126832235A434FF0E02331
:101D60005A61A0F1320290B206E0144A126842436E
:101D70004FF0E0235A61002000224FF0E0239A61E7
:101D80001A46126942F001021A6100BF4FF0E022C8
:101D9000116901F001021AB101F48032002AF5D074
:101DA0004FF0E022126922F001024FF0E0231A61A5
:101DB00000229A610028CBD170470000100000205B
:101DC000026861F300020260704700210160416017
:101DD00001814181017341738173C1730174417445
:101DE00070470000B0F1805F04D920F07041034AD1
:101DF000116001E00249486070470000040402409D
:101E000000000240014600200022B1F1805F02D9AB
:101E1000054B1A6801E0054B1A6802EA01030BB191
:101E2000012000E000207047000402400000024052
:101E3000D0F8A430C3F300633BB9D0F8A43023F04A
:101E4000807303F18073C0F8A430012906D1D0F863
:101E5000A03062F30703C0F8A03034E0022906D1B5
:101E6000D0F8A03062F30F23C0F8A0302BE0032994
:101E700006D1D0F8A03062F31743C0F8A03022E0BA
:101E8000042906D1D0F8A03062F31F63C0F8A03057
:101E900019E0052906D1D0F8A43062F30703C0F891
:101EA000A43010E0062906D1D0F8A43062F30F2345
:101EB000C0F8A43007E0072905D1D0F8A43062F3B8
:101EC0001743C0F8A430704702684BF6EF731A400E
:101ED000026002680B891A4302604B7C026863F35C
:101EE0000D320260CB7B026863F38B2202608B7B36
:101EF000026863F3092202604B7B026863F3C71236
:101F000002600B7B026863F3861202600B7C02683E
:101F100063F3451202604A8942600A6882604A6837
:101F2000C26070471AB103680B43036002E00368A4
:101F30008B430360704700000021026822F0010219
:101F400002600022026042608260C260014640F28C
:101F5000FF420A40B2F5816F0DD2CAB2083A14238B
:101F6000B2FBF3F293000F229A400D4B5B681A43C9
:101F70000B4B5A6012E040F2FF420A40B2F5916FFB
:101F80000CD2CAB2083A1423B2FBF3F293000F2228
:101F90009A40044B1B681A43024B1A6070470000BA
:101FA000000002400404024010B504460020608096
:101FB000208000BF1BE0217A01290AD16188134AE1
:101FC0001288114461802188104A5288114421806E
:101FD0000CE0217A022909D161880D4A1288114446
:101FE000618021880A4A528811442180401C1028AF
:101FF000E1DB20880011A08060880011E080E38888
:10200000A288217A0348FEF7DBFD10BD1C000020EA
:10201000200000201C3A000870B504460D4600BFA1
:102020008021094800F043FD0028F9D0A1B20648FC
:1020300000F034FD00BF4021034800F038FD0028C7
:10204000F9D0204670BD0000003801404161704762
:10205000016170474FF6FF710160002181710171CC
:10206000042141710121C1717047F0B50A461588FC
:10207000ABB29579032D01D100241AE0957965B9A9
:10208000557905F00F045579182D01D1036110E041
:102090005579282D0DD143610BE0957905F00805A0
:1020A000167906F004063543D67906F0030645EAAC
:1020B0000604DDB2A5B1002110E001258D401D40D0
:1020C0005DB105688F000F26BE40B5430560056809
:1020D0008E0004FA06F635430560491C0829ECD346
:1020E000FF2B15DD1B12002110E001258D401D4046
:1020F0005DB145688F000F26BE40B5434560456819
:102100008E0004FA06F635434560491C0829ECD3D5
:10211000F0BD0000F0B50C46104F07EB1062C0F3A5
:102120000741C0F30725C6B2C5F12007A7EB010C94
:102130004FF0FF3707FA0CF3C5F120077F1AFB4079
:10214000CB408B4017689F4317602CB106FA01FC07
:10215000176847EA0C071760F0BD00000000014057
:102160002DED048B01F000F900F0D6FF00F07CFEAD
:1021700000F068FF01F044F900F07EFE0223424ABD
:102180004249434800F020FF01214148FFF718FE73
:1021900000F09CFE02233F4A3F493D48143000F0C6
:1021A00013FF01213A481430FFF70AFE00F0B8FE91
:1021B00001233A4A3A493648283000F005FF012108
:1021C00033482830FFF7FCFD00F0D4FE0123354AE8
:1021D00033492F483C3000F0F7FE01212C483C30B9
:1021E000FFF7EEFD01F06CFB01F0B4FB00F0E4FF43
:1021F00001F052F800F006FD00F066FD01F022F952
:1022000001F036FA01F03AFB00F0BEFD00F0E0FE0E
:10221000FFF780FDFEF7A2FB41F28730FEF7D6FA0A
:1022200041F28730FEF7F4FA0A20FFF78FFD1E48CF
:102230000068FFF7B9FE1D480068FFF7B5FE0122F0
:1022400011461B4800F0FEFA0122022110482830F6
:10225000FFF768FE16E0FEF737FB00BF1548007871
:102260000028FBD0FEF7F4FAB0EE408A18EE100A10
:10227000FEF742F841EC190B53EC192B0EA0FEF7B8
:102280009FFC00BFE7E70000200000204C3C01401D
:10229000080002401C0000204C24014017000020D0
:1022A0000C30014014000020BC0000201801002068
:1022B000000C00401A000020256C660D0A0000008A
:1022C0002DE9F0470B4614464FF0000C00BF2C4A96
:1022D0001268C2F302211D4626460A46C2F10709CA
:1022E000B9F1040F02D94FF0040901E0C2F1070966
:1022F000C84602F10409B9F1070F02D24FF00009F4
:1023000001E0A2F103094F464FF0010909FA08F96B
:10231000A9F1010909EA050909FA07F94FF0010ACB
:102320000AFA07FAAAF1010A0AEA060A49EA0A09B8
:10233000CC4601466246002904DB15072E0E114DDE
:102340006E5407E015072F0E0D4D0C3501F00F06EA
:10235000361FAF5500BF014600290DDB00BF00BF8F
:1023600001F01F050122AA404D09AD0005F1E0254D
:10237000C5F8002100BF00BF00BFBDE8F087000026
:102380000CED00E000E400E000BF00F00702064BA7
:1023900019684FF6FF031940044B0B4343EA02212F
:1023A000014B196000BF70470CED00E00000FA051A
:1023B00010B52DED088BB0EE408AF0EE608AB0EEDD
:1023C000419A9FED2A0A28EE000A10EE101A0846DC
:1023D000FDF792FF41EC1B0B9FED250B53EC102BEF
:1023E000FDF7EEFE41EC1A0BFDF76DFF04462246A9
:1023F0000421214800F000FA9FED1C0A28EE800A13
:1024000010EE101A0846FDF777FF41EC1B0B9FED0D
:10241000180B53EC102BFDF7D3FE41EC1A0BFDF714
:1024200052FF044622460221134800F0E5F99FEDD1
:102430000F0A29EE000A10EE101A0846FDF75CFF9D
:1024400041EC1B0B9FED0A0B53EC102BFDF7B8FE74
:1024500041EC1A0BFDF737FF0446224600210648DF
:1024600000F0CAF9BDEC088B10BD00000080BB4530
:10247000CDCCCCCCCCCCEC3F0008004010B52DED41
:10248000088BB0EE408AF0EE608AB0EE419A9FED84
:102490002B0A28EE000A10EE101A0846FDF72CFF52
:1024A00041EC1B0B9FED260B53EC102BFDF788FE28
:1024B00041EC1A0BFDF707FF0446224606214FF0B8
:1024C000804000F099F99FED1D0A28EE800A10EE79
:1024D000101A0846FDF710FF41EC1B0B9FED180B7F
:1024E00053EC102BFDF76CFE41EC1A0BFDF7EBFEE5
:1024F000044622460221480700F07EF99FED0F0AAC
:1025000029EE000A10EE101A0846FDF7F5FE41EC20
:102510001B0B9FED0B0B53EC102BFDF751FE41EC09
:102520001A0BFDF7D0FE0446224600214FF08040F2
:1025300000F062F9BDEC088B10BD00000080BB45C7
:10254000CDCCCCCCCCCCEC3F026861F34D320260F8
:102550007047026961F30F02026170470021017048
:1025600041708170C1700171417181710121C1712E
:102570007047026861F3861202607047C16070475D
:10258000426861F3000242607047426861F34102B1
:10259000426070470246002093680B4003B900E098
:1025A00001207047C26922F40062C2610A7862B9F0
:1025B000026822F400420260026822F48042026053
:1025C000026822F48062026036E00A78012A0ED1A5
:1025D000026822F400420260026822F48042026033
:1025E000026822F4806202F58062026024E00A78C8
:1025F000022A0ED1026822F4004202F50042026073
:10260000026822F480420260026822F48062026062
:1026100012E00A78032A0FD1026822F4004202F580
:1026200000420260026822F4804202F580420260A9
:10263000026822F480620260CB79026863F3492267
:1026400002604A78012A09D1CA79012A06D10268B2
:1026500022F4807202F58072026003E0026822F4C4
:10266000807202604B78026863F3820202608A78AB
:10267000072A0BDD426822F4807202F58072426004
:102680008A78036862F3C503036008E0426822F4B5
:10269000807242608B78026863F3C5020260CB7877
:1026A000026863F3C71202600B79026863F3CB22FE
:1026B00002604B79026863F3410202608B79026821
:1026C00063F30002026070472DE9F0470026002402
:1026D00000250027A046A146FFF714FB8246BAF169
:1026E000000F06D0BAF1010F15D0BAF1020F46D192
:1026F00015E02D48406DC0F3402040B12A48006BE2
:10270000C0F3406018B129482949086002E029480F
:102710002749086037E027482549086033E0224808
:102720004068C0F3004720484068C0F383441E4817
:102730004068C0F341750DB90F2C03D12801401C2E
:10274000044400E0A41C27B91B48604318490860F2
:1027500014E015484068C0F3404058B11248406D3D
:10276000C0F30136B01C1349B1FBF0F060431049CF
:10277000086003E00F4860430D49086003E00D481E
:102780000B49086000BF00BF07484068C0F303184A
:102790000A4810F808900648006820FA09F0044931
:1027A0000860BDE8F087000000100240006CDC0209
:1027B0000800002000127A0000093D000C3A0008D1
:1027C000042808D14FF0E021096941F004014FF0DD
:1027D000E022116107E04FF0E021096921F00401D6
:1027E0004FF0E02211617047C1628262436923F0B9
:1027F00001035B1C436170470B4633B1022B06D0CB
:10280000042B06D0062B08D105E0426306E0826364
:1028100004E0C26302E0026400E000BF00BF704752
:10282000026861F3092202607047026861F30612D0
:1028300002607047026861F3000202607047CA4399
:1028400002617047012A03D1C3680B43C36003E0F0
:1028500012B9C3688B43C360704710B50B4633B1E0
:10286000022B09D0042B0CD0062B14D10EE0846966
:1028700062F3C30484610FE0846962F3CB24846152
:102880000AE0C46962F3C304C46105E0C46962F389
:10289000CB24C46100E000BF00BF10BD2DE9F041B2
:1028A00000250026002701F108035C1C92F801C0F6
:1028B0000CFA03FC1FFA8CF592F802C00CFA04FC27
:1028C0001FFA8CF6D0F804C04FF0010808FA04F89B
:1028D0002CEA080CC0F804C0D0F804C04CEA060C7E
:1028E000C0F804C0D0F804C04FF0010808FA03F89B
:1028F0002CEA080CC0F804C0D0F804C04CEA050C5F
:10290000C0F804C00F4637B1022F0DD0042F14D0E9
:10291000062F24D11AE092F80080D0F818C068F38E
:10292000061CC0F818C01BE092F80080D0F818C050
:1029300068F30E3CC0F818C012E092F80080D0F89E
:102940001CC068F3061CC0F81CC009E092F80080A7
:10295000D0F81CC068F30E3CC0F81CC000E000BFFB
:1029600000BF4FF0010C0CEB41034FF0030C0CEBDC
:10297000410492F803C00CFA03FC1FFA8CF592F89C
:1029800004C00CFA04FC1FFA8CF64FF0010808FA98
:1029900004F8D0F820C02CEA080CC0F820C0D0F809
:1029A00020C04CEA060CC0F820C04FF0010C0CFA15
:1029B00003FCD0F8208028EA0C08C0F82080D0F86A
:1029C00020C04CEA050CC0F820C04B004FF0020CB0
:1029D0000CEB410492F805C04FEA41080CFA08FCE0
:1029E0001FFA8CF592F806C04FF0020808EB410878
:1029F0000CFA08FC1FFA8CF64FF0010808FA04F8EC
:102A0000D0F820C02CEA080CC0F820C0D0F820C0B4
:102A10004CEA060CC0F820C04FF0010808FA03F891
:102A2000D0F820C02CEA080CC0F820C0D0F820C094
:102A30004CEA050CC0F820C0BDE8F08110B50B468B
:102A400033B1022B09D0042B0CD0062B14D10EE08D
:102A5000846962F3820484610FE0846962F38A24EA
:102A600084610AE0C46962F38204C46105E0C46958
:102A700062F38A24C46100E000BF00BF10BD026899
:102A800061F3C71202607047426861F30612426048
:102A90007047826861F3C71282607047C1F3080211
:102AA00042607047C26861F34D32C26070470246AF
:102AB0001068084008B1012070470020FCE741B9C8
:102AC000426922F480724261426922F400724261DA
:102AD00027E001290AD1426922F4807202F580724E
:102AE0004261426922F4007242611AE002290AD16D
:102AF000426922F480724261426922F4007202F556
:102B0000007242610DE003290BD1426922F4807208
:102B100002F580724261426922F4007202F500728D
:102B2000426170472DE9F04385B004460F46904658
:102B300099466846FEF776FF1748844205D0174845
:102B4000844202D01648844201D1029E00E0039ED6
:102B500006EB86004000B0FBF7F50A20B5FBF0F16C
:102B600000FB1150052803D20A20B5FBF0F503E065
:102B70000A20B5FBF0F0451CA06865F30F00A060CB
:102B8000E06868F30C30E060206969F30D30206183
:102B900005B0BDE8F083000000380140006001404E
:102BA0000064014041B9C26822F40072C260C26888
:102BB00022F48062C2601AE001290AD1C26822F4BC
:102BC0000072C260C26822F4806202F58062C26054
:102BD0000DE002290BD1C26822F4007202F50072E6
:102BE000C260C26822F4806202F58062C2607047EF
:102BF000C26861F38202C2607047C26861F3C302B7
:102C0000C26070470EB501A8FFF724FA03208DF8C3
:102C10000A000120019001A92948FFF726FA0320A4
:102C20008DF80A000220019001A92548FFF71DFA3E
:102C30000220FEF785FE0020FEF77EFC6846FEF7C8
:102C400056FC01208DF8000000208DF801008DF861
:102C5000020002208DF8030069461A48FEF731FC95
:102C600001231A4608211748FEF77AFC01230222A5
:102C700009211448FEF774FC012205211148FEF7D2
:102C8000C3FC00210F48FEF7D9FC01210D48FEF7D7
:102C90005DFC01210B48FEF75EFC0A48FEF72EFCA6
:102CA00000BF0848FEF730FC0028FAD10548FEF7BF
:102CB00034FC00BF0348FEF736FC0028FAD10EBDF5
:102CC000000C0140002401400EB501A8FFF7C2F935
:102CD00003208DF80A000120019001A92848FFF780
:102CE000C4F903208DF80A000220019001A92448AC
:102CF000FFF7BBF90220FEF723FE6846FEF7F7FB5D
:102D000001208DF8000000208DF801008DF80200F0
:102D100002208DF8030069461A48FEF7D2FB012312
:102D20001A4600211748FEF71BFC01230222194610
:102D30001448FEF715FC012211461248FEF764FC08
:102D400000211048FEF77AFC01210E48FEF7FEFB39
:102D500001210C48FEF7FFFB0A48FEF7CFFB00BF3E
:102D60000848FEF7D1FB0028FAD10648FEF7D5FB4C
:102D700000BF0448FEF7D7FB0028FAD10EBD0000C3
:102D800000080140003C014000B58BB009A8FFF7E6
:102D900061F902208DF82B0000208DF82800082012
:102DA0008DF82A004002099004208DF8290009A915
:102DB0002B48FFF75AF901208DF82B0000208DF8E1
:102DC00028008DF82A004FF40060099004208DF847
:102DD000290009A92248FFF748F907A8FEF7F5FCE2
:102DE00000208DF81C008DF81D0001208DF81E00BC
:102DF0008DF81F0000208DF820008DF821008DF83F
:102E0000220007A91748FEF739FC1E20ADF8140070
:102E100000208DF8160005208DF8170000208DF891
:102E2000180005A90F48FEF787FC01208DF8040063
:102E300000208DF807008DF806008DF808008DF849
:102E40000500ADF80A00ADF80C00ADF80E00ADF8C5
:102E5000100001A90348FEF7C1FC0BB000BD000043
:102E6000000801400064004010B501210148FFF74F
:102E700051F910BD0203103000B585B01248FFF7BC
:102E80005BF86846FEF7A1FF0020ADF808000120BE
:102E90008DF80F008DF80D008DF80E0000208DF8D4
:102EA0000C0002208DF8110001208DF810006946F9
:102EB0000548FFF709F80322012103480838FEF707
:102EC000B7FF05B000BD00000800024000B585B0A6
:102ED0001248FFF731F86846FEF777FF0020ADF89B
:102EE000080001208DF80F008DF80D008DF80E0000
:102EF00000208DF80C0002208DF8110001208DF8C3
:102F0000100069460548FEF7DFFF01220221034851
:102F10001C38FEF78DFF05B000BD00001C0002400C
:102F200000B585B01248FFF707F86846FEF74DFF79
:102F30000020ADF808008DF80F0001208DF80D007D
:102F400000208DF80E008DF80C0003208DF8110084
:102F500001208DF8100069460548FEF7B5FF0922EB
:102F6000032103483038FEF763FF05B000BD0000C1
:102F70003000024000B585B01248FEF7DDFF68461C
:102F8000FEF723FF1020ADF8080000208DF80F0099
:102F900001208DF80D0000208DF80E008DF80C003A
:102FA00003208DF8110000208DF8100069460548B7
:102FB000FEF78AFF0A22042102484438FEF738FF50
:102FC00005B000BD4400024043608160C2607047AC
:102FD0001CB56846FFF73EF84FF488711748FFF7B5
:102FE00035F841F230011648FFF730F802208DF82D
:102FF000070000208DF8040010208DF806004FF423
:103000008870009004208DF8050069460B48FFF792
:103010002CF802208DF8070000208DF80400102005
:103020008DF8060041F23000009004208DF8050074
:1030300069460348FFF719F81CBD0000000801406D
:10304000000C014070B50520FFF79EF9FDF7C8FDA3
:10305000054600221146FDF760FC044621466FF04C
:103060000B00FDF7C5FDFDF7BBFD0546002211462F
:10307000FDF753FC044621466FF00A00FDF7B8FD4A
:10308000FDF7AEFD054600221146FDF746FC04465D
:1030900021466FF00900FDF7ABFDFDF7A1FD0546E8
:1030A00000221146FDF739FC044621466FF004006A
:1030B000FDF79EFDFDF794FD054600221146FDF744
:1030C0002CFC044621466FF00300FDF791FDFDF74F
:1030D00087FD054600221146FDF71FFC04462146E8
:1030E0006FF00100FDF784FDFDF77AFD0546002233
:1030F0001146FDF712FC044621464FF0FF30FDF764
:1031000077FD002211460D20FFF7DAF80022032197
:103110003220FFF7D5F870BD10B501214FF4A01093
:10312000FEF746FD01214FF4C010FEF741FD0121DD
:103130001F48FEF73DFD01211D48401CFEF738FDEC
:1031400001211B48C01CFEF733FD01211848C01D9A
:10315000FEF72EFD012116480A30FEF729FD012158
:1031600013480C30FEF724FD012111480D30FEF705
:103170001FFD01214FF4E010FEF71AFD01210D485B
:10318000FEF716FD01210B48401CFEF711FD012141
:1031900008480C30FEF70CFD012106481030FEF700
:1031A00007FD012103481730FEF702FD10BD0000A6
:1031B0000200180002001C001FB502A8FEF74AFF1B
:1031C0006846FFF7CBF902208DF80F0000208DF83C
:1031D0000C0008208DF80E002020029004208DF8AD
:1031E0000D0002A92A48FEF740FF02208DF80F00CB
:1031F00000208DF80C008DF80E0040200290042075
:103200008DF80D0002A92248FEF72FFF02208DF84D
:103210000F0000208DF80C0008208DF80E00802093
:10322000029004208DF80D0002A91948FEF71DFF39
:1032300000208DF8000001208DF8010000208DF89D
:1032400004008DF8030002208DF8020000208DF8A4
:10325000050001208DF806008DF8070069460D482D
:10326000FFF7A0F907210B48FFF773F9012109487F
:10327000FFF76AF901210748FFF787F9012105489F
:10328000FFF77EF901210348FFF773F91FBD000026
:1032900000080140003001401FB502A8FEF7DAFE29
:1032A0006846FFF75BF902208DF80F0000208DF8CB
:1032B0000C0008208DF80E008002029004208DF88A
:1032C0000D0002A92648FEF7D0FE02208DF80F005F
:1032D00000208DF80C008DF80E004FF48040029015
:1032E00004208DF80D0002A91D48FEF7BEFE022045
:1032F0008DF80F0000208DF80C0008208DF80E00CE
:103300000003029004208DF80D0002A91448FEF776
:10331000ACFE00208DF8000001208DF80100002097
:103320008DF804008DF8030002208DF802000020C3
:103330008DF8050001208DF806008DF8070069461C
:103340000848FFF72FF907210648FFF702F9012186
:103350000448FFF7F9F801210248FFF70AF91FBDF9
:10336000000C01400038004010B5FEF781FC01213F
:103370000420FEF727FB00BF2048FEF7E9FB0128E9
:10338000FAD101210846FEF71DFB00BFFEF7F8FB4E
:103390000028FBD001210020FEF714FB00BF012014
:1033A000FEF7D6FB0128FAD101221D211046FEF7B7
:1033B00021FC01210220FEF705FB00BF1920FEF7CA
:1033C000C7FB0128FAD10020FEF7CAFA0420FEF755
:1033D000DBFA0420FEF7CEFA0120FEF7DFFA022026
:1033E000FEF772FC00BFFEF78DFC0228FBD1002027
:1033F000FEF7D4FAFFF768F910BD000001002400C1
:1034000010B586B0002401A8FEF70CFB029C042036
:10341000FFF7D6F90948B4FBF0F00949086000202D
:103420004FF0E02188616FF07F40486108460069F5
:1034300040F00100086106B010BD000040420F00DE
:10344000040000201FB502A8FEF704FE042002902D
:1034500008208DF80E0000208DF80C0004208DF857
:103460000D0002208DF80F0002A97E48FEF7FDFD39
:10347000082002908DF80E0000208DF80C0004202A
:103480008DF80D0002208DF80F0002A97548FEF797
:10349000ECFD4FF40040029008208DF80E00002053
:1034A0008DF80C0004208DF80D0002208DF80F001F
:1034B00002A96C48FEF7D9FD082002908DF80E0095
:1034C00000208DF80C0004208DF80D0002208DF8EE
:1034D0000F0002A96448FEF7C8FD01216348FEF70A
:1034E00019FE002241F287314FF08040FFF77CF94E
:1034F00002214807FFF799F900214FF08040FFF7BC
:103500008FF900214FF08040FFF7B9FA00214FF00A
:103510008040FFF7BEFA00214FF08040FFF7B4FA79
:1035200006208DF8000001208DF8050000208DF8A0
:1035300006008DF803008DF804008DF801008DF869
:1035400002006A4600214FF08040FFF7A7F90022F1
:1035500011464FF08040FFF74FF9002211464FF01F
:103560008040FFF77AF9002211464FF08040FFF7C4
:1035700065FA06208DF8000001208DF80500002076
:103580008DF806008DF803008DF804008DF8010019
:103590008DF802006A4602214807FFF77FF90022F2
:1035A00002214807FFF728F9002202214807FFF708
:1035B00054F9002202214807FFF740FA06208DF84F
:1035C000000001208DF8050000208DF806008DF820
:1035D00003008DF804008DF801008DF802006A46A2
:1035E00004210807FFF75AF9002204210807FFF712
:1035F00003F9002204210807FFF72FF90022042114
:103600000807FFF71BFA06208DF8000001208DF84F
:10361000050000208DF806008DF803008DF80400E9
:103620008DF801008DF802006A4606214FF08040B7
:10363000FFF734F9002206214FF08040FFF7DCF855
:10364000002206214FF08040FFF707F900220621F3
:103650004FF08040FFF7F2F901218807FFF7EAF801
:103660001FBD000000080140000C014001020424BD
:103670001FB502A8FEF7EEFC4020029008208DF84E
:103680000E0000208DF80C0004208DF80D000220A3
:103690008DF80F0002A97748FEF7E7FC8020029022
:1036A00008208DF80E0000208DF80C0004208DF805
:1036B0000D0002208DF80F0002A96E48FEF7D5FC20
:1036C0004FF48070029008208DF80E0000208DF8D5
:1036D0000C0004208DF80D0002208DF80F0002A9C7
:1036E0006448FEF7C2FC4FF40070029008208DF889
:1036F0000E0000208DF80C0004208DF80D00022033
:103700008DF80F0002A95B48FEF7AFFC002241F2E2
:1037100087315948FFF768F802215748FFF785F8C5
:1037200000215548FFF77CF800215348FFF7A7F91F
:1037300000215148FFF7ADF900214F48FFF7A4F9E8
:1037400006208DF8000001208DF8050000208DF87E
:1037500006008DF803008DF804008DF801008DF847
:1037600002006A4600214448FFF798F800221146FB
:103770004148FFF741F8002211463F48FFF76DF836
:10378000002211463C48FFF759F906208DF8000049
:1037900001208DF8050000208DF806008DF803004B
:1037A0008DF804008DF801008DF802006A460221B0
:1037B0003148FFF773F8002202212F48FFF71CF869
:1037C000002202212C48FFF748F8002202212A4853
:1037D000FFF734F906208DF8000001208DF8050070
:1037E00000208DF806008DF803008DF804008DF898
:1037F00001008DF802006A4604211F48FFF74EF8C9
:10380000002204211C48FEF7F7FF002204211A4879
:10381000FFF723F8002204211748FFF70FF90620CD
:103820008DF8000001208DF8050000208DF80600BD
:103830008DF803008DF804008DF801008DF802006A
:103840006A4606210C48FFF729F8002206210A489B
:10385000FEF7D2FF002206210748FEF7FEFF0022F6
:1038600006210548FFF7EAF801210348FEF7E2FFC9
:103870001FBD0000000C01400008004010B50922E7
:1038800045F6BF510D48FEF7AFFF00210B48FEF78C
:10389000CCFF00210948FEF7C3FF00210748FFF7CE
:1038A000EEF800210548FFF7F4F800210348FFF780
:1038B000EBF801210148FEF7BDFF10BD000C0040F0
:1038C0001CB56846FEF7C6FB02208DF807000020F5
:1038D0008DF8040008208DF8060080010090042077
:1038E0008DF8050069461848FEF7BFFB02208DF8E9
:1038F000070000208DF804008DF806004FF480606A
:10390000009004208DF8050069460F48FEF7ADFBD6
:1039100000231A460D490E48FFF704F901210C480F
:10392000FFF76BF901210A48FFF762F90021084807
:10393000FFF738F900210648FFF7C1F801210448D4
:10394000FFF7B0F81CBD00000008014080841E0095
:10395000003801401CB56846FEF77CFB02208DF85C
:10396000070000208DF8040008208DF80600C00133
:10397000009004208DF8050069461848FEF775FB95
:1039800002208DF8070000208DF804008DF8060055
:103990004FF40060009004208DF8050069460F4840
:1039A000FEF763FB00231A464FF4E1310C48FFF7A2
:1039B000B9F801210A48FFF720F901210848FFF76B
:1039C00017F900210648FFF7EDF800210448FFF73A
:1039D00076F801210248FFF765F81CBD000C014094
:1039E0000048004000000000000000000102030445
:1039F000060708090000000001020304000000009F
:103A00000102030402040608020C08100000000072
:103A10000000000001020304060708096D6F746FBF
:103A200072202564203A20556120766F6C7461679E
:103A300065206F6666736574206973202564202C89
:103A4000205562200D0A20766F6C74616765206FC7
:103A50006666736574206973202025640D0A000072
:103A60002F2A2A2A2A2A2A2A2A2A2A2A2A2A2A2AB1
:103A70002A2A2A2A2A2A2A2A2A2A2A2A2A20507242
:103A80006F64756374204F76657276696577202A56
:103A90002A2A2A2A2A2A2A2A2A2A2A2A2A2A2A2A86
:103AA0002A2A2A2A2A2A2A2A2A2A2A2A2A2A2A2A76
:103AB0002A2F200D0A0000002F2A2A2A2A2A2A2A21
:103AC0002A2A2A2A2A2A2A2A2A2A2A2A2A2A2A2A56
:103AD0002A2A2A2A2A2A2A2A2A2A2A2A2A2A2A2A46
:103AE0002A2A2A2A2A2A2A2A2A2A2A2A2A2A2A2A36
:103AF0002A2A2A2A2A2A2A2A2A2A2A2A2A2A2A2A26
:103B00002A2A2A2A2A2A2A2A2A2F200D0A000000D5
:103B10002D20476974487562E9A1B9E79BAEE59C21
:103B2000B0E59D80EFBC9A68747470733A2F2F676C
:103B300069746875622E636F6D2F6C687A6C6F762E
:103B40006579796A2F415433325F464F432E676956
:103B5000740D0A002D20E4B8BBE68EA7E88AAFE713
:103B60008987EFBC9A41543332463430374143475A
:103B70005437EFBC8CE59FBAE4BA8E41524D2043D6
:103B80006F727465782D4D34E58685E6A0B8EFBC7C
:103B90008CE585B7E5A487E9AB98E680A7E883BD07
:103BA000E8BF90E7AE97E883BDE58A9BE380820D8E
:103BB0000A0000002D20E9A9B1E58AA8E88AAFE74C
:103BC0008987EFBC9A454732313333EFBC8CE6949A
:103BD000AFE68C81E9AB98E69588E883BDE794B5BC
:103BE000E69CBAE9A9B1E58AA8EFBC8CE585B7E502
:103BF000A487E4BC98E5BC82E79A84E794B5E6B56F
:103C000081E68EA7E588B6E883BDE58A9BE38082DE
:103C10000D0A00002D20E99B86E68890E794B5E622
:103C2000B581E78EAFE38081E9809FE5BAA6E78E94
:103C3000AFE38081E4BD8DE7BDAEE78EAFE4B88928
:103C4000E997ADE78EAFE68EA7E588B6EFBC8CE7C7
:103C5000A1AEE4BF9DE794B5E69CBAE8BF90E8A1A9
:103C60008CE79A84E9AB98E7A8B3E5AE9AE680A71B
:103C7000E5928CE9AB98E7B2BEE5BAA6E380820D87
:103C80000A0000002D20E585B7E5A487E8BF87E698
:103C9000B581E38081E8BF87E58E8BE38081E8BF53
:103CA00087E6B8A9E7AD89E5A49AE9878DE4BF9DC9
:103CB000E68AA4E69CBAE588B6EFBC8CE68F90E570
:103CC0008D87E7B3BBE7BB9FE58FAFE99DA0E6809B
:103CD000A7E380820D0A00002D20E694AFE68C81D8
:103CE000E58F8CE8B7AFE794B5E69CBA464F43EF53
:103CF000BC884669656C64204F7269656E74656442
:103D000020436F6E74726F6CEFBC89E68EA7E588F6
:103D1000B6EFBC8CE5AE9EE78EB0E9AB98E6958831
:103D2000E7B2BEE58786E79A84E794B5E69CBAE6F3
:103D30008EA7E588B6E380820D0A00005C3D00088E
:103D40000000002028010000180C0008843E000834
:103D50002801002000040000280C000800000000DA
:103D60000000000000127A000000000000000000C7
:103D70000000000000000000000000000000000043
:103D80000AD7233CCDCCCC3D000000000000000051
:103D900000002041000020C10000000000000000E1
:103DA0000AD7233CCDCCCC3D000000000000000031
:103DB0000000C0400000C0C0000000000000000083
:103DC00000000000000000000100000000000000F2
:103DD00000000000000000000000000000000000E3
:103DE00000000000000000000000000000000000D3
:103DF00000000000000000000000000000000000C3
:103E000000000000000000000000000000000000B2
:103E100000000000B1230008640000200000000042
:103E20000000000002000000000000000000000090
:103E30000000000000000000000000000000000082
:103E40000000000000000000000000000000000072
:103E50000000000000000000000000000000000062
:103E60000000000000000000000000000000000052
:103E70007D240008C000002000080140000100006F
:043E8000000000003E
:040000050800018569
:00000001FF
