:020000040800F2
:10000000B80700209D01000811170008DD14000842
:100010000D170008590F00083D23000800000000DC
:100020000000000000000000000000000D190008A2
:10003000B5130008000000005317000873210008E2
:10004000B7010008B7010008B7010008B7010008B0
:10005000B7010008B7010008B7010008B7010008A0
:10006000B7010008B7010008B7010008A91200088D
:10007000D912000809130008B70100084913000845
:10008000B701000889130008B7010008B70100088C
:10009000F1220008B70100085D0F0008B701000851
:1000A000B7010008B7010008B7010008B701000850
:1000B000B7010008B7010008B7010008B701000840
:1000C000B7010008B7010008B7010008B701000830
:1000D000B70100085D220008B7010008B701000859
:1000E000B7010008B7010008B7010008B701000810
:1000F000B7010008B7010008B7010008B701000800
:10010000B7010008B7010008E5210008B7010008A1
:10011000B7010008B7010008B7010008B7010008DF
:10012000B7010008B7010008B7010008B7010008CF
:10013000B7010008B7010008B7010008B7010008BF
:1001400000000000000000000000000000000000AF
:10015000B7010008B7010008B7010008B70100089F
:10016000B7010008B7010008B7010008B70100088F
:10017000B7010008B7010008B7010008B70100087F
:10018000B7010008DFF810D000F0ACFB00480047D2
:10019000FD420008AFF30080B80700200648804702
:1001A00006480047FEE7FEE7FEE7FEE7FEE7FEE75C
:1001B000FEE7FEE7FEE7FEE775210008850100087F
:1001C00010B5044604E00B7800F8013B03B1491C6C
:1001D000521EF8D2204610BDCAB2401E10F8011FB0
:1001E0008A4202D00029F9D10020704710B50022C0
:1001F00000E0521C835C8C5CA34201D1002BF8D13F
:10020000D8B2E1B2401A10BD0022CBB201789942B7
:1002100000D10246401C0029F8D1104670472DE954
:10022000F04791460F4680460446002614F8015BCD
:100230002DB100F0D3F80068405DC007F6D12B2D3A
:1002400002D02D2D18D0641E4A463946204600F0B3
:10025000D2F827B13968A14201D1C7F800807105F1
:100260004FF002040BD54042002803DD02F094F861
:100270000460A007BDE8F08746F48066E4E7002844
:10028000F8DA02F089F804606FF00040F2E700F05D
:10029000004230F000400AD0C10D01F56071C0F39A
:1002A000160042EA0151C20840071143704700207E
:1002B0000146704730B5041E71F1000404DB4FF0B5
:1002C0000044404264EB0101141E73F1000405DB9D
:1002D0001C464FF00043524263EB04038B4208BFBD
:1002E000824230BD30B5041E71F1000404DB4FF0D2
:1002F0000044404264EB0101141E73F1000405DB6D
:100300001C464FF00043524263EB0403994208BF7E
:10031000904230BD01F0004330B421F0004150EA7A
:10032000010206D00A0DA2F56072C1F31301002A82
:1003300002DC30BC00207047440F44EAC104C10015
:10034000E01830BC00EBC25000F0B1B830B50B463D
:10035000014600202022012409E021FA02F59D42F5
:1003600005D303FA02F5491B04FA02F52844151EC9
:10037000A2F10102F1DC30BD2DE9F05F054600205D
:1003800092469B4688460646814640241BE0284606
:1003900041464746224600F0C6FA53465A46C01A1E
:1003A000914110D311461846224600F0ADFA2D1A9D
:1003B00067EB01084F4622460120002100F0A4FA15
:1003C00017EB00094E41201EA4F10104DFDC484672
:1003D00031462A464346BDE8F09F0000004870477A
:1003E000E066000810B50446FFF7F8FF0068005DFE
:1003F00000F0010010BD2DE9F05F82460078002773
:1004000015468B460AF10104B946302801D09DB14A
:1004100013E014F8010B0127782803D0582801D0E5
:1004200045B10AE00DB1102D07D10027102514F8B1
:10043000010B02E0082500E00A250026B0460EE088
:1004400005FB080005FB06F1012701EB10461FFA2A
:1004500080F8B6F5803F00D3B94614F8010B294661
:1004600000F083FA0028EBDABBF1000F05D00FB1E2
:10047000641E00E05446CBF80040B9F1000F06D0EE
:1004800001F08AFF02210160C81EBDE8F09F48EA22
:100490000640FAE77CB50023CDE9003305466846FF
:1004A00000F08DFA6946284602F0A2F87CBD0029CA
:1004B000A8BF7047401C490008BF20F001007047EA
:1004C00010B4B0FA80FC00FA0CF050EA010404BF4A
:1004D00010BC704749B1CCF1200421FA04F411FAA0
:1004E0000CF118BF012121430843A3EB0C01CB1DE4
:1004F0004FEA00614FEA102042BF002010BC704755
:1005000000EBC35010440029A4BF10BC7047401C2E
:10051000490008BF20F0010010BC70472DE9FE4FD4
:10052000804681EA0300C00F0C46009021F0004194
:1005300023F00045B8EB0200A94105D24046214610
:1005400090461C460B46024623F00040104347D01D
:10055000270DC7F30A00C3F30A510290401A019015
:1005600040286BDAC3F3130040F4801B00989246D6
:1005700020B10023D2EB030A63EB0B0B0198594621
:10058000C0F14002504600F0BFF906460D46504605
:100590005946019A00F0D7F910EB08006141002498
:1005A00087EA115284EAE7731A4340D0009A62B393
:1005B000019A012A4FEA075215DC001B61EB020188
:1005C0004FF0004202EA0752CDE90042001C41F51B
:1005D000801132462B4600F034FA03B0BDE8F08FAC
:1005E00040462146F9E7001B61EB0201001C41F582
:1005F000801300185B412018A2F5001747EB030198
:1006000040EAD570B6196D4111E06D084FEA360623
:1006100045EAC0754FEA0752001B61EB0201001C5E
:1006200041F5801149084FEA300000195141324626
:100630002B4603B0BDE8F04F00F0F4B9009801225A
:1006400040000023D0EB020263EBE07300982146E8
:100650004FEAE074B8EB000061EB0401E9E783F0D6
:1006600000435BE781F0004158E72DE9FE4F81EA46
:10067000030404F0004421F0004100944FF0000B0B
:1006800023F0004350EA01045ED052EA03045BD039
:10069000C3F30A54C1F30A552C44A4F2F334019471
:1006A000A0FB0254C1F3130141F48011C3F31303FF
:1006B00043F4801301FB024400FB034E840A970AB3
:1006C00044EA815447EA8357A4FB076802958D0AE0
:1006D00005FB07854FEA932C04FB0C542705029D6C
:1006E0004FEA065847EA1637B5EB08056EEB070CDC
:1006F000870E920E47EA811742EA8312A7FB020196
:10070000B6EB0B0164EB00042B0D43EA0C335E18CF
:1007100044EB1C50DA465146E7FB0201C5F31304D3
:100720004FEA0B3343EA14534FEA0432019C43EA85
:100730000603A4F10C040294009CCDE900B400F07F
:1007400080F903B0BDE8F08F00200146F9E72DE9FC
:10075000F04D81EA030404F0004B21F000451446FB
:100760004FF0000A23F0004150EA050220D054EA7D
:1007700001021DD0C5F30A570246C5F31303C1F3A6
:100780001300C1F30A5640F4801543F48013A7EB1D
:100790000608101BD64608F2FD3873EB050002D39D
:1007A00008F1010801E092185B41B8F1000F03DA8B
:1007B00000200146BDE8F08D00204FF48011064670
:1007C00084460EE0171B73EB050705D3121B63EB82
:1007D000050306434CEA010C49084FEA3000921821
:1007E0005B4150EA0107EDD152EA030012D082EAE0
:1007F000040083EA0501084305D0101BAB4106D273
:100800000122002306E000224FF0004302E06FF0D7
:10081000010253101AEB06004CEB085110EB0A00D2
:1008200041EB0B01BDE8F04D00F0FCB82DE9FE4FA7
:10083000C3F30A5701F000450024C1F30A56C3F37D
:100840001303C1F3130143F4801312EB020AA6460B
:1008500041F48011009543EB030CA7F1010B16E066
:10086000B0EB0A0061EB0C01071E71F1000707DA1B
:100870004FF00008D0EB080085F0004568EB01015F
:10088000171A73EB0107EBD3761E001849415E453A
:10089000F6DA50EA010209D0CDE900E5002213465C
:1008A000029600F0CEF803B0BDE8F08F2046009924
:1008B000F9E7C1F30A52C1F3130140F2FF3341F4E7
:1008C00080119A4202DA00200146704740F2334319
:1008D0009A42A2F2334202DC524200F024B800F005
:1008E00013B80000064C074D06E0E06840F0010335
:1008F00094E8070098471034AC42F6D3FFF746FC63
:10090000046A0008246A0008202A04DB203A00FA5E
:1009100002F1002070479140C2F1200320FA03F356
:10092000194390407047202A04DB203A21FA02F054
:100930000021704721FA02F3D040C2F12002914019
:10094000084319467047202A06DBCB17203A41FAA4
:1009500002F043EAE07306E041FA02F3D040C2F14C
:10096000200291400843194670473A2800D2303897
:1009700020F02002412A01D3A2F13700884201D39E
:100980004FF0FF30704700000FB4002300B589B06E
:100990000CA900910B996FF00042CB601E4B06939F
:1009A0001E4B07930423CDE901321D4A08920246EB
:1009B0006B46002000F028F909B05DF814FB70B513
:1009C00086B006464FF0FF300091CDE901010020CE
:1009D00015460C4604903246694604A8FFF7D4FF3A
:1009E00002460498211825B108B1084600E02046C7
:1009F0002860049800280DD0002A02DD0098884263
:100A000008D0081B0094CDE901043246694604A8C9
:100A1000FFF7BAFF06B070BD410E00085F0E000878
:100A2000E503000810B5141E73F1000408DA401C39
:100A300041F1000192185B411A4301D120F00100FD
:100A400010BD2DE9F04D92469B4611B1B1FA81F2ED
:100A500002E0B0FA80F220329046FFF755FF0446DC
:100A60000F4640EA0A0041EA0B0153465A46084342
:100A700013D0114653EA010019D0C8F14002504684
:100A8000FFF751FF05460E46504659464246FFF7CE
:100A90003BFF084305D0012004E020463946BDE86D
:100AA000F08D0020054346EAE0762C4337430A9850
:100AB0006305E40AA0EB08000022FD0A44EA47545B
:100AC0000A3002D500200146E9E701051019694105
:100AD000DDE9084500196941BDE8F04DA2E70000D5
:100AE0002DE9FF4F087883B09946FF2805D0491CAF
:100AF0002D2804D00024002008E000200BE0012471
:100B0000F9E700EB800003EB4000491C0B78FF2B5A
:100B1000F7D104B1404200230293147819461D46D0
:100B20002D2C01D02B2C04D1521C2D2C13D00024A1
:100B30000294AA461478FF2C0FD00A25A3FB05784F
:100B400001FB05814FF0000C03FB0C11521CE31953
:100B50004AEB0101EEE70124EAE7814453EA010090
:100B600002D019F5C87F06DA03980021C0E9001108
:100B700007B0BDE8F08F0025AE4E2F46DFF8B882F3
:100B8000184600F07FF9CDE90001B9F1000002DA62
:100B9000C9F1000400E004460023A74A1AEB030B46
:100BA00042EB045A12E0E00707D02A4633463846A3
:100BB0004146FFF75AFD074688462A463346104607
:100BC0001946FFF752FD05460E466410002CEAD187
:100BD000DDE90001B9F1000F5A46534606DAFFF786
:100BE000B6FD3A464346FFF7B2FD05E0FFF73DFD8F
:100BF0003A464346FFF739FD029A0AB181F00041B7
:100C0000039AC2E90001B3E72DE9FF4F1F468DB0FB
:100C1000D7E901464FF0FF382E2045464FF0000936
:100C20000B90B9696D1C0E988847396A82468847CF
:100C30000028F6D1BAF1FF3F0AD024F4D064002E88
:100C400011DDBAF12B0F08D0BAF12D0F0BD102E054
:100C5000404611B08DE744F48064B9696D1C0E986C
:100C600088478246761E6946600501D52D2000E042
:100C70002B208DF8000001F1010B0DF1200809E097
:100C8000B9696D1C0E98884782460F9844F4007429
:100C9000761E0560002E02DDBAF1300FF0D00B9900
:100CA0008A453ED144F0800406E00F99681CA9F102
:100CB000010944F400740860B9696D1C761E0E9831
:100CC000884782463028F0D02BE00B998A4505D121
:100CD000200603D444F08004761E18E0504601F04C
:100CE0008DFD08B30DF11301761E44F400748B459D
:100CF00008D2AAF130000BF8010B200607D5A9F1A4
:100D0000010003E0200602D409F101008146A0059C
:100D100002D50F99681C0860B9696D1C0E98884748
:100D20008246002ED1DC53E0002E51DDBAF1650F72
:100D300002D0BAF1450F4BD1A00549D5B9696D1C58
:100D400024F44074761E0E9888478246002E0CDDEF
:100D50002B2804D0BAF12D0F07D144F48074B9695F
:100D60006D1C0E9888478246761EE00501D52D2120
:100D700000E02B2108F8011BCDF82C8021E00DF1BB
:100D80002901761E44F4007488450CD2AAF1300083
:100D900010F0FF0088F8000002D10B99884509D9AE
:100DA00008F1010806E0E00501D5244801E042F21F
:100DB0000F708146B9696D1C0E98884782460F985E
:100DC0000560002E04DD504601F018FD0028D6D144
:100DD000F9690E988847FF208BF8000088F800001A
:100DE0000020069007904B466A4608A906A8FFF720
:100DF00077FEA00502D46FF001002AE714F0240F5B
:100E00000AD0E00714D1DDE906123868031D3B6003
:100E10000068C0E900120BE0DDE90601FFF77AFA8D
:100E20000146E00704D13868021D3A60006801609D
:100E300028460EE7000014400000F03FF1D8FFFF05
:100E4000426842B1016811F8013B23B1521EC0E96A
:100E50000012184670470121C160881E7047426821
:100E60005AB1C368016843B983688B4205D0491EF3
:100E7000521CC0E90012002070474FF0FF3070474D
:100E8000002070470EB540F2334202920022CDE9B5
:100E900000221346FFF7D5FD03B000BD70B58C18D6
:100EA00010F8015B15F0070301D110F8013B2A117E
:100EB00006D110F8012B03E010F8016B01F8016B6B
:100EC0005B1EF9D12B0705D40023521E0DD401F867
:100ED000013BFAE710F8013BCB1A921C03E013F830
:100EE000015B01F8015B521EF9D5A142D8D3002065
:100EF00070BD000010B52DED068BB0EE408A18EEE7
:100F0000100AFFF7C4F941EC1A0B9FED101BB0EE6D
:100F10004A0AF0EE6A0A01F0C9FAB0EE409AF0EE21
:100F2000609A51EC190BFFF7F5F908EE900AF5EE0F
:100F3000C08AF1EE10FA04DBB0EE680ABDEC068B55
:100F400010BD9FED040A38EE800AF7E700000000AC
:100F5000FA211940D00FC94000BFFEE770470000DA
:100F600070B52DED028B0446F0EE408A0D4694EDEF
:100F7000110AD4ED290A30EE600AB0EE408A9FEDE6
:100F8000170AB4EEC08AF1EE10FA06DD9FED140ADE
:100F900038EE400AB0EE408A0CE09FED120AB4EE43
:100FA000C08AF1EE10FA05D29FED0D0A38EE000A64
:100FB000B0EE408A88EE280A84ED2A0AD4ED2A0A87
:100FC000B0EE600A04F1A801284600F0E3FA94EDBF
:100FD000110A84ED290ABDEC028B70BDD00F494087
:100FE000D00FC940D00F49C010B52DED088B044675
:100FF00094ED100A84ED180A94ED280A84ED190A7C
:1010000094ED190AD4ED180A30EE600A84ED1A0A3C
:1010100094ED1A0AD4ED1B0A30EE600AD4ED150ADD
:1010200020EE200AD4ED160A94ED1A1A00EE810A79
:10103000D4ED1C0A30EE200A84ED1C0A94ED1A0A45
:1010400084ED1B0A94ED1D0A10EE101A0846FFF7F6
:101050001EF941EC1A0BB0EE4A0AF0EE6A0A01F0F2
:101060001BFAB0EE408AF0EE608A94ED1C0A10EE96
:10107000101A0846FFF70BF941EC190B53EC182B2B
:10108000FFF730F917D294ED1D0A10EE101A08463A
:10109000FFF7FDF841EC190BB0EE490AF0EE690AD2
:1010A00001F0FAF9B0EE408AF0EE608A51EC180BCC
:1010B000FFF730F9206794ED1D0A10EE101A08466C
:1010C000FFF7E5F841EC1B0BB0EE4B0AF0EE6B0AB4
:1010D00001F0E2F9B0EE40AAF0EE60AA51EC1A0B72
:1010E00081F0004141EC180B94ED1C0A10EE101A2F
:1010F0000846FFF7CCF841EC190B53EC182BFFF71F
:10110000D9F81BD294ED1D0A10EE101A0846FFF70D
:10111000BEF841EC1A0BB0EE4A0AF0EE6A0A01F092
:10112000BBF9B0EE409AF0EE609A51EC190B81F0E9
:10113000004141EC180BFFF7EDF82067BDEC088B80
:1011400010BD10B52DED088B044694ED0F0A84ED0B
:10115000210A94ED270A84ED220A94ED320A84EDE7
:10116000220A94ED220AD4ED210A30EE600A84EDC1
:10117000230A94ED230AD4ED240A30EE600AD4ED5C
:101180001E0A20EE200AD4ED1F0A94ED231A00EE69
:10119000810AD4ED250A30EE200A84ED250A94ED6B
:1011A000230A84ED240A94ED260A10EE101A08464C
:1011B000FFF76DF841EC1A0BB0EE4A0AF0EE6A0A3E
:1011C00001F06AF9B0EE408AF0EE608A94ED250AEB
:1011D00010EE101A0846FFF75AF841EC190B53ECC1
:1011E000182BFFF77FF818D294ED260A10EE101A8C
:1011F0000846FFF74CF841EC190BB0EE490AF0EE47
:10120000690A01F049F9B0EE408AF0EE608A51ECCB
:10121000180BFFF77FF89421085194ED260A10EE81
:10122000101A0846FFF733F841EC1B0BB0EE4B0ADF
:10123000F0EE6B0A01F030F9B0EE40AAF0EE60AAD1
:1012400051EC1A0B81F0004141EC180B94ED250A8A
:1012500010EE101A0846FFF71AF841EC190B53EC80
:10126000182BFFF727F81CD294ED260A10EE101A5F
:101270000846FFF70CF841EC1A0BB0EE4A0AF0EE04
:101280006A0A01F009F9B0EE409AF0EE609A51EC6A
:10129000190B81F0004141EC180BFFF73BF894214A
:1012A0000851BDEC088B10BD10B5022002F096FC71
:1012B00050B1022002F082FC044802680448016830
:1012C0000448006800F078F810BD0000800200209B
:1012D000380300207002002010B5202002F07EFCB0
:1012E00050B1202002F06AFC0448026804480168FA
:1012F0000448006800F060F810BD00007C02002087
:10130000E80200209001002010B54FF4007002F0B8
:1013100065FCA0B14FF4007002F050FC00210848B9
:1013200002F03AFC00210648143802F035FC054A68
:101330001189506802F0DEFE01200249887610BD56
:10134000440002407400002010B54FF4003002F059
:1013500045FCA0B14FF4003002F030FC00210848F9
:1013600002F01AFC00210648143802F015FC054A68
:101370001189506802F0BEFE01200249887610BD36
:101380006C0002409000002010B54FF0007002F099
:10139000BFFC48B1012005490870400602F00EFC70
:1013A0000021034802F0F8FB10BD000018000020E7
:1013B000800002407047000070B504460D46164696
:1013C000204602F053FE207A012806D13D4840888D
:1013D00020803C480088608008E0207A022805D1FF
:1013E0003948408820803848008860802088A1885B
:1013F000401A00EE100AF8EEC00A9FED341A80EE93
:10140000810ADFED330A20EE200ADFED320A20EEFA
:10141000200A84ED070A6088A188401A00EE100AAD
:10142000B8EEC00ADFED290A80EE201A9FED280AE7
:1014300021EE000ADFED270A20EE200A84ED080ADB
:1014400094ED070ADFED240A30EEC00AD4ED080A55
:1014500030EE600A84ED090A204602F03BF920468E
:1014600003F0F0F994ED0F1AF0EE410A94ED101A22
:10147000B0EE410A04F13C02111D304600F09BF829
:101480002046FFF7B1FD2046FFF75BFE94ED1C0AF6
:1014900084ED0E0A94ED250A84ED0D0A204602F033
:1014A000E3FE94ED041AF0EE410A94ED031AB0EE57
:1014B000410A284600F02CFA2946204603F042FB58
:1014C00070BD0000AC000020B0000020000080458E
:1014D00033335340000048420000000000BFFEE7E5
:1014E0009FED131AF0EE410A9FED121A20EE811AB9
:1014F000DFED111A21EE211AB7EE002AC2EE011A11
:10150000B7EE001A31EE811AF7EE001A81EE812A49
:10151000B0EE420A80ED000A9FED081A80ED011A34
:1015200080ED020A9FED051A80ED031A7047000056
:101530003EC32E38560EC9400000FA43000000009A
:101540009FED101AF0EE410A9FED0F1A20EE811A5E
:10155000DFED0E1A21EE211AB7EE002AC2EE011AB3
:10156000B7EE001A31EE811AF7EE001A81EE812AE9
:10157000B0EE420A80ED000A9FED051A80ED011AD7
:10158000704700003EC32E38560EC9400000FA4393
:1015900000000000D0ED010A90ED001AD0ED011A14
:1015A00070EE611A41EE210AC0ED010AD0ED010A88
:1015B000C1ED000A704790ED011AD0ED001A90EDD0
:1015C000012A30EE422A01EE821A80ED011A90EDD6
:1015D000011A81ED001A90ED031AD0ED021A90ED78
:1015E000032A30EEC22A01EE821A80ED031A90ED32
:1015F000031A82ED001A704710B5044600EE104A37
:10160000B8EEC00ADFED060A20EE200ABCEEC00AE2
:1016100010EE102A0621034803F05AFD10BD000009
:101620006666663F0008004010B5044600EE104AAA
:10163000B8EEC00ADFED060A20EE200ABCEEC00AB2
:1016400010EE102A0421080703F042FD10BD00002F
:101650006666663F10B52DED028B0446204600F00D
:1016600039F800BFA07E0028FCD09FED168AA07E2E
:1016700010B3E07D0104207E41EA0020617E084332
:10168000801200EE100AF8EE400A9FED0F1A60EE8D
:10169000810A9FED0E1AC0EE811AB0EE618ADFED6D
:1016A0000C0A68EE200A9FED081AC0EE811AB0EE0F
:1016B000618A0020A07600BFB0EE480ABDEC028B24
:1016C00010BD0000000000000000B4430000804690
:1016D000D00FC94010B504462189606802F008FDAA
:1016E0000020A0760121E06802F056FA012120696D
:1016F00002F052FA00BF0221206803F04DFB0028DF
:10170000F9D00021206803F03BFB10BD00BFFEE7CD
:101710007047F0B503460C4603F00701C1F107001E
:10172000042801D9042001E0C1F107000646081D84
:10173000072801D2002000E0C81E05460120B04065
:10174000401E2040A8400127AF407F1E174038436D
:10175000F0BD704710B5214800F0F2FD20A000F068
:10176000EFFD28A000F0ECFD2B4800F0E9FD2B4830
:1017700000F0E6FD2A4800F0E3FD2AA000F0E0FDBD
:1017800029A000F0DDFD2D4800F0DAFD2C4800F026
:10179000D7FD24A000F0D4FD2AA000F0D1FD2FA099
:1017A00000F0CEFD33A000F0CBFD3A4800F0C8FDBC
:1017B0001CA000F0C5FD38A000F0C2FD3BA000F069
:1017C000BFFD18A000F0BCFD40A000F0B9FD15A0C1
:1017D00000F0B6FD4C4800F0B3FD10BD28670008CE
:1017E000E4BAA7E59381E5908DE7A7B0EFBC9AE551
:1017F0008F8CE8B7AF464F43E9A9B1E58AA8E599D0
:10180000A80D0A00E6A0B8E5BF83E58A9FE883BD7E
:10181000EFBC9A0D0A000000A0690008DC6800080F
:101820004C6900080D0A0000E7A1ACE4BBB6E985ED
:101830008DE7BDAEEFBC9A0D0A0000001C680008E1
:101840007C680008E5BC80E58F91E88085E4BFA155
:10185000E681AFEFBC9A0D0A000000002D20E4BD28
:101860009CE88085EFBC9AE69D8EE68080E694BF7A
:101870000D0A00002D2042E7AB995550E4B8BBEFAC
:10188000BC9AE788B1E994A6E5AE9DE584BFE592F0
:10189000A90D0A00D8670008E78988E69CACE4BF78
:1018A000A1E681AFEFBC9A0D0A0000002D20E69B57
:1018B000B4E696B0E697B6E997B4EFBC9A32303208
:1018C000342F332F31310D0A00000000E6849FE8E9
:1018D000B0A2E682A8E585B3E6B3A8E69CACE9A190
:1018E000B9E79BAEEFBC8CE69BB4E5A49AE4BFA13C
:1018F000E681AFE695ACE8AFB7E69C9FE5BE85EF25
:10190000BC810D0A000000008067000870470000DD
:1019100090ED001ADFEDFE1A21EE211AF2EE081A00
:1019200081EE212A80ED112A90ED111A21EE201A64
:1019300080ED051A9FEDF71A20EE011AF6EE001A57
:1019400001EEE01AD0ED111A21EE211A80ED061AEF
:101950009FEDF11A20EE011AF6EE001A01EEE01AE0
:10196000D0ED111A21EE211A80ED071A90ED051A1B
:10197000B5EEC01AF1EE10FA01DD012100E0002100
:1019800090ED061AB5EEC01AF1EE10FA01DD012253
:1019900000E0002201EB420190ED071AB5EEC01AFB
:1019A000F1EE10FA01DD012200E0002201EB8201DC
:1019B0000171017907297DD2DFE801F07C5EFE0428
:1019C000FDBEFC0090ED061A80ED0B1A90ED051A95
:1019D00080ED0D1A90ED0B1AD0ED0D1A31EE211A93
:1019E00080ED0F1A90ED0F1AD0ED001AB4EEE11A47
:1019F000F1EE10FA17DD90ED001AD0ED0F1A81EE1E
:101A0000212A80ED102A90ED0B1AD0ED101A21EE4C
:101A1000211A80ED0B1A90ED0D1AD0ED101A21EE5F
:101A2000211A80ED0D1A90ED001AD0ED0B1A31EE4F
:101A3000611AD0ED0D1A31EE611AF0EE001A81EE46
:101A4000212A80ED0E2A90ED0B1AD0ED0D1A31EE01
:101A5000211AD0ED0E1A31EE211A80ED021A90ED06
:101A60000D1AD0ED0E1A31EE211A80ED031A90ED09
:101A70000E1A80ED041ADBE190ED061AB1EE411A60
:101A800080ED091A90ED071AB1EE411A80ED0D1A9A
:101A900090ED091AD0ED0D1A31EE211A80ED0F1AD2
:101AA00090ED0F1AD0ED001AB4EEE11AF1EE10FA33
:101AB00019DD00E0BBE190ED001AD0ED0F1A81EEC8
:101AC000212A80ED102A90ED091AD0ED101A21EE8E
:101AD000211A80ED091A90ED0D1AD0ED101A21EEA1
:101AE000211A80ED0D1A90ED001AD0ED091A31EE91
:101AF000611AD0ED0D1A31EE611AF0EE001A81EE86
:101B0000212A80ED0E2A90ED0D1AD0ED0E1A31EE3D
:101B1000211A80ED021A90ED091AD0ED0D1A31EE5E
:101B2000211AD0ED0E1A31EE211A80ED031A90ED34
:101B30000E1A80ED041A7BE190ED051A80ED091A6A
:101B400090ED071A80ED0A1A90ED091AD0ED0A1AE5
:101B500031EE211A80ED0F1A90ED0F1AD0ED001A18
:101B6000B4EEE11AF1EE10FA17DD90ED001AD0EDA7
:101B70000F1A81EE212A80ED102A90ED091AD0ED7E
:101B8000101A21EE211A80ED091A90ED0A1AD0EDF3
:101B9000101A21EE211A80ED0A1A90ED001AD0EDEC
:101BA000091A31EE611AD0ED0A1A31EE611AF0EE1F
:101BB000001A02E07CE01DE0DBE081EE212A80EDEE
:101BC0000E2A90ED0E1A80ED021A90ED091AD0ED52
:101BD0000A1A31EE211AD0ED0E1A31EE211A80EDDB
:101BE000031A90ED0A1AD0ED0E1A31EE211A80ED8B
:101BF000041A1DE190ED051AB1EE411A80ED081AA4
:101C000090ED061AB1EE411A80ED0A1A90ED081A0D
:101C1000D0ED0A1A31EE211A80ED0F1A90ED0F1A4D
:101C2000D0ED001AB4EEE11AF1EE10FA17DD90EDE6
:101C3000001AD0ED0F1A81EE212A80ED102A90EDC6
:101C4000081AD0ED101A21EE211A80ED081A90ED35
:101C50000A1AD0ED101A21EE211A80ED0A1A90ED21
:101C6000001AD0ED081A31EE611AD0ED0A1A31EEE1
:101C7000611AF0EE001A81EE212A80ED0E2A90ED15
:101C80000E1A80ED021A90ED0A1AD0ED0E1A31EEFE
:101C9000211A80ED031A90ED081AD0ED0A1A31EEE0
:101CA000211AD0ED0E1A31EE211A80ED041ABFE090
:101CB00090ED071A80ED081A90ED061A80ED0C1AC7
:101CC00090ED081AD0ED0C1A31EE211A80ED0F1AA2
:101CD00090ED0F1AD0ED001AB4EEE11AF1EE10FA01
:101CE0001EDD90ED001AD0ED0F1A81EE212A80ED55
:101CF000102A90ED081AD0ED101A21EE211A80ED6D
:101D0000081A90ED0C1AD0ED101A21EE211A05E0F8
:101D10002DB2DD3F2DB25D3F2DB25DBF80ED0C1ABF
:101D200090ED001AD0ED081A31EE611AD0ED0C1AC0
:101D300031EE611AF0EE001A81EE212A80ED0E2AB2
:101D400090ED0C1AD0ED0E1A31EE211A80ED021A28
:101D500090ED0E1A80ED031A90ED081AD0ED0C1AD2
:101D600031EE211AD0ED0E1A31EE211A80ED041A4F
:101D70005EE090ED071AB1EE411A80ED0B1A90ED7E
:101D8000051AB1EE411A80ED0C1A90ED0B1AD0ED48
:101D90000C1A31EE211A80ED0F1A90ED0F1AD0EDCA
:101DA000001AB4EEE11AF1EE10FA17DD90ED001A08
:101DB000D0ED0F1A81EE212A80ED102A90ED0B1A3A
:101DC000D0ED101A21EE211A80ED0B1A90ED0C1AAD
:101DD000D0ED101A21EE211A80ED0C1A90ED001AA8
:101DE000D0ED0B1A31EE611AD0ED0C1A31EE611AFA
:101DF000F0EE001A81EE212A80ED0E2A90ED0B1AEA
:101E0000D0ED0C1A31EE211AD0ED0E1A31EE211A56
:101E100080ED021A90ED0E1A80ED031A90ED0C1A67
:101E2000D0ED0E1A31EE211A80ED041A00E000BF49
:101E300000BF704710B52DED0A8B84B00446B0EE9C
:101E4000408AF0EE608AB0EE419AF0EE619A84ED3D
:101E5000158AC4ED168A84ED179AC4ED1D9A84ED97
:101E60001E8AC4ED1F8A84ED209AC4ED269A19EECD
:101E7000100AFEF70CFA41EC1A0B18EE900AFEF766
:101E800006FA41EC1B0B18EE100AFEF700FA41ECC3
:101E90001C0B8DED02AB8DED00BB53EC1C2B03A096
:101EA00000F04EFA04B0BDEC0A8B10BD73657420CF
:101EB0006B7020697320256C662C206B6920697318
:101EC00020256C662C206B6420697320256C660DC0
:101ED0000A00000010B52DED068B82B00446B0EE6E
:101EE000408AF0EE608A84ED288AC4ED278A18EED5
:101EF000900AFEF7CCF941EC190B18EE100AFEF728
:101F0000C6F941EC1A0B8DED009B53EC1A2B03A084
:101F100000F016FA02B0BDEC068B10BD736574209C
:101F20007461725F696420697320256C662C20746B
:101F300061725F697120697320256C660D0A00006B
:101F400010B52DED0A8B84B00446B0EE408AF0EE59
:101F5000608AB0EE419AF0EE619A84ED2B8AC4ED6E
:101F60002C8A84ED2D9AC4ED339A19EE100AFEF7EF
:101F70008EF941EC1A0B18EE900AFEF788F941EC45
:101F80001B0B18EE100AFEF782F941EC1C0B8DEDCD
:101F900002AB8DED00BB53EC1C2B03A000F0D0F97D
:101FA00004B0BDEC0A8B10BD736574206B702069A2
:101FB0007320256C662C206B6920697320256C6664
:101FC0002C206B6420697320256C660D0A000000CC
:101FD00010B52DED048B0446B0EE408A84ED348AB2
:101FE00018EE100AFEF753F941EC190B53EC192BBC
:101FF00002A000F0A5F9BDEC048B10BD7365742040
:10200000746172737065656420697320256C660D58
:102010000A00000010B52DED088B044694ED2A0A45
:1020200084ED2E0A94ED340A84ED2F0A94ED2F0AE4
:10203000D4ED2E0A30EE600A84ED300A94ED300AB9
:10204000D4ED310A30EE600AD4ED2B0A20EE200ADE
:10205000D4ED2C0A94ED301A00EE810AD4ED320A48
:1020600030EE200A84ED320A94ED300A84ED310A14
:1020700094ED330A10EE101A0846FEF708F941EC09
:102080001A0BB0EE4A0AF0EE6A0A00F005FAB0EE5A
:10209000408AF0EE608A94ED320A10EE101A08467B
:1020A000FEF7F5F841EC190B53EC182BFEF71AF973
:1020B00018D294ED330A10EE101A0846FEF7E7F82E
:1020C00041EC190BB0EE490AF0EE690A00F0E4F9B0
:1020D000B0EE408AF0EE608A51EC180BFEF71AF968
:1020E000C821085194ED330A10EE101A0846FEF785
:1020F000CEF841EC1B0BB0EE4B0AF0EE6B0A00F091
:10210000CBF9B0EE40AAF0EE60AA51EC1A0B81F0C8
:10211000004141EC180B94ED320A10EE101A0846FB
:10212000FEF7B5F841EC190B53EC182BFEF7C2F88B
:102130001CD294ED330A10EE101A0846FEF7A7F8E9
:1021400041EC1A0BB0EE4A0AF0EE6A0A00F0A4F96C
:10215000B0EE409AF0EE609A51EC190B81F000411C
:1021600041EC180BFEF7D6F8C8210851BDEC088BDE
:1021700010BD70471848006840F4700016490860A8
:102180001648006820F00100401C1449086000BF98
:1021900012480068C0F340000028F9D00F4840689A
:1021A00020F003000D49486000BF0C484068C0F3B0
:1021B00081000028F9D10948006809490840074909
:1021C00008600020486008634FF41F008860C8035F
:1021D000014980390860704788ED00E00010024036
:1021E000FFFFF2FE10B516480068401C1449086055
:1021F00008460068642805D1002000F0E9FF0020AF
:102200000F4908600F489FED100A01680F480068E9
:10221000FEF7A6FE0E489FED0C0A01680D48006807
:10222000FEF79EFE09480068FFF7F4FE09480068C3
:10223000FFF7F0FE0121084802F06DFF10BD00001D
:10224000040000208C0200206F12833A90010020CD
:102250009802002070020020000C004010B51021F0
:10226000074803F03AF950B14021064803F0BEF99F
:102270000120054908701021014803F08EF810BDB7
:1022800000380140540300201A00002070B50546B4
:102290000C462E46002004E0315C124A1154411CC9
:1022A000C8B2B0EB840FF7DB00200E4901F8240020
:1022B000012101EB84010B4A50548020022101EBE3
:1022C000840150547F20032101EB8401505400BF4E
:1022D000054800780028FBD00121044801F05CFC8F
:1022E00070BD000044030020180000208000024060
:1022F00000B585B009210A4801F0E6F870B1094837
:102300000068401C074908606A460021044801F043
:102310005CF90448016804A000F012F805B000BDA3
:10232000006400400000002025640963616E3120D4
:1023300072782064617461200D0A000000BFFEE71E
:102340000FB4054B10B503A9044A029800F05EFAD9
:1023500010BC5DF814FB0000A93F00083C030020FE
:1023600002480068C0F30220704700000CED00E056
:1023700010B5002804DB0A07130E054A135406E0C3
:102380000A07140E034A00F00F031B1FD45410BD9C
:1023900000E400E018ED00E0004870474003002032
:1023A00030B52DED048B81B0B0EE408AF0EE608A3E
:1023B0006A4651EC180B01F013FE00989FED329B1A
:1023C0007E300090002821DC53EC192B51EC180BC7
:1023D000FDF770FF1AD0002140F60800FEF750FD0F
:1023E000044651EC180BFDF795FF08EE100A40F675
:1023F000080004EA0001FEF743FDB5EEC08AF1EEE5
:1024000010FA04BF022000F00BF92DE00098FF281D
:1024100030DB00210846FEF733FD00F4400553ECA5
:10242000192B51EC180BFDF75DFF8CBF0024012424
:10243000022000F0F5F89FED168A4DB1002C0CBF7C
:102440004FF400004FF48000A84218BF9FED118A9E
:1024500004210846FEF714FD002C01BFB1EE480A26
:1024600001B0BDEC048B30BDB0EE480A01B0BDEC4C
:10247000048B30BD51EC180BFDF74CFF01B000EEA2
:10248000100ABDEC048B30BD00000000000000000D
:102490000000807FFFFF7F7F2DED020B019820F071
:1024A000004001909DED000B02B0704710B52DED7E
:1024B000040B86B09DED060B10EE100A10EE901A7C
:1024C0008DED000B002818BF0120084320F00040CC
:1024D000C0F17F6000F1E040C00F21D19DED080BFD
:1024E00010EE101A10EE900A8DED000B002918BFA7
:1024F0000121084320F00040C0F17F6000F1E0407E
:10250000C00F0DD129490798B1EB400F04BF0698C1
:10251000002842D00998400004BF089800283CD009
:102520009DED080B53EC102B9DED060B51EC100BA1
:10253000FEF77CF9CDE902019DED020B40F2FF713F
:1025400010EE900A8DED000B31EA105021D0079863
:10255000039900F0004001F00041884219D09DED40
:10256000080B8DED040B9DED020B8DED000B10EEB5
:10257000900A059961F31E0005909DED041B9DEDE9
:10258000020B51EC110B53EC102BFEF76BF8CDE95D
:1025900002019DED020B0AB010BD012000F040F8D1
:1025A0000AB0BDE8104000F013B800000000E0FFE2
:1025B00008B59FED060A0A4601468DED000A6846F9
:1025C000FDF768FF9DED000A08BD00000000000057
:1025D0009FED050B10B553EC102B51EC100BFEF7D3
:1025E000B6F841EC100B10BD000000000000000028
:1025F00010B5044691ED000BFFF7D2FE84ED000A02
:1026000010BD02E008C8121F08C1002AFAD17047A5
:102610007047002001E001C1121F002AFBD1704762
:1026200001490860704700004003002010B50446CF
:10263000207A012806D10E48D4F8D410884784EDBA
:10264000110A08E0207A022805D10A48D4F8D410EB
:10265000884784ED110AD4ED110AB2EE061A60EE35
:10266000810AB0EE600AFEF745FC84ED120A10BD47
:1026700074000020900000202DE9FF5F82B000214F
:10268000DDE90430020DDDF840B0034318D044F614
:102690001050A2F2FF3242431514119801281FD0A6
:1026A000A5EB0B00401C5FEA000A4FF000064E4FFE
:1026B000DFF83891B046504615D5CAF1000413E052
:1026C000119801244AA3012801D16FEA0B01029855
:1026D000119AC0E90031C0E9024206B0BDE8F09F9E
:1026E000CBF10000DFE704460021404A491842EBE5
:1026F0000450CDE9001012E0E00707D032463B4617
:1027000040464946FDF7B1FF8046894632463B4682
:1027100010461946FDF7A9FF06460F466410002C27
:10272000EAD1DDE90401DDE90023BAF1000F06DAA0
:10273000FDF79BFF42464B46FDF797FF05E0FEF78E
:1027400006F842464B46FEF702F804460E460022C3
:10275000284BFDF7C7FD03D84FF0FF30014607E0D7
:102760000022254B20463146FDF7D8FEFEF7A1F8A2
:10277000102409E0002C0ADB0A220023FDF7FCFDEF
:10278000039B30321A55641E50EA0102F2D1641CD8
:10279000039AC4F111031444119A012A03D00122AF
:1027A00008430DD10AE0084304D000204FF0110B7C
:1027B000119072E7A3EB0B056D1E0DE05B4504DD88
:1027C0004FF0000205F1010504E003DA4FF00002CA
:1027D000A5F10105002AECD002981199C0E9023157
:1027E000C0E9004579E70000000014400000F03F18
:1027F000300000000000F0430000E03F30380A28BD
:1028000001D2012070470020704700002DE9FF4FE2
:1028100095B09A46884606460025EEE1252877D1F0
:1028200000242746F94A0121039400E0044316F8E6
:10283000013F203B01FA03F01042F7D130782A28FB
:1028400011D06FF02F033078A0F13002092A16D88A
:10285000039A44F0020402EB820203EB42021044AA
:10286000761C0390EFE758F8042B0392002A03DA52
:10287000504244F40054039044F00204761C307833
:102880002E2816D116F8010F44F004042A280DD082
:102890006FF02F023078A0F13003092B09D807EB35
:1028A000870302EB4303C718761CF3E758F8047B51
:1028B000761C30786C280FD006DC4C2817D068289E
:1028C0000DD06A2814D104E0742810D07A280FD1D2
:1028D0000DE044F400140AE044F4801401E044F4F0
:1028E00040147278824202D104F58014761C761C62
:1028F000307866280BD013DC582877D009DC002804
:1029000075D04528F6D04628F4D047281AD193E14F
:1029100018E0632835D0642879D0652812D18BE17E
:10292000702873D008DC6728F1D069286FD06E2832
:102930000DD06F2806D1ACE073282CD0752874D048
:10294000782853D05246179990476D1C54E1C4F330
:102950000250022809D003280DD0D8F8001004280E
:102960000DD00D6008F1040846E1D8F80010EA1710
:10297000C1E90052F6E7D8F800100D80F2E70D70BB
:10298000F0E718F8041B8DF8001000208DF8010006
:10299000EB46012003E058F804BB4FF0FF3061071D
:1029A0004FF0000102D40DE009F101018946B9425E
:1029B0000FDA8145F8DB1BF809100029F4D108E093
:1029C00009F1010189468142FADB1BF8091000294F
:1029D000F6D103985346A0EB090721463846179ACB
:1029E00000F080FA284400EB090507E044E008E124
:1029F0000DE01BF8010B524617999047B9F10109F8
:102A0000F7D2534621463846179AF2E039E00A21B8
:102A1000C4F302524FF0000B0091022A06D058F87E
:102A2000040BC117032A09D00AE023E008F10700CC
:102A300020F00702F2E80201904605E000B2C1175B
:102A4000042A01D140B2C117002906DA0A46002142
:102A5000404261EB02012D2202E0220504D52B2227
:102A60008DF80420012203E0E20701D02022F7E7DD
:102A7000914657E00A2100E010214FF0000B009131
:102A80000BE010214FF0000B44F0040408270091E4
:102A900003E008204FF0000B0090C4F30252022A1A
:102AA00005D058F8040B0021032A08D008E008F1EB
:102AB000070020F00702F2E80201904603E080B22E
:102AC000042A00D1C0B24FF0000922072AD532787B
:102AD000702A07D0DDF800C08CF0100C5CEA0B0CFB
:102AE00005D00EE040228DF80420012208E050EAD3
:102AF000010306D030238DF804308DF80520022222
:102B00009146009B83F0080353EA0B030AD150EA75
:102B1000010201D1620705D530228DF804204FF063
:102B200001097F1E3278582A04D039A20C920CAACF
:102B300002920BE03BA2F9E75B46009AFDF71CFC12
:102B40000C9B9B5C029A521E0292137050EA010287
:102B5000F2D1029804A9081A00F1200B600702D5EF
:102B600024F4803400E001275F4502DDA7EB0B0071
:102B700000E0002000EB0B01009003984944401A4C
:102B80000390E00306D453462146179A039800F0B9
:102B9000A9F90544002706E001A85246C05D17992F
:102BA00090476D1C7F1C4F45F6DBE0030CD5534668
:102BB0002146179A039800F095F9054404E0302067
:102BC0005246179990476D1C0099481E00900029A5
:102BD000F5DC08E00298029952460078491C0291FF
:102BE000179990476D1CBBF10001ABF1010BF1DCB3
:102BF0005BE100F065F90544761C307800287FF42D
:102C00000DAE19B02846BDE8F08F0000092801007C
:102C10003031323334353637383961626364656652
:102C20000000000030313233343536373839414214
:102C30004344454600000000600700D4062708F121
:102C4000070020F00700F0E80223804603F0004C64
:102C50005FEA0C0001D097A009E0200501D596A0FD
:102C600005E0E00701D095A001E0AFF24C00139021
:102C7000307823F0004365280CD006DC452809D0C5
:102C800046281DD047287FD13BE0662818D067280A
:102C90007AD136E00021112F01DB112000E0781CF1
:102CA000CDE9000104A90CA8FFF7E6FCDDE90D0160
:102CB0000C9A4FF0000B07F10109109200914EE0C1
:102CC0004FF000400097CDE9011004A90CA8FFF7D0
:102CD000D3FCDDE90D020C9B0F994FF0000B9146E0
:102CE0001093009211B9791C00EB0109B7EB0900B0
:102CF00003D4C0F1FF3B07F10109A9EB07000190E4
:102D000042E0012F00DA01270021112F01DD1120FF
:102D100000E03846CDE9000104A90CA8FFF7ACFC9F
:102D2000DDE90D010C9A00914FF0000BB9461092AD
:102D300021070FD4009A4A4503DA914601E0A9F130
:102D40000109B9F1010F05DD109AA9F10101515CEA
:102D50003029F4D0B84202DA10F1040F03DA01216D
:102D6000CDE9011010E0002803DC8344A9EB000149
:102D700002E0411C494500DD8946A0EB0B00401CE8
:102D800001904FF000400290200705D4019848457B
:102D900002DB4FF0FF30019000208DF84B000298CD
:102DA0000DF14B07B0F1004F25D002200C902B20E5
:102DB0000D90029800280CDA404202902D200D90D0
:102DC00007E00A210298FDF7C1FA3031029007F8B6
:102DD000011D0C99481E0C900029F2DC0298002875
:102DE000EFD1791E0D980870307800F0200040F087
:102DF000450007F8020D11A8C01BC01D02901398D2
:102E0000007800B1012000EB0901019801EBE071AD
:102E1000029801440398401A401E0390E00306D430
:102E200053462146179A039800F05CF8054413981E
:102E3000007818B15246179990476D1CE00323D5CE
:102E400053462146179A039800F04CF805441BE0BE
:102E5000BBF1000F07DB0098584504DD1098179967
:102E600010F80B0001E01799302052469047019866
:102E70000BF1010B401E05F10105019004D12E203C
:102E80005246179990476D1CB9F10001A9F101094B
:102E9000DEDC05E017F8010B5246179990476D1CD0
:102EA0000299481E02900029F4DC53462146179AE5
:102EB00003989EE62D0000002B000000200000007B
:102EC0002DE9F041044600251E461746880404D427
:102ED00005E039462020B0476D1C641EF9D5284610
:102EE000BDE8F0812DE9F041044600251E469046DC
:102EF000C80301D5302700E02027880404D505E069
:102F000041463846B0476D1C641EF9D52846BDE8D9
:102F1000F0810B78426863F3082242604B78826844
:102F200063F3410282608B78826863F3CB22826014
:102F3000CA78521EC36A62F31753C36270470021F6
:102F40000170417081700121C1707047816821F06A
:102F5000080108318160704701468868C0F3C000ED
:102F600008B1012070470020FCE7816821F00401CE
:102F7000091D8160704701468868C0F3800008B170
:102F8000012070470020FCE70349096860F3134102
:102F9000014A11607047000004240140826861F317
:102FA000082282607047826861F300028260704785
:102FB00070B504460A290CDA206901EB41060725A1
:102FC000B540A84301EB410503FA05F5284320610C
:102FD0000FE0E068A1F10A0505EB45060725B540BD
:102FE000A843A1F10A0505EB450503FA05F52843B9
:102FF000E0600D2A10DBE06AA2F10D0505EB850605
:103000001F25B540A843A2F10D0505EB850501FA82
:1030100005F52843E0621EE0072A0EDB206BD51F72
:1030200005EB85061F25B540A843D51F05EB850593
:1030300001FA05F5284320630DE0606B551E05EB92
:1030400085061F25B540A843551E05EB850501FAE9
:1030500005F52843606370BD07290ADD836823F006
:10306000007303F100738360836861F353438360EB
:1030700007E0836823F000738360836861F3534340
:103080008360836862F3145383607047426861F31E
:10309000CB2242607047000070B52DED068B82B0E8
:1030A0000446204601F012FF4FF47A7000F03AFD1A
:1030B0009FED2C0AB0EE408A0A252046FFF7B6FAAB
:1030C00000261AE02046FFF7B1FA94ED120A10EE3E
:1030D000101A0846FDF7DBF841EC190B53EC192BDD
:1030E00021A0FFF72DF994ED120A30EE080AB0EE98
:1030F000408A0A2000F016FD761CAE42E2DB00EEAC
:10310000105AB8EEC00AC8EE000AC4ED140A2046F0
:1031100000F0ACFF94ED130A10EE101A0846FDF70C
:10312000B6F841EC190B94ED140A10EE101A08468B
:10313000FDF7ADF841EC1A0B8DED009B53EC1A2B0B
:1031400010A0FFF7FDF894ED130AB5EEC00AF1EEFA
:1031500010FA03D1217A17A0FFF7F2F802B0BDEC04
:10316000068B70BD000000005F656C65637472695A
:1031700063616C416E676C65203A20256C660D0AB0
:103180000000000070464F432D3E7A65726F206943
:1031900073203A2025662C2070464F432D3E636FE6
:1031A00072725F616E676C65206973203A20256CCE
:1031B000660D0A006D6F746F7220256420616E6762
:1031C0006C655F696E6974204F4B20210D0A000009
:1031D000002800DD7047094931F8101059B108493D
:1031E00051F82010C968054A32F810205140044AAD
:1031F00052F82020D16000BFECE7000078020020E8
:103200007402002030B5024600200023146824F028
:1032100002041460146824F00104641C146000E0CB
:103220005B1C546804F001041CB94FF6FF74A34200
:10323000F6D1546804F00104002C3FD04D78146896
:1032400065F3C71414608D78146865F386141460F0
:10325000CD78146865F3451414600D79146865F32E
:10326000041414604D79146865F3C30414608D79F7
:10327000146865F3820414600C78D56964F39E7554
:10328000D5610C786508D46965F3DF74D46114687E
:1032900024F001041460002300E05B1C546804F077
:1032A00001041CB14FF6FF74A342F6D1546804F038
:1032B00001040CB1002002E0012000E0002030BD3C
:1032C00030B5024600200023146824F00204146084
:1032D000146824F00104641C146000E05B1C546852
:1032E00004F001041CB94FF6FF74A342F6D15468F0
:1032F00004F001045CB30C88641ED56964F30B050B
:10330000D5618D78D46965F31964D461CD78D469B9
:1033100065F31344D4610D79D46965F31654D4610F
:10332000146824F001041460002300E05B1C54685E
:1033300004F001041CB14FF6FF74A342F6D15468A7
:1033400004F001040CB1002002E0012000E00020A4
:1033500030BD002141708170C17001714171817176
:103360000170704730B50022CC78012303FA04F2D3
:10337000D0F8003223F001035B1CC0F80032D0F813
:103380001C329343C0F81C320B7913B1012B5AD174
:103390002CE0D0F80C329343C0F80C328B891C041B
:1033A000CD7800F5107343F83540CC7853F83430BD
:1033B0000C892343CD7800F5107444F835304B89DF
:1033C0001C04CD7800F5107303EBC5035C60CC786A
:1033D00000F5107303EBC4035B68CC882343CD78FE
:1033E00000F5107404EBC50463602DE0D0F80C32D6
:1033F0001343C0F80C32CB881C04CD7800F5107351
:1034000043F83540CC7853F834300C892343CD78D9
:1034100000F5107444F835304B891C04CD7800F564
:10342000107303EBC5035C60CC7800F5107303EBFD
:10343000C4035B688C892343CD7800F5107404EBDA
:10344000C504636000E000BF00BF4B7813B1012BDF
:103450000CD105E0D0F804329343C0F8043206E002
:10346000D0F804321343C0F8043200E000BF00BFBC
:103470008B7813B1012B0CD105E0D0F814329343B3
:10348000C0F8143206E0D0F814321343C0F81432F6
:1034900000E000BF00BF0B783BB1012B0BD1D0F88F
:1034A0001C321343C0F81C3206E0D0F81C329343A0
:1034B000C0F81C3200E000BF00BFD0F8003223F09B
:1034C0000103C0F8003230BD0246002012296FD23D
:1034D000DFE801F06E090D11151D2125292D353963
:1034E0003D45494D515D936903F0010062E09369E8
:1034F000C3F340005EE09369C3F380005AE0936930
:10350000C3F302130BB1012000E0002052E0536826
:10351000C3F380004EE0936803F001004AE0936833
:10352000C3F3002046E09368C3F3004042E0D36851
:1035300003F003030BB1012000E000203AE0D36860
:10354000C3F3C00036E0D368C3F3001032E0136960
:1035500003F003030BB1012000E000202AE013690F
:10356000C3F3C00026E01369C3F3001022E05368E0
:10357000C3F3C0001EE05368C3F340031BB9536894
:10358000C3F300130BB1012000E0002012E09368A8
:10359000C3F380633BB99368C3F3C0631BB99368FB
:1035A000C3F300730BB1012000E0002002E0FFE74D
:1035B000002000BF00BF70471AB143690B4343614D
:1035C00002E043698B434361704730B505460C46C2
:1035D000134605F5D87000EB04100068C0F38000B6
:1035E0001872187A10B1012813D107E005F5D870C8
:1035F00000EB04100068400D18600BE005F5D87072
:1036000000EB041000686FF0604101EAD0005860E0
:1036100000E000BF00BF05F5D87000EB04100068A3
:10362000C0F34000587205F5D87000EB04104068F4
:1036300000F00F00987205F5D87000EB0410406898
:10364000000AD87405F5D87000EB04108068D872B1
:1036500005F5D87000EB04108068010A197305F5B0
:10366000D87000EB04108068010C597305F5D87010
:1036700000EB04108068010E997305F5D87000EB1B
:103680000410C068D87305F5D87000EB0410C0684A
:10369000010A197405F5D87000EB0410C068010C1C
:1036A000597405F5D87000EB0410C068010E9974C8
:1036B0002146284600F001F830BD11B1012906D19C
:1036C00002E02022C26003E02022026100E000BF8D
:1036D00000BF704790ED070AB1EE400A80ED070A7F
:1036E00090ED080AB1EE400A80ED080A90ED070A55
:1036F00080ED050A90ED070AD0ED080AB0EE001A39
:1037000001EE200ADFED030A80EE201A80ED061A92
:10371000704700002DB2DD3F0649496860F38F31E4
:10372000044A516082080349496862F31C71014AE6
:1037300051607047001002400349496860F3071167
:10374000014A516070470000001002400349496877
:1037500060F30A21014A51607047000000100240E6
:103760000349496860F3CD21014A51607047000068
:1037700000100240012807D10749496D21F03001AE
:103780003031054A516505E00349496D21F03001AA
:10379000014A51657047000000100240052827D2F9
:1037A000DFE800F0030A11181F00134A126861F3E2
:1037B0000002114B1A601CE00F4A126861F31042BC
:1037C0000D4B1A6015E00C4A126861F318620A4B3F
:1037D0001A600EE0084A126A61F30002064B1A6290
:1037E00007E0054A526A61F30002034B5A6200E0A7
:1037F00000BF00BF70470000001002402DE9F041FB
:10380000014600270022002590460023002400F0F6
:1038100065F9064626B1012E12D0022E43D112E0E0
:103820003948406DC0F3402038B13748006BC0F3D1
:10383000406010B13548086001E03548086035E067
:103840003348086032E030484068C0F300482E48F2
:103850004068C0F383422C484068C0F341750DB9FD
:103860000F2A03D12801401C024400E0921CB8F149
:10387000000F03D127485043086013E022484068F6
:10388000C0F3404058B12048406DC0F30137B81C28
:10389000DFF87CC0BCFBF0F05043086002E01C483D
:1038A0005043086002E01A48086000BF00BF164895
:1038B0004068C0F303131848C45C0868E0404860DF
:1038C00011484068C0F302231448C45C4868E040D3
:1038D000C8600D484068C0F3C2231148C45C486802
:1038E000E040886008484068C0F3007306484068BC
:1038F000C0F3813040EA83030A48C45C8868B0FBA7
:10390000F4F00861BDE8F08100100240006CDC02B8
:1039100000127A0000093D002466000834660008A1
:103920003C6600084466000810B501460020094BBB
:1039300003EB1142126801F01F040123A3401A4057
:1039400001F01F040123A3409A4200D000E00120AF
:1039500010BD00000010024030B50024002500E03A
:10396000641C1120FFF7E0FF012802D0B4F5405F8E
:10397000F6D31120FFF7D8FF012801D0002500E081
:103980000125284630BD000010B501290DD10E4B90
:1039900003EB1042126800F01F040123A3401A43F6
:1039A000094C04EB10431A600CE0074B03EB104288
:1039B000126800F01F040123A3409A43024C04EB59
:1039C00010431A6010BD00000010024010B568B925
:1039D0001C4B5B6823F480331A4C636023461B6BDB
:1039E00023F0007303F10073236317E0154B5B684A
:1039F00023F4803303F58033124C6360012805D132
:103A000023465B6823F40033636007E00D4B5B687B
:103A100023F4003303F500330A4C6360094B5B6801
:103A200061F39543074C63600C09064B5B6864F3D4
:103A30005E73044C636023465B6862F3DF7363600C
:103A400010BD0000001002401348006820F0010083
:103A5000401C1149086000BF0F480068C0F34000D7
:103A60000028F9D00C48406820F003000A4948605B
:103A700000BF09484068C0F381000028F9D106481A
:103A8000006806490840044908600020486008634F
:103A90004FF41F008860704700100240FFFFF2FEE5
:103AA0000D49496860F301010B4A516000BF00BF36
:103AB00000BF00BF00BF00BF00BF00BF00BF00BF0E
:103AC00000BF00BF00BF00BF00BF00BF00BF00BFFE
:103AD00000BF00BF7047000000100240024840686D
:103AE000C0F38100704700000010024010B50420B0
:103AF00001F0D2FA074800680749B0FBF1F0074926
:103B00000860084600684FF47A7148430449086029
:103B100010BD00000C00002040420F0010000020EB
:103B200014000020002131E032280ADD194A126811
:103B300032235A434FF0E0235A61A0F1320290B28F
:103B400006E0144A126842434FF0E0235A61002015
:103B500000224FF0E0239A611A46126942F00102F6
:103B60001A6100BF4FF0E022116901F001021AB1A1
:103B700001F48032002AF5D04FF0E022126922F0E1
:103B800001024FF0E0231A6100229A610028CBD194
:103B90007047000014000020026861F30002026018
:103BA00070470021016041600181418101734173CF
:103BB0008173C1730174417470470000B0F1805F7C
:103BC00004D920F07041034A116001E002494860C5
:103BD000704700000404024000000240014600203B
:103BE0000022B1F1805F02D9054B1A6801E0054B54
:103BF0001A6802EA01030BB1012000E000207047BF
:103C00000004024000000240D0F8A430C3F3006377
:103C10003BB9D0F8A43023F0807303F18073C0F86F
:103C2000A430012906D1D0F8A03062F30703C0F810
:103C3000A03034E0022906D1D0F8A03062F30F237F
:103C4000C0F8A0302BE0032906D1D0F8A03062F3F1
:103C50001743C0F8A03022E0042906D1D0F8A030E4
:103C600062F31F63C0F8A03019E0052906D1D0F82F
:103C7000A43062F30703C0F8A43010E0062906D18F
:103C8000D0F8A43062F30F23C0F8A43007E007296E
:103C900005D1D0F8A43062F31743C0F8A4307047C0
:103CA00002684BF6EF731A40026002680B891A43F0
:103CB00002604B7C026863F30D320260CB7B0268CA
:103CC00063F38B2202608B7B026863F3092202603C
:103CD0004B7B026863F3C71202600B7B026863F3DD
:103CE000861202600B7C026863F3451202604A8907
:103CF00042600A6882604A68C26070471AB103680D
:103D00000B43036002E003688B43036070470000CD
:103D1000014600200022B1F1805F02D9054B1A68EC
:103D200001E0054B1A6802EA01030BB1012000E033
:103D30000020704700040240000002400021026899
:103D400022F0010202600022026042608260C260D2
:103D5000014640F2FF420A40B2F5816F0DD2CAB26D
:103D6000083A1423B2FBF3F293000F229A400D4B52
:103D70005B681A430B4B5A6012E040F2FF420A4064
:103D8000B2F5916F0CD2CAB2083A1423B2FBF3F227
:103D900093000F229A40044B1B681A43024B1A608F
:103DA000704700000000024004040240F0EE400AA8
:103DB0009FED270A20EE800ABDEEC00A10EE100A21
:103DC00000EE100AB8EEC01ADFED221AB0EE600A5B
:103DD00001EE610AF0EE400A00F0010179B1F5EE62
:103DE000C00AF1EE10FA04DD9FED1A0A30EEC00AA7
:103DF00003E09FED180A30EE800AF0EE400A20EE54
:103E0000A00ADFED151AB0EE611ADFED141A41EECB
:103E1000001AB0EE611ADFED121A41EE001AB0EE90
:103E2000611ADFED101A41EE001AB0EE611ADFEDF3
:103E30000E1A41EE001AB0EE611ADFED0C1A41EED7
:103E4000001A20EEA01AB7EE000A01EE210A704710
:103E500083F9A23EDA0F4940F2A3ED30017591B427
:103E6000B3CCCF371408B6BA83AA2A3DFDFFFFBEF4
:103E7000F0EE400A9FED280A20EE800ABDEEC00A4F
:103E800010EE100A00EE100AB8EEC01ADFED231A89
:103E9000B0EE600A01EE610AF0EE400A00F00101A6
:103EA00079B1F5EEC00AF1EE10FA04DD9FED1B0AC0
:103EB00030EEC00A03E09FED190A30EE800AF0EE02
:103EC000400A20EEA00ADFED161AB0EE611ADFED0F
:103ED000151A41EE001AB0EE611ADFED131A41EE29
:103EE000001AB0EE611ADFED111A41EE001AB0EEC1
:103EF000611ADFED0F1A41EE001AB0EE611ADFED24
:103F00000D1A41EE001A20EEA00A20EE201AB0EEA3
:103F1000600A01EE210A704783F9A23EDA0F494098
:103F20007ABF142FCA32D4B235C538369E0A50B97A
:103F30007888083CAAAA2ABE10B5044600206080F2
:103F4000208000BF1BE0217A01290AD16188134A31
:103F50001288114461802188104A528811442180BE
:103F60000CE0217A022909D161880D4A1288114496
:103F7000618021880A4A528811442180401C1028FF
:103F8000E1DB20880011A08060880011E080E388D8
:103F9000A288217A0348FEF7D3F910BDAC000020B7
:103FA000B0000020E466000870B504460D4600BF6E
:103FB0008021094801F0FAF90028F9D0A1B2064899
:103FC00001F0D8F900BF4021034801F0EFF90028C3
:103FD000F9D0204670BD000000380140000000000C
:103FE00010B582B01446CDE900010023009A236089
:103FF000194B21F0004098422ADA024328D0B0F54C
:10400000801FA8BF226810DA9FED150B53EC102B10
:104010009DED000B51EC100BFCF727FBCDE90001E7
:104020006FF0350221F0004022600F4B6FF31E51FC
:1040300003EB20501044206041F0FF5040F000504E
:1040400001909DED000B00BF02B051EC100B10BDB4
:104050009DED000BF8E700000000F07F000000007D
:10406000000000000000504302FCFFFF10B52DEDE2
:10407000048B04462046FEF7D9FAD4ED120A94EDDB
:10408000141A70EEC10AB0EE600AFCF733FF84ED3B
:10409000130A94ED130ADFED120A30EE600A10EEF7
:1040A000101A0846FCF7F3F841EC190BB0EE490A78
:1040B000F0EE690AFEF7F0F9B0EE408AF0EE608AA1
:1040C0009FED080B53EC102B51EC180BFCF7F2F89A
:1040D00003D29FED060A84ED130ABDEC048B10BDDC
:1040E000D00FC9408DEDB5A0F7C6B03E000000006E
:1040F00041617047016170474FF6FF710160002117
:1041000081710171042141710121C1717047F0B5C4
:104110000A461588ABB29579032D01D100241AE027
:10412000957965B9557905F00F045579182D01D1A8
:10413000036110E05579282D0DD143610BE095798D
:1041400005F00805167906F004063543D67906F021
:10415000030645EA0604DDB2A5B1002110E0012501
:104160008D401D405DB105688F000F26BE40B543F0
:10417000056005688E0004FA06F635430560491CA3
:104180000829ECD3FF2B15DD1B12002110E00125BF
:104190008D401D405DB145688F000F26BE40B54380
:1041A000456045688E0004FA06F635434560491CB3
:1041B0000829ECD3F0BD0000F0B50C46104F07EB1A
:1041C0001062C0F30741C0F30725C6B2C5F120074E
:1041D000A7EB010C4FF0FF3707FA0CF3C5F12007EE
:1041E0007F1AFB40CB408B4017689F4317602CB170
:1041F00006FA01FC176847EA0C071760F0BD0000DB
:104200000000014090ED030AF1EE080A30EE200AAA
:1042100080ED0A0A90ED030AD0ED040A9FED101A12
:1042200011EE200AB0EE001AC0EE010AB1EE080A43
:1042300030EE800A80ED0B0A90ED030AD0ED040AFF
:104240009FED081A11EE200AB0EE001AC0EE010A26
:10425000B1EE080A30EE800A80ED0C0A70470000CB
:104260002DB2DD3F2DB2DDBF10B52DED028B044622
:10427000D4ED130AB0EE600AFFF7FAFDD4ED0D0A93
:10428000F1EE600A20EE208AD4ED130AB0EE600A47
:10429000FFF78CFDD4ED0E0A00EE808A84ED038AD0
:1042A000D4ED130AB0EE600AFFF780FDD4ED0D0ADD
:1042B00020EE208AD4ED130AB0EE600AFFF7D8FD95
:1042C000D4ED0E0A00EE808A84ED048ABDEC028BE8
:1042D00010BDF0EE401AF4EEC11AF1EE10FA02DB56
:1042E000B0EE410A7047F4EEE01AF1EE10FA02D88F
:1042F000B0EE600AF6E7B0EE610AF3E71FB501F031
:104300004BFE01F013FD01F0EDFA01F081FC01F02C
:104310008FFE01F0EFFA0223F14AF249F24801F070
:1043200039FC0121F048FFF737FC01F00DFB0223B7
:10433000EE4AEF49EC48143001F02CFC0121EA4828
:104340001430FFF729FC01F029FB0123E94AEA496F
:10435000E548283001F01EFC0121E3482830FFF732
:104360001BFC01F045FB0323E24AD21EE249DE4872
:104370003C3001F00FFC0121DB483C30FFF70CFC26
:1043800001F060FB0123DD4ADD49D748503001F0E0
:1043900001FC0121D4485030FFF7FEFB01F07CFB0B
:1043A0000323D64AD21ED649CF48643001F0F2FB2F
:1043B0000121CD486430FFF7EFFB01F097FB10239C
:1043C000D04AD149C848783001F0E4FB0121C64801
:1043D0007830FFF7E1FB01F0B3FB4023CB4ACA4939
:1043E000CB4801F0D7FB0121C948FFF7D5FB02F00C
:1043F0007FF802F0CFF801F0EFFC01F05DFD01F075
:1044000019F901F079F901F035FE01F049FF02F0E8
:104410004DF801F0D1F901F0C1FBFFF767FB012274
:104420000221B1487830FFF769FC0122B949B6484A
:10443000001F01F037F8FDF78DF941F28830FDF7E4
:10444000DBF841F28830FDF7EFF80A20FFF76AFB4E
:10445000B1480068FFF770FDB0480068FFF76CFDD9
:10446000AF480068FDF73CF8AE480068FDF738F843
:10447000AD480068FDF764F8AC480068FDF760F8E7
:10448000DFEDAB0A9FEDAA0AA3480068FDF722FD05
:10449000F1EE081A9FEDA61ADFEDA60A9FEDA50A18
:1044A0009D480068FDF7C6FCDFEDA10A9FEDA00A5C
:1044B0009A480068FDF70EFDF1EE081A9FED9C1A70
:1044C000DFED9C0A9FED9B0A94480068FDF7B2FC63
:1044D0009FED970A90480068FDF77AFDDFED961A88
:1044E0009FED931ADFED950A9FED950A8A480068C3
:1044F000FDF726FD9FED8E0A88480068FDF768FDF0
:10450000DFED8D1A9FED8A1ADFED8C0A9FED8C0A84
:1045100082480068FDF714FD01220221724828300C
:10452000FFF7ECFB012202216F485030FFF7E6FB5A
:1045300079480068FEF7B0FD78480068FEF7ACFDEA
:10454000012211467F4800F0E9FD01220221664860
:104550001430FFF7D3FB012202216348FFF7CEFBA3
:10456000BCE06D48006890ED100A8DED020A6A48C3
:10457000006890ED0F0A8DED030A6748006890ED22
:104580002A0A8DED000A6448006890ED320A8DED2C
:10459000010A02216846FDF779FE6B48007D10BBD9
:1045A000694890ED031AF0EE410A90ED041AB0EE5E
:1045B000410A59480068FDF78DFC6348D0ED021AA6
:1045C000B0EE611AD0ED011AF0EE610AD0ED001ADA
:1045D000B0EE610AF1EE081A4F480068FDF72AFCB8
:1045E0000120594908755948007D10BB574890ED86
:1045F000031AF0EE410A90ED041AB0EE410A474862
:104600000068FDF767FC5148D0ED021AB0EE611A60
:10461000D0ED011AF0EE610AD0ED001AB0EE610A99
:10462000F1EE081A3D480068FDF704FC01204749F7
:104630000875454890F82800F8B94348D0ED090AB4
:10464000B0EE600A34480068FDF7C2FC3E48D0ED89
:10465000081AB0EE611AD0ED071AF0EE610AD0ED3B
:10466000061AB0EE610ADFED341A2B480068FDF738
:1046700067FC0120344981F82800344890F828006C
:10468000F8B93248D0ED090AB0EE600A2348006854
:10469000FDF79EFC2D48D0ED081AB0EE611AD0ED62
:1046A000071AF0EE610AD0ED061AB0EE610ADFEDEE
:1046B000221A1A480068FDF743FC0120234981F8BB
:1046C000280023480078012807D1204A1E490F48B6
:1046D00000F0EEF800201E49087000BF41E700001E
:1046E000B00000204C3C014008000240AC0000201B
:1046F0004C2401408B0000200C300140A70000201A
:104700000C380040440300200438014054030020CA
:104710000804024004000C009001002070020020F8
:104720007C020020800200208C02002098020020E1
:10473000000000000AD7233D000020420AD7233C96
:104740009A99993E000C00401C000020480000206F
:104750001A0000202DE9F0470B4614464FF0000CDC
:1047600000BF2C4A1268C2F302211D4626460A46A3
:10477000C2F10709B9F1040F02D94FF0040901E0B1
:10478000C2F10709C84602F10409B9F1070F02D2C4
:104790004FF0000901E0A2F103094F464FF0010973
:1047A00009FA08F9A9F1010909EA050909FA07F95D
:1047B0004FF0010A0AFA07FAAAF1010A0AEA060A00
:1047C00049EA0A09CC4601466246002904DB15077E
:1047D0002E0E114D6E5407E015072F0E0D4D0C35A2
:1047E00001F00F06361FAF5500BF014600290DDB53
:1047F00000BF00BF01F01F050122AA404D09AD0016
:1048000005F1E025C5F8002100BF00BF00BFBDE8ED
:10481000F08700000CED00E000E400E000BF00F0D5
:104820000702064B19684FF6FF031940044B0B4370
:1048300043EA0221014B196000BF70470CED00E014
:104840000000FA0510B52DED028B0446D4ED130AD5
:10485000B0EE600AFFF7AAFAD4ED050A20EE208A2E
:10486000D4ED130AB0EE600AFFF702FBD4ED060A9E
:1048700000EE808A84ED108AD4ED130AB0EE600A4F
:10488000FFF7F6FAD4ED050AF1EE600A20EE208A71
:10489000D4ED130AB0EE600AFFF788FAD4ED060AE9
:1048A00000EE808A84ED0F8ABDEC028B10BD000003
:1048B0002DE9F04786B08046894692463A21404627
:1048C000FBF78AFC04462CB966A0FDF739FD06B05B
:1048D000BDE8F087A4EB0807142F03D365A0FDF70C
:1048E0002FFDF4E73A46414601A8FBF769FC00209A
:1048F00001A9C85500255F2101A8FBF785FC0646E4
:104900008EB17078312802D0707832280BD171784E
:10491000A1F1300000213170012801D1494600E0A9
:1049200051460D4604E001A955A0FDF709FDCEE76B
:1049300058A101A8FBF75AFC50B90A220021601CBB
:10494000FBF76DFC2875297D55A0FDF7F9FC82E089
:1049500057A101A8FBF74AFC30B90021601CFDF704
:1049600027FE85ED000A76E054A101A8FBF73EFC86
:1049700030B90021601CFDF71BFE85ED010A6AE0DD
:1049800051A101A8FBF732FC30B90021601CFDF7F2
:104990000FFE85ED020A5EE04EA101A8FBF726FCA2
:1049A00030B90021601CFDF703FE85ED030A52E0DB
:1049B00049A101A8FBF71AFC30B90021601CFDF7E2
:1049C000F7FD85ED040A46E044A101A8FBF70EFCC3
:1049D00060B90A220021601CFBF721FC85F8280041
:1049E00095F8281040A0FDF7ABFC34E042A101A8E7
:1049F000FBF7FCFB30B90021601CFDF7D9FD85ED0C
:104A0000060A28E03FA101A8FBF7F0FB30B900211E
:104A1000601CFDF7CDFD85ED070A1CE03CA101A857
:104A2000FBF7E4FB30B90021601CFDF7C1FD85ED0B
:104A3000080A10E039A101A8FBF7D8FB30B9002122
:104A4000601CFDF7B5FD85ED090A04E001A935A05C
:104A5000FDF776FC3BE7621C01A936A0FDF770FC70
:104A600000BF34E7CEDED0A7B5C4CAE4C8EBB8F1C6
:104A7000CABD0A00B2CECAFDC3FBB9FDB3A40A0089
:104A8000CEB4D6AAB5C42050494420D7E93A20254F
:104A9000730A000043757272656E745F534554006B
:104AA00043757272656E745F5345542025640A0025
:104AB00043757272656E745F4B500000437572727D
:104AC000656E745F4B49000043757272656E745F6A
:104AD0004B44000049710000496400005370656553
:104AE000645F53455400000053706565645F53452F
:104AF000542025640A00000053706565645F4B50C4
:104B00000000000053706565645F4B4900000000C1
:104B100053706565645F4B44000000005370656529
:104B200064000000554E6B6E6F77206E616D6520DE
:104B300025730A007365742025732069732025731B
:104B40000A00000070B505460C46D4ED041AB0EE1C
:104B5000611AD4ED031AF0EE610AD4ED021AB0EE38
:104B6000610AD5F8D800804770BD000010B52DED62
:104B7000048B0446D4ED0A0AB0EE600AB2EE081ABD
:104B8000DFED2F0AFFF7A5FB84ED0A0AD4ED0B0A2F
:104B9000B0EE600AB2EE081ADFED290AFFF799FBC2
:104BA00084ED0B0AD4ED0C0AB0EE600AB2EE081ADE
:104BB000DFED230AFFF78DFB84ED0C0A94ED0A0A62
:104BC000F2EE080A80EE201AF0EE419AB7EE001AD3
:104BD000DFED1B0AB0EE690AFFF77BFBB0EE408AFF
:104BE00094ED0B0AF2EE080A80EE201AF0EE419ADC
:104BF000B7EE001ADFED120AB0EE690AFFF769FBA3
:104C0000F0EE408A94ED0C0AF2EE080A80EE201ACB
:104C1000F0EE419AB7EE001ADFED090AB0EE690A2C
:104C2000FFF757FBB0EE409AB0EE491AF0EE680A73
:104C3000B0EE480AD4F8D8008047BDEC048B10BD14
:104C40000000000010B52DED048BB0EE408AF0EEB0
:104C5000608AB0EE419A9FED190A28EE000ADFED56
:104C6000180A20EE200ABCEEC00A10EE102A042119
:104C7000144800F02DFA9FED110A28EE800ADFEDAE
:104C8000100A20EE200ABCEEC00A10EE102A022103
:104C90000C4800F01DFA9FED090A29EE000ADFED2D
:104CA000080A20EE200ABCEEC00A10EE102A0021ED
:104CB000044800F00DFABDEC048B10BD00409C458B
:104CC0006666663F0008004010B52DED048BB0EE1F
:104CD000408AF0EE608AB0EE419A9FED1A0A28EE03
:104CE000000ADFED190A20EE200ABCEEC00A10EE21
:104CF000102A06214FF0804000F0EAF99FED110ADA
:104D000028EE800ADFED100A20EE200ABCEEC00A71
:104D100010EE102A0221480700F0DAF99FED090A87
:104D200029EE000ADFED080A20EE200ABCEEC00AD8
:104D300010EE102A00214FF0804000F0C9F9BDECC0
:104D4000048B10BD00409C456666663F026861F3B7
:104D50004D3202607047026961F30F0202617047D1
:104D60000021017041708170C170017141718171C8
:104D70000121C1717047026861F3861202607047B9
:104D8000C1607047426861F3000242607047426848
:104D900061F34102426070470246002093680B4075
:104DA00003B900E001207047C26922F40062C261C9
:104DB0000A7862B9026822F400420260026822F4B2
:104DC00080420260026822F48062026036E00A7863
:104DD000012A0ED1026822F400420260026822F425
:104DE00080420260026822F4806202F58062026002
:104DF00024E00A78022A0ED1026822F4004202F569
:104E000000420260026822F480420260026822F4DA
:104E10008062026012E00A78032A0FD1026822F44D
:104E2000004202F500420260026822F4804202F56C
:104E300080420260026822F480620260CB790268DC
:104E400063F3492202604A78012A09D1CA79012A0A
:104E500006D1026822F4807202F58072026003E0DB
:104E6000026822F4807202604B78026863F3820267
:104E700002608A78072A0BDD426822F4807202F50C
:104E8000807242608A78036862F3C503036008E0B9
:104E9000426822F4807242608B78026863F3C50234
:104EA0000260CB78026863F3C71202600B79026874
:104EB00063F3CB2202604B79026863F34102026024
:104EC0008B79026863F300020260704710B50446F4
:104ED000B0EE000A84ED0E0A9FED080A84ED0D0A7B
:104EE000204600F00DF82046FFF7BEF92046FFF7F8
:104EF00089F92046FFF73AFE10BD000000000000CF
:104F000010B52DED048B04469FED210A84ED110AA6
:104F1000D4ED110AB2EE061A60EE810AB0EE600A14
:104F2000FBF7E8FF84ED120AD4ED120A94ED141A8F
:104F300070EEC10AB0EE600AFBF7DCFF84ED130AE5
:104F400094ED130ADFED130A30EE600A10EE101A2A
:104F50000846FBF79CF941EC190BB0EE490AF0EE5C
:104F6000690AFDF799FAB0EE408AF0EE608A9FED8B
:104F70000A0B53EC102B51EC180BFBF79BF903D2E7
:104F80009FED030A84ED130ABDEC048B10BD0000F5
:104F900000000000D00FC9408DEDB5A0F7C6B03EAF
:104FA0002DE9F0470026002400250027A046A14651
:104FB000FEF794FD8246BAF1000F06D0BAF1010F58
:104FC00015D0BAF1020F46D115E02D48406DC0F35F
:104FD000402040B12A48006BC0F3406018B1294816
:104FE0002949086002E029482749086037E0274836
:104FF0002549086033E022484068C0F30047204854
:105000004068C0F383441E484068C0F341750DB941
:105010000F2C03D12801401C044400E0A41C27B934
:105020001B4860431849086014E015484068C0F305
:10503000404058B11248406DC0F30136B01C1349CE
:10504000B1FBF0F060431049086003E00F48604393
:105050000D49086003E00D480B49086000BF00BF20
:1050600007484068C0F303180A4810F8089006483B
:10507000006820FA09F004490860BDE8F0870000E4
:1050800000100240006CDC020C00002000127A00CC
:1050900000093D004C660008042808D14FF0E021CB
:1050A000096941F004014FF0E022116107E04FF07F
:1050B000E021096921F004014FF0E02211617047FD
:1050C000C1628262436923F001035B1C4361704744
:1050D0000B4633B1022B06D0042B06D0062B08D189
:1050E00005E0426306E0826304E0C26302E002641A
:1050F00000E000BF00BF7047026861F30922026050
:105100007047026861F3061202607047026861F33B
:10511000000202607047CA4302617047012A03D14E
:10512000C3680B43C36003E012B9C3688B43C36019
:10513000704710B50B4633B1022B09D0042B0CD0AD
:10514000062B14D10EE0846962F3C30484610FE07E
:10515000846962F3CB2484610AE0C46962F3C30406
:10516000C46105E0C46962F3CB24C46100E000BF00
:1051700000BF10BD2DE9F04100250026002701F1F8
:1051800008035C1C92F801C00CFA03FC1FFA8CF5B2
:1051900092F802C00CFA04FC1FFA8CF6D0F804C096
:1051A0004FF0010808FA04F82CEA080CC0F804C013
:1051B000D0F804C04CEA060CC0F804C0D0F804C013
:1051C0004FF0010808FA03F82CEA080CC0F804C0F4
:1051D000D0F804C04CEA050CC0F804C00F4637B143
:1051E000022F0DD0042F14D0062F24D11AE092F8EC
:1051F0000080D0F818C068F3061CC0F818C01BE087
:1052000092F80080D0F818C068F30E3CC0F818C0BF
:1052100012E092F80080D0F81CC068F3061CC0F8B9
:105220001CC009E092F80080D0F81CC068F30E3C66
:10523000C0F81CC000E000BF00BF4FF0010C0CEB39
:1052400041034FF0030C0CEB410492F803C00CFA3D
:1052500003FC1FFA8CF592F804C00CFA04FC1FFA48
:105260008CF64FF0010808FA04F8D0F820C02CEAB8
:10527000080CC0F820C0D0F820C04CEA060CC0F8DA
:1052800020C04FF0010C0CFA03FCD0F8208028EA73
:105290000C08C0F82080D0F820C04CEA050CC0F8FB
:1052A00020C04B004FF0020C0CEB410492F805C0FB
:1052B0004FEA41080CFA08FC1FFA8CF592F806C078
:1052C0004FF0020808EB41080CFA08FC1FFA8CF6B4
:1052D0004FF0010808FA04F8D0F820C02CEA080CB6
:1052E000C0F820C0D0F820C04CEA060CC0F820C09E
:1052F0004FF0010808FA03F8D0F820C02CEA080C97
:10530000C0F820C0D0F820C04CEA050CC0F820C07E
:10531000BDE8F08110B50B4633B1022B09D0042B48
:105320000CD0062B14D10EE0846962F382048461F0
:105330000FE0846962F38A2484610AE0C46962F33D
:105340008204C46105E0C46962F38A24C46100E098
:1053500000BF00BF10BD026861F3C7120260704752
:10536000426861F3061242607047826861F3C712B7
:1053700082607047C1F3080242607047426961F37E
:10538000861242617047426961F3C71242617047F9
:10539000C26861F34D32C260704701F01F0212B162
:1053A0000268426801E0CA43026070470246106822
:1053B000084008B1012070470020FCE741B942696C
:1053C00022F480724261426922F40072426127E055
:1053D00001290AD1426922F4807202F58072426189
:1053E000426922F4007242611AE002290AD142693C
:1053F00022F480724261426922F4007202F5007266
:1054000042610DE003290BD1426922F4807202F55A
:1054100080724261426922F4007202F500724261B8
:10542000704700002DE9F04385B004460F469046D2
:1054300099466846FEF7E2F91748844205D01748B6
:10544000844202D01648844201D1029E00E0039EAD
:1054500006EB86004000B0FBF7F50A20B5FBF0F143
:1054600000FB1150052803D20A20B5FBF0F503E03C
:105470000A20B5FBF0F0451CA06865F30F00A060A2
:10548000E06868F30C30E060206969F30D3020615A
:1054900005B0BDE8F0830000003801400060014025
:1054A0000064014030B5012A0BD100EB11431B68A9
:1054B00001F01F050124AC40234300EB114423609D
:1054C0000AE000EB11431B6801F01F050124AC400A
:1054D000A34300EB1144236030BD02460023202982
:1054E00027D00CDC042939D004DC01293BD0022967
:1054F0003DD134E0082920D0102938D12AE04029B4
:1055000013D080290DD0B1F5807F06D0B1F5007F92
:105510002DD15069C0F380232BE01069C0F38013B4
:1055200027E0D068C0F3C01323E0D068C0F3801335
:105530001FE0D068C0F340131BE0D068C0F34010F8
:1055400018B9506900F0010008B1012000E0002006
:1055500003460EE0D068C0F300130AE000BF5069B4
:1055600000F0010305E0D068C0F3002301E0002350
:1055700000BF00BF012B01D0002070471068084019
:1055800008B10120F9E70020F7E741B9C26822F429
:105590000072C260C26822F48062C2601AE001290F
:1055A0000AD1C26822F40072C260C26822F480622A
:1055B00002F58062C2600DE002290BD1C26822F4BC
:1055C000007202F50072C260C26822F4806202F5C5
:1055D0008062C2607047C26861F38202C260704735
:1055E000C26861F3C302C2607047000070B5044630
:1055F0000D460D48FEF7E2FA00210C48FFF7BEFE0B
:1056000000210B48FEF7C8FA40200949091D08602F
:1056100007480C30046001210448FFF7AFFE012168
:105620000348FEF7B9FA70BD0200001000380140CF
:10563000080402400EB501A8FEF75EFD03208DF8B8
:105640000A000120019001A92948FEF760FD03200E
:105650008DF80A000220019001A92548FEF757FDA8
:105660000220FEF759F80020FDF78EFC6846FDF792
:1056700066FC01208DF8000000208DF801008DF8F7
:10568000020002208DF8030069461A48FDF741FC2C
:1056900001231A4608211748FDF78AFC012302223C
:1056A00009211448FDF784FC012205211148FDF76A
:1056B000D3FC00210F48FDF7E9FC01210D48FDF75F
:1056C0006DFC01210B48FDF76EFC0A48FDF73EFC1E
:1056D00000BF0848FDF740FC0028FAD10548FDF757
:1056E00044FC00BF0348FDF746FC0028FAD10EBD7C
:1056F000000C0140002401400EB501A8FEF7FCFC9F
:1057000003208DF80A000120019001A92848FEF726
:10571000FEFC03208DF80A000220019001A9244814
:10572000FEF7F5FC0220FDF7F7FF6846FDF707FCE2
:1057300001208DF8000000208DF801008DF8020096
:1057400002208DF8030069461A48FDF7E2FB0123A9
:105750001A4600211748FDF72BFC012302221946A7
:105760001448FDF725FC012211461248FDF774FC90
:1057700000211048FDF78AFC01210E48FDF70EFCC0
:1057800001210C48FDF70FFC0A48FDF7DFFB00BFC5
:105790000848FDF7E1FB0028FAD10648FDF7E5FBD4
:1057A00000BF0448FDF7E7FB0028FAD10EBD00005A
:1057B00000080140003C014000B58BB009A8FEF78D
:1057C0009BFC02208DF82B0000208DF8280008207B
:1057D0008DF82A004002099004208DF8290009A9BB
:1057E0003E48FEF794FC01208DF82B0000208DF838
:1057F00028008DF82A004FF40060099004208DF8ED
:10580000290009A93548FEF782FC07A8FDF7A1FD8C
:1058100000208DF81C008DF81D0001208DF81E0061
:105820008DF81F0000208DF820008DF821008DF8E4
:10583000220007A92A48FDF7E5FC1E20ADF8140058
:1058400000208DF8160005208DF8170000208DF837
:10585000180005A92248FDF733FD01208DF804004A
:1058600000208DF807008DF806008DF808008DF8EF
:105870000500ADF80A00ADF80C00ADF80E00ADF86B
:10588000100001A91648FDF76DFD01208DF80400F8
:105890008DF807008DF8060000208DF808008DF8BF
:1058A0000500ADF80A00ADF80C00ADF80E00ADF83B
:1058B000100001A90A48FDF755FD012212210848F0
:1058C000FDF77AFE0122D1020548FDF775FE01229F
:1058D000D1030348FDF770FE0BB000BD0008014086
:1058E0000064004010B501210148FEF765FC10BDC1
:1058F0000203103000B585B01248FEF71FFA684663
:10590000FEF74FF90020ADF8080001208DF80F00D8
:105910008DF80D008DF80E0000208DF80C0002208F
:105920008DF8110001208DF8100069460548FEF73A
:10593000B7F90322012103480838FEF765F905B0DD
:1059400000BD00000800024000B585B01248FEF717
:10595000F5F96846FEF725F90020ADF808000120AA
:105960008DF80F008DF80D008DF80E0000208DF8D9
:105970000C0002208DF8110001208DF810006946FE
:105980000548FEF78DF90122022103481C38FEF775
:105990003BF905B000BD00001C00024000B585B019
:1059A0001248FEF7CBF96846FEF7FBF80020ADF889
:1059B00008008DF80F0001208DF80D0000208DF8F3
:1059C0000E008DF80C0003208DF8110001208DF8D9
:1059D000100069460548FEF763F9092203210348D0
:1059E0003038FEF711F905B000BD0000300002406C
:1059F00000B585B01248FEF7A1F96846FEF7D1F868
:105A00001020ADF8080000208DF80F0001208DF85F
:105A10000D0000208DF80E008DF80C0003208DF88D
:105A2000110000208DF8100069460548FEF738F98E
:105A30000A22042102484438FEF7E6F805B000BD0A
:105A40004400024000B585B01248FEF777F9684679
:105A5000FEF7A7F80020ADF808008DF80F00012030
:105A60008DF80D0000208DF80E008DF80C0003203D
:105A70008DF8110001208DF8100069460548FEF7E9
:105A80000FF90B22052103485838FEF7BDF805B081
:105A900000BD00005800024000B585B01248FEF776
:105AA0004DF96846FEF77DF81020ADF8080000209B
:105AB0008DF80F0001208DF80D0000208DF80E00EC
:105AC0008DF80C0003208DF8110000208DF81000D7
:105AD00069460548FEF7E4F80C22062102486C38B6
