:020000040800F2
:10000000B80400209D010008F909000861090008F2
:10001000F5090008E90800081D0C000800000000B0
:100020000000000000000000000000004B0B000872
:10003000ED08000800000000F50A00084D0B00085C
:10004000B7010008B7010008B7010008B7010008B0
:10005000B7010008B7010008B7010008B7010008A0
:10006000B7010008B7010008B7010008B701000890
:10007000B7010008B7010008B7010008B701000880
:10008000B7010008B7010008B7010008B701000870
:10009000B7010008B7010008B7010008B701000860
:1000A000B7010008B7010008B7010008B701000850
:1000B000B7010008C10B0008B7010008B70100082C
:1000C000B7010008B7010008B7010008B701000830
:1000D000B7010008B7010008B7010008B701000820
:1000E000B7010008B7010008B7010008B701000810
:1000F000B7010008B7010008B7010008B701000800
:10010000B7010008B7010008E90B0008B7010008B3
:10011000B7010008B7010008B7010008B7010008DF
:10012000B7010008B7010008B7010008B7010008CF
:10013000B7010008B7010008B7010008B7010008BF
:1001400000000000000000000000000000000000AF
:10015000B7010008B7010008B7010008B70100089F
:10016000B7010008B7010008B7010008B70100088F
:10017000B7010008B7010008B7010008B70100087F
:10018000B7010008DFF810D000F0DCFA00480047A3
:10019000B9270008AFF30080B80400200648804764
:1001A00006480047FEE7FEE7FEE7FEE7FEE7FEE75C
:1001B000FEE7FEE7FEE7FEE7510B000885010008B9
:1001C00000F0004230F000400AD0C10D01F560712E
:1001D000C0F3160042EA0151C208400711437047BC
:1001E000002001467047000030B5041E71F1000484
:1001F00004DB4FF00044404264EB0101141E73F134
:10020000000405DB1C464FF00043524263EB04033D
:100210008B4208BF824230BD01F0004330B421F070
:10022000004150EA010206D00A0DA2F56072C1F346
:100230001301002A02DC30BC00207047440F44EA5E
:10024000C104C100E01830BC00EBC25000F047B858
:1002500030B50B46014600202022012409E021FA96
:1002600002F59D4205D303FA02F5491B04FA02F593
:100270002844151EA2F10102F1DC30BD2DE9F05F2A
:100280000546002092469B46884606468146402405
:100290001BE0284641464746224600F074FA534682
:1002A0005A46C01A914110D311461846224600F012
:1002B0005BFA2D1A67EB01084F4622460120002108
:1002C00000F052FA17EB00094E41201EA4F1010480
:1002D000DFDC484631462A464346BDE8F09F002908
:1002E000A8BF7047401C490008BF20F001007047BC
:1002F00010B4B0FA80FC00FA0CF050EA010404BF1C
:1003000010BC704749B1CCF1200421FA04F411FA71
:100310000CF118BF012121430843A3EB0C01CB1DB5
:100320004FEA00614FEA102042BF002010BC704726
:1003300000EBC35010440029A4BF10BC7047401C00
:10034000490008BF20F0010010BC70472DE9FE4FA6
:10035000804681EA0300C00F0C46009021F0004166
:1003600023F00045B8EB0200A94105D240462146E2
:1003700090461C460B46024623F00040104347D0EF
:10038000270DC7F30A00C3F30A510290401A0190E7
:1003900040286BDAC3F3130040F4801B00989246A8
:1003A00020B10023D2EB030A63EB0B0B01985946F3
:1003B000C0F14002504600F0D7F906460D465046BF
:1003C0005946019A00F0EFF910EB08006141002452
:1003D00087EA115284EAE7731A4340D0009A62B365
:1003E000019A012A4FEA075215DC001B61EB02015A
:1003F0004FF0004202EA0752CDE90042001C41F5ED
:10040000801132462B4600F0EFF903B0BDE8F08FC3
:1004100040462146F9E7001B61EB0201001C41F553
:10042000801300185B412018A2F5001747EB030169
:1004300040EAD570B6196D4111E06D084FEA3606F5
:1004400045EAC0754FEA0752001B61EB0201001C30
:1004500041F5801149084FEA3000001951413246F8
:100460002B4603B0BDE8F04F00F0AFB90098012271
:1004700040000023D0EB020263EBE07300982146BA
:100480004FEAE074B8EB000061EB0401E9E783F0A8
:1004900000435BE781F0004158E72DE9FE4F81EA18
:1004A000030404F0004421F0004100944FF0000BDD
:1004B00023F0004350EA01045ED052EA03045BD00B
:1004C000C3F30A54C1F30A552C44A4F2F334019443
:1004D000A0FB0254C1F3130141F48011C3F31303D1
:1004E00043F4801301FB024400FB034E840A970A85
:1004F00044EA815447EA8357A4FB076802958D0AB2
:1005000005FB07854FEA932C04FB0C542705029D3D
:100510004FEA065847EA1637B5EB08056EEB070CAD
:10052000870E920E47EA811742EA8312A7FB020167
:10053000B6EB0B0164EB00042B0D43EA0C335E18A1
:1005400044EB1C50DA465146E7FB0201C5F31304A5
:100550004FEA0B3343EA14534FEA0432019C43EA57
:100560000603A4F10C040294009CCDE900B400F051
:100570003BF903B0BDE8F08F00200146F9E72DE913
:10058000F04D81EA030404F0004B21F000451446CD
:100590004FF0000A23F0004150EA050220D054EA4F
:1005A00001021DD0C5F30A570246C5F31303C1F378
:1005B0001300C1F30A5640F4801543F48013A7EBEF
:1005C0000608101BD64608F2FD3873EB050002D36F
:1005D00008F1010801E092185B41B8F1000F03DA5D
:1005E00000200146BDE8F08D00204FF48011064642
:1005F00084460EE0171B73EB050705D3121B63EB54
:10060000050306434CEA010C49084FEA30009218F2
:100610005B4150EA0107EDD152EA030012D082EAB1
:10062000040083EA0501084305D0101BAB4106D244
:100630000122002306E000224FF0004302E06FF0A9
:10064000010253101AEB06004CEB085110EB0A00A4
:1006500041EB0B01BDE8F04D00F0B7B82DE9FE4FBE
:10066000C3F30A5701F000450024C1F30A56C3F34F
:100670001303C1F3130143F4801312EB020AA646DD
:1006800041F48011009543EB030CA7F1010B16E038
:10069000B0EB0A0061EB0C01071E71F1000707DAED
:1006A0004FF00008D0EB080085F0004568EB010131
:1006B000171A73EB0107EBD3761E001849415E450C
:1006C000F6DA50EA010209D0CDE900E5002213462E
:1006D000029600F089F803B0BDE8F08F204600993B
:1006E000F9E7C1F30A52C1F3130140F2FF3341F4B9
:1006F00080119A4202DA00200146704740F23343EB
:100700009A42A2F2334202DC524200F03CB800F0BE
:100710002BB8000030B5041E71F1000404DB4FF06B
:100720000044404264EB0101141E73F1000405DB38
:100730001C464FF00043524263EB0403994208BF4A
:10074000904230BD064C074D06E0E06840F00103E2
:1007500094E8070098471034AC42F6D3FFF716FD33
:10076000B43F0008D43F0008202A04DB203A00FAF6
:1007700002F1002070479140C2F1200320FA03F3F8
:10078000194390407047202A04DB203A21FA02F0F6
:100790000021704721FA02F3D040C2F120029140BB
:1007A000084319467047202A06DBCB17203A41FA46
:1007B00002F043EAE07306E041FA02F3D040C2F1EE
:1007C0002002914008431946704710B5141E73F17A
:1007D000000408DA401C41F1000192185B411A4301
:1007E00001D120F0010010BD2DE9F04D92469B464D
:1007F00011B1B1FA81F202E0B0FA80F220329046F3
:10080000FFF7B2FF04460F4640EA0A0041EA0B0137
:1008100053465A46084313D0114653EA010019D0F3
:10082000C8F140025046FFF7AEFF05460E4650465F
:1008300059464246FFF798FF084305D0012004E0DF
:1008400020463946BDE8F08D0020054346EAE076B3
:100850002C4337430A986305E40AA0EB0800002202
:10086000FD0A44EA47540A3002D500200146E9E770
:10087000010510196941DDE9084500196941BDE824
:10088000F04DA2E710B52DED068BB0EE408A18EEC4
:10089000100AFFF795FC41EC1A0B9FED101BB0EE10
:1008A0004A0AF0EE6A0A00F0F1F9B0EE409AF0EE72
:1008B000609A51EC190BFFF7AFFC08EE900AF5EEC9
:1008C000C08AF1EE10FA04DBB0EE680ABDEC068BCC
:1008D00010BD9FED040A38EE800AF7E70000000023
:1008E000FA211940D00FC94000BFFEE77047000051
:1008F00010B50446204601F017FE204601F0A6F987
:10090000204602F02DF894ED0C0AF0EE400A9FED1F
:10091000120A124800F091F884ED0A0A94ED0B0ACD
:10092000F0EE400A9FED0C0A0C4800F086F884EDCA
:10093000090A9FED090A84ED0A0AB0EE000A84ED67
:10094000090A204601F0EEFE204601F0B9FE2046DD
:1009500002F056F810BD0000000000001C0000204E
:1009600000BFFEE770B52DED028B4FF480511C489F
:1009700001F01CFE00211B4800F0BDF804460021D8
:10098000184800F0B8F805460021164800F0B3F802
:1009900006464FF48051124801F00AFE200440EA56
:1009A00005203043801208EE100AB8EE480ADFED49
:1009B0000E0A20EE200ADFED0D0A80EE201AF0EE7E
:1009C000418A9FED0B0A28EE800ADFED070A80EED0
:1009D000201AF0EE418AB0EE680ABDEC028B70BDC1
:1009E000000C0140003800400000B4430000804685
:1009F000D00FC94000BFFEE77047F0B503460C4674
:100A000003F00701C1F10700042801D9042001E027
:100A1000C1F107000646081D072801D2002000E0AA
:100A2000C81E05460120B040401E2040A8400127B6
:100A3000AF407F1E17403843F0BDB0EE401A31EE94
:100A4000600A80ED020A90ED020AD0ED031A30EE42
:100A5000610AD0ED001A20EE210AD0ED011A90EDC6
:100A6000022A01EE820A80ED040A90ED040AD0ED1C
:100A7000061AB4EEE10AF1EE10FA04DD90ED060A72
:100A800080ED040A0CE090ED040AD0ED071AB4EEF4
:100A9000E10AF1EE10FA03D290ED070A80ED040AA4
:100AA00090ED050AD0ED041A30EE210A80ED050A1A
:100AB00090ED050AD0ED061AB4EEE10AF1EE10FA57
:100AC00004DD90ED060A80ED050A0CE090ED050AC4
:100AD000D0ED071AB4EEE10AF1EE10FA03D290ED70
:100AE000070A80ED050A90ED020A80ED030A90EDF9
:100AF000050A7047704770B505460E46002406E0AB
:100B0000601C80B20446C82801DD002070BD0221AF
:100B1000284602F021F80028F2D03146284602F09B
:100B200019F8002406E0601C80B20446C82801DDE4
:100B30000020EBE70121284602F00EF80028F2D051
:100B4000284602F003F8C0B2E0E7704770470000A3
:100B50001848006840F4700016490860164800689C
:100B600020F00100401C1449086000BF12480068D2
:100B7000C0F340000028F9D00F48406820F003007F
:100B80000D49486000BF0C484068C0F38100002850
:100B9000F9D1094800680949084007490860002060
:100BA000486008634FF41F008860C803014980391A
:100BB0000860704788ED00E000100240FFFFF2FE81
:100BC00010B5064A11885088054A126801F0FEFEE9
:100BD0000121044802F07FF910BD0000140000203C
:100BE000A40000200004004010B50A480068401C22
:100BF0000849086008460068B0F57A7F05D10020F2
:100C000000F0A8FE0020034908600121024802F01C
:100C100062F910BD00000020000C004000BFFEE79C
:100C20000FB4054B10B503A9044A029800F0ACF9C3
:100C300010BC5DF814FB0000F5240008B000002093
:100C400002480068C0F30220704700000CED00E08D
:100C500010B5002804DB0A07130E054A135406E0FA
:100C60000A07140E034A00F00F031B1FD45410BDD3
:100C700000E400E018ED00E02DED020B019820F0FB
:100C8000004001909DED000B02B0704710B52DEDB6
:100C9000040B86B09DED060B10EE100A10EE901AB4
:100CA0008DED000B002818BF0120084320F0004004
:100CB000C0F17F6000F1E040C00F21D19DED080B35
:100CC00010EE101A10EE900A8DED000B002918BFDF
:100CD0000121084320F00040C0F17F6000F1E040B6
:100CE000C00F0DD129490798B1EB400F04BF0698FA
:100CF000002842D00998400004BF089800283CD042
:100D00009DED080B53EC102B9DED060B51EC100BD9
:100D1000FFF7A4FCCDE902019DED020B40F2FF714B
:100D200010EE900A8DED000B31EA105021D007989B
:100D3000039900F0004001F00041884219D09DED78
:100D4000080B8DED040B9DED020B8DED000B10EEED
:100D5000900A059961F31E0005909DED041B9DED21
:100D6000020B51EC110B53EC102BFFF793FBCDE969
:100D700002019DED020B0AB010BD012000F028F821
:100D80000AB0BDE8104000F003B800000000E0FF2A
:100D90009FED050B10B553EC102B51EC100BFFF72A
:100DA000EEFB41EC100B10BD000000000000000045
:100DB00002E008C8121F08C1002AFAD17047704724
:100DC000002001E001C1121F002AFBD17047000082
:100DD0000149086070470000B400002010B50446C7
:100DE000606C804784ED0D0AD4ED0D0AB2EE061A50
:100DF00060EE810AB0EE600AFFF744FD84ED0E0A52
:100E000010BD00002DE9FF5F82B00021DDE9043054
:100E1000020DDDF840B0034318D044F61050A2F2A2
:100E2000FF3242431514119801281FD0A5EB0B0087
:100E3000401C5FEA000A4FF000064E4FDFF8389181
:100E4000B046504615D5CAF1000413E011980124AC
:100E50004AA3012801D16FEA0B010298119AC0E957
:100E60000031C0E9024206B0BDE8F09FCBF10000BE
:100E7000DFE704460021404A491842EB0450CDE91F
:100E8000001012E0E00707D032463B464046494694
:100E9000FFF703FB8046894632463B46104619461B
:100EA000FFF7FBFA06460F466410002CEAD1DDE995
:100EB0000401DDE90023BAF1000F06DAFFF7EDFACD
:100EC00042464B46FFF7E9FA05E0FFF758FB42467A
:100ED0004B46FFF754FB04460E460022284BFFF713
:100EE00019FC03D84FF0FF30014607E00022254BE4
:100EF00020463146FFF72AFAFFF7F3FB102409E0FA
:100F0000002C0ADB0A220023FFF7B8F9039B3032DA
:100F10001A55641E50EA0102F2D1641C039AC4F10E
:100F200011031444119A012A03D0012208430DD160
:100F30000AE0084304D000204FF0110B119072E733
:100F4000A3EB0B056D1E0DE05B4504DD4FF00002C9
:100F500005F1010504E003DA4FF00002A5F10105F7
:100F6000002AECD002981199C0E90231C0E900458D
:100F700079E70000000014400000F03F300000005E
:100F80000000F0430000E03F2DE9FF4F95B09A4686
:100F9000884606460025EEE1252877D1002427461D
:100FA000F94A0121039400E0044316F8013F203B75
:100FB00001FA03F01042F7D130782A2811D06FF0EF
:100FC0002F033078A0F13002092A16D8039A44F092
:100FD000020402EB820203EB42021044761C0390EF
:100FE000EFE758F8042B0392002A03DA504244F446
:100FF0000054039044F00204761C30782E2816D159
:1010000016F8010F44F004042A280DD06FF02F02C7
:101010003078A0F13003092B09D807EB870302EBE6
:101020004303C718761CF3E758F8047B761C307826
:101030006C280FD006DC4C2817D068280DD06A2801
:1010400014D104E0742810D07A280FD10DE044F4B4
:1010500000140AE044F4801401E044F4401472786F
:10106000824202D104F58014761C761C3078662802
:101070000BD013DC582877D009DC002875D0452820
:10108000F6D04628F4D047281AD193E118E0632817
:1010900035D0642879D0652812D18BE1702873D0BF
:1010A00008DC6728F1D069286FD06E280DD06F2832
:1010B00006D1ACE073282CD0752874D0782853D092
:1010C0005246179990476D1C54E1C4F30250022810
:1010D00009D003280DD0D8F8001004280DD00D60D9
:1010E00008F1040846E1D8F80010EA17C1E90052F7
:1010F000F6E7D8F800100D80F2E70D70F0E718F869
:10110000041B8DF8001000208DF80100EB46012033
:1011100003E058F804BB4FF0FF3061074FF00001C7
:1011200002D40DE009F101018946B9420FDA814587
:10113000F8DB1BF809100029F4D108E009F10101DE
:1011400089468142FADB1BF809100029F6D1039881
:101150005346A0EB090721463846179A00F080FA5B
:10116000284400EB090507E044E008E10DE01BF826
:10117000010B524617999047B9F10109F7D253462E
:1011800021463846179AF2E039E00A21C4F30252A8
:101190004FF0000B0091022A06D058F8040BC1173B
:1011A000032A09D00AE023E008F1070020F0070233
:1011B000F2E80201904605E000B2C117042A01D10D
:1011C00040B2C117002906DA0A460021404261EB0D
:1011D00002012D2202E0220504D52B228DF80420E5
:1011E000012203E0E20701D02022F7E7914657E011
:1011F0000A2100E010214FF0000B00910BE01021BC
:101200004FF0000B44F004040827009103E008208D
:101210004FF0000B0090C4F30252022A05D058F898
:10122000040B0021032A08D008E008F1070020F091
:101230000702F2E80201904603E080B2042A00D1DE
:10124000C0B24FF0000922072AD53278702A07D0A1
:10125000DDF800C08CF0100C5CEA0B0C05D00EE041
:1012600040228DF80420012208E050EA010306D054
:1012700030238DF804308DF8052002229146009B22
:1012800083F0080353EA0B030AD150EA010201D1AB
:10129000620705D530228DF804204FF001097F1E2A
:1012A0003278582A04D039A20C920CAA02920BE090
:1012B0003BA2F9E75B46009AFEF7E0FF0C9B9B5CC4
:1012C000029A521E0292137050EA0102F2D1029861
:1012D00004A9081A00F1200B600702D524F4803419
:1012E00000E001275F4502DDA7EB0B0000E00020D6
:1012F00000EB0B01009003984944401A0390E0036F
:1013000006D453462146179A039800F0A9F90544DC
:10131000002706E001A85246C05D179990476D1C52
:101320007F1C4F45F6DBE0030CD553462146179A48
:10133000039800F095F9054404E0302052461799CF
:1013400090476D1C0099481E00900029F5DC08E0CC
:101350000298029952460078491C029117999047C9
:101360006D1CBBF10001ABF1010BF1DC5BE100F0A6
:1013700065F90544761C307800287FF40DAE19B06D
:101380002846BDE8F08F00000928010030313233D3
:1013900034353637383961626364656600000000B1
:1013A000303132333435363738394142434445469B
:1013B00000000000600700D4062708F1070020F0B5
:1013C0000700F0E80223804603F0004C5FEA0C00BF
:1013D00001D097A009E0200501D596A005E0E0071F
:1013E00001D095A001E0AFF24C001390307823F0CB
:1013F000004365280CD006DC452809D046281DD0BE
:1014000047287FD13BE0662818D067287AD136E09C
:101410000021112F01DB112000E0781CCDE9000133
:1014200004A90CA8FFF7EEFCDDE90D010C9A4FF0C2
:10143000000B07F10109109200914EE04FF00040BF
:101440000097CDE9011004A90CA8FFF7DBFCDDE94A
:101450000D020C9B0F994FF0000B914610930092D8
:1014600011B9791C00EB0109B7EB090003D4C0F1F5
:10147000FF3B07F10109A9EB0700019042E0012FB2
:1014800000DA01270021112F01DD112000E038468C
:10149000CDE9000104A90CA8FFF7B4FCDDE90D01BA
:1014A0000C9A00914FF0000BB946109221070FD40F
:1014B000009A4A4503DA914601E0A9F10109B9F120
:1014C000010F05DD109AA9F10101515C3029F4D01A
:1014D000B84202DA10F1040F03DA0121CDE901105C
:1014E00010E0002803DC8344A9EB000102E0411C6A
:1014F000494500DD8946A0EB0B00401C01904FF0F0
:1015000000400290200705D40198484502DB4FF0C7
:10151000FF30019000208DF84B0002980DF14B0731
:10152000B0F1004F25D002200C902B200D90029896
:1015300000280CDA404202902D200D9007E00A218D
:101540000298FEF785FE3031029007F8011D0C99D4
:10155000481E0C900029F2DC02980028EFD1791E79
:101560000D980870307800F0200040F0450007F832
:10157000020D11A8C01BC01D02901398007800B185
:10158000012000EB0901019801EBE0710298014490
:101590000398401A401E0390E00306D453462146A8
:1015A000179A039800F05CF805441398007818B176
:1015B0005246179990476D1CE00323D553462146A8
:1015C000179A039800F04CF805441BE0BBF1000F9C
:1015D00007DB0098584504DD1098179910F80B00A8
:1015E00001E0179930205246904701980BF1010B0A
:1015F000401E05F10105019004D12E205246179995
:1016000090476D1CB9F10001A9F10109DEDC05E08C
:1016100017F8010B5246179990476D1C0299481E06
:1016200002900029F4DC53462146179A03989EE65F
:101630002D0000002B000000200000002DE9F041EB
:10164000044600251E461746880404D405E03946A2
:101650002020B0476D1C641EF9D52846BDE8F081F6
:101660002DE9F041044600251E469046C80301D5E9
:10167000302700E02027880404D505E0414638469D
:10168000B0476D1C641EF9D52846BDE8F0810B7883
:10169000426863F3082242604B78826863F3410238
:1016A00082608B78826863F3CB228260CA78521E94
:1016B000C36A62F31753C36270470021017041701F
:1016C00081700121C1707047816821F008010831E3
:1016D0008160704701468868C0F3C00008B10120EE
:1016E00070470020FCE7816821F00401091D81603A
:1016F000704701468868C0F3800008B10120704738
:101700000020FCE70349096860F31341014A1160B6
:101710007047000004240140826861F3082282605F
:101720007047826861F300028260704770B50446BA
:101730000A290CDA206901EB41060725B540A843C8
:1017400001EB410503FA05F5284320610FE0E0684D
:10175000A1F10A0505EB45060725B540A843A1F10F
:101760000A0505EB450503FA05F52843E0600D2A57
:1017700010DBE06AA2F10D0505EB85061F25B540DB
:10178000A843A2F10D0505EB850501FA05F52843EF
:10179000E0621EE0072A0EDB206BD51F05EB8506F5
:1017A0001F25B540A843D51F05EB850501FA05F5B2
:1017B000284320630DE0606B551E05EB85061F2551
:1017C000B540A843551E05EB850501FA05F52843EC
:1017D000606370BD07290ADD836823F0007303F19D
:1017E00000738360836861F35343836007E0836819
:1017F00023F000738360836861F3534383608368DD
:1018000062F3145383607047426861F3CB224260F5
:10181000704710B50446A4F10A020421080701F03C
:1018200037FB10BD70B52DED068B82B00446204607
:1018300001F02CFA4FF47A7000F05CFC9FED2C0A5A
:10184000B0EE408A0A252046FFF7C8FA00261AE0C3
:101850002046FFF7C3FA94ED0E0A10EE101A084660
:10186000FEF7AEFC41EC190B53EC192B21A0FFF74E
:10187000D7F994ED0E0A30EE080AB0EE408A0A203D
:1018800000F038FC761CAE42E2DB00EE105AB8EEF7
:10189000C00AC8EE000AC4ED100A204600F044FE5B
:1018A00094ED0F0A10EE101A0846FEF789FC41EC81
:1018B000190B94ED100A10EE101A0846FEF780FC82
:1018C00041EC1A0B8DED009B53EC1A2B10A0FFF787
:1018D000A7F994ED0F0AB5EEC00AF1EE10FA02D1A5
:1018E00017A0FFF79DF902B0BDEC068B70BD00009C
:1018F000000000005F656C656374726963616C4130
:101900006E676C65203A20256C660D0A00000000A9
:1019100070464F432D3E7A65726F206973203A20DE
:1019200025662C2070464F432D3E636F72725F61B7
:101930006E676C65206973203A20256C660D0A007D
:10194000616E676C655F696E6974204F4B20210D75
:101950000A000000002800DD7047094931F8101026
:1019600059B1084951F82010C968054A32F81020C9
:101970005140044A52F82020D16000BFECE700003B
:10198000AC000020A800002030B502460020002353
:10199000146824F002041460146824F00104641C28
:1019A000146000E05B1C546804F001041CB94FF69D
:1019B000FF74A342F6D1546804F00104002C3FD018
:1019C0004D78146865F3C71414608D78146865F356
:1019D00086141460CD78146865F3451414600D798D
:1019E000146865F3041414604D79146865F3C30436
:1019F00014608D79146865F3820414600C78D569DD
:101A000064F39E75D5610C786508D46965F3DF745D
:101A1000D461146824F001041460002300E05B1C0E
:101A2000546804F001041CB14FF6FF74A342F6D1D0
:101A3000546804F001040CB1002002E0012000E031
:101A4000002030BD30B5024600200023146824F089
:101A500002041460146824F00104641C146000E0A3
:101A60005B1C546804F001041CB94FF6FF74A342D8
:101A7000F6D1546804F001045CB30C88641ED56987
:101A800064F30B05D5618D78D46965F31964D4616D
:101A9000CD78D46965F31344D4610D79D46965F3C5
:101AA0001654D461146824F001041460002300E08B
:101AB0005B1C546804F001041CB14FF6FF74A34290
:101AC000F6D1546804F001040CB1002002E00120BA
:101AD00000E0002030BD002141708170C1700171B3
:101AE000417181710170704730B50022CC780123BB
:101AF00003FA04F2D0F8003223F001035B1CC0F8B3
:101B00000032D0F81C329343C0F81C320B7913B169
:101B1000012B5AD12CE0D0F80C329343C0F80C3290
:101B20008B891C04CD7800F5107343F83540CC78D0
:101B300053F834300C892343CD7800F5107444F801
:101B400035304B891C04CD7800F5107303EBC503C9
:101B50005C60CC7800F5107303EBC4035B68CC8841
:101B60002343CD7800F5107404EBC50463602DE0C9
:101B7000D0F80C321343C0F80C32CB881C04CD785B
:101B800000F5107343F83540CC7853F834300C89A5
:101B90002343CD7800F5107444F835304B891C048C
:101BA000CD7800F5107303EBC5035C60CC7800F5CD
:101BB000107303EBC4035B688C892343CD7800F575
:101BC000107404EBC504636000E000BF00BF4B78F5
:101BD00013B1012B0CD105E0D0F804329343C0F8C7
:101BE000043206E0D0F804321343C0F8043200E0B7
:101BF00000BF00BF8B7813B1012B0CD105E0D0F8EA
:101C000014329343C0F8143206E0D0F81432134370
:101C1000C0F8143200E000BF00BF0B783BB1012BCD
:101C20000BD1D0F81C321343C0F81C3206E0D0F8B8
:101C30001C329343C0F81C3200E000BF00BFD0F854
:101C4000003223F00103C0F8003230BD90ED040AE9
:101C5000B1EE400A80ED040A90ED050AB1EE400AAB
:101C600080ED050A90ED040A80ED020A90ED040A69
:101C7000D0ED050AB0EE001A01EE200ADFED030AEE
:101C800020EE200A80ED030A7047000056CE133F75
:101C90000649496860F38F31044A5160820803495C
:101CA000496862F31C71014A51607047001002409C
:101CB0000349496860F30711014A51607047000009
:101CC000001002400349496860F30A21014A51604B
:101CD00070470000001002400349496860F3CD21BD
:101CE000014A51607047000000100240012807D1EE
:101CF0000749496D21F030013031054A516505E051
:101D00000349496D21F03001014A516570470000D7
:101D100000100240052827D2DFE800F0030A11185E
:101D20001F00134A126861F30002114B1A601CE095
:101D30000F4A126861F310420D4B1A6015E00C4A0D
:101D4000126861F318620A4B1A600EE0084A126AC0
:101D500061F30002064B1A6207E0054A526A61F31A
:101D60000002034B5A6200E000BF00BF7047000052
:101D7000001002402DE9F041014600270022002515
:101D800090460023002400F065F9064626B1012E96
:101D900012D0022E43D112E03948406DC0F34020EA
:101DA00038B13748006BC0F3406010B13548086067
:101DB00001E03548086035E03348086032E03048DB
:101DC0004068C0F300482E484068C0F383422C4866
:101DD0004068C0F341750DB90F2A03D12801401C9A
:101DE000024400E0921CB8F1000F03D12748504391
:101DF000086013E022484068C0F3404058B12048D2
:101E0000406DC0F30137B81CDFF87CC0BCFBF0F0BC
:101E10005043086002E01C485043086002E01A4842
:101E2000086000BF00BF16484068C0F3031318489D
:101E3000C45C0868E040486011484068C0F3022371
:101E40001448C45C4868E040C8600D484068C0F36E
:101E5000C2231148C45C4868E04088600848406874
:101E6000C0F3007306484068C0F3813040EA830342
:101E70000A48C45C8868B0FBF4F00861BDE8F081F2
:101E800000100240006CDC0200127A0000093D00E4
:101E90007C3F00088C3F0008943F00089C3F0008EE
:101EA00010B501460020094B03EB1142126801F006
:101EB0001F040123A3401A4001F01F040123A34083
:101EC0009A4200D000E0012010BD00000010024046
:101ED00030B50024002500E0641C1120FFF7E0FF6E
:101EE000012802D0B4F5405FF6D31120FFF7D8FFE8
:101EF000012801D0002500E00125284630BD000062
:101F000010B501290DD10E4B03EB1042126800F001
:101F10001F040123A3401A43094C04EB10431A6029
:101F20000CE0074B03EB1042126800F01F04012382
:101F3000A3409A43024C04EB10431A6010BD00000A
:101F40000010024010B568B91C4B5B6823F4803365
:101F50001A4C636023461B6B23F0007303F100737C
:101F6000236317E0154B5B6823F4803303F580335C
:101F7000124C6360012805D123465B6823F40033CB
:101F8000636007E00D4B5B6823F4003303F5003317
:101F90000A4C6360094B5B6861F39543074C6360CF
:101FA0000C09064B5B6864F35E73044C6360234664
:101FB0005B6862F3DF73636010BD000000100240D5
:101FC0001348006820F00100401C1149086000BF60
:101FD0000F480068C0F340000028F9D00C48406862
:101FE00020F003000A49486000BF09484068C0F378
:101FF00081000028F9D106480068064908400449D4
:1020000008600020486008634FF41F008860704734
:1020100000100240FFFFF2FE0D49496860F3010124
:102020000B4A516000BF00BF00BF00BF00BF00BF30
:1020300000BF00BF00BF00BF00BF00BF00BF00BFA8
:1020400000BF00BF00BF00BF00BF00BF704700005F
:102050000010024002484068C0F381007047000051
:102060000010024000EE100AB8EEC00ADFED100AC0
:1020700080EE201A9FED0F0A21EE000ADFED0E0A16
:1020800020EE200A82ED040A00EE101AB8EEC00A13
:102090009FED071AC0EE010A9FED060A20EE800AA6
:1020A000DFED050A20EE200A82ED050A70470000E8
:1020B00000008045333353400000484210B50420EF
:1020C00000F0CAFE074800680749B0FBF1F0074975
:1020D0000860084600684FF47A7148430449086074
:1020E00010BD00000800002040420F000C0000203E
:1020F00010000020002131E032280ADD194A126860
:1021000032235A434FF0E0235A61A0F1320290B2D9
:1021100006E0144A126842434FF0E0235A6100205F
:1021200000224FF0E0239A611A46126942F0010240
:102130001A6100BF4FF0E022116901F001021AB1EB
:1021400001F48032002AF5D04FF0E022126922F02B
:1021500001024FF0E0231A6100229A610028CBD1DE
:102160007047000010000020026861F30002026066
:102170007047002101604160018141810173417319
:102180008173C173017441747047D0F8A430C3F3F4
:1021900000633BB9D0F8A43023F0807303F180735F
:1021A000C0F8A430012906D1D0F8A03062F30703AB
:1021B000C0F8A03034E0022906D1D0F8A03062F394
:1021C0000F23C0F8A0302BE0032906D1D0F8A030AF
:1021D00062F31743C0F8A03022E0042906D1D0F8FA
:1021E000A03062F31F63C0F8A03019E0052906D1C2
:1021F000D0F8A43062F30703C0F8A43010E0062939
:1022000006D1D0F8A43062F30F23C0F8A43007E061
:10221000072905D1D0F8A43062F31743C0F8A430E1
:10222000704702684BF6EF731A40026002680B8930
:102230001A4302604B7C026863F30D320260CB7B71
:10224000026863F38B2202608B7B026863F30922CE
:1022500002604B7B026863F3C71202600B7B02686B
:1022600063F3861202600B7C026863F3451202601E
:102270004A8942600A6882604A68C260704700000A
:102280000021026822F00102026000220260426026
:102290008260C260014640F2FF420A40B2F5816F9F
:1022A0000DD2CAB2083A1423B2FBF3F293000F2204
:1022B0009A400D4B5B681A430B4B5A6012E040F298
:1022C000FF420A40B2F5916F0CD2CAB2083A142309
:1022D000B2FBF3F293000F229A40044B1B681A439F
:1022E000024B1A60704700000000024004040240E4
:1022F000F0EE400A9FED270A20EE800ABDEEC00AEC
:1023000010EE100A00EE100AB8EEC01ADFED221A25
:10231000B0EE600A01EE610AF0EE400A00F0010141
:1023200079B1F5EEC00AF1EE10FA04DD9FED1A0A5C
:1023300030EEC00A03E09FED180A30EE800AF0EE9E
:10234000400A20EEA00ADFED151AB0EE611ADFEDAB
:10235000141A41EE001AB0EE611ADFED121A41EEC6
:10236000001AB0EE611ADFED101A41EE001AB0EE5D
:10237000611ADFED0E1A41EE001AB0EE611ADFEDC0
:102380000C1A41EE001A20EEA01AB7EE000A01EE78
:10239000210A704783F9A23EDA0F4940F2A3ED30DB
:1023A000017591B4B3CCCF371408B6BA83AA2A3DCD
:1023B000FDFFFFBEF0EE400A9FED280A20EE800AE6
:1023C000BDEEC00A10EE100A00EE100AB8EEC01AF8
:1023D000DFED231AB0EE600A01EE610AF0EE400A6A
:1023E00000F0010179B1F5EEC00AF1EE10FA04DD5A
:1023F0009FED1B0A30EEC00A03E09FED190A30EE94
:10240000800AF0EE400A20EEA00ADFED161AB0EEC8
:10241000611ADFED151A41EE001AB0EE611ADFED18
:10242000131A41EE001AB0EE611ADFED111A41EEF7
:10243000001AB0EE611ADFED0F1A41EE001AB0EE8D
:10244000611ADFED0D1A41EE001A20EEA00A20EE0F
:10245000201AB0EE600A01EE210A704783F9A23E0D
:10246000DA0F49407ABF142FCA32D4B235C5383694
:102470009E0A50B97888083CAAAA2ABE70B50446BC
:102480000D4600200AE029880B4A12881144298051
:102490002188094A528811442180401C1028F2DB0F
:1024A0002088001120802888001128802A8821880F
:1024B00002A0FEF7B5FB70BD140000205561207628
:1024C0006F6C74616765206F6666736574206973ED
:1024D000202564205562200D0A20766F6C74616798
:1024E00065206F6666736574206973202025640D0E
:1024F0000A00000070B504460D4600BF802109485F
:1025000000F021FE0028F9D0A1B2064800F012FE2A
:1025100000BF4021034800F016FE0028F9D02046F5
:1025200070BD00000038014010B52DED048B04464D
:102530002046FEF753FCD4ED0E0A94ED101A70EE0F
:10254000C10AB0EE600AFEF79DF984ED0F0A94ED22
:102550000F0ADFED120A30EE600A10EE101A08467C
:10256000FDF72EFE41EC190BB0EE490AF0EE690AB8
:10257000FEF782FBB0EE408AF0EE608A9FED080B1A
:1025800053EC102B51EC180BFDF72EFE03D29FEDF0
:10259000060A84ED0F0ABDEC048B10BDD00FC940B4
:1025A0008DEDB5A0F7C6B03E000000004161704758
:1025B000016170474FF6FF71016000218171017167
:1025C000042141710121C1717047F0B50A46158897
:1025D000ABB29579032D01D100241AE0957965B944
:1025E000557905F00F045579182D01D1036110E0DC
:1025F0005579282D0DD143610BE0957905F008053B
:10260000167906F004063543D67906F0030645EA46
:102610000604DDB2A5B1002110E001258D401D406A
:102620005DB105688F000F26BE40B54305600568A3
:102630008E0004FA06F635430560491C0829ECD3E0
:10264000FF2B15DD1B12002110E001258D401D40E0
:102650005DB145688F000F26BE40B54345604568B3
:102660008E0004FA06F635434560491C0829ECD370
:10267000F0BD0000F0B50C46104F07EB1062C0F340
:102680000741C0F30725C6B2C5F12007A7EB010C2F
:102690004FF0FF3707FA0CF3C5F120077F1AFB4014
:1026A000CB408B4017689F4317602CB106FA01FCA2
:1026B000176847EA0C071760F0BD000000000140F2
:1026C00090ED000AF1EE080A30EE200A80ED060ACD
:1026D00090ED000AD0ED010A9FED101A11EE200ACC
:1026E000B0EE001AC0EE010AB1EE080A30EE800A20
:1026F00080ED070A90ED000AD0ED010A9FED081A5F
:1027000011EE200AB0EE001AC0EE010AB1EE080A7E
:1027100030EE800A80ED080A704700002DB2DD3FE0
:102720002DB2DDBF10B52DED028B0446D4ED0F0A9E
:10273000B0EE600AFFF73EFED4ED090AF1EE600A42
:1027400020EE208AD4ED0F0AB0EE600AFFF7D0FD2C
:10275000D4ED0A0A00EE808A84ED008AD4ED0F0AD7
:10276000B0EE600AFFF7C4FDD4ED090A20EE208A1E
:10277000D4ED0F0AB0EE600AFFF71CFED4ED0A0A92
:1027800000EE808A84ED018ABDEC028B10BDF0EE74
:10279000401AF4EEC11AF1EE10FA02DBB0EE410A73
:1027A0007047F4EEE01AF1EE10FA02D8B0EE600ACB
:1027B000F6E7B0EE610AF3E701F094F800F06EFF7F
:1027C00000F094FE00F000FF01F0D8F800F096FE53
:1027D00002231F4A1F49204800F0B8FE01211E486D
:1027E000FFF7C2FC01F038FB01F080FB00F0AAFF0C
:1027F00001F010F800F052FD00F0A8FD01F0E0F843
:1028000001F0F4F901F014FA01F004FB00F0FEFD10
:1028100000F0A0FEFFF752FC41F27070FEF7F9FFE6
:102820000A20FFF767FC0D490D48FFF727FE0D480A
:102830000068FEF7F7FF012211460B4800F04EFB3F
:1028400001221146094800F049FB00BFFEE70000E5
:10285000140000204C3C0140080002401A000020F7
:1028600018000020A4000020000C004000040040DC
:102870002DE9F0470B4614464FF0000C00BF2C4AE0
:102880001268C2F302211D4626460A46C2F1070914
:10289000B9F1040F02D94FF0040901E0C2F10709B0
:1028A000C84602F10409B9F1070F02D24FF000093E
:1028B00001E0A2F103094F464FF0010909FA08F9B6
:1028C000A9F1010909EA050909FA07F94FF0010A16
:1028D0000AFA07FAAAF1010A0AEA060A49EA0A0903
:1028E000CC4601466246002904DB15072E0E114D29
:1028F0006E5407E015072F0E0D4D0C3501F00F0635
:10290000361FAF5500BF014600290DDB00BF00BFD9
:1029100001F01F050122AA404D09AD0005F1E02597
:10292000C5F8002100BF00BF00BFBDE8F087000070
:102930000CED00E000E400E000BF00F00702064BF1
:1029400019684FF6FF031940044B0B4343EA022179
:10295000014B196000BF70470CED00E00000FA0564
:1029600010B52DED028B0446D4ED0F0AB0EE600ACF
:10297000FFF7BEFCD4ED020A20EE208AD4ED0F0A48
:10298000B0EE600AFFF716FDD4ED030A00EE808A70
:1029900084ED0C8AD4ED0F0AB0EE600AFFF70AFD51
:1029A000D4ED020AF1EE600A20EE208AD4ED0F0A7F
:1029B000B0EE600AFFF79CFCD4ED030A00EE808ABB
:1029C00084ED0B8ABDEC028B10BD00002DE9F041B7
:1029D00004460D46164608480088271A074800880E
:1029E000A5EB0008324641463846FFF73BFB304630
:1029F000FDF77EFFBDE8F081180000201A000020DE
:102A000010B52DED048B0446D4ED060AB0EE600A35
:102A1000B2EE081ADFED3E0AFFF7B9FE84ED060AB2
:102A2000D4ED070AB0EE600AB2EE081ADFED380AFC
:102A3000FFF7ADFE84ED070AD4ED080AB0EE600A98
:102A4000B2EE081ADFED320AFFF7A1FE84ED080AA4
:102A500094ED060AF2EE080A80EE201AF0EE419A92
:102A6000B7EE001ADFED2A0AB0EE690AFFF78FFE13
:102A7000B0EE408A94ED070AF2EE080A80EE201AC2
:102A8000F0EE419AB7EE001ADFED210AB0EE690AC6
:102A9000FFF77DFEF0EE408A94ED080AF2EE080A98
:102AA00080EE201AF0EE419AB7EE001ADFED180A18
:102AB000B0EE690AFFF76BFEB0EE409A9FED150A83
:102AC00028EE000ABCEEC00A10EE102A06214FF0D4
:102AD000804000F0DDF99FED0F0A28EE800ABCEE81
:102AE000C00A10EE102A0221480700F0D1F99FED2C
:102AF000090A29EE000ABCEEC00A10EE102A0021D5
:102B00004FF0804000F0C4F9BDEC048B10BD000014
:102B1000000000000080BB45026861F34D32026096
:102B20007047026961F30F02026170470021017072
:102B300041708170C1700171417181710121C17158
:102B40007047026861F38612026070470146C868E8
:102B500080B27047C16070470246002093680B4006
:102B600003B900E001207047C26922F40062C2612B
:102B70000A7862B9026822F400420260026822F414
:102B800080420260026822F48062026036E00A78C5
:102B9000012A0ED1026822F400420260026822F487
:102BA00080420260026822F4806202F58062026064
:102BB00024E00A78022A0ED1026822F4004202F5CB
:102BC00000420260026822F480420260026822F43D
:102BD0008062026012E00A78032A0FD1026822F4B0
:102BE000004202F500420260026822F4804202F5CF
:102BF00080420260026822F480620260CB7902683F
:102C000063F3492202604A78012A09D1CA79012A6C
:102C100006D1026822F4807202F58072026003E03D
:102C2000026822F4807202604B78026863F38202C9
:102C300002608A78072A0BDD426822F4807202F56E
:102C4000807242608A78036862F3C503036008E01B
:102C5000426822F4807242608B78026863F3C50296
:102C60000260CB78026863F3C71202600B790268D6
:102C700063F3CB2202604B79026863F34102026086
:102C80008B79026863F300020260704710B5044656
:102C9000B0EE000A84ED0A0A9FED080A84ED090AE5
:102CA000204600F00DF82046FFF73CFD2046FFF7D8
:102CB00007FD2046FFF7A4FE10BD00000000000045
:102CC00010B52DED048B04469FED210A84ED0D0A0D
:102CD000D4ED0D0AB2EE061A60EE810AB0EE600A7B
:102CE000FDF7D0FD84ED0E0AD4ED0E0A94ED101A16
:102CF00070EEC10AB0EE600AFDF7C4FD84ED0F0A64
:102D000094ED0F0ADFED130A30EE600A10EE101A90
:102D10000846FDF755FA41EC190BB0EE490AF0EE02
:102D2000690AFDF7A9FFB0EE408AF0EE608A9FEDD8
:102D30000A0B53EC102B51EC180BFDF755FA03D28C
:102D40009FED030A84ED0F0ABDEC048B10BD00005B
:102D500000000000D00FC9408DEDB5A0F7C6B03E11
:102D60002DE9F0470026002400250027A046A146B3
:102D7000FFF770F98246BAF1000F06D0BAF1010FE1
:102D800015D0BAF1020F46D115E02D48406DC0F3C1
:102D9000402040B12A48006BC0F3406018B1294878
:102DA0002949086002E029482749086037E0274898
:102DB0002549086033E022484068C0F300472048B6
:102DC0004068C0F383441E484068C0F341750DB9A4
:102DD0000F2C03D12801401C044400E0A41C27B997
:102DE0001B4860431849086014E015484068C0F368
:102DF000404058B11248406DC0F30136B01C134931
:102E0000B1FBF0F060431049086003E00F486043F5
:102E10000D49086003E00D480B49086000BF00BF82
:102E200007484068C0F303180A4810F8089006489D
:102E3000006820FA09F004490860BDE8F087000046
:102E400000100240006CDC020800002000127A0032
:102E500000093D00A43F0008042808D14FF0E021FC
:102E6000096941F004014FF0E022116107E04FF0E1
:102E7000E021096921F004014FF0E022116170475F
:102E8000C1628262436923F001035B1C43617047A6
:102E90000B4633B1022B06D0042B06D0062B08D1EB
:102EA00005E0426306E0826304E0C26302E002647C
:102EB00000E000BF00BF7047026861F309220260B2
:102EC0007047026861F3061202607047026861F39E
:102ED000000202607047CA4302617047012A03D1B1
:102EE000C3680B43C36003E012B9C3688B43C3607C
:102EF000704710B50B4633B1022B09D0042B0CD010
:102F0000062B14D10EE0846962F3C30484610FE0E0
:102F1000846962F3CB2484610AE0C46962F3C30468
:102F2000C46105E0C46962F3CB24C46100E000BF62
:102F300000BF10BD2DE9F04100250026002701F15A
:102F400008035C1C92F801C00CFA03FC1FFA8CF514
:102F500092F802C00CFA04FC1FFA8CF6D0F804C0F8
:102F60004FF0010808FA04F82CEA080CC0F804C075
:102F7000D0F804C04CEA060CC0F804C0D0F804C075
:102F80004FF0010808FA03F82CEA080CC0F804C056
:102F9000D0F804C04CEA050CC0F804C00F4637B1A5
:102FA000022F0DD0042F14D0062F24D11AE092F84E
:102FB0000080D0F818C068F3061CC0F818C01BE0E9
:102FC00092F80080D0F818C068F30E3CC0F818C022
:102FD00012E092F80080D0F81CC068F3061CC0F81C
:102FE0001CC009E092F80080D0F81CC068F30E3CC9
:102FF000C0F81CC000E000BF00BF4FF0010C0CEB9C
:1030000041034FF0030C0CEB410492F803C00CFA9F
:1030100003FC1FFA8CF592F804C00CFA04FC1FFAAA
:103020008CF64FF0010808FA04F8D0F820C02CEA1A
:10303000080CC0F820C0D0F820C04CEA060CC0F83C
:1030400020C04FF0010C0CFA03FCD0F8208028EAD5
:103050000C08C0F82080D0F820C04CEA050CC0F85D
:1030600020C04B004FF0020C0CEB410492F805C05D
:103070004FEA41080CFA08FC1FFA8CF592F806C0DA
:103080004FF0020808EB41080CFA08FC1FFA8CF616
:103090004FF0010808FA04F8D0F820C02CEA080C18
:1030A000C0F820C0D0F820C04CEA060CC0F820C000
:1030B0004FF0010808FA03F8D0F820C02CEA080CF9
:1030C000C0F820C0D0F820C04CEA050CC0F820C0E1
:1030D000BDE8F08110B50B4633B1022B09D0042BAB
:1030E0000CD0062B14D10EE0846962F38204846153
:1030F0000FE0846962F38A2484610AE0C46962F3A0
:103100008204C46105E0C46962F38A24C46100E0FA
:1031100000BF00BF10BD026861F3C71202607047B4
:10312000426861F3061242607047826861F3C71219
:1031300082607047C1F3080242607047C26861F361
:103140004D32C260704702461068084008B1012045
:1031500070470020FCE741B9426922F48072426165
:10316000426922F40072426127E001290AD14269D2
:1031700022F4807202F580724261426922F4007288
:1031800042611AE002290AD1426922F48072426146
:10319000426922F4007202F5007242610DE00329D7
:1031A0000BD1426922F4807202F580724261426959
:1031B00022F4007202F50072426170472DE9F0437B
:1031C00085B004460F46904699466846FEF7D2FD04
:1031D0001748844205D01748844202D016488442DA
:1031E00001D1029E00E0039E06EB86004000B0FB8A
:1031F000F7F50A20B5FBF0F100FB1150052803D2CA
:103200000A20B5FBF0F503E00A20B5FBF0F0451C01
:10321000A06865F30F00A060E06868F30C30E06020
:10322000206969F30D30206105B0BDE8F08300002E
:1032300000380140006001400064014041B9C268AB
:1032400022F40072C260C26822F48062C2601AE096
:1032500001290AD1C26822F40072C260C26822F455
:10326000806202F58062C2600DE002290BD1C26863
:1032700022F4007202F50072C260C26822F4806219
:1032800002F58062C2607047C26861F38202C26068
:103290007047C26861F3C302C26070470EB501A8EF
:1032A000FFF788F903208DF80A000120019001A999
:1032B0002448FFF78AF903208DF80A0002200190C4
:1032C00001A92048FFF781F90220FEF7E1FC002068
:1032D000FEF718FA6846FEF7F0F900208DF80000B6
:1032E0008DF801008DF8020001208DF80300694679
:1032F0001548FEF7CCF90023012208211248FEF7F9
:1033000015FA012205211048FEF764FA00210E4843
:10331000FEF77AFA01210C48FEF703FA0A48FEF795
:10332000D3F900BF0848FEF7D5F90028FAD10648BE
:10333000FEF7D9F900BF0448FEF7DBF90028FAD1FF
:103340000EBD0000000C0140002401400EB501A894
:10335000FFF730F903208DF80A000120019001A940
:103360002848FFF732F903208DF80A000220019067
:1033700001A92448FFF729F90220FEF789FC6846D5
:10338000FEF79BF901208DF8000000208DF8010068
:103390008DF8020002208DF8030069461A48FEF7F6
:1033A00076F90023012219461748FEF7BFF90023DA
:1033B000022201211448FEF7B9F9012211461248F0
:1033C000FEF708FA00211048FEF71EFA01210E4808
:1033D000FEF7A2F901210C48FEF7A3F90A48FEF70F
:1033E00073F900BF0848FEF775F90028FAD10648BE
:1033F000FEF779F900BF0448FEF77BF90028FAD1FF
:103400000EBD000000080140003C014000B58BB03B
:1034100009A8FFF7CFF802208DF82B0000208DF8C7
:10342000280008208DF82A004002099004208DF819
:10343000290009A92B48FFF7C8F801208DF82B00B7
:1034400000208DF828008DF82A004FF400600990C4
:1034500004208DF8290009A92248FFF7B6F807A82B
:10346000FEF739FB00208DF81C008DF81D000120AF
:103470008DF81E008DF81F0000208DF820008DF8BB
:1034800021008DF8220007A91748FEF77DFA1E20BB
:10349000ADF8140000208DF8160005208DF81700F7
:1034A00000208DF8180005A90F48FEF7CBFA01207F
:1034B0008DF8040000208DF807008DF806008DF8C7
:1034C00008008DF80500ADF80A00ADF80C00ADF865
:1034D0000E00ADF8100001A90348FEF705FB0BB084
:1034E00000BD0000000801400064004010B501214B
:1034F0000148FFF7BFF810BD0203103000B585B0DA
:103500001148FEF7BDFE6846FEF733FE0020ADF819
:10351000080001208DF80F008DF80D008DF80E00C9
:1035200000208DF80C008DF8110001208DF810009E
:1035300069460548FEF775FE032201210248083856
:10354000FEF723FE05B000BD080002404360816025
:10355000C26070471CB56846FFF72CF84FF48871BD
:103560001748FFF723F841F230011648FFF71EF81D
:1035700002208DF8070000208DF8040010208DF83F
:1035800006004FF48870009004208DF8050069460D
:103590000B48FFF71AF802208DF8070000208DF87D
:1035A000040010208DF8060041F230000090042045
:1035B0008DF8050069460348FFF707F81CBD0000B9
:1035C00000080140000C014070B50320FFF7B4F97A
:1035D000FDF736FB054600221146FDF70EFA0446BC
:1035E00021466FF00B00FDF733FBFDF729FB054685
:1035F00000221146FDF701FA044621466FF00A0049
:10360000FDF726FBFDF71CFB054600221146FDF7E2
:10361000F4F9044621466FF00900FDF719FBFDF7A8
:103620000FFB054600221146FDF7E7F90446214647
:103630006FF00400FDF70CFBFDF702FB05460022CE
:103640001146FDF7DAF9044621466FF00300FDF755
:10365000FFFAFDF7F5FA054600221146FDF7CDF910
:10366000044621466FF00100FDF7F2FAFDF7E8FA93
:10367000054600220F21FDF7C0F9044621464FF010
:10368000FF30FDF7E5FA002211461D20FFF7F0F8A4
:10369000002201213220FFF7EBF870BD10B50121A7
:1036A0004FF4A010FEF72CFC01214FF4C010FEF7E0
:1036B00027FC01212148FEF723FC01211F48401C63
:1036C000FEF71EFC01211D48C01CFEF719FC01215C
:1036D0001A48C01DFEF714FC012118480A30FEF7F5
:1036E0000FFC012115480C30FEF70AFC012113489C
:1036F0000D30FEF705FC01214FF4E010FEF700FC51
:1037000001210F48FEF7FCFB01210D48401CFEF78C
:10371000F7FB01210A48801CFEF7F2FB0121084853
:103720000D30FEF7EDFB012105481130FEF7E8FBF7
:10373000012103481830FEF7E3FB10BD020018001A
:1037400001001C001FB502A8FEF734FF6846FFF712
:10375000EDF902208DF80F0000208DF80C000820F4
:103760008DF80E002020029004208DF80D0002A993
:103770002648FEF72AFF02208DF80F0000208DF862
:103780000C008DF80E004020029004208DF80D00F2
:1037900002A91E48FEF719FF02208DF80F00002035
:1037A0008DF80C0008208DF80E0080200290042077
:1037B0008DF80D0002A91548FEF707FF00208DF8CF
:1037C000000001208DF8010000208DF804008DF824
:1037D000030002208DF8020000208DF80500012072
:1037E0008DF806008DF8070069460948FFF7BCF917
:1037F00007210748FFF795F901210548FFF78CF9E4
:1038000001210348FFF79DF91FBD0000000801409A
:10381000003001401FB502A8FEF7CCFE6846FFF756
:1038200085F902208DF80F0000208DF80C0008208B
:103830008DF80E008002029004208DF80D0002A980
:103840002648FEF7C2FE02208DF80F0000208DF8FA
:103850000C008DF80E004FF48040029004208DF88B
:103860000D0002A91D48FEF7B0FE02208DF80F00E2
:1038700000208DF80C0008208DF80E000003029047
:1038800004208DF80D0002A91448FEF79EFE0020CA
:103890008DF8000001208DF8010000208DF8040053
:1038A0008DF8030002208DF8020000208DF805003D
:1038B00001208DF806008DF8070069460848FFF7DB
:1038C00053F907210648FFF72CF901210448FFF7B7
:1038D00023F901210248FFF734F91FBD000C014014
:1038E0000038004010B5FEF76BFB01210420FEF705
:1038F00011FA00BF2048FEF7D3FA0128FAD10121BE
:103900000846FEF707FA00BFFEF7E2FA0028FBD0F0
:1039100001210020FEF7FEF900BF0120FEF7C0FAEA
:103920000128FAD101221D211046FEF70BFB0121CF
:103930000220FEF7EFF900BF1920FEF7B1FA0128C7
:10394000FAD10020FEF7B4F90420FEF7C5F90420EF
:10395000FEF7B8F90120FEF7C9F90220FEF75CFB7B
:1039600000BFFEF777FB0228FBD10020FEF7BEF96F
:10397000FFF7F6F910BD00000100240010B586B075
:10398000002401A8FEF7F6F9029C0420FFF764FA70
:103990000948B4FBF0F00949086000204FF0E0212D
:1039A00088616FF07F4048610846006940F001007F
:1039B000086106B010BD000040420F000400002066
:1039C0001FB502A8FEF7F6FD0420029008208DF82E
:1039D0000E0000208DF80C0004208DF80D00022050
:1039E0008DF80F0002A97E48FEF7EFFD0820029037
:1039F0008DF80E0000208DF80C0004208DF80D00CD
:103A000002208DF80F0002A97548FEF7DEFD4FF485
:103A10000040029008208DF80E0000208DF80C0068
:103A200004208DF80D0002208DF80F0002A96C48CB
:103A3000FEF7CBFD082002908DF80E0000208DF8D7
:103A40000C0004208DF80D0002208DF80F0002A953
:103A50006448FEF7BAFD01216348FEF70BFE022120
:103A60004807FFF72EFA00214FF08040FFF724FAB5
:103A700000214FF08040FFF74EFB002241F26F71B2
:103A80004FF08040FFF7FCF900214FF08040FFF736
:103A90004CFB00214FF08040FFF742FB06208DF8E1
:103AA000000001208DF8050000208DF806008DF83B
:103AB00003008DF804008DF801008DF802006A46BD
:103AC00000214FF08040FFF735FA002211464FF0F9
:103AD0008040FFF7DDF9002211464FF08040FFF7EC
:103AE00008FA002211464FF08040FFF7F3FA062053
:103AF0008DF8000001208DF8050000208DF80600EB
:103B00008DF803008DF804008DF801008DF8020097
:103B10006A4602214807FFF70DFA002202214807F2
:103B2000FFF7B6F9002202214807FFF7E2F9002269
:103B300002214807FFF7CEFA06208DF80000012089
:103B40008DF8050000208DF806008DF803008DF833
:103B500004008DF801008DF802006A460421080770
:103B6000FFF7E8F9002204210807FFF791F9002286
:103B700004210807FFF7BDF9002204210807FFF719
:103B8000A9FA06208DF8000001208DF8050000201C
:103B90008DF806008DF803008DF804008DF8010003
:103BA0008DF802006A4606214FF08040FFF7C2F907
:103BB000002206214FF08040FFF76AF9002206211B
:103BC0004FF08040FFF795F9002206214FF080402A
:103BD000FFF780FA01218807FFF778F91FBD000081
:103BE00000080140000C01400102042410B500212E
:103BF0000E48FFF766F900210C48FFF75DF9002138
:103C00000A48FFF788FA092240F65F110748FFF7D4
:103C100037F900210548FFF788FA00210348FFF72C
:103C20007FFA01210148FFF751F910BD000400405F
:103C30001FB502A8FEF7BEFC4020029008208DF8B8
:103C40000E0000208DF80C0004208DF80D000220DD
:103C50008DF80F0002A96D48FEF7B7FC8020029096
:103C600008208DF80E0000208DF80C0004208DF83F
:103C70000D0002208DF80F0002A96448FEF7A5FC94
:103C80004FF48070029008208DF80E0000208DF80F
:103C90000C0004208DF80D0002208DF80F0002A901
:103CA0005A48FEF792FC4FF40070029008208DF8FD
:103CB0000E0000208DF80C0004208DF80D0002206D
:103CC0008DF80F0002A95148FEF77FFC00215048F3
:103CD000FFF7F7F800214E48FFF7EEF800214C48B7
:103CE000FFF719FA00224FF6FF714948FFF7C8F8AD
:103CF00000214748FFF719FA00214548FFF710FA5D
:103D000000208DF8000001208DF8050000208DF8BE
:103D100006008DF803008DF804008DF801008DF881
:103D200002006A4600213A48FFF704F900221146D2
:103D30003748FFF7ADF8002211463548FFF7D9F8AC
:103D400000208DF8000001208DF8050000208DF87E
:103D500006008DF803008DF804008DF801008DF841
:103D600002006A4602212A48FFF7E4F800220221F5
:103D70002748FFF78DF8002202212548FFF7B9F800
:103D800000208DF8000001208DF8050000208DF83E
:103D900006008DF803008DF804008DF801008DF801
:103DA00002006A4604211A48FFF7C4F800220421E1
:103DB0001748FFF76DF8002204211548FFF799F81E
:103DC00000208DF8000001208DF8050000208DF8FE
:103DD00006008DF803008DF804008DF801008DF8C1
:103DE00002006A4606210A48FFF7A4F800220621CD
:103DF0000748FFF74DF8002206210548FFF779F83C
:103E000001210348FFF762F81FBD0000000C0140CC
:103E10000008004010B500210E48FFF752F80021BD
:103E20000C48FFF749F800210A48FFF774F9092206
:103E300045F6BF510748FFF723F800210548FFF773
:103E400074F900210348FFF76BF901210148FFF7DE
:103E50003DF810BD000C00401CB56846FEF7AAFBFB
:103E600002208DF8070000208DF8040008208DF84E
:103E700006008001009004208DF80500694618486E
:103E8000FEF7A3FB02208DF8070000208DF8040048
:103E90008DF806004FF48060009004208DF8050036
:103EA00069460F48FEF791FB00231A460D490E485C
:103EB000FFF784F901210C48FFF7EBF901210A48CB
:103EC000FFF7E2F900210848FFF7B8F9002106489A
:103ED000FFF741F901210448FFF730F91CBD00004C
:103EE0000008014000941100003801401CB56846EC
:103EF000FEF760FB02208DF8070000208DF804001B
:103F000008208DF80600C001009004208DF80500FF
:103F100069461848FEF759FB02208DF8070000207B
:103F20008DF804008DF806004FF400600090042026
:103F30008DF8050069460F48FEF747FB00231A4637
:103F40004FF4E1310C48FFF739F901210A48FFF736
:103F5000A0F901210848FFF797F900210648FFF76B
:103F60006DF900210448FFF7F6F801210248FFF738
:103F7000E5F81CBD000C01400048004000000000B6
:103F80000000000001020304060708090000000009
:103F900001020304000000000102030402040608F9
:103FA000020C0810000000000000000001020304E1
:103FB00006070809D43F000800000020B8000000F0
:103FC000B00D00088C400008B8000020000400007C
:103FD000C00D0008000000000000000000127A0080
:103FE00000000000000000000000000000000000D1
:103FF0000AD7233CCDCCCC3D0000000000000000DF
:1040000000002041000020C100000000000000006E
:104010000AD7233CCDCCCC3D0000000000000000BE
:104020000000C0400000C0C0000000000000000010
:104030000000000000000000000000000000000080
:104040000000000000000000000000000000000070
:104050000000000000000000000000000000000060
:104060000000000000000000000000000000000050
:1040700000000000650900085C0000200008014005
:0C40800000010000000000000000000033
:040000050800018569
:00000001FF
