:020000040800F2
:10000000000600209D010008610C0008450B000857
:100010005D0C0008410900083515000800000000CB
:10002000000000000000000000000000190F0008A0
:10003000190A0008000000005D0D000841140008C6
:10004000B7010008B7010008B7010008B7010008B0
:10005000B7010008B7010008B7010008B7010008A0
:10006000B7010008B7010008B701000849090008F6
:100070007109000899090008B7010008D9090008AA
:10008000B7010008B7010008B7010008B701000870
:10009000E9140008B701000845090008B701000885
:1000A000B7010008B7010008B7010008B701000850
:1000B000B7010008B7010008B7010008B701000840
:1000C000B7010008B7010008B7010008B701000830
:1000D000B7010008B7010008B7010008B701000820
:1000E000B7010008B7010008B7010008B701000810
:1000F000B7010008B7010008B7010008B701000800
:10010000B7010008B7010008B5140008B7010008DE
:10011000B7010008B7010008B7010008B7010008DF
:10012000B7010008B7010008B7010008B7010008CF
:10013000B7010008B7010008B7010008B7010008BF
:1001400000000000000000000000000000000000AF
:10015000B7010008B7010008B7010008B70100089F
:10016000B7010008B7010008B7010008B70100088F
:10017000B7010008B7010008B7010008B70100087F
:10018000B7010008DFF810D000F0DCFA00480047A3
:10019000F5320008AFF300800006002006488047D3
:1001A00006480047FEE7FEE7FEE7FEE7FEE7FEE75C
:1001B000FEE7FEE7FEE7FEE74514000885010008BC
:1001C00000F0004230F000400AD0C10D01F560712E
:1001D000C0F3160042EA0151C208400711437047BC
:1001E000002001467047000030B5041E71F1000484
:1001F00004DB4FF00044404264EB0101141E73F134
:10020000000405DB1C464FF00043524263EB04033D
:100210008B4208BF824230BD01F0004330B421F070
:10022000004150EA010206D00A0DA2F56072C1F346
:100230001301002A02DC30BC00207047440F44EA5E
:10024000C104C100E01830BC00EBC25000F047B858
:1002500030B50B46014600202022012409E021FA96
:1002600002F59D4205D303FA02F5491B04FA02F593
:100270002844151EA2F10102F1DC30BD2DE9F05F2A
:100280000546002092469B46884606468146402405
:100290001BE0284641464746224600F074FA534682
:1002A0005A46C01A914110D311461846224600F012
:1002B0005BFA2D1A67EB01084F4622460120002108
:1002C00000F052FA17EB00094E41201EA4F1010480
:1002D000DFDC484631462A464346BDE8F09F002908
:1002E000A8BF7047401C490008BF20F001007047BC
:1002F00010B4B0FA80FC00FA0CF050EA010404BF1C
:1003000010BC704749B1CCF1200421FA04F411FA71
:100310000CF118BF012121430843A3EB0C01CB1DB5
:100320004FEA00614FEA102042BF002010BC704726
:1003300000EBC35010440029A4BF10BC7047401C00
:10034000490008BF20F0010010BC70472DE9FE4FA6
:10035000804681EA0300C00F0C46009021F0004166
:1003600023F00045B8EB0200A94105D240462146E2
:1003700090461C460B46024623F00040104347D0EF
:10038000270DC7F30A00C3F30A510290401A0190E7
:1003900040286BDAC3F3130040F4801B00989246A8
:1003A00020B10023D2EB030A63EB0B0B01985946F3
:1003B000C0F14002504600F0D7F906460D465046BF
:1003C0005946019A00F0EFF910EB08006141002452
:1003D00087EA115284EAE7731A4340D0009A62B365
:1003E000019A012A4FEA075215DC001B61EB02015A
:1003F0004FF0004202EA0752CDE90042001C41F5ED
:10040000801132462B4600F0EFF903B0BDE8F08FC3
:1004100040462146F9E7001B61EB0201001C41F553
:10042000801300185B412018A2F5001747EB030169
:1004300040EAD570B6196D4111E06D084FEA3606F5
:1004400045EAC0754FEA0752001B61EB0201001C30
:1004500041F5801149084FEA3000001951413246F8
:100460002B4603B0BDE8F04F00F0AFB90098012271
:1004700040000023D0EB020263EBE07300982146BA
:100480004FEAE074B8EB000061EB0401E9E783F0A8
:1004900000435BE781F0004158E72DE9FE4F81EA18
:1004A000030404F0004421F0004100944FF0000BDD
:1004B00023F0004350EA01045ED052EA03045BD00B
:1004C000C3F30A54C1F30A552C44A4F2F334019443
:1004D000A0FB0254C1F3130141F48011C3F31303D1
:1004E00043F4801301FB024400FB034E840A970A85
:1004F00044EA815447EA8357A4FB076802958D0AB2
:1005000005FB07854FEA932C04FB0C542705029D3D
:100510004FEA065847EA1637B5EB08056EEB070CAD
:10052000870E920E47EA811742EA8312A7FB020167
:10053000B6EB0B0164EB00042B0D43EA0C335E18A1
:1005400044EB1C50DA465146E7FB0201C5F31304A5
:100550004FEA0B3343EA14534FEA0432019C43EA57
:100560000603A4F10C040294009CCDE900B400F051
:100570003BF903B0BDE8F08F00200146F9E72DE913
:10058000F04D81EA030404F0004B21F000451446CD
:100590004FF0000A23F0004150EA050220D054EA4F
:1005A00001021DD0C5F30A570246C5F31303C1F378
:1005B0001300C1F30A5640F4801543F48013A7EBEF
:1005C0000608101BD64608F2FD3873EB050002D36F
:1005D00008F1010801E092185B41B8F1000F03DA5D
:1005E00000200146BDE8F08D00204FF48011064642
:1005F00084460EE0171B73EB050705D3121B63EB54
:10060000050306434CEA010C49084FEA30009218F2
:100610005B4150EA0107EDD152EA030012D082EAB1
:10062000040083EA0501084305D0101BAB4106D244
:100630000122002306E000224FF0004302E06FF0A9
:10064000010253101AEB06004CEB085110EB0A00A4
:1006500041EB0B01BDE8F04D00F0B7B82DE9FE4FBE
:10066000C3F30A5701F000450024C1F30A56C3F34F
:100670001303C1F3130143F4801312EB020AA646DD
:1006800041F48011009543EB030CA7F1010B16E038
:10069000B0EB0A0061EB0C01071E71F1000707DAED
:1006A0004FF00008D0EB080085F0004568EB010131
:1006B000171A73EB0107EBD3761E001849415E450C
:1006C000F6DA50EA010209D0CDE900E5002213462E
:1006D000029600F089F803B0BDE8F08F204600993B
:1006E000F9E7C1F30A52C1F3130140F2FF3341F4B9
:1006F00080119A4202DA00200146704740F23343EB
:100700009A42A2F2334202DC524200F03CB800F0BE
:100710002BB8000030B5041E71F1000404DB4FF06B
:100720000044404264EB0101141E73F1000405DB38
:100730001C464FF00043524263EB0403994208BF4A
:10074000904230BD064C074D06E0E06840F00103E2
:1007500094E8070098471034AC42F6D3FFF716FD33
:100760004452000864520008202A04DB203A00FAB0
:1007700002F1002070479140C2F1200320FA03F3F8
:10078000194390407047202A04DB203A21FA02F0F6
:100790000021704721FA02F3D040C2F120029140BB
:1007A000084319467047202A06DBCB17203A41FA46
:1007B00002F043EAE07306E041FA02F3D040C2F1EE
:1007C0002002914008431946704710B5141E73F17A
:1007D000000408DA401C41F1000192185B411A4301
:1007E00001D120F0010010BD2DE9F04D92469B464D
:1007F00011B1B1FA81F202E0B0FA80F220329046F3
:10080000FFF7B2FF04460F4640EA0A0041EA0B0137
:1008100053465A46084313D0114653EA010019D0F3
:10082000C8F140025046FFF7AEFF05460E4650465F
:1008300059464246FFF798FF084305D0012004E0DF
:1008400020463946BDE8F08D0020054346EAE076B3
:100850002C4337430A986305E40AA0EB0800002202
:10086000FD0A44EA47540A3002D500200146E9E770
:10087000010510196941DDE9084500196941BDE824
:10088000F04DA2E770B58C1810F8015B15F0070366
:1008900001D110F8013B2A1106D110F8012B03E019
:1008A00010F8016B01F8016B5B1EF9D12B0705D421
:1008B0000023521E0DD401F8013BFAE710F8013B6A
:1008C000CB1A921C03E013F8015B01F8015B521E86
:1008D000F9D5A142D8D3002070BD000010B52DED90
:1008E000068BB0EE408A18EE100AFFF769FC41EC67
:1008F0001A0B9FED101BB0EE4A0AF0EE6A0A00F0E8
:1009000051FEB0EE409AF0EE609A51EC190BFFF7F1
:1009100083FC08EE900AF5EEC08AF1EE10FA04DBD3
:10092000B0EE680ABDEC068B10BD9FED040A38EEF0
:10093000800AF7E700000000FA211940D00FC940F3
:1009400000BFFEE77047000010B5022002F0A0F9DA
:1009500040B1022002F08CF90348016803480068A6
:1009600000F05CF810BD0000F40100204C010020F4
:1009700010B5202002F08CF940B1202002F078F967
:10098000034801680348006800F048F810BD000003
:10099000A4010020F000002010B54FF4007002F018
:1009A00077F9A0B14FF4007002F062F90021084815
:1009B00002F04CF900210648143802F047F9054AC4
:1009C0001189506802F092FB01200249887610BD1F
:1009D000440002401800002010B54FF4003002F02F
:1009E00057F9A0B14FF4003002F042F90021084855
:1009F00002F02CF900210648143802F027F9054AC4
:100A00001189506802F072FB01200249887610BDFE
:100A10006C000240340000207047000070B50446AE
:100A20000D46204602F01EFB207A012806D13E48E2
:100A3000408820803C480088608008E0207A0228B6
:100A400005D13A4840882080384800886080208856
:100A5000A188401A00EE100AF8EEC00A9FED341A81
:100A600080EE810ADFED330A20EE200ADFED320A44
:100A700020EE200A84ED070A6088A188401A00EE63
:100A8000100AF8EEC00A9FED2A1A80EE810ADFED07
:100A9000290A20EE200ADFED280A20EE200A84ED44
:100AA000080A94ED070ADFED250A30EEC00AD4EDFE
:100AB000080A30EE600A84ED070A204601F064FE61
:100AC000204602F087FD94ED0F0AF0EE400A9FEDFC
:100AD0001B0A1B4800F0E5F884ED0D0A94ED0E0AA0
:100AE000F0EE400A9FED150A154800F0DAF884EDA3
:100AF0000C0A9FED120A84ED0D0AB0EE000A84ED97
:100B00000C0A204602F0ACFB94ED041AF0EE410A08
:100B100094ED031AB0EE410A284600F0FFF9294689
:100B2000204602F08CFD70BD5000002054000020D3
:100B3000000080453333534000004842000000006D
:100B40005800002000BFFEE710B5044600EE104A32
:100B5000B8EEC00ADFED060A20EE200ABCEEC00A9D
:100B600010EE102A0621034803F02EF810BD0000F5
:100B70003333733F0008004010B5044600EE104ABE
:100B8000B8EEC00ADFED060A20EE200ABCEEC00A6D
:100B900010EE102A0421080703F016F810BD00001B
:100BA0003333733F10B52DED028B0446204600F021
:100BB00039F800BFA07E0028FCD09FED168AA07EE9
:100BC00010B3E07D0104207E41EA0020617E0843ED
:100BD000801200EE100AF8EE400A9FED0F1A60EE48
:100BE000810A9FED0E1AC0EE811AB0EE618ADFED28
:100BF0000C0A68EE200A9FED081AC0EE811AB0EECA
:100C0000618A0020A07600BFB0EE480ABDEC028BDE
:100C100010BD0000000000000000B443000080464A
:100C2000D00FC94010B504462189606802F05CFA13
:100C30000020A0760121E06802F008F80121206977
:100C400002F004F800BF0221206802F021FE002813
:100C5000F9D00021206802F00FFE10BD00BFFEE7B2
:100C60007047F0B503460C4603F00701C1F10700D9
:100C7000042801D9042001E0C1F107000646081D3F
:100C8000072801D2002000E0C81E05460120B04020
:100C9000401E2040A8400127AF407F1E1740384328
:100CA000F0BDB0EE401A31EE600A80ED020A90ED20
:100CB000020AD0ED031A30EE610AD0ED001A20EEE0
:100CC000210AD0ED011A90ED022A01EE820A80ED90
:100CD000040A90ED040AD0ED061AB4EEE10AF1EE32
:100CE00010FA04DD90ED060A80ED040A0CE090EDA8
:100CF000040AD0ED071AB4EEE10AF1EE10FA03D2BD
:100D000090ED070A80ED040A90ED050AD0ED041A73
:100D100030EE210A80ED050A90ED050AD0ED061AA5
:100D2000B4EEE10AF1EE10FA04DD90ED060A80ED72
:100D3000050A0CE090ED050AD0ED071AB4EEE10AC1
:100D4000F1EE10FA03D290ED070A80ED050A90ED5E
:100D5000020A80ED030A90ED050A70477047000013
:100D600010B5214800F0E8FB20A000F0E5FB28A02A
:100D700000F0E2FB2B4800F0DFFB2B4800F0DCFB2F
:100D80002A4800F0D9FB2AA000F0D6FB29A000F0E9
:100D9000D3FB2D4800F0D0FB2C4800F0CDFB24A065
:100DA00000F0CAFB2AA000F0C7FB2FA000F0C4FB94
:100DB00033A000F0C1FB3A4800F0BEFB1CA000F0DD
:100DC000BBFB38A000F0B8FB3BA000F0B5FB18A0BF
:100DD00000F0B2FB40A000F0AFFB15A000F0ACFBB0
:100DE0004C4800F0A9FB10BD684F0008E4BAA7E525
:100DF0009381E5908DE7A7B0EFBC9AE58F8CE8B7BB
:100E0000AF464F43E9A9B1E58AA8E599A80D0A00C4
:100E1000E6A0B8E5BF83E58A9FE883BDEFBC9A0DE5
:100E20000A000000E05100081C5100088C51000825
:100E30000D0A0000E7A1ACE4BBB6E9858DE7BDAEC5
:100E4000EFBC9A0D0A0000005C500008BC5000087E
:100E5000E5BC80E58F91E88085E4BFA1E681AFEF36
:100E6000BC9A0D0A000000002D20E4BD9CE880859E
:100E7000EFBC9AE69D8EE68080E694BF0D0A0000E6
:100E80002D2042E7AB995550E4B8BBEFBC9AE788F8
:100E9000B1E994A6E5AE9DE584BFE592A90D0A00EF
:100EA00018500008E78988E69CACE4BFA1E681AF52
:100EB000EFBC9A0D0A0000002D20E69BB4E696B028
:100EC000E697B6E997B4EFBC9A323032342F332F1D
:100ED00031310D0A00000000E6849FE8B0A2E682EE
:100EE000A8E585B3E6B3A8E69CACE9A1B9E79BAE5B
:100EF000EFBC8CE69BB4E5A49AE4BFA1E681AFE623
:100F000095ACE8AFB7E69C9FE5BE85EFBC810D0AC6
:100F100000000000C04F00087047000090ED001A6C
:100F2000DFEDFE1A21EE211AF2EE081A81EE212AD7
:100F300080ED112A90ED111A21EE201A80ED051A8C
:100F40009FEDF71A20EE011AF6EE001A01EEE01AF4
:100F5000D0ED111A21EE211A80ED061A9FEDF11A3B
:100F600020EE011AF6EE001A01EEE01AD0ED111A89
:100F700021EE211A80ED071A90ED051AB5EEC01A80
:100F8000F1EE10FA01DD012100E0002190ED061ADA
:100F9000B5EEC01AF1EE10FA01DD012200E00022E8
:100FA00001EB420190ED071AB5EEC01AF1EE10FA0E
:100FB00001DD012200E0002201EB820101710179D3
:100FC00007297DD2DFE801F07C5EFE04FDBEFC0057
:100FD00090ED061A80ED0B1A90ED051A80ED0D1AB2
:100FE00090ED0B1AD0ED0D1A31EE211A80ED0F1A8B
:100FF00090ED0F1AD0ED001AB4EEE11AF1EE10FAEE
:1010000017DD90ED001AD0ED0F1A81EE212A80ED48
:10101000102A90ED0B1AD0ED101A21EE211A80ED56
:101020000B1A90ED0D1AD0ED101A21EE211A80ED59
:101030000D1A90ED001AD0ED0B1A31EE611AD0EDB9
:101040000D1A31EE611AF0EE001A81EE212A80EDC0
:101050000E2A90ED0B1AD0ED0D1A31EE211AD0EDBB
:101060000E1A31EE211A80ED021A90ED0D1AD0ED14
:101070000E1A31EE211A80ED031A90ED0E1A80ED52
:10108000041ADBE190ED061AB1EE411A80ED091A5F
:1010900090ED071AB1EE411A80ED0D1A90ED091A84
:1010A000D0ED0D1A31EE211A80ED0F1A90ED0F1AC6
:1010B000D0ED001AB4EEE11AF1EE10FA19DD00E0FD
:1010C000BBE190ED001AD0ED0F1A81EE212A80EDE0
:1010D000102A90ED091AD0ED101A21EE211A80ED98
:1010E000091A90ED0D1AD0ED101A21EE211A80ED9B
:1010F0000D1A90ED001AD0ED091A31EE611AD0EDFB
:101100000D1A31EE611AF0EE001A81EE212A80EDFF
:101110000E2A90ED0D1AD0ED0E1A31EE211A80ED47
:10112000021A90ED091AD0ED0D1A31EE211AD0ED08
:101130000E1A31EE211A80ED031A90ED0E1A80ED91
:10114000041A7BE190ED051A80ED091A90ED071A5B
:1011500080ED0A1A90ED091AD0ED0A1A31EE211A23
:1011600080ED0F1A90ED0F1AD0ED001AB4EEE11ACF
:10117000F1EE10FA17DD90ED001AD0ED0F1A81EEA6
:10118000212A80ED102A90ED091AD0ED101A21EED7
:10119000211A80ED091A90ED0A1AD0ED101A21EEED
:1011A000211A80ED0A1A90ED001AD0ED091A31EEDD
:1011B000611AD0ED0A1A31EE611AF0EE001A02E05F
:1011C0007CE01DE0DBE081EE212A80ED0E2A90ED2F
:1011D0000E1A80ED021A90ED091AD0ED0A1A31EEBE
:1011E000211AD0ED0E1A31EE211A80ED031A90ED7E
:1011F0000A1AD0ED0E1A31EE211A80ED041A1DE103
:1012000090ED051AB1EE411A80ED081A90ED061A1C
:10121000B1EE411A80ED0A1A90ED081AD0ED0A1AC3
:1012200031EE211A80ED0F1A90ED0F1AD0ED001A51
:10123000B4EEE11AF1EE10FA17DD90ED001AD0EDE0
:101240000F1A81EE212A80ED102A90ED081AD0EDB8
:10125000101A21EE211A80ED081A90ED0A1AD0ED2D
:10126000101A21EE211A80ED0A1A90ED001AD0ED25
:10127000081A31EE611AD0ED0A1A31EE611AF0EE59
:10128000001A81EE212A80ED0E2A90ED0E1A80EDD3
:10129000021A90ED0A1AD0ED0E1A31EE211A80EDE5
:1012A000031A90ED081AD0ED0A1A31EE211AD0ED8A
:1012B0000E1A31EE211A80ED041ABFE090ED071AE4
:1012C00080ED081A90ED061A80ED0C1A90ED081AC0
:1012D000D0ED0C1A31EE211A80ED0F1A90ED0F1A95
:1012E000D0ED001AB4EEE11AF1EE10FA1EDD90ED29
:1012F000001AD0ED0F1A81EE212A80ED102A90ED10
:10130000081AD0ED101A21EE211A80ED081A90ED7E
:101310000C1AD0ED101A21EE211A05E02DB2DD3F96
:101320002DB25D3F2DB25DBF80ED0C1A90ED001A1D
:10133000D0ED081A31EE611AD0ED0C1A31EE611AB7
:10134000F0EE001A81EE212A80ED0E2A90ED0C1AA3
:10135000D0ED0E1A31EE211A80ED021A90ED0E1A20
:1013600080ED031A90ED081AD0ED0C1A31EE211A17
:10137000D0ED0E1A31EE211A80ED041A5EE090EDE8
:10138000071AB1EE411A80ED0B1A90ED051AB1EE75
:10139000411A80ED0C1A90ED0B1AD0ED0C1A31EEBB
:1013A000211A80ED0F1A90ED0F1AD0ED001AB4EE4D
:1013B000E11AF1EE10FA17DD90ED001AD0ED0F1AD8
:1013C00081EE212A80ED102A90ED0B1AD0ED101A33
:1013D00021EE211A80ED0B1A90ED0C1AD0ED101AA7
:1013E00021EE211A80ED0C1A90ED001AD0ED0B1AA7
:1013F00031EE611AD0ED0C1A31EE611AF0EE001ADE
:1014000081EE212A80ED0E2A90ED0B1AD0ED0C1AF8
:1014100031EE211AD0ED0E1A31EE211A80ED021AAA
:1014200090ED0E1A80ED031A90ED0C1AD0ED0E1A05
:1014300031EE211A80ED041A00E000BF00BF7047B2
:10144000704700001848006840F4700016490860B2
:101450001648006820F00100401C1449086000BFD5
:1014600012480068C0F340000028F9D00F484068D7
:1014700020F003000D49486000BF0C484068C0F3ED
:1014800081000028F9D10948006809490840074946
:1014900008600020486008634FF41F008860C8039C
:1014A000014980390860704788ED00E00010024073
:1014B000FFFFF2FE10B50A480068401C08490860AA
:1014C00008460068B0F57A7F05D1002000F0DAFE0A
:1014D0000020034908600121024802F098FB10BD7A
:1014E00004000020000C004000B585B009210A4826
:1014F00001F044F870B109480068401C07490860D1
:101500006A460021044801F0BAF80448016804A0C2
:1015100000F012F805B000BD00640040000000209B
:1015200025640963616E31207278206461746120E2
:101530000D0A000000BFFEE70FB4054B10B503A96C
:10154000044A029800F0BCF910BC5DF814FB0000DE
:1015500031300008F801002002480068C0F3022082
:10156000704700000CED00E010B5002804DB0A070E
:10157000130E054A135406E00A07140E034A00F03E
:101580000F031B1FD45410BD00E400E018ED00E071
:101590002DED020B019820F0004001909DED000B15
:1015A00002B0704710B52DED040B86B09DED060B13
:1015B00010EE100A10EE901A8DED000B002818BFE7
:1015C0000120084320F00040C0F17F6000F1E040BE
:1015D000C00F21D19DED080B10EE101A10EE900AED
:1015E0008DED000B002918BF0121084320F00040B9
:1015F000C0F17F6000F1E040C00F0DD1294907988C
:10160000B1EB400F04BF0698002842D00998400073
:1016100004BF089800283CD09DED080B53EC102B1C
:101620009DED060B51EC100BFFF718F8CDE9020108
:101630009DED020B40F2FF7110EE900A8DED000B54
:1016400031EA105021D00798039900F0004001F0D2
:101650000041884219D09DED080B8DED040B9DEDE6
:10166000020B8DED000B10EE900A059961F31E0040
:1016700005909DED041B9DED020B51EC110B53ECFD
:10168000102BFEF707FFCDE902019DED020B0AB01A
:1016900010BD012000F028F80AB0BDE8104000F0AD
:1016A00003B800000000E0FF9FED050B10B553EC00
:1016B000102B51EC100BFEF762FF41EC100B10BD2C
:1016C000000000000000000002E008C8121F08C16E
:1016D000002AFAD170477047002001E001C1121FB3
:1016E000002AFBD1704700000149086070470000E4
:1016F000FC01002010B50446207A012805D10D48D0
:10170000216D884784ED100A07E0207A022804D171
:101710000948216D884784ED100AD4ED100AB2EE15
:10172000061A60EE810AB0EE600AFFF7D7F884ED82
:10173000110A10BD18000020340000202DE9FF5FC1
:1017400082B00021DDE90430020DDDF840B0034332
:1017500018D044F61050A2F2FF32424315141198EB
:1017600001281FD0A5EB0B00401C5FEA000A4FF0D8
:1017700000064E4FDFF83891B046504615D5CAF1F5
:10178000000413E0119801244AA3012801D16FEA53
:101790000B010298119AC0E90031C0E9024206B07B
:1017A000BDE8F09FCBF10000DFE704460021404A8E
:1017B000491842EB0450CDE9001012E0E00707D0D1
:1017C00032463B4640464946FEF767FE804689461C
:1017D00032463B4610461946FEF75FFE06460F4668
:1017E0006410002CEAD1DDE90401DDE90023BAF13F
:1017F000000F06DAFEF751FE42464B46FEF74DFE5D
:1018000005E0FEF7BCFE42464B46FEF7B8FE044636
:101810000E460022284BFEF77DFF03D84FF0FF3025
:10182000014607E00022254B20463146FEF78EFD9B
:10183000FEF757FF102409E0002C0ADB0A220023E0
:10184000FEF71CFD039B30321A55641E50EA01025C
:10185000F2D1641C039AC4F111031444119A012AB1
:1018600003D0012208430DD10AE0084304D0002030
:101870004FF0110B119072E7A3EB0B056D1E0DE0FD
:101880005B4504DD4FF0000205F1010504E003DAD9
:101890004FF00002A5F10105002AECD00298119941
:1018A000C0E90231C0E9004579E7000000001440BA
:1018B0000000F03F300000000000F0430000E03F77
:1018C0002DE9FF4F95B09A46884606460025EEE181
:1018D000252877D100242746F94A0121039400E006
:1018E000044316F8013F203B01FA03F01042F7D100
:1018F00030782A2811D06FF02F033078A0F1300211
:10190000092A16D8039A44F0020402EB820203EB80
:1019100042021044761C0390EFE758F8042B039220
:10192000002A03DA504244F40054039044F00204C5
:10193000761C30782E2816D116F8010F44F00404D6
:101940002A280DD06FF02F023078A0F13003092B38
:1019500009D807EB870302EB4303C718761CF3E7AC
:1019600058F8047B761C30786C280FD006DC4C28A5
:1019700017D068280DD06A2814D104E0742810D03C
:101980007A280FD10DE044F400140AE044F48014E6
:1019900001E044F440147278824202D104F58014CC
:1019A000761C761C307866280BD013DC582877D04C
:1019B00009DC002875D04528F6D04628F4D0472801
:1019C0001AD193E118E0632835D0642879D06528CE
:1019D00012D18BE1702873D008DC6728F1D0692818
:1019E0006FD06E280DD06F2806D1ACE073282CD0B4
:1019F000752874D0782853D05246179990476D1C9B
:101A000054E1C4F30250022809D003280DD0D8F8BD
:101A1000001004280DD00D6008F1040846E1D8F844
:101A20000010EA17C1E90052F6E7D8F800100D805F
:101A3000F2E70D70F0E718F8041B8DF80010002095
:101A40008DF80100EB46012003E058F804BB4FF08D
:101A5000FF3061074FF0000102D40DE009F10101F0
:101A60008946B9420FDA8145F8DB1BF809100029D5
:101A7000F4D108E009F1010189468142FADB1BF843
:101A800009100029F6D103985346A0EB0907214617
:101A90003846179A00F080FA284400EB090507E061
:101AA00044E008E10DE01BF8010B524617999047FE
:101AB000B9F10109F7D2534621463846179AF2E0A8
:101AC00039E00A21C4F302524FF0000B0091022AC0
:101AD00006D058F8040BC117032A09D00AE023E006
:101AE00008F1070020F00702F2E80201904605E045
:101AF00000B2C117042A01D140B2C117002906DA89
:101B00000A460021404261EB02012D2202E022053B
:101B100004D52B228DF80420012203E0E20701D036
:101B20002022F7E7914657E00A2100E010214FF00C
:101B3000000B00910BE010214FF0000B44F0040467
:101B40000827009103E008204FF0000B0090C4F339
:101B50000252022A05D058F8040B0021032A08D0AB
:101B600008E008F1070020F00702F2E802019046C1
:101B700003E080B2042A00D1C0B24FF0000922076E
:101B80002AD53278702A07D0DDF800C08CF0100C0E
:101B90005CEA0B0C05D00EE040228DF804200122F7
:101BA00008E050EA010306D030238DF804308DF8A8
:101BB000052002229146009B83F0080353EA0B03A1
:101BC0000AD150EA010201D1620705D530228DF811
:101BD00004204FF001097F1E3278582A04D039A220
:101BE0000C920CAA02920BE03BA2F9E75B46009A2A
:101BF000FEF744FB0C9B9B5C029A521E02921370F0
:101C000050EA0102F2D1029804A9081A00F1200B4F
:101C1000600702D524F4803400E001275F4502DD2F
:101C2000A7EB0B0000E0002000EB0B0100900398F5
:101C30004944401A0390E00306D453462146179ABC
:101C4000039800F0A9F90544002706E001A85246D0
:101C5000C05D179990476D1C7F1C4F45F6DBE00374
:101C60000CD553462146179A039800F095F9054480
:101C700004E030205246179990476D1C0099481E89
:101C800000900029F5DC08E002980299524600789D
:101C9000491C0291179990476D1CBBF10001ABF1F3
:101CA000010BF1DC5BE100F065F90544761C30784E
:101CB00000287FF40DAE19B02846BDE8F08F000073
:101CC0000928010030313233343536373839616212
:101CD00063646566000000003031323334353637D6
:101CE000383941424344454600000000600700D4B3
:101CF000062708F1070020F00700F0E802238046DD
:101D000003F0004C5FEA0C0001D097A009E0200529
:101D100001D596A005E0E00701D095A001E0AFF263
:101D20004C001390307823F0004365280CD006DC7B
:101D3000452809D046281DD047287FD13BE066289A
:101D400018D067287AD136E00021112F01DB11204D
:101D500000E0781CCDE9000104A90CA8FFF7EEFC17
:101D6000DDE90D010C9A4FF0000B07F1010910920B
:101D700000914EE04FF000400097CDE9011004A91A
:101D80000CA8FFF7DBFCDDE90D020C9B0F994FF06F
:101D9000000B91461093009211B9791C00EB0109D8
:101DA000B7EB090003D4C0F1FF3B07F10109A9EB30
:101DB0000700019042E0012F00DA01270021112FD6
:101DC00001DD112000E03846CDE9000104A90CA88E
:101DD000FFF7B4FCDDE90D010C9A00914FF0000B08
:101DE000B946109221070FD4009A4A4503DA91466A
:101DF00001E0A9F10109B9F1010F05DD109AA9F17E
:101E00000101515C3029F4D0B84202DA10F1040F1C
:101E100003DA0121CDE9011010E0002803DC83443E
:101E2000A9EB000102E0411C494500DD8946A0EB19
:101E30000B00401C01904FF000400290200705D499
:101E40000198484502DB4FF0FF30019000208DF8EB
:101E50004B0002980DF14B07B0F1004F25D0022046
:101E60000C902B200D90029800280CDA4042029032
:101E70002D200D9007E00A210298FEF7E9F9303194
:101E8000029007F8011D0C99481E0C900029F2DC05
:101E900002980028EFD1791E0D980870307800F074
:101EA000200040F0450007F8020D11A8C01BC01D1E
:101EB00002901398007800B1012000EB090101980D
:101EC00001EBE071029801440398401A401E039010
:101ED000E00306D453462146179A039800F05CF8B5
:101EE00005441398007818B15246179990476D1C15
:101EF000E00323D553462146179A039800F04CF887
:101F000005441BE0BBF1000F07DB0098584504DDDA
:101F10001098179910F80B0001E0179930205246DD
:101F2000904701980BF1010B401E05F1010501904E
:101F300004D12E205246179990476D1CB9F100012B
:101F4000A9F10109DEDC05E017F8010B52461799EB
:101F500090476D1C0299481E02900029F4DC5346FC
:101F60002146179A03989EE62D0000002B000000E2
:101F7000200000002DE9F041044600251E461746CA
:101F8000880404D405E039462020B0476D1C641E47
:101F9000F9D52846BDE8F0812DE9F0410446002539
:101FA0001E469046C80301D5302700E0202788044C
:101FB00004D505E041463846B0476D1C641EF9D58E
:101FC0002846BDE8F0810B78426863F3082242603E
:101FD0004B78826863F3410282608B78826863F396
:101FE000CB228260CA78521EC36A62F31753C3625F
:101FF000704700210170417081700121C1707047EC
:10200000816821F0080108318160704701468868C5
:10201000C0F3C00008B1012070470020FCE78168D0
:1020200021F00401091D8160704701468868C0F3F2
:10203000800008B1012070470020FCE703490968CF
:1020400060F31341014A116070470000042401400D
:10205000826861F3082282607047826861F300023F
:102060008260704770B504460A290CDA206901EBDA
:1020700041060725B540A84301EB410503FA05F5E4
:10208000284320610FE0E068A1F10A0505EB450651
:102090000725B540A843A1F10A0505EB450503FA5C
:1020A00005F52843E0600D2A10DBE06AA2F10D057A
:1020B00005EB85061F25B540A843A2F10D0505EBEC
:1020C000850501FA05F52843E0621EE0072A0EDBCC
:1020D000206BD51F05EB85061F25B540A843D51FEE
:1020E00005EB850501FA05F5284320630DE0606BDB
:1020F000551E05EB85061F25B540A843551E05EB6B
:10210000850501FA05F52843606370BD07290ADDDE
:10211000836823F0007303F100738360836861F3C5
:102120005343836007E0836823F000738360836810
:1021300061F353438360836862F314538360704791
:10214000426861F3CB2242607047000070B52DED0C
:10215000068B82B00446204601F034FC4FF47A70BE
:1021600000F03AFD9FED2C0AB0EE408A0A25204689
:10217000FFF7C0FA00261AE02046FFF7BBFA94EDFD
:10218000110A10EE101A0846FEF71AF841EC190B66
:1021900053EC192B21A0FFF7CFF994ED110A30EE83
:1021A000080AB0EE408A0A2000F016FD761CAE4206
:1021B000E2DB00EE105AB8EEC00AC8EE000AC4ED29
:1021C000130A204600F04EFF94ED120A10EE101A8A
:1021D0000846FDF7F5FF41EC190B94ED130A10EEDC
:1021E000101A0846FDF7ECFF41EC1A0B8DED009B31
:1021F00053EC1A2B10A0FFF79FF994ED120AB5EEDD
:10220000C00AF1EE10FA03D1217A17A0FFF794F972
:1022100002B0BDEC068B70BD000000005F656C6510
:102220006374726963616C416E676C65203A202546
:102230006C660D0A0000000070464F432D3E7A6523
:10224000726F206973203A2025662C2070464F4318
:102250002D3E636F72725F616E676C6520697320DB
:102260003A20256C660D0A006D6F746F722025642C
:1022700020616E676C655F696E6974204F4B202129
:102280000D0A0000002800DD7047094931F81010E0
:1022900059B1084951F82010C968054A32F8102090
:1022A0005140044A52F82020D16000BFECE7000002
:1022B000540100205001002030B5024600200023C8
:1022C000146824F002041460146824F00104641CEF
:1022D000146000E05B1C546804F001041CB94FF664
:1022E000FF74A342F6D1546804F00104002C3FD0DF
:1022F0004D78146865F3C71414608D78146865F31D
:1023000086141460CD78146865F3451414600D7953
:10231000146865F3041414604D79146865F3C304FC
:1023200014608D79146865F3820414600C78D569A3
:1023300064F39E75D5610C786508D46965F3DF7424
:10234000D461146824F001041460002300E05B1CD5
:10235000546804F001041CB14FF6FF74A342F6D197
:10236000546804F001040CB1002002E0012000E0F8
:10237000002030BD30B5024600200023146824F050
:1023800002041460146824F00104641C146000E06A
:102390005B1C546804F001041CB94FF6FF74A3429F
:1023A000F6D1546804F001045CB30C88641ED5694E
:1023B00064F30B05D5618D78D46965F31964D46134
:1023C000CD78D46965F31344D4610D79D46965F38C
:1023D0001654D461146824F001041460002300E052
:1023E0005B1C546804F001041CB14FF6FF74A34257
:1023F000F6D1546804F001040CB1002002E0012081
:1024000000E0002030BD002141708170C170017179
:10241000417181710170704730B50022CC78012381
:1024200003FA04F2D0F8003223F001035B1CC0F879
:102430000032D0F81C329343C0F81C320B7913B130
:10244000012B5AD12CE0D0F80C329343C0F80C3257
:102450008B891C04CD7800F5107343F83540CC7897
:1024600053F834300C892343CD7800F5107444F8C8
:1024700035304B891C04CD7800F5107303EBC50390
:102480005C60CC7800F5107303EBC4035B68CC8808
:102490002343CD7800F5107404EBC50463602DE090
:1024A000D0F80C321343C0F80C32CB881C04CD7822
:1024B00000F5107343F83540CC7853F834300C896C
:1024C0002343CD7800F5107444F835304B891C0453
:1024D000CD7800F5107303EBC5035C60CC7800F594
:1024E000107303EBC4035B688C892343CD7800F53C
:1024F000107404EBC504636000E000BF00BF4B78BC
:1025000013B1012B0CD105E0D0F804329343C0F88D
:10251000043206E0D0F804321343C0F8043200E07D
:1025200000BF00BF8B7813B1012B0CD105E0D0F8B0
:1025300014329343C0F8143206E0D0F81432134337
:10254000C0F8143200E000BF00BF0B783BB1012B94
:102550000BD1D0F81C321343C0F81C3206E0D0F87F
:102560001C329343C0F81C3200E000BF00BFD0F81B
:10257000003223F00103C0F8003230BD02460020D3
:1025800012296FD2DFE801F06E090D11151D21250A
:10259000292D35393D45494D515D936903F00100C1
:1025A00062E09369C3F340005EE09369C3F3800087
:1025B0005AE09369C3F302130BB1012000E000203D
:1025C00052E05368C3F380004EE0936803F00100CB
:1025D0004AE09368C3F3002046E09368C3F30040E9
:1025E00042E0D36803F003030BB1012000E00020B8
:1025F0003AE0D368C3F3C00036E0D368C3F30010F9
:1026000032E0136903F003030BB1012000E0002066
:102610002AE01369C3F3C00026E01369C3F3001076
:1026200022E05368C3F3C0001EE05368C3F34003C5
:102630001BB95368C3F300130BB1012000E0002065
:1026400012E09368C3F380633BB99368C3F3C0633C
:102650001BB99368C3F300730BB1012000E00020A5
:1026600002E0FFE7002000BF00BF70471AB14369D6
:102670000B43436102E043698B434361704730B5CC
:1026800005460C46134605F5D87000EB04100068AB
:10269000C0F380001872187A10B1012813D107E036
:1026A00005F5D87000EB04100068400D18600BE0D1
:1026B00005F5D87000EB041000686FF0604101EA86
:1026C000D000586000E000BF00BF05F5D87000EBF7
:1026D00004100068C0F34000587205F5D87000EB94
:1026E0000410406800F00F00987205F5D87000EBF8
:1026F00004104068000AD87405F5D87000EB041087
:102700008068D87205F5D87000EB04108068010A63
:10271000197305F5D87000EB04108068010C59732B
:1027200005F5D87000EB04108068010E997305F56B
:10273000D87000EB0410C068D87305F5D87000EBB2
:102740000410C068010A197405F5D87000EB041074
:10275000C068010C597405F5D87000EB0410C0680E
:10276000010E99742146284600F001F830BD11B1E0
:10277000012906D102E02022C26003E0202202618A
:1027800000E000BF00BF704790ED070AB1EE400ABD
:1027900080ED070A90ED080AB1EE400A80ED080AC4
:1027A00090ED070A80ED050A90ED070AD0ED080AC2
:1027B000B0EE001A01EE200ADFED030A20EE200A37
:1027C00080ED060A7047000056CE133F064949685F
:1027D00060F38F31044A516082080349496862F30B
:1027E0001C71014A5160704700100240034949685A
:1027F00060F30711014A5160704700000010024069
:102800000349496860F30A21014A5160704700009A
:10281000001002400349496860F3CD21014A51602C
:102820007047000000100240012807D10749496D98
:1028300021F030013031054A516505E00349496D09
:1028400021F03001014A516570470000001002403C
:10285000052827D2DFE800F0030A11181F00134AE9
:10286000126861F30002114B1A601CE00F4A1268F3
:1028700061F310420D4B1A6015E00C4A126861F3C7
:1028800018620A4B1A600EE0084A126A61F30002ED
:10289000064B1A6207E0054A526A61F30002034BD5
:1028A0005A6200E000BF00BF704700000010024005
:1028B0002DE9F04101460027002200259046002323
:1028C000002400F065F9064626B1012E12D0022E32
:1028D00043D112E03948406DC0F3402038B1374849
:1028E000006BC0F3406010B13548086001E0354826
:1028F000086035E03348086032E030484068C0F393
:1029000000482E484068C0F383422C484068C0F31A
:1029100041750DB90F2A03D12801401C024400E083
:10292000921CB8F1000F03D127485043086013E010
:1029300022484068C0F3404058B12048406DC0F381
:102940000137B81CDFF87CC0BCFBF0F050430860D6
:1029500002E01C485043086002E01A48086000BFCB
:1029600000BF16484068C0F303131848C45C0868E9
:10297000E040486011484068C0F302231448C45C3A
:102980004868E040C8600D484068C0F3C223114861
:10299000C45C4868E040886008484068C0F3007341
:1029A00006484068C0F3813040EA83030A48C45CAB
:1029B0008868B0FBF4F00861BDE8F08100100240C7
:1029C000006CDC0200127A0000093D00EC4E0008A9
:1029D000FC4E0008044F00080C4F000810B50146DB
:1029E0000020094B03EB1142126801F01F04012380
:1029F000A3401A4001F01F040123A3409A4200D0D3
:102A000000E0012010BD00000010024030B500249D
:102A1000002500E0641C1120FFF7E0FF012802D030
:102A2000B4F5405FF6D31120FFF7D8FF012801D09D
:102A3000002500E00125284630BD000010B5012921
:102A40000DD10E4B03EB1042126800F01F0401235E
:102A5000A3401A43094C04EB10431A600CE0074BE7
:102A600003EB1042126800F01F040123A3409A43B5
:102A7000024C04EB10431A6010BD0000001002402D
:102A800010B568B91C4B5B6823F480331A4C636043
:102A900023461B6B23F0007303F10073236317E0DD
:102AA000154B5B6823F4803303F58033124C63606D
:102AB000012805D123465B6823F40033636007E0F7
:102AC0000D4B5B6823F4003303F500330A4C63605D
:102AD000094B5B6861F39543074C63600C09064B37
:102AE0005B6864F35E73044C636023465B6862F367
:102AF000DF73636010BD00000010024013480068DF
:102B000020F00100401C1149086000BF0F48006818
:102B1000C0F340000028F9D00C48406820F00300C2
:102B20000A49486000BF09484068C0F38100002896
:102B3000F9D10648006806490840044908600020A9
:102B4000486008634FF41F0088607047001002401F
:102B5000FFFFF2FE0D49496860F301010B4A516025
:102B600000BF00BF00BF00BF00BF00BF00BF00BF6D
:102B700000BF00BF00BF00BF00BF00BF00BF00BF5D
:102B800000BF00BF00BF00BF704700000010024040
:102B900002484068C0F38100704700000010024006
:102BA00010B5042000F0F4FF074800680749B0FBA7
:102BB000F1F007490860084600684FF47A7148430D
:102BC0000449086010BD00000C00002040420F00C6
:102BD0001000002014000020002131E032280ADD1E
:102BE000194A126832235A434FF0E0235A61A0F188
:102BF000320290B206E0144A126842434FF0E023DA
:102C00005A61002000224FF0E0239A611A461269AF
:102C100042F001021A6100BF4FF0E022116901F099
:102C200001021AB101F48032002AF5D04FF0E022FF
:102C3000126922F001024FF0E0231A6100229A612A
:102C40000028CBD17047000014000020026861F317
:102C500000020260704700210160416001814181F2
:102C6000017341738173C173017441747047000033
:102C7000B0F1805F04D920F07041034A116001E097
:102C8000024948607047000004040240000002400E
:102C9000014600200022B1F1805F02D9054B1A687D
:102CA00001E0054B1A6802EA01030BB1012000E0C4
:102CB000002070470004024000000240D0F8A43019
:102CC000C3F300633BB9D0F8A43023F0807303F161
:102CD0008073C0F8A430012906D1D0F8A03062F387
:102CE0000703C0F8A03034E0022906D1D0F8A030A4
:102CF00062F30F23C0F8A0302BE0032906D1D0F8EF
:102D0000A03062F31743C0F8A03022E0042906D1B6
:102D1000D0F8A03062F31F63C0F8A03019E0052995
:102D200006D1D0F8A43062F30703C0F8A43010E055
:102D3000062906D1D0F8A43062F30F23C0F8A430DE
:102D400007E0072905D1D0F8A43062F31743C0F893
:102D5000A430704702684BF6EF731A4002600268B5
:102D60000B891A4302604B7C026863F30D320260E8
:102D7000CB7B026863F38B2202608B7B026863F378
:102D8000092202604B7B026863F3C71202600B7B6F
:102D9000026863F3861202600B7C026863F34512DB
:102DA00002604A8942600A6882604A68C26070476D
:102DB0001AB103680B43036002E003688B430360AE
:102DC000704700000021026822F001020260002228
:102DD000026042608260C260014640F2FF420A40E7
:102DE000B2F5816F0DD2CAB2083A1423B2FBF3F2E6
:102DF00093000F229A400D4B5B681A430B4B5A60AD
:102E000012E040F2FF420A40B2F5916F0CD2CAB212
:102E1000083A1423B2FBF3F293000F229A40044BBA
:102E20001B681A43024B1A60704700000000024002
:102E300004040240F0EE400A9FED270A20EE800ACB
:102E4000BDEEC00A10EE100A00EE100AB8EEC01A6D
:102E5000DFED221AB0EE600A01EE610AF0EE400AE0
:102E600000F0010179B1F5EEC00AF1EE10FA04DDCF
:102E70009FED1A0A30EEC00A03E09FED180A30EE0B
:102E8000800AF0EE400A20EEA00ADFED151AB0EE3F
:102E9000611ADFED141A41EE001AB0EE611ADFED8F
:102EA000121A41EE001AB0EE611ADFED101A41EE6F
:102EB000001AB0EE611ADFED0E1A41EE001AB0EE04
:102EC000611ADFED0C1A41EE001A20EEA01AB7EEDF
:102ED000000A01EE210A704783F9A23EDA0F494049
:102EE000F2A3ED30017591B4B3CCCF371408B6BA64
:102EF00083AA2A3DFDFFFFBEF0EE400A9FED280A9F
:102F000020EE800ABDEEC00A10EE100A00EE100A94
:102F1000B8EEC01ADFED231AB0EE600A01EE610AC6
:102F2000F0EE400A00F0010179B1F5EEC00AF1EED1
:102F300010FA04DD9FED1B0A30EEC00A03E09FED9E
:102F4000190A30EE800AF0EE400A20EEA00ADFED0A
:102F5000161AB0EE611ADFED151A41EE001AB0EE46
:102F6000611ADFED131A41EE001AB0EE611ADFEDBF
:102F7000111A41EE001AB0EE611ADFED0F1A41EEA0
:102F8000001AB0EE611ADFED0D1A41EE001A20EEC4
:102F9000A00A20EE201AB0EE600A01EE210A704766
:102FA00083F9A23EDA0F49407ABF142FCA32D4B255
:102FB00035C538369E0A50B97888083CAAAA2ABE78
:102FC00010B5044600206080208000BF1BE0217AFD
:102FD00001290AD16188134A12881144618021882D
:102FE000104A5288114421800CE0217A022909D12B
:102FF00061880D4A12881144618021880A4A5288EA
:1030000011442180401C1028E1DB20880011A080A1
:1030100060880011E080E388A288217A0348FEF7E7
:103020008BFA10BD5000002054000020244F0008EF
:1030300070B504460D4600BF8021094800F01FFF0F
:103040000028F9D0A1B2064800F010FF00BF4021CF
:10305000034800F014FF0028F9D0204670BD00009E
:103060000038014010B52DED048B04462046FEF7D4
:1030700041FBD4ED110A94ED131A70EEC10AB0EEC3
:10308000600AFDF72BFC84ED120A94ED120ADFEDC5
:10309000120A30EE600A10EE101A0846FDF790F89A
:1030A00041EC190BB0EE490AF0EE690AFEF770FA2E
:1030B000B0EE408AF0EE608A9FED080B53EC102BC7
:1030C00051EC180BFDF790F803D29FED060A84ED42
:1030D000120ABDEC048B10BDD00FC9408DEDB5A018
:1030E000F7C6B03E000000004161704701617047C3
:1030F0004FF6FF710160002181710171042141715E
:103100000121C1717047F0B50A461588ABB29579B7
:10311000032D01D100241AE0957965B9557905F0A0
:103120000F045579182D01D1036110E05579282D30
:103130000DD143610BE0957905F00805167906F08D
:1031400004063543D67906F0030645EA0604DDB2E7
:10315000A5B1002110E001258D401D405DB105683D
:103160008F000F26BE40B543056005688E0004FA47
:1031700006F635430560491C0829ECD3FF2B15DD05
:103180001B12002110E001258D401D405DB14568F6
:103190008F000F26BE40B543456045688E0004FA97
:1031A00006F635434560491C0829ECD3F0BD000004
:1031B000F0B50C46104F07EB1062C0F30741C0F3A7
:1031C0000725C6B2C5F12007A7EB010C4FF0FF376A
:1031D00007FA0CF3C5F120077F1AFB40CB408B4068
:1031E00017689F4317602CB106FA01FC176847EA7D
:1031F0000C071760F0BD00000000014090ED030ACD
:10320000F1EE080A30EE200A80ED090A90ED030A7B
:10321000D0ED040A9FED101A11EE200AB0EE001A4C
:10322000C0EE010AB1EE080A30EE800A80ED0A0A0B
:1032300090ED030AD0ED040A9FED081A11EE200A62
:10324000B0EE001AC0EE010AB1EE080A30EE800AB4
:1032500080ED0B0A704700002DB2DD3F2DB2DDBFBF
:1032600010B52DED028B0446D4ED120AB0EE600AC3
:10327000FFF742FED4ED0C0AF1EE600A20EE208A40
:10328000D4ED120AB0EE600AFFF7D4FDD4ED0D0ABA
:1032900000EE808A84ED038AD4ED120AB0EE600A53
:1032A000FFF7C8FDD4ED0C0A20EE208AD4ED120AF7
:1032B000B0EE600AFFF720FED4ED0D0A00EE808A22
:1032C00084ED048ABDEC028B10BDF0EE401AF4EEE2
:1032D000C11AF1EE10FA02DBB0EE410A7047F4EECB
:1032E000E01AF1EE10FA02D8B0EE600AF6E7B0EE9E
:1032F000610AF3E72DED048B82B001F0B9FA01F019
:1033000087F900F0BFFF01F0FFF801F0FDFA00F0CF
:10331000C1FF0223604A6149614801F0B7F8012109
:103320005F48FFF793FC00F0DFFF02235D4A5E4930
:103330005B48143001F0AAF8012159481430FFF716
:1033400085FC00F0FBFF0123584A594954482830B6
:1033500001F09CF8012152482830FFF777FC01F07A
:1033600017F80123514AD21E51494D483C3001F013
:103370008DF801214A483C30FFF768FC01F032F833
:1033800001234C4A4C494648503001F07FF8012156
:1033900043485030FFF75AFC01F04EF80123454AEC
:1033A000D21E45493E48643001F070F801213C4886
:1033B0006430FFF74BFC01F007FD01F04FFD01F019
:1033C00077F901F0E5F900F005FE00F065FE01F087
:1033D000BDFA01F0D1FB01F0D5FC00F0BDFE01F01B
:1033E00059F8FFF7DDFBFDF7BBFC41F28830FDF734
:1033F000ABFB41F28830FDF7BFFB0A20FFF7ECFB87
:103400002E480068FFF7DCFD2D480068FFF7D8FD67
:103410000122022122482830FFF7CAFC01220221A2
:103420001F485030FFF7C4FC24480068FEF78EFEAA
:1034300023480068FEF78AFE01221146214800F069
:10344000E9FB0122022116481430FFF7B1FC0122EA
:1034500002211348FFF7ACFC1CE01848006890ED0F
:103460000F0A10EE101A0846FCF7AAFE41EC180BE2
:103470001248006890ED0E0A10EE101A0846FCF78C
:103480009FFE41EC190B8DED008B53EC192B0EA018
:10349000FEF752F8E1E70000540000204C3C0140E8
:1034A00008000240500000204C2401402F00002062
:1034B0000C3001404B0000200C380040F000002090
:1034C0004C010020000C00406D6F746F72203120A1
:1034D00049712049643A09256C662C256C660D0AF1
:1034E000000000002DE9F0470B4614464FF0000C99
:1034F00000BF2C4A1268C2F302211D4626460A4626
:10350000C2F10709B9F1040F02D94FF0040901E033
:10351000C2F10709C84602F10409B9F1070F02D246
:103520004FF0000901E0A2F103094F464FF00109F5
:1035300009FA08F9A9F1010909EA050909FA07F9DF
:103540004FF0010A0AFA07FAAAF1010A0AEA060A82
:1035500049EA0A09CC4601466246002904DB150700
:103560002E0E114D6E5407E015072F0E0D4D0C3524
:1035700001F00F06361FAF5500BF014600290DDBD5
:1035800000BF00BF01F01F050122AA404D09AD0098
:1035900005F1E025C5F8002100BF00BF00BFBDE870
:1035A000F08700000CED00E000E400E000BF00F058
:1035B0000702064B19684FF6FF031940044B0B43F3
:1035C00043EA0221014B196000BF70470CED00E097
:1035D0000000FA0510B52DED028B0446D4ED120A59
:1035E000B0EE600AFFF726FCD4ED050A20EE208A33
:1035F000D4ED120AB0EE600AFFF77EFCD4ED060AA5
:1036000000EE808A84ED0F8AD4ED120AB0EE600AD3
:10361000FFF772FCD4ED050AF1EE600A20EE208A75
:10362000D4ED120AB0EE600AFFF704FCD4ED060AEE
:1036300000EE808A84ED0E8ABDEC028B10BD70B561
:1036400005460C46D4ED041AB0EE611AD4ED031A07
:10365000F0EE610AD4ED021AB0EE610A686D80479F
:1036600070BD000010B52DED048B0446D4ED090AA1
:10367000B0EE600AB2EE081ADFED2F0AFFF725FE62
:1036800084ED090AD4ED0A0AB0EE600AB2EE081A17
:10369000DFED290AFFF719FE84ED0A0AD4ED0B0AC3
:1036A000B0EE600AB2EE081ADFED230AFFF70DFE56
:1036B00084ED0B0A94ED090AF2EE080A80EE201A56
:1036C000F0EE419AB7EE001ADFED1B0AB0EE690A80
:1036D000FFF7FBFDB0EE408A94ED0A0AF2EE080A0D
:1036E00080EE201AF0EE419AB7EE001ADFED120AD2
:1036F000B0EE690AFFF7E9FDF0EE408A94ED0B0A9F
:10370000F2EE080A80EE201AF0EE419AB7EE001AA7
:10371000DFED090AB0EE690AFFF7D7FDB0EE409A77
:10372000B0EE491AF0EE680AB0EE480A606D8047C4
:10373000BDEC048B10BD00000000000010B52DEDA5
:10374000048BB0EE408AF0EE608AB0EE419A9FEDB5
:10375000190A28EE000ADFED180A20EE200ABCEE56
:10376000C00A10EE102A0421144800F02DFA9FED33
:10377000110A28EE800ADFED100A20EE200ABCEEC6
:10378000C00A10EE102A02210C4800F01DFA9FED2D
:10379000090A29EE000ADFED080A20EE200ABCEE35
:1037A000C00A10EE102A0021044800F00DFABDEC0A
:1037B000048B10BD0080BB456666663F0008004074
:1037C00010B52DED048BB0EE408AF0EE608AB0EEBD
:1037D000419A9FED1A0A28EE000ADFED190A20EE41
:1037E000200ABCEEC00A10EE102A06214FF08040DD
:1037F00000F0EAF99FED110A28EE800ADFED100AC9
:1038000020EE200ABCEEC00A10EE102A0221480762
:1038100000F0DAF99FED090A29EE000ADFED080A47
:1038200020EE200ABCEEC00A10EE102A00214FF054
:10383000804000F0C9F9BDEC048B10BD0080BB4591
:103840006666663F026861F34D3202607047026946
:1038500061F30F02026170470021017041708170B5
:10386000C1700171417181710121C171704702689C
:1038700061F3861202607047C1607047426861F36D
:10388000000242607047426861F341024260704743
:103890000246002093680B4003B900E00120704706
:1038A000C26922F40062C2610A7862B9026822F435
:1038B00000420260026822F480420260026822F440
:1038C0008062026036E00A78012A0ED1026822F492
:1038D00000420260026822F480420260026822F420
:1038E000806202F58062026024E00A78022A0ED12A
:1038F000026822F4004202F500420260026822F4EB
:1039000080420260026822F48062026012E00A785B
:10391000032A0FD1026822F4004202F5004202603D
:10392000026822F4804202F580420260026822F4BA
:1039300080620260CB79026863F3492202604A78B0
:10394000012A09D1CA79012A06D1026822F48072BB
:1039500002F58072026003E0026822F48072026065
:103960004B78026863F3820202608A78072A0BDDD3
:10397000426822F4807202F5807242608A7803689D
:1039800062F3C503036008E0426822F4807242607B
:103990008B78026863F3C5020260CB78026863F338
:1039A000C71202600B79026863F3CB2202604B7985
:1039B000026863F3410202608B79026863F30002DC
:1039C0000260704710B50446B0EE000A84ED0D0A9F
:1039D0009FED080A84ED0C0A204600F00DF8204601
:1039E000FFF73EFC2046FFF709FC2046FFF73AFEB2
:1039F00010BD00000000000010B52DED048B044642
:103A00009FED210A84ED100AD4ED100AB2EE061AD9
:103A100060EE810AB0EE600AFCF760FF84ED110AE7
:103A2000D4ED110A94ED131A70EEC10AB0EE600ADB
:103A3000FCF754FF84ED120A94ED120ADFED130A2D
:103A400030EE600A10EE101A0846FCF7B9FB41ECA4
:103A5000190BB0EE490AF0EE690AFDF799FDB0EED8
:103A6000408AF0EE608A9FED0A0B53EC102B51EC6C
:103A7000180BFCF7B9FB03D29FED030A84ED120A81
:103A8000BDEC048B10BD000000000000D00FC94049
:103A90008DEDB5A0F7C6B03E2DE9F0470026002415
:103AA00000250027A046A146FFF772F88246BAF12A
:103AB000000F06D0BAF1010F15D0BAF1020F46D1AE
:103AC00015E02D48406DC0F3402040B12A48006BFE
:103AD000C0F3406018B129482949086002E029482C
:103AE0002749086037E027482549086033E0224825
:103AF0004068C0F3004720484068C0F383441E4834
:103B00004068C0F341750DB90F2C03D12801401C4A
:103B1000044400E0A41C27B91B486043184908600E
:103B200014E015484068C0F3404058B11248406D59
:103B3000C0F30136B01C1349B1FBF0F060431049EB
:103B4000086003E00F4860430D49086003E00D483A
:103B50000B49086000BF00BF07484068C0F3031866
:103B60000A4810F808900648006820FA09F004494D
:103B70000860BDE8F087000000100240006CDC0225
:103B80000C00002000127A0000093D00144F0008CC
:103B9000042808D14FF0E021096941F004014FF0F9
:103BA000E022116107E04FF0E021096921F00401F2
:103BB0004FF0E02211617047C1628262436923F0D5
:103BC00001035B1C436170470B4633B1022B06D0E7
:103BD000042B06D0062B08D105E0426306E0826381
:103BE00004E0C26302E0026400E000BF00BF70476F
:103BF000026861F3092202607047026861F30612ED
:103C000002607047026861F3000202607047CA43B5
:103C100002617047012A03D1C3680B43C36003E00C
:103C200012B9C3688B43C360704710B50B4633B1FC
:103C3000022B09D0042B0CD0062B14D10EE0846982
:103C400062F3C30484610FE0846962F3CB2484616E
:103C50000AE0C46962F3C304C46105E0C46962F3A5
:103C6000CB24C46100E000BF00BF10BD2DE9F041CE
:103C700000250026002701F108035C1C92F801C012
:103C80000CFA03FC1FFA8CF592F802C00CFA04FC43
:103C90001FFA8CF6D0F804C04FF0010808FA04F8B7
:103CA0002CEA080CC0F804C0D0F804C04CEA060C9A
:103CB000C0F804C0D0F804C04FF0010808FA03F8B7
:103CC0002CEA080CC0F804C0D0F804C04CEA050C7B
:103CD000C0F804C00F4637B1022F0DD0042F14D006
:103CE000062F24D11AE092F80080D0F818C068F3AB
:103CF000061CC0F818C01BE092F80080D0F818C06D
:103D000068F30E3CC0F818C012E092F80080D0F8BA
:103D10001CC068F3061CC0F81CC009E092F80080C3
:103D2000D0F81CC068F30E3CC0F81CC000E000BF17
:103D300000BF4FF0010C0CEB41034FF0030C0CEBF8
:103D4000410492F803C00CFA03FC1FFA8CF592F8B8
:103D500004C00CFA04FC1FFA8CF64FF0010808FAB4
:103D600004F8D0F820C02CEA080CC0F820C0D0F825
:103D700020C04CEA060CC0F820C04FF0010C0CFA31
:103D800003FCD0F8208028EA0C08C0F82080D0F886
:103D900020C04CEA050CC0F820C04B004FF0020CCC
:103DA0000CEB410492F805C04FEA41080CFA08FCFC
:103DB0001FFA8CF592F806C04FF0020808EB410894
:103DC0000CFA08FC1FFA8CF64FF0010808FA04F808
:103DD000D0F820C02CEA080CC0F820C0D0F820C0D1
:103DE0004CEA060CC0F820C04FF0010808FA03F8AE
:103DF000D0F820C02CEA080CC0F820C0D0F820C0B1
:103E00004CEA050CC0F820C0BDE8F08110B50B46A7
:103E100033B1022B09D0042B0CD0062B14D10EE0A9
:103E2000846962F3820484610FE0846962F38A2406
:103E300084610AE0C46962F38204C46105E0C46974
:103E400062F38A24C46100E000BF00BF10BD0268B5
:103E500061F3C71202607047426861F30612426064
:103E60007047826861F3C71282607047C1F308022D
:103E700042607047C26861F34D32C26070470246CB
:103E80001068084008B1012070470020FCE741B9E4
:103E9000426922F480724261426922F400724261F6
:103EA00027E001290AD1426922F4807202F580726A
:103EB0004261426922F4007242611AE002290AD189
:103EC000426922F480724261426922F4007202F572
:103ED000007242610DE003290BD1426922F4807225
:103EE00002F580724261426922F4007202F50072AA
:103EF000426170472DE9F04385B004460F46904675
:103F000099466846FEF7D4FC1748844205D0174806
:103F1000844202D01648844201D1029E00E0039EF2
:103F200006EB86004000B0FBF7F50A20B5FBF0F188
:103F300000FB1150052803D20A20B5FBF0F503E081
:103F40000A20B5FBF0F0451CA06865F30F00A060E7
:103F5000E06868F30C30E060206969F30D3020619F
:103F600005B0BDE8F083000000380140006001406A
:103F70000064014041B9C26822F40072C260C268A4
:103F800022F48062C2601AE001290AD1C26822F4D8
:103F90000072C260C26822F4806202F58062C26070
:103FA0000DE002290BD1C26822F4007202F5007202
:103FB000C260C26822F4806202F58062C26070470B
:103FC000C26861F38202C2607047C26861F3C302D3
:103FD000C26070470EB501A8FFF78AF803208DF87C
:103FE0000A000120019001A92948FFF78CF803205D
:103FF0008DF80A000220019001A92548FFF783F8F7
:104000000220FEF7E3FB0020FEF718F86846FDF7F4
:10401000F0FF01208DF8000000208DF801008DF8E0
:10402000020002208DF8030069461A48FDF7CBFF15
:1040300001231A4608211748FEF714F8012302222B
:1040400009211448FEF70EF8012205211148FEF758
:104050005DF800210F48FEF773F801210D48FDF7C8
:10406000F7FF01210B48FDF7F8FF0A48FDF7C8FFED
:1040700000BF0848FDF7CAFF0028FAD10548FDF740
:10408000CEFF00BF0348FDF7D0FF0028FAD10EBDD8
:10409000000C0140002401400EB501A8FFF728F8EC
:1040A00003208DF80A000120019001A92848FFF79C
:1040B0002AF803208DF80A000220019001A9244863
:1040C000FFF721F80220FEF781FB6846FDF791FF1C
:1040D00001208DF8000000208DF801008DF802000D
:1040E00002208DF8030069461A48FDF76CFF012392
:1040F0001A4600211748FDF7B5FF01230222194691
:104100001448FDF7AFFF012211461248FDF7FEFFEC
:1041100000211048FEF714F801210E48FDF798FF22
:1041200001210C48FDF799FF0A48FDF769FF00BF20
:104130000848FDF76BFF0028FAD10648FDF76FFF2E
:1041400000BF0448FDF771FF0028FAD10EBD000042
:1041500000080140003C014000B58BB009A8FEF703
:10416000C7FF02208DF82B0000208DF828000820C2
:104170008DF82A004002099004208DF8290009A931
:104180003E48FEF7C0FF01208DF82B0000208DF87F
:1041900028008DF82A004FF40060099004208DF863
:1041A000290009A93548FEF7AEFF07A8FEF72BF94D
:1041B00000208DF81C008DF81D0001208DF81E00D8
:1041C0008DF81F0000208DF820008DF821008DF85B
:1041D000220007A92A48FEF76FF81E20ADF8140048
:1041E00000208DF8160005208DF8170000208DF8AE
:1041F000180005A92248FEF7BDF801208DF804003B
:1042000000208DF807008DF806008DF808008DF865
:104210000500ADF80A00ADF80C00ADF80E00ADF8E1
:10422000100001A91648FEF7F7F801208DF80400E8
:104230008DF807008DF8060000208DF808008DF835
:104240000500ADF80A00ADF80C00ADF80E00ADF8B1
:10425000100001A90A48FEF7DFF8012212210848E0
:10426000FEF704FA0122D1020548FEF7FFF9012208
:10427000D1030348FEF7FAF90BB000BD0008014076
:104280000064004010B501210148FEF791FF10BD08
:104290000203103000B585B01248FEF793FD684662
:1042A000FEF7D9FC0020ADF8080001208DF80F00C2
:1042B0008DF80D008DF80E0000208DF80C00022006
:1042C0008DF8110001208DF8100069460548FEF7B1
:1042D00041FD0322012103480838FEF7EFFC05B039
:1042E00000BD00000800024000B585B01248FEF78E
:1042F00069FD6846FEF7AFFC0020ADF8080001201C
:104300008DF80F008DF80D008DF80E0000208DF84F
:104310000C0002208DF8110001208DF81000694674
:104320000548FEF717FD0122022103481C38FEF75D
:10433000C5FC05B000BD00001C00024000B585B002
:104340001248FEF73FFD6846FEF785FC0020ADF8F9
:1043500008008DF80F0001208DF80D0000208DF869
:104360000E008DF80C0003208DF8110001208DF84F
:10437000100069460548FEF7EDFC092203210348B9
:104380003038FEF79BFC05B000BD00003000024055
:1043900000B585B01248FEF715FD6846FEF75BFCD8
:1043A0001020ADF8080000208DF80F0001208DF8D6
:1043B0000D0000208DF80E008DF80C0003208DF804
:1043C000110000208DF8100069460548FEF7C2FC78
:1043D0000A22042102484438FEF770FC05B000BDF3
:1043E0004400024000B585B01248FEF7EBFC684679
:1043F000FEF731FC0020ADF808008DF80F00012019
:104400008DF80D0000208DF80E008DF80C000320B3
:104410008DF8110001208DF8100069460548FEF75F
:1044200099FC0B22052103485838FEF747FC05B0DC
:1044300000BD00005800024000B585B01248FEF7EC
:10444000C1FC6846FEF707FC1020ADF8080000200C
:104450008DF80F0001208DF80D0000208DF80E0062
:104460008DF80C0003208DF8110000208DF810004D
:1044700069460548FEF76EFC0C22062102486C389E
:10448000FEF71CFC05B000BD6C000240436081607B
:10449000C26070471CB56846FEF72AFE4FF488716B
:1044A0001748FEF721FE41F230011648FEF71CFEC8
:1044B00002208DF8070000208DF8040010208DF8F0
:1044C00006004FF48870009004208DF805006946BE
:1044D0000B48FEF718FE02208DF8070000208DF82B
:1044E000040010208DF8060041F2300000900420F6
:1044F0008DF8050069460348FEF705FE1CBD000067
:1045000000080140000C014070B50520FFF74EF88F
:10451000FDF722F8054600221146FCF7A2FB0446EF
:1045200021466FF00B00FDF71FF8FDF715F8054663
:1045300000221146FCF795FB044621466FF00A0065
:10454000FDF712F8FDF708F8054600221146FCF7C2
:1045500088FB044621466FF00900FDF705F8FCF7DB
:10456000FBFF054600221146FCF77BFB0446214673
:104570006FF00400FCF7F8FFFCF7EEFF05460022A1
:104580001146FCF76EFB044621466FF00300FCF772
:10459000EBFFFCF7E1FF054600221146FCF761FB4B
:1045A000044621466FF00100FCF7DEFFFCF7D4FF64
:1045B000054600221146FCF754FB044621464FF005
:1045C000FF30FCF7D1FF002201210B20FEF78AFF0C
:1045D000002201210C20FEF785FF002211460D204C
:1045E000FEF780FF002211460F20FEF77BFF00221E
:1045F00002211420FEF776FF002202211620FEF78A
:1046000071FF002211463220FEF76CFF70BD0000E2
:1046100010B501214FF4A010FEF710FA01214FF45C
:10462000C010FEF70BFA01211F48FEF707FA01211F
:104630001D48401CFEF702FA01211B48C01CFEF772
:10464000FDF901211848C01DFEF7F8F901211648AF
:104650000A30FEF7F3F9012113480C30FEF7EEF9AA
:10466000012111480D30FEF7E9F901214FF4E01066
:10467000FEF7E4F901210D48FEF7E0F901210B48AE
:10468000401CFEF7DBF9012108480C30FEF7D6F993
:10469000012106481030FEF7D1F9012103481730F7
:1046A000FEF7CCF910BD00000200180002001C004B
:1046B0001FB502A8FEF71CFD6846FFF7CDF80220E3
:1046C0008DF80F0000208DF80C0008208DF80E00EA
:1046D0002020029004208DF80D0002A92A48FEF740
:1046E00012FD02208DF80F0000208DF80C008DF8CF
:1046F0000E004020029004208DF80D0002A92248EF
:10470000FEF701FD02208DF80F0000208DF80C004F
:1047100008208DF80E008020029004208DF80D00F6
:1047200002A91948FEF7EFFC00208DF800000120D7
:104730008DF8010000208DF804008DF803000220A0
:104740008DF8020000208DF8050001208DF806008C
:104750008DF8070069460D48FFF7A2F807210B48BE
:10476000FFF775F801210948FFF76CF801210748A8
:10477000FFF789F801210548FFF780F80121034878
:10478000FFF775F81FBD0000000801400030014030
:104790001FB502A8FEF7ACFC6846FFF75DF80220E3
:1047A0008DF80F0000208DF80C0008208DF80E0009
:1047B0008002029004208DF80D0002A92A48FEF71D
:1047C000A2FC02208DF80F0000208DF80C008DF85F
:1047D0000E004FF48040029004208DF80D0002A9D5
:1047E0002148FEF790FC02208DF80F0000208DF884
:1047F0000C0008208DF80E000003029004208DF8B4
:104800000D0002A91848FEF77EFC00208DF800007C
:1048100001208DF8010000208DF804008DF80300C0
:1048200002208DF8020000208DF8050001208DF88F
:1048300006008DF8070069460C48FFF731F807219C
:104840000A48FFF704F801210848FEF7FBFF0121A1
:104850000648FFF718F801210448FFF70FF8012177
:104860000248FFF704F81FBD000C0140003800406B
:1048700010B5FEF743F901210420FDF7E9FF00BF61
:104880002048FEF7ABF80128FAD101210846FDF7D0
:10489000DFFF00BFFEF7BAF80028FBD0012100209F
:1048A000FDF7D6FF00BF0120FEF798F80128FAD1E6
:1048B00001221D211046FEF7E3F801210220FDF739
:1048C000C7FF00BF1920FEF789F80128FAD10020A0
:1048D000FDF78CFF0420FDF79DFF0420FDF790FFFE
:1048E0000120FDF7A1FF0220FEF734F900BFFEF71B
:1048F0004FF90228FBD10020FDF796FFFFF7CCF817
:1049000010BD00000100240010B586B0002401A8ED
:10491000FDF7CEFF029C0420FFF73AF90948B4FBEB
:10492000F0F00949086000204FF0E02188616FF045
:104930007F4048610846006940F00100086106B008
:1049400010BD000040420F00080000201FB502A863
:10495000FEF7CEFB0420029008208DF80E00002008
:104960008DF80C0004208DF80D0002208DF80F004A
:1049700002A97E48FEF7C7FB082002908DF80E00C2
:1049800000208DF80C0004208DF80D0002208DF819
:104990000F0002A97548FEF7B6FB4FF400400290E5
:1049A00008208DF80E0000208DF80C0004208DF8F2
:1049B0000D0002208DF80F0002A96C48FEF7A3FB42
:1049C000082002908DF80E0000208DF80C000420C5
:1049D0008DF80D0002208DF80F0002A96448FEF743
:1049E00092FB01216348FEF7E3FB002241F287318D
:1049F0004FF08040FFF7E0F802214807FFF7FDF88D
:104A000000214FF08040FFF7F3F800214FF0804085
:104A1000FFF71DFA00214FF08040FFF722FA002136
:104A20004FF08040FFF718FA06208DF800000120B3
:104A30008DF8050000208DF806008DF803008DF834
:104A400004008DF801008DF802006A4600214FF045
:104A50008040FFF70BF9002211464FF08040FFF72E
:104A6000B3F8002211464FF08040FFF7DEF8002235
:104A700011464FF08040FFF7C9F906208DF800007D
:104A800001208DF8050000208DF806008DF8030048
:104A90008DF804008DF801008DF802006A460221AD
:104AA0004807FFF7E3F8002202214807FFF78CF8D8
:104AB000002202214807FFF7B8F800220221480728
:104AC000FFF7A4F906208DF8000001208DF80500FD
:104AD00000208DF806008DF803008DF804008DF895
:104AE00001008DF802006A4604210807FFF7BEF8AE
:104AF000002204210807FFF767F8002204210807B5
:104B0000FFF793F8002204210807FFF77FF906203A
:104B10008DF8000001208DF8050000208DF80600BA
:104B20008DF803008DF804008DF801008DF8020067
:104B30006A4606214FF08040FFF798F800220621D0
:104B40004FF08040FFF740F8002206214FF08040F0
:104B5000FFF76BF8002206214FF08040FFF756F96F
:104B600001218807FFF74EF81FBD00000008014033
:104B7000000C0140010204241FB502A8FEF7B8FA98
:104B80004020029008208DF80E0000208DF80C00C7
:104B900004208DF80D0002208DF80F0002A977483F
:104BA000FEF7B1FA8020029008208DF80E00002058
:104BB0008DF80C0004208DF80D0002208DF80F00F8
:104BC00002A96E48FEF79FFA4FF480700290082009
:104BD0008DF80E0000208DF80C0004208DF80D00DB
:104BE00002208DF80F0002A96448FEF78CFA4FF4FA
:104BF0000070029008208DF80E0000208DF80C0047
:104C000004208DF80D0002208DF80F0002A95B48EA
:104C1000FEF779FA002241F287315948FEF7CCFFBE
:104C200002215748FEF7E9FF00215548FEF7E0FF53
:104C300000215348FFF70BF900215148FFF711F904
:104C400000214F48FFF708F906208DF800000120E9
:104C50008DF8050000208DF806008DF803008DF812
:104C600004008DF801008DF802006A4600214448D6
:104C7000FEF7FCFF002211464148FEF7A5FF002287
:104C800011463F48FEF7D1FF002211463C48FFF78E
:104C9000BDF806208DF8000001208DF805000020E9
:104CA0008DF806008DF803008DF804008DF80100E2
:104CB0008DF802006A4602213148FEF7D7FF002234
:104CC00002212F48FEF780FF002202212C48FEF728
:104CD000ACFF002202212A48FFF798F806208DF841
:104CE000000001208DF8050000208DF806008DF8E9
:104CF00003008DF804008DF801008DF802006A466B
:104D000004211F48FEF7B2FF002204211C48FEF7D1
:104D10005BFF002204211A48FEF787FF00220421CE
:104D20001748FFF773F806208DF8000001208DF872
:104D3000050000208DF806008DF803008DF80400B2
:104D40008DF801008DF802006A4606210C48FEF736
:104D50008DFF002206210A48FEF736FF00220621B9
:104D60000748FEF762FF002206210548FFF74EF8CC
:104D700001210348FEF746FF1FBD0000000C014063
:104D80000008004010B5092245F6BF510D48FEF756
:104D900013FF00210B48FEF730FF00210948FEF702
:104DA00027FF00210748FFF752F800210548FFF7C9
:104DB00058F800210348FFF74FF801210148FEF79A
:104DC00021FF10BD000C00401CB56846FEF790F9AD
:104DD00002208DF8070000208DF8040008208DF8CF
:104DE00006008001009004208DF8050069461848EF
:104DF000FEF789F902208DF8070000208DF80400E5
:104E00008DF806004FF48060009004208DF80500B6
:104E100069460F48FEF777F900231A460D490E48F8
:104E2000FFF768F801210C48FFF7CFF801210A4885
:104E3000FFF7C6F800210848FFF79CF80021064854
:104E4000FFF725F801210448FFF714F81CBD000006
:104E500000080140C0C62D00003801401CB568465E
:104E6000FEF746F902208DF8070000208DF80400B7
:104E700008208DF80600C001009004208DF8050080
:104E800069461848FEF73FF902208DF80700002018
:104E90008DF804008DF806004FF4006000900420A7
:104EA0008DF8050069460F48FEF72DF900231A46D4
:104EB0004FF4E1310C48FFF71DF801210A48FFF7D4
:104EC00084F801210848FFF77BF800210648FFF726
:104ED00051F800210448FEF7DAFF01210248FEF7ED
:104EE000C9FF1CBD000C014000480040000000004C
:104EF000000000000102030406070809000000008A
:104F00000102030400000000010203040204060879
:104F1000020C081000000000000000000102030461
:104F2000060708096D6F746F72202564203A2055BA
:104F30006120766F6C74616765206F666673657457
:104F4000206973202564202C205562200D0A2076CC
:104F50006F6C74616765206F666673657420697332
:104F6000202025640D0A00002F2A2A2A2A2A2A2A0C
:104F70002A2A2A2A2A2A2A2A2A2A2A2A2A2A2A2A91
:104F80002A2A2A2A2A2050726F64756374204F7669
:104F9000657276696577202A2A2A2A2A2A2A2A2AE5
:104FA0002A2A2A2A2A2A2A2A2A2A2A2A2A2A2A2A61
:104FB0002A2A2A2A2A2A2A2A2A2F200D0A00000011
:104FC0002F2A2A2A2A2A2A2A2A2A2A2A2A2A2A2A3C
:104FD0002A2A2A2A2A2A2A2A2A2A2A2A2A2A2A2A31
:104FE0002A2A2A2A2A2A2A2A2A2A2A2A2A2A2A2A21
:104FF0002A2A2A2A2A2A2A2A2A2A2A2A2A2A2A2A11
:105000002A2A2A2A2A2A2A2A2A2A2A2A2A2A2A2A00
:105010002A2F200D0A0000002D2047697448756270
:10502000E9A1B9E79BAEE59CB0E59D80EFBC9A682D
:10503000747470733A2F2F6769746875622E636F8A
:105040006D2F6C687A6C6F766579796A2F4154336D
:10505000325F464F432E6769740D0A002D20E4B875
:10506000BBE68EA7E88AAFE78987EFBC9A41543345
:1050700032463430374143475437EFBC8CE59FBA52
:10508000E4BA8E41524D20436F727465782D4D34D1
:10509000E58685E6A0B8EFBC8CE585B7E5A487E991
:1050A000AB98E680A7E883BDE8BF90E7AE97E883BA
:1050B000BDE58A9BE380820D0A0000002D20E9A94E
:1050C000B1E58AA8E88AAFE78987EFBC9A454732FD
:1050D000313333EFBC8CE694AFE68C81E9AB98E6D4
:1050E0009588E883BDE794B5E69CBAE9A9B1E58A5D
:1050F000A8EFBC8CE585B7E5A487E4BC98E5BC8245
:10510000E79A84E794B5E6B581E68EA7E588B6E828
:1051100083BDE58A9BE380820D0A00002D20E99B78
:1051200086E68890E794B5E6B581E78EAFE38081A7
:10513000E9809FE5BAA6E78EAFE38081E4BD8DE705
:10514000BDAEE78EAFE4B889E997ADE78EAFE68EE6
:10515000A7E588B6EFBC8CE7A1AEE4BF9DE794B5A8
:10516000E69CBAE8BF90E8A18CE79A84E9AB98E79F
:10517000A8B3E5AE9AE680A7E5928CE9AB98E7B2D2
:10518000BEE5BAA6E380820D0A0000002D20E58569
:10519000B7E5A487E8BF87E6B581E38081E8BF87EC
:1051A000E58E8BE38081E8BF87E6B8A9E7AD89E5A6
:1051B000A49AE9878DE4BF9DE68AA4E69CBAE588B7
:1051C000B6EFBC8CE68F90E58D87E7B3BBE7BB9F5E
:1051D000E58FAFE99DA0E680A7E380820D0A00007D
:1051E0002D20E694AFE68C81E58F8CE8B7AFE7948D
:1051F000B5E69CBA464F43EFBC884669656C6420AF
:105200004F7269656E74656420436F6E74726F6C63
:10521000EFBC89E68EA7E588B6EFBC8CE5AE9EE7CD
:105220008EB0E9AB98E69588E7B2BEE58786E79A47
:1052300084E794B5E69CBAE68EA7E588B6E380825B
:105240000D0A000064520008000000200002000067
:1052500084080008D052000800020020000400006A
:10526000D8160008D1A3127A143001403508014045
:105270001012441C0240300491123812401A0C20C3
:10528000191D1A6C18AA581C71A0090AD7233CCD05
:10529000CCCC3D1B2041040A18C1201AC044031085
:1052A000C0C002470113A50B14083D371B089885A1
:1052B000810A49025C1AC15C2AF45C4C080140B5C1
:1052C0000348803F2B5801B40948503AA850610068
:040000050800018569
:00000001FF
