:020000040800F2
:10000000480400209D01000889090008EF08000845
:1000100085090008E9080008F10A0008000000004E
:10002000000000000000000000000000210A00089D
:10003000ED08000800000000CB090008230A0008B2
:10004000B7010008B7010008B7010008B7010008B0
:10005000B7010008B7010008B7010008B7010008A0
:10006000B7010008B7010008B7010008B701000890
:10007000B7010008B7010008B7010008B701000880
:10008000B7010008B7010008B7010008B701000870
:10009000B7010008B7010008B7010008B701000860
:1000A000B7010008B7010008B7010008B701000850
:1000B000B7010008950A0008B7010008B701000859
:1000C000B7010008B7010008B7010008B701000830
:1000D000B7010008B7010008B7010008B701000820
:1000E000B7010008B7010008B7010008B701000810
:1000F000B7010008B7010008B7010008B701000800
:10010000B7010008B7010008B7010008B7010008EF
:10011000B7010008B7010008B7010008B7010008DF
:10012000B7010008B7010008B7010008B7010008CF
:10013000B7010008B7010008B7010008B7010008BF
:1001400000000000000000000000000000000000AF
:10015000B7010008B7010008B7010008B70100089F
:10016000B7010008B7010008B7010008B70100088F
:10017000B7010008B7010008B7010008B70100087F
:10018000B7010008DFF810D000F0DCFA00480047A3
:10019000D9220008AFF300804804002006488047B9
:1001A00006480047FEE7FEE7FEE7FEE7FEE7FEE75C
:1001B000FEE7FEE7FEE7FEE7250A000885010008E6
:1001C00000F0004230F000400AD0C10D01F560712E
:1001D000C0F3160042EA0151C208400711437047BC
:1001E000002001467047000030B5041E71F1000484
:1001F00004DB4FF00044404264EB0101141E73F134
:10020000000405DB1C464FF00043524263EB04033D
:100210008B4208BF824230BD01F0004330B421F070
:10022000004150EA010206D00A0DA2F56072C1F346
:100230001301002A02DC30BC00207047440F44EA5E
:10024000C104C100E01830BC00EBC25000F047B858
:1002500030B50B46014600202022012409E021FA96
:1002600002F59D4205D303FA02F5491B04FA02F593
:100270002844151EA2F10102F1DC30BD2DE9F05F2A
:100280000546002092469B46884606468146402405
:100290001BE0284641464746224600F074FA534682
:1002A0005A46C01A914110D311461846224600F012
:1002B0005BFA2D1A67EB01084F4622460120002108
:1002C00000F052FA17EB00094E41201EA4F1010480
:1002D000DFDC484631462A464346BDE8F09F002908
:1002E000A8BF7047401C490008BF20F001007047BC
:1002F00010B4B0FA80FC00FA0CF050EA010404BF1C
:1003000010BC704749B1CCF1200421FA04F411FA71
:100310000CF118BF012121430843A3EB0C01CB1DB5
:100320004FEA00614FEA102042BF002010BC704726
:1003300000EBC35010440029A4BF10BC7047401C00
:10034000490008BF20F0010010BC70472DE9FE4FA6
:10035000804681EA0300C00F0C46009021F0004166
:1003600023F00045B8EB0200A94105D240462146E2
:1003700090461C460B46024623F00040104347D0EF
:10038000270DC7F30A00C3F30A510290401A0190E7
:1003900040286BDAC3F3130040F4801B00989246A8
:1003A00020B10023D2EB030A63EB0B0B01985946F3
:1003B000C0F14002504600F0D7F906460D465046BF
:1003C0005946019A00F0EFF910EB08006141002452
:1003D00087EA115284EAE7731A4340D0009A62B365
:1003E000019A012A4FEA075215DC001B61EB02015A
:1003F0004FF0004202EA0752CDE90042001C41F5ED
:10040000801132462B4600F0EFF903B0BDE8F08FC3
:1004100040462146F9E7001B61EB0201001C41F553
:10042000801300185B412018A2F5001747EB030169
:1004300040EAD570B6196D4111E06D084FEA3606F5
:1004400045EAC0754FEA0752001B61EB0201001C30
:1004500041F5801149084FEA3000001951413246F8
:100460002B4603B0BDE8F04F00F0AFB90098012271
:1004700040000023D0EB020263EBE07300982146BA
:100480004FEAE074B8EB000061EB0401E9E783F0A8
:1004900000435BE781F0004158E72DE9FE4F81EA18
:1004A000030404F0004421F0004100944FF0000BDD
:1004B00023F0004350EA01045ED052EA03045BD00B
:1004C000C3F30A54C1F30A552C44A4F2F334019443
:1004D000A0FB0254C1F3130141F48011C3F31303D1
:1004E00043F4801301FB024400FB034E840A970A85
:1004F00044EA815447EA8357A4FB076802958D0AB2
:1005000005FB07854FEA932C04FB0C542705029D3D
:100510004FEA065847EA1637B5EB08056EEB070CAD
:10052000870E920E47EA811742EA8312A7FB020167
:10053000B6EB0B0164EB00042B0D43EA0C335E18A1
:1005400044EB1C50DA465146E7FB0201C5F31304A5
:100550004FEA0B3343EA14534FEA0432019C43EA57
:100560000603A4F10C040294009CCDE900B400F051
:100570003BF903B0BDE8F08F00200146F9E72DE913
:10058000F04D81EA030404F0004B21F000451446CD
:100590004FF0000A23F0004150EA050220D054EA4F
:1005A00001021DD0C5F30A570246C5F31303C1F378
:1005B0001300C1F30A5640F4801543F48013A7EBEF
:1005C0000608101BD64608F2FD3873EB050002D36F
:1005D00008F1010801E092185B41B8F1000F03DA5D
:1005E00000200146BDE8F08D00204FF48011064642
:1005F00084460EE0171B73EB050705D3121B63EB54
:10060000050306434CEA010C49084FEA30009218F2
:100610005B4150EA0107EDD152EA030012D082EAB1
:10062000040083EA0501084305D0101BAB4106D244
:100630000122002306E000224FF0004302E06FF0A9
:10064000010253101AEB06004CEB085110EB0A00A4
:1006500041EB0B01BDE8F04D00F0B7B82DE9FE4FBE
:10066000C3F30A5701F000450024C1F30A56C3F34F
:100670001303C1F3130143F4801312EB020AA646DD
:1006800041F48011009543EB030CA7F1010B16E038
:10069000B0EB0A0061EB0C01071E71F1000707DAED
:1006A0004FF00008D0EB080085F0004568EB010131
:1006B000171A73EB0107EBD3761E001849415E450C
:1006C000F6DA50EA010209D0CDE900E5002213462E
:1006D000029600F089F803B0BDE8F08F204600993B
:1006E000F9E7C1F30A52C1F3130140F2FF3341F4B9
:1006F00080119A4202DA00200146704740F23343EB
:100700009A42A2F2334202DC524200F03CB800F0BE
:100710002BB8000030B5041E71F1000404DB4FF06B
:100720000044404264EB0101141E73F1000405DB38
:100730001C464FF00043524263EB0403994208BF4A
:10074000904230BD064C074D06E0E06840F00103E2
:1007500094E8070098471034AC42F6D3FFF716FD33
:10076000B0390008D0390008202A04DB203A00FA0A
:1007700002F1002070479140C2F1200320FA03F3F8
:10078000194390407047202A04DB203A21FA02F0F6
:100790000021704721FA02F3D040C2F120029140BB
:1007A000084319467047202A06DBCB17203A41FA46
:1007B00002F043EAE07306E041FA02F3D040C2F1EE
:1007C0002002914008431946704710B5141E73F17A
:1007D000000408DA401C41F1000192185B411A4301
:1007E00001D120F0010010BD2DE9F04D92469B464D
:1007F00011B1B1FA81F202E0B0FA80F220329046F3
:10080000FFF7B2FF04460F4640EA0A0041EA0B0137
:1008100053465A46084313D0114653EA010019D0F3
:10082000C8F140025046FFF7AEFF05460E4650465F
:1008300059464246FFF798FF084305D0012004E0DF
:1008400020463946BDE8F08D0020054346EAE076B3
:100850002C4337430A986305E40AA0EB0800002202
:10086000FD0A44EA47540A3002D500200146E9E770
:10087000010510196941DDE9084500196941BDE824
:10088000F04DA2E710B52DED068BB0EE408A18EEC4
:10089000100AFFF795FC41EC1A0B9FED101BB0EE10
:1008A0004A0AF0EE6A0A00F05BF9B0EE409AF0EE08
:1008B000609A51EC190BFFF7AFFC08EE900AF5EEC9
:1008C000C08AF1EE10FA04DBB0EE680ABDEC068BCC
:1008D00010BD9FED040A38EE800AF7E70000000023
:1008E000FA211940D00FC94000BFFEE7704700BF92
:1008F000FEE7000070B52DED028B4FF480511C48CF
:1009000001F04EFC00211B4800F060F80446002175
:10091000184800F05BF805460021164800F056F82C
:1009200006464FF48051124801F03CFC200440EA96
:1009300005203043801208EE100AB8EE480ADFEDB9
:100940000E0A20EE200ADFED0D0A80EE201AF0EEEE
:10095000418A9FED0B0A28EE800ADFED070A80EE40
:10096000201AF0EE418AB0EE680ABDEC028B70BD31
:10097000000C0140003800400000B44300008046F5
:10098000D00FC94000BFFEE77047F0B503460C46E4
:1009900003F00701C1F10700042801D9042001E098
:1009A000C1F107000646081D072801D2002000E01B
:1009B000C81E05460120B040401E2040A840012727
:1009C000AF407F1E17403843F0BD704770B50546F5
:1009D0000E46002406E0601C80B20446C82801DDF3
:1009E000002070BD0221284601F088FE0028F2D0C8
:1009F0003146284601F080FE002406E0601C80B2EB
:100A00000446C82801DD0020EBE70121284601F05B
:100A100075FE0028F2D0284601F06AFEC0B2E0E779
:100A2000704770471848006840F470001649086025
:100A30001648006820F00100401C1449086000BFFF
:100A400012480068C0F340000028F9D00F48406801
:100A500020F003000D49486000BF0C484068C0F317
:100A600081000028F9D10948006809490840074970
:100A700008600020486008634FF41F008860C803C6
:100A8000014980390860704788ED00E0001002409D
:100A9000FFFFF2FE10B52DED028B12480068401CDE
:100AA000104908600846006841F28831884205D143
:100AB000002000F08FFE00200A490860FFF71AFFAF
:100AC000B0EE408AB1EE481ADFED070AB0EE000A38
:100AD00001F0D6FC0121054801F065FFBDEC028B59
:100AE00010BD0000000000200000000000040040D5
:100AF00000BFFEE70FB4054B10B503A9044A0298E6
:100B000000F0AAF910BC5DF814FB0000D920000821
:100B10004000002002480068C0F302207047000037
:100B20000CED00E010B5002804DB0A07130E054A9F
:100B3000135406E00A07140E034A00F00F031B1FAC
:100B4000D45410BD00E400E018ED00E02DED020BE0
:100B5000019820F0004001909DED000B02B070471D
:100B600010B52DED040B86B09DED060B10EE100AAE
:100B700010EE901A8DED000B002818BF01200843DD
:100B800020F00040C0F17F6000F1E040C00F21D1B3
:100B90009DED080B10EE101A10EE900A8DED000B73
:100BA000002918BF0121084320F00040C0F17F60F8
:100BB00000F1E040C00F0DD129490798B1EB400F7B
:100BC00004BF0698002842D00998400004BF089846
:100BD00000283CD09DED080B53EC102B9DED060B2F
:100BE00051EC100BFFF73AFDCDE902019DED020B30
:100BF00040F2FF7110EE900A8DED000B31EA1050BB
:100C000021D00798039900F0004001F0004188428C
:100C100019D09DED080B8DED040B9DED020B8DEDB4
:100C2000000B10EE900A059961F31E0005909DEDF2
:100C3000041B9DED020B51EC110B53EC102BFFF735
:100C400029FCCDE902019DED020B0AB010BD012087
:100C500000F02AF80AB0BDE8104000F005B8000026
:100C60000000E0FF000000009FED050B10B553EC05
:100C7000102B51EC100BFFF782FC41EC100B10BD58
:100C8000000000000000000002E008C8121F08C1B8
:100C9000002AFAD170477047002001E001C1121FFD
:100CA000002AFBD17047000001490860704700002E
:100CB0004400002010B52DED028BB0EE408AF2EE1C
:100CC000060A68EE200AB0EE600AFFF7DBFDBDEC15
:100CD000028B10BD2DE9FF5F82B00021DDE90430F9
:100CE000020DDDF840B0034318D044F61050A2F2D4
:100CF000FF3242431514119801281FD0A5EB0B00B9
:100D0000401C5FEA000A4FF000064E4FDFF83891B2
:100D1000B046504615D5CAF1000413E011980124DD
:100D20004AA3012801D16FEA0B010298119AC0E988
:100D30000031C0E9024206B0BDE8F09FCBF10000EF
:100D4000DFE704460021404A491842EB0450CDE950
:100D5000001012E0E00707D032463B4640464946C5
:100D6000FFF79BFB8046894632463B4610461946B4
:100D7000FFF793FB06460F466410002CEAD1DDE92D
:100D80000401DDE90023BAF1000F06DAFFF785FB65
:100D900042464B46FFF781FB05E0FFF7F0FB42467A
:100DA0004B46FFF7ECFB04460E460022284BFFF7AC
:100DB000B1FC03D84FF0FF30014607E00022254B7D
:100DC00020463146FFF7C2FAFFF78BFC102409E0FA
:100DD000002C0ADB0A220023FFF750FA039B303273
:100DE0001A55641E50EA0102F2D1641C039AC4F140
:100DF00011031444119A012A03D0012208430DD192
:100E00000AE0084304D000204FF0110B119072E764
:100E1000A3EB0B056D1E0DE05B4504DD4FF00002FA
:100E200005F1010504E003DA4FF00002A5F1010528
:100E3000002AECD002981199C0E90231C0E90045BE
:100E400079E70000000014400000F03F300000008F
:100E50000000F0430000E03F2DE9FF4F95B09A46B7
:100E6000884606460025EEE1252877D1002427464E
:100E7000F94A0121039400E0044316F8013F203BA6
:100E800001FA03F01042F7D130782A2811D06FF020
:100E90002F033078A0F13002092A16D8039A44F0C3
:100EA000020402EB820203EB42021044761C039020
:100EB000EFE758F8042B0392002A03DA504244F477
:100EC0000054039044F00204761C30782E2816D18A
:100ED00016F8010F44F004042A280DD06FF02F02F9
:100EE0003078A0F13003092B09D807EB870302EB18
:100EF0004303C718761CF3E758F8047B761C307858
:100F00006C280FD006DC4C2817D068280DD06A2832
:100F100014D104E0742810D07A280FD10DE044F4E5
:100F200000140AE044F4801401E044F440147278A0
:100F3000824202D104F58014761C761C3078662833
:100F40000BD013DC582877D009DC002875D0452851
:100F5000F6D04628F4D047281AD193E118E0632848
:100F600035D0642879D0652812D18BE1702873D0F0
:100F700008DC6728F1D069286FD06E280DD06F2863
:100F800006D1ACE073282CD0752874D0782853D0C3
:100F90005246179990476D1C54E1C4F30250022841
:100FA00009D003280DD0D8F8001004280DD00D600A
:100FB00008F1040846E1D8F80010EA17C1E9005228
:100FC000F6E7D8F800100D80F2E70D70F0E718F89A
:100FD000041B8DF8001000208DF80100EB46012065
:100FE00003E058F804BB4FF0FF3061074FF00001F9
:100FF00002D40DE009F101018946B9420FDA8145B9
:10100000F8DB1BF809100029F4D108E009F101010F
:1010100089468142FADB1BF809100029F6D10398B2
:101020005346A0EB090721463846179A00F080FA8C
:10103000284400EB090507E044E008E10DE01BF857
:10104000010B524617999047B9F10109F7D253465F
:1010500021463846179AF2E039E00A21C4F30252D9
:101060004FF0000B0091022A06D058F8040BC1176C
:10107000032A09D00AE023E008F1070020F0070264
:10108000F2E80201904605E000B2C117042A01D13E
:1010900040B2C117002906DA0A460021404261EB3E
:1010A00002012D2202E0220504D52B228DF8042016
:1010B000012203E0E20701D02022F7E7914657E042
:1010C0000A2100E010214FF0000B00910BE01021ED
:1010D0004FF0000B44F004040827009103E00820BF
:1010E0004FF0000B0090C4F30252022A05D058F8CA
:1010F000040B0021032A08D008E008F1070020F0C3
:101100000702F2E80201904603E080B2042A00D10F
:10111000C0B24FF0000922072AD53278702A07D0D2
:10112000DDF800C08CF0100C5CEA0B0C05D00EE072
:1011300040228DF80420012208E050EA010306D085
:1011400030238DF804308DF8052002229146009B53
:1011500083F0080353EA0B030AD150EA010201D1DC
:10116000620705D530228DF804204FF001097F1E5B
:101170003278582A04D039A20C920CAA02920BE0C1
:101180003BA2F9E75B46009AFFF778F80C9B9B5C63
:10119000029A521E0292137050EA0102F2D1029892
:1011A00004A9081A00F1200B600702D524F480344A
:1011B00000E001275F4502DDA7EB0B0000E0002007
:1011C00000EB0B01009003984944401A0390E003A0
:1011D00006D453462146179A039800F0A9F905440E
:1011E000002706E001A85246C05D179990476D1C84
:1011F0007F1C4F45F6DBE0030CD553462146179A7A
:10120000039800F095F9054404E030205246179900
:1012100090476D1C0099481E00900029F5DC08E0FD
:101220000298029952460078491C029117999047FA
:101230006D1CBBF10001ABF1010BF1DC5BE100F0D7
:1012400065F90544761C307800287FF40DAE19B09E
:101250002846BDE8F08F0000092801003031323304
:1012600034353637383961626364656600000000E2
:1012700030313233343536373839414243444546CC
:1012800000000000600700D4062708F1070020F0E6
:101290000700F0E80223804603F0004C5FEA0C00F0
:1012A00001D097A009E0200501D596A005E0E00750
:1012B00001D095A001E0AFF24C001390307823F0FC
:1012C000004365280CD006DC452809D046281DD0EF
:1012D00047287FD13BE0662818D067287AD136E0CE
:1012E0000021112F01DB112000E0781CCDE9000165
:1012F00004A90CA8FFF7EEFCDDE90D010C9A4FF0F4
:10130000000B07F10109109200914EE04FF00040F0
:101310000097CDE9011004A90CA8FFF7DBFCDDE97B
:101320000D020C9B0F994FF0000B91461093009209
:1013300011B9791C00EB0109B7EB090003D4C0F126
:10134000FF3B07F10109A9EB0700019042E0012FE3
:1013500000DA01270021112F01DD112000E03846BD
:10136000CDE9000104A90CA8FFF7B4FCDDE90D01EB
:101370000C9A00914FF0000BB946109221070FD440
:10138000009A4A4503DA914601E0A9F10109B9F151
:10139000010F05DD109AA9F10101515C3029F4D04B
:1013A000B84202DA10F1040F03DA0121CDE901108D
:1013B00010E0002803DC8344A9EB000102E0411C9B
:1013C000494500DD8946A0EB0B00401C01904FF021
:1013D00000400290200705D40198484502DB4FF0F9
:1013E000FF30019000208DF84B0002980DF14B0763
:1013F000B0F1004F25D002200C902B200D900298C8
:1014000000280CDA404202902D200D9007E00A21BE
:101410000298FEF71DFF3031029007F8011D0C996C
:10142000481E0C900029F2DC02980028EFD1791EAA
:101430000D980870307800F0200040F0450007F863
:10144000020D11A8C01BC01D02901398007800B1B6
:10145000012000EB0901019801EBE07102980144C1
:101460000398401A401E0390E00306D453462146D9
:10147000179A039800F05CF805441398007818B1A7
:101480005246179990476D1CE00323D553462146D9
:10149000179A039800F04CF805441BE0BBF1000FCD
:1014A00007DB0098584504DD1098179910F80B00D9
:1014B00001E0179930205246904701980BF1010B3B
:1014C000401E05F10105019004D12E2052461799C6
:1014D00090476D1CB9F10001A9F10109DEDC05E0BE
:1014E00017F8010B5246179990476D1C0299481E38
:1014F00002900029F4DC53462146179A03989EE691
:101500002D0000002B000000200000002DE9F0411C
:10151000044600251E461746880404D405E03946D3
:101520002020B0476D1C641EF9D52846BDE8F08127
:101530002DE9F041044600251E469046C80301D51A
:10154000302700E02027880404D505E041463846CE
:10155000B0476D1C641EF9D52846BDE8F0810B78B4
:10156000426863F3082242604B78826863F3410269
:1015700082608B78826863F3CB228260CA78521EC5
:10158000C36A62F31753C362704700210170417050
:1015900081700121C1707047816821F00801083114
:1015A0008160704701468868C0F3C00008B101201F
:1015B00070470020FCE7816821F00401091D81606B
:1015C000704701468868C0F3800008B10120704769
:1015D0000020FCE70349096860F31341014A1160E8
:1015E0007047000004240140826861F300028260B9
:1015F000704770B504460A290CDA206901EB4106F0
:101600000725B540A84301EB410503FA05F528433A
:1016100020610FE0E068A1F10A0505EB450607250A
:10162000B540A843A1F10A0505EB450503FA05F508
:101630002843E0600D2A10DBE06AA2F10D0505EBFE
:1016400085061F25B540A843A2F10D0505EB8505CC
:1016500001FA05F52843E0621EE0072A0EDB206B45
:10166000D51F05EB85061F25B540A843D51F05EB03
:10167000850501FA05F5284320630DE0606B551ED2
:1016800005EB85061F25B540A843551E05EB8505CE
:1016900001FA05F52843606370BD07290ADD8368F8
:1016A00023F0007303F100738360836861F3534395
:1016B000836007E0836823F000738360836861F3CD
:1016C00053438360836862F31453836070474268B6
:1016D00061F3CB2242607047F0B52DED068B83B0ED
:1016E00004469FED2E1AF0EE000A9FED2C0A00F042
:1016F000C7FE4FF47A7000F0EFFB9FED280AB0EEC2
:10170000408A0A2500261DE0A047F0EE408AFFF738
:10171000D1FA10EE107A3846FEF752FD41EC190B63
:1017200053EC192B1EA0FFF7E5F9A047F0EE408A15
:10173000FFF7C0FA30EE080AB0EE408A0A2000F047
:10174000CBFB761CAE42DFDB00EE105AB8EEC00ACF
:10175000C8EE000A1448C0ED000AA047F0EE408A27
:1017600000F0D4FC10EE106A3046FEF729FD41EC83
:10177000190B0D480068FEF723FD41EC1A0B8DEDA7
:10178000009B53EC1A2B09A0FFF7B4F90DA0FFF74B
:10179000B1F903B0BDEC068BF0BD00000000000005
:1017A000256C660D0A00000014000020C1E3B5E7B7
:1017B000CEBBBDC7B6C83A2025662C256C660D0A7F
:1017C00000000000B3F5CABCBBAFCDEAB3C90D0A37
:1017D00000000000002800DD7047094931F81010B2
:1017E00059B1084951F82010C968054A32F810204B
:1017F0005140044A52F82020D16000BFECE70000BD
:101800003C0000203800002030B5024600200023B4
:10181000146824F002041460146824F00104641CA9
:10182000146000E05B1C546804F001041CB94FF61E
:10183000FF74A342F6D1546804F00104002C3FD099
:101840004D78146865F3C71414608D78146865F3D7
:1018500086141460CD78146865F3451414600D790E
:10186000146865F3041414604D79146865F3C304B7
:1018700014608D79146865F3820414600C78D5695E
:1018800064F39E75D5610C786508D46965F3DF74DF
:10189000D461146824F001041460002300E05B1C90
:1018A000546804F001041CB14FF6FF74A342F6D152
:1018B000546804F001040CB1002002E0012000E0B3
:1018C000002030BD30B5024600200023146824F00B
:1018D00002041460146824F00104641C146000E025
:1018E0005B1C546804F001041CB94FF6FF74A3425A
:1018F000F6D1546804F001045CB30C88641ED56909
:1019000064F30B05D5618D78D46965F31964D461EE
:10191000CD78D46965F31344D4610D79D46965F346
:101920001654D461146824F001041460002300E00C
:101930005B1C546804F001041CB14FF6FF74A34211
:10194000F6D1546804F001040CB1002002E001203B
:1019500000E0002030BD002141708170C170017134
:10196000417181710170704730B50022CC7801233C
:1019700003FA04F2D0F8003223F001035B1CC0F834
:101980000032D0F81C329343C0F81C320B7913B1EB
:10199000012B5AD12CE0D0F80C329343C0F80C3212
:1019A0008B891C04CD7800F5107343F83540CC7852
:1019B00053F834300C892343CD7800F5107444F883
:1019C00035304B891C04CD7800F5107303EBC5034B
:1019D0005C60CC7800F5107303EBC4035B68CC88C3
:1019E0002343CD7800F5107404EBC50463602DE04B
:1019F000D0F80C321343C0F80C32CB881C04CD78DD
:101A000000F5107343F83540CC7853F834300C8926
:101A10002343CD7800F5107444F835304B891C040D
:101A2000CD7800F5107303EBC5035C60CC7800F54E
:101A3000107303EBC4035B688C892343CD7800F5F6
:101A4000107404EBC504636000E000BF00BF4B7876
:101A500013B1012B0CD105E0D0F804329343C0F848
:101A6000043206E0D0F804321343C0F8043200E038
:101A700000BF00BF8B7813B1012B0CD105E0D0F86B
:101A800014329343C0F8143206E0D0F814321343F2
:101A9000C0F8143200E000BF00BF0B783BB1012B4F
:101AA0000BD1D0F81C321343C0F81C3206E0D0F83A
:101AB0001C329343C0F81C3200E000BF00BFD0F8D6
:101AC000003223F00103C0F8003230BD06494968F6
:101AD00060F38F31044A516082080349496862F318
:101AE0001C71014A51607047001002400349496867
:101AF00060F30711014A5160704700000010024076
:101B00000349496860F30A21014A516070470000A7
:101B1000001002400349496860F3CD21014A516039
:101B20007047000000100240012807D10749496DA5
:101B300021F030013031054A516505E00349496D16
:101B400021F03001014A5165704700000010024049
:101B5000052827D2DFE800F0030A11181F00134AF6
:101B6000126861F30002114B1A601CE00F4A126800
:101B700061F310420D4B1A6015E00C4A126861F3D4
:101B800018620A4B1A600EE0084A126A61F30002FA
:101B9000064B1A6207E0054A526A61F30002034BE2
:101BA0005A6200E000BF00BF704700000010024012
:101BB0002DE9F04101460027002200259046002330
:101BC000002400F065F9064626B1012E12D0022E3F
:101BD00043D112E03948406DC0F3402038B1374856
:101BE000006BC0F3406010B13548086001E0354833
:101BF000086035E03348086032E030484068C0F3A0
:101C000000482E484068C0F383422C484068C0F327
:101C100041750DB90F2A03D12801401C024400E090
:101C2000921CB8F1000F03D127485043086013E01D
:101C300022484068C0F3404058B12048406DC0F38E
:101C40000137B81CDFF87CC0BCFBF0F050430860E3
:101C500002E01C485043086002E01A48086000BFD8
:101C600000BF16484068C0F303131848C45C0868F6
:101C7000E040486011484068C0F302231448C45C47
:101C80004868E040C8600D484068C0F3C22311486E
:101C9000C45C4868E040886008484068C0F300734E
:101CA00006484068C0F3813040EA83030A48C45CB8
:101CB0008868B0FBF4F00861BDE8F08100100240D4
:101CC000006CDC0200127A0000093D00783900083F
:101CD00088390008903900089839000810B5014685
:101CE0000020094B03EB1142126801F01F0401238D
:101CF000A3401A4001F01F040123A3409A4200D0E0
:101D000000E0012010BD00000010024030B50024AA
:101D1000002500E0641C1120FFF7E0FF012802D03D
:101D2000B4F5405FF6D31120FFF7D8FF012801D0AA
:101D3000002500E00125284630BD000010B501292E
:101D40000DD10E4B03EB1042126800F01F0401236B
:101D5000A3401A43094C04EB10431A600CE0074BF4
:101D600003EB1042126800F01F040123A3409A43C2
:101D7000024C04EB10431A6010BD0000001002403A
:101D800010B568B91C4B5B6823F480331A4C636050
:101D900023461B6B23F0007303F10073236317E0EA
:101DA000154B5B6823F4803303F58033124C63607A
:101DB000012805D123465B6823F40033636007E004
:101DC0000D4B5B6823F4003303F500330A4C63606A
:101DD000094B5B6861F39543074C63600C09064B44
:101DE0005B6864F35E73044C636023465B6862F374
:101DF000DF73636010BD00000010024013480068EC
:101E000020F00100401C1149086000BF0F48006825
:101E1000C0F340000028F9D00C48406820F00300CF
:101E20000A49486000BF09484068C0F381000028A3
:101E3000F9D10648006806490840044908600020B6
:101E4000486008634FF41F0088607047001002402C
:101E5000FFFFF2FE0D49496860F301010B4A516032
:101E600000BF00BF00BF00BF00BF00BF00BF00BF7A
:101E700000BF00BF00BF00BF00BF00BF00BF00BF6A
:101E800000BF00BF00BF00BF70470000001002404D
:101E900002484068C0F38100704700000010024013
:101EA00010B5042000F040FD074800680749B0FB6A
:101EB000F1F007490860084600684FF47A7148431A
:101EC0000449086010BD00000800002040420F00D7
:101ED0000C00002010000020002131E032280ADD33
:101EE000194A126832235A434FF0E0235A61A0F195
:101EF000320290B206E0144A126842434FF0E023E7
:101F00005A61002000224FF0E0239A611A461269BC
:101F100042F001021A6100BF4FF0E022116901F0A6
:101F200001021AB101F48032002AF5D04FF0E0220C
:101F3000126922F001024FF0E0231A6100229A6137
:101F40000028CBD17047000010000020F0EE400ABE
:101F50009FED270A20EE800ABDEEC00A10EE100A9F
:101F600000EE100AB8EEC01ADFED221AB0EE600AD9
:101F700001EE610AF0EE400A00F0010179B1F5EEE0
:101F8000C00AF1EE10FA04DD9FED1A0A30EEC00A25
:101F900003E09FED180A30EE800AF0EE400A20EED2
:101FA000A00ADFED151AB0EE611ADFED141A41EE4A
:101FB000001AB0EE611ADFED121A41EE001AB0EE0F
:101FC000611ADFED101A41EE001AB0EE611ADFED72
:101FD0000E1A41EE001AB0EE611ADFED0C1A41EE56
:101FE000001A20EEA01AB7EE000A01EE210A70478F
:101FF00083F9A23EDA0F4940F2A3ED30017591B4A6
:10200000B3CCCF371408B6BA83AA2A3DFDFFFFBE72
:10201000F0EE400A9FED280A20EE800ABDEEC00ACD
:1020200010EE100A00EE100AB8EEC01ADFED231A07
:10203000B0EE600A01EE610AF0EE400A00F0010124
:1020400079B1F5EEC00AF1EE10FA04DD9FED1B0A3E
:1020500030EEC00A03E09FED190A30EE800AF0EE80
:10206000400A20EEA00ADFED161AB0EE611ADFED8D
:10207000151A41EE001AB0EE611ADFED131A41EEA7
:10208000001AB0EE611ADFED111A41EE001AB0EE3F
:10209000611ADFED0F1A41EE001AB0EE611ADFEDA2
:1020A0000D1A41EE001A20EEA00A20EE201AB0EE22
:1020B000600A01EE210A704783F9A23EDA0F494017
:1020C0007ABF142FCA32D4B235C538369E0A50B9F9
:1020D0007888083CAAAA2ABE70B504460D4600BFFF
:1020E0008021094800F097FD0028F9D0A1B20648E8
:1020F00000F088FD00BF4021034800F08CFD00285F
:10210000F9D0204670BD00000038014010B52DED1B
:10211000088BF0EE408AB0EE680AFEF7CBFDB0EE19
:10212000409A1A4890ED000A39EE400AB0EE408A13
:10213000B0EE480AFEF7A6FBB0EE408A9FED140A07
:1021400038EE400A10EE101A0846FEF739F841EC56
:102150001B0BB0EE4B0AF0EE6B0AFEF7F7FCB0EE8D
:1021600040AAF0EE60AA9FED0B0B53EC102B51EC44
:102170001A0BFEF739F803D29FED080AB0EE408A39
:10218000B0EE480ABDEC088B10BD00001400002022
:10219000D00FC9408DEDB5A0F7C6B03E00000000DD
:1021A00041617047016170474FF6FF710160002186
:1021B00081710171042141710121C1717047F0B534
:1021C0000A461588ABB29579032D01D100241AE097
:1021D000957965B9557905F00F045579182D01D118
:1021E000036110E05579282D0DD143610BE09579FD
:1021F00005F00805167906F004063543D67906F091
:10220000030645EA0604DDB2A5B1002110E0012570
:102210008D401D405DB105688F000F26BE40B5435F
:10222000056005688E0004FA06F635430560491C12
:102230000829ECD3FF2B15DD1B12002110E001252E
:102240008D401D405DB145688F000F26BE40B543EF
:10225000456045688E0004FA06F635434560491C22
:102260000829ECD3F0BD0000F0B50C46104F07EB89
:102270001062C0F30741C0F30725C6B2C5F12007BD
:10228000A7EB010C4FF0FF3707FA0CF3C5F120075D
:102290007F1AFB40CB408B4017689F4317602CB1DF
:1022A00006FA01FC176847EA0C071760F0BD00004A
:1022B00000000140B4EEC10AF1EE10FA02DBB0EE0C
:1022C000410A08E0B4EEE00AF1EE10FA02D8B0EEEE
:1022D000600A00E000BF70472DED068B84B001F06E
:1022E00023F800F007FF00F05DFE00F09DFE01F016
:1022F00067F801F0B1FA01F0F7FA00F045FF00F0DD
:10230000ABFF00F033FD00F089FD01F07BF801F038
:102310008FF901F0AFF900F0D5FD00F04BFEFFF7AB
:10232000BFFD1248FFF7D8F901221146104800F00E
:102330003DFB1AE00F480068FDF742FF41EC1A0B25
:102340000D480068FDF73CFF41EC180B0B48006896
:10235000FDF736FF41EC190B8DED02AB8DED008BD7
:1023600053EC192B06A0FEF7C5FBE3E7F5080008C0
:102370000004004034000020300000202C00002029
:10238000256C662C256C662C256C660D0A000000F9
:102390002DE9F0470B4614464FF0000C00BF2C4AC5
:1023A0001268C2F302211D4626460A46C2F10709F9
:1023B000B9F1040F02D94FF0040901E0C2F1070995
:1023C000C84602F10409B9F1070F02D24FF0000923
:1023D00001E0A2F103094F464FF0010909FA08F99B
:1023E000A9F1010909EA050909FA07F94FF0010AFB
:1023F0000AFA07FAAAF1010A0AEA060A49EA0A09E8
:10240000CC4601466246002904DB15072E0E114D0D
:102410006E5407E015072F0E0D4D0C3501F00F0619
:10242000361FAF5500BF014600290DDB00BF00BFBE
:1024300001F01F050122AA404D09AD0005F1E0257C
:10244000C5F8002100BF00BF00BFBDE8F087000055
:102450000CED00E000E400E000BF00F00702064BD6
:1024600019684FF6FF031940044B0B4343EA02215E
:10247000014B196000BF70470CED00E00000FA0549
:1024800010B52DED068BB0EE408AF0EE608AB0EE0E
:10249000419AB1EE081AF9EE080AB0EE480AFFF7C1
:1024A00009FFB0EE408AB0EE490AFFF72FFEF0EECA
:1024B000409AB0EE690AFFF7ABFDF1EE480A20EE54
:1024C00020AAB0EE690AFFF741FD08EE80AA29486C
:1024D00080ED00AAB0EE690AFFF738FD20EE08AAE9
:1024E000B0EE690AFFF794FD08EE80AA224880ED5D
:1024F00000AA204890ED000AF1EE080A30EE200A0A
:102500001E4880ED000A1B4890ED000A1A48D0EDE5
:10251000000A9FED1B1A11EE200AB0EE001AC0EE61
:10252000010AB1EE080A30EE800A164880ED000A72
:10253000104890ED000A1048D0ED000A9FED121AE5
:1025400011EE200AF0EE000A80EE201AB1EE080A21
:1025500031EE000A0D4880ED000A90ED001A09489E
:10256000D0ED000A054890ED000A00F011F8BDEC2E
:10257000068B10BD24000020280000202C00002025
:102580002DB2DD3F300000202DB2DDBF3400002031
:1025900010B52DED048BB0EE409AB0EE608AF0EEEF
:1025A000418AB2EE081ADFED400AB0EE490AFFF7A1
:1025B00081FEB0EE409AB2EE081ADFED3B0AB0EEB3
:1025C000480AFFF777FEB0EE408AB2EE081ADFED58
:1025D000360AB0EE680AFFF76DFEF0EE408AB2EE02
:1025E000080AC9EE000AF0EE601AB7EE001ADFED35
:1025F0002E0AB0EE610AFFF75DFE2C4880ED000A5E
:10260000B2EE080AC8EE000AF0EE601AB7EE001A41
:10261000DFED250AB0EE610AFFF74CFE244880ED9D
:10262000000AB2EE080AC8EE800AF0EE601AB7EEB1
:10263000001ADFED1D0AB0EE610AFFF73BFE1D48F0
:1026400080ED000A194890ED000ADFED1B0A20EE2C
:10265000200ABCEEC00A10EE102A00214FF0804084
:1026600000F07EF9124890ED000ADFED130A20EE2B
:10267000200ABCEEC00A10EE102A0221480700F022
:102680006FF90C4890ED000ADFED0B0A20EE200AEE
:10269000BCEEC00A10EE102A06214FF0804000F078
:1026A0005FF9BDEC048B10BD000000001800002095
:1026B0001C000020200000200080BB45026861F360
:1026C0004D3202607047026961F30F020261704788
:1026D0000021017041708170C1700171417181717F
:1026E0000121C1717047026861F386120260704770
:1026F0000146C86880B27047C1607047024600203A
:1027000093680B4003B900E001207047C26922F4CE
:102710000062C2610A7862B9026822F40042026073
:10272000026822F480420260026822F48062026041
:1027300036E00A78012A0ED1026822F400420260D3
:10274000026822F480420260026822F4806202F58C
:102750008062026024E00A78022A0ED1026822F424
:10276000004202F500420260026822F480420260E8
:10277000026822F48062026012E00A78032A0FD114
:10278000026822F4004202F500420260026822F46C
:10279000804202F580420260026822F48062026098
:1027A000CB79026863F3492202604A78012A09D191
:1027B000CA79012A06D1026822F4807202F5807279
:1027C000026003E0026822F4807202604B780268C3
:1027D00063F3820202608A78072A0BDD426822F4E2
:1027E000807202F5807242608A78036862F3C503E2
:1027F000036008E0426822F4807242608B780268CD
:1028000063F3C5020260CB78026863F3C71202600B
:102810000B79026863F3CB2202604B79026863F3A1
:10282000410202608B79026863F300020260704724
:102830002DE9F0470026002400250027A046A146E8
:10284000FFF726FB8246BAF1000F06D0BAF1010F5E
:1028500015D0BAF1020F46D115E02D48406DC0F3F6
:10286000402040B12A48006BC0F3406018B12948AD
:102870002949086002E029482749086037E02748CD
:102880002549086033E022484068C0F300472048EB
:102890004068C0F383441E484068C0F341750DB9D9
:1028A0000F2C03D12801401C044400E0A41C27B9CC
:1028B0001B4860431849086014E015484068C0F39D
:1028C000404058B11248406DC0F30136B01C134966
:1028D000B1FBF0F060431049086003E00F4860432B
:1028E0000D49086003E00D480B49086000BF00BFB8
:1028F00007484068C0F303180A4810F808900648D3
:10290000006820FA09F004490860BDE8F08700007B
:1029100000100240006CDC020800002000127A0067
:1029200000093D00A0390008042808D14FF0E0213B
:10293000096941F004014FF0E022116107E04FF016
:10294000E021096921F004014FF0E0221161704794
:10295000C1628262436923F001035B1C43617047DB
:102960000B4633B1022B06D0042B06D0062B08D120
:1029700005E0426306E0826304E0C26302E00264B1
:1029800000E000BF00BF7047026861F309220260E7
:102990007047026861F3061202607047026861F3D3
:1029A000000202607047CA4302617047012A03D1E6
:1029B000C3680B43C36003E012B9C3688B43C360B1
:1029C000704710B50B4633B1022B09D0042B0CD045
:1029D000062B14D10EE0846962F3C30484610FE016
:1029E000846962F3CB2484610AE0C46962F3C3049E
:1029F000C46105E0C46962F3CB24C46100E000BF98
:102A000000BF10BD2DE9F04100250026002701F18F
:102A100008035C1C92F801C00CFA03FC1FFA8CF549
:102A200092F802C00CFA04FC1FFA8CF6D0F804C02D
:102A30004FF0010808FA04F82CEA080CC0F804C0AA
:102A4000D0F804C04CEA060CC0F804C0D0F804C0AA
:102A50004FF0010808FA03F82CEA080CC0F804C08B
:102A6000D0F804C04CEA050CC0F804C00F4637B1DA
:102A7000022F0DD0042F14D0062F24D11AE092F883
:102A80000080D0F818C068F3061CC0F818C01BE01E
:102A900092F80080D0F818C068F30E3CC0F818C057
:102AA00012E092F80080D0F81CC068F3061CC0F851
:102AB0001CC009E092F80080D0F81CC068F30E3CFE
:102AC000C0F81CC000E000BF00BF4FF0010C0CEBD1
:102AD00041034FF0030C0CEB410492F803C00CFAD5
:102AE00003FC1FFA8CF592F804C00CFA04FC1FFAE0
:102AF0008CF64FF0010808FA04F8D0F820C02CEA50
:102B0000080CC0F820C0D0F820C04CEA060CC0F871
:102B100020C04FF0010C0CFA03FCD0F8208028EA0A
:102B20000C08C0F82080D0F820C04CEA050CC0F892
:102B300020C04B004FF0020C0CEB410492F805C092
:102B40004FEA41080CFA08FC1FFA8CF592F806C00F
:102B50004FF0020808EB41080CFA08FC1FFA8CF64B
:102B60004FF0010808FA04F8D0F820C02CEA080C4D
:102B7000C0F820C0D0F820C04CEA060CC0F820C035
:102B80004FF0010808FA03F8D0F820C02CEA080C2E
:102B9000C0F820C0D0F820C04CEA050CC0F820C016
:102BA000BDE8F08110B50B4633B1022B09D0042BE0
:102BB0000CD0062B14D10EE0846962F38204846188
:102BC0000FE0846962F38A2484610AE0C46962F3D5
:102BD0008204C46105E0C46962F38A24C46100E030
:102BE00000BF00BF10BD026861F3C71202607047EA
:102BF000426861F3061242607047826861F3C7124F
:102C000082607047C1F3080242607047C26861F396
:102C10004D32C260704702461068084008B101207A
:102C200070470020FCE741B9426922F4807242619A
:102C3000426922F40072426127E001290AD1426907
:102C400022F4807202F580724261426922F40072BD
:102C500042611AE002290AD1426922F4807242617B
:102C6000426922F4007202F5007242610DE003290C
:102C70000BD1426922F4807202F58072426142698E
:102C800022F4007202F50072426170472DE9F043B0
:102C900085B004460F46904699466846FEF788FF81
:102CA0001748844205D01748844202D0164884420F
:102CB00001D1029E00E0039E06EB86004000B0FBBF
:102CC000F7F50A20B5FBF0F100FB1150052803D2FF
:102CD0000A20B5FBF0F503E00A20B5FBF0F0451C37
:102CE000A06865F30F00A060E06868F30C30E06056
:102CF000206969F30D30206105B0BDE8F083000064
:102D000000380140006001400064014041B9C268E0
:102D100022F40072C260C26822F48062C2601AE0CB
:102D200001290AD1C26822F40072C260C26822F48A
:102D3000806202F58062C2600DE002290BD1C26898
:102D400022F4007202F50072C260C26822F480624E
:102D500002F58062C2607047C26861F38202C2609D
:102D60007047C26861F3C302C26070470EB501A824
:102D7000FFF71AFA03208DF80A000120019001A93B
:102D80002448FFF71CFA03208DF80A000220019066
:102D900001A92048FFF713FA0220FEF797FE002052
:102DA000FEF718FC6846FEF7F0FB00208DF80000E7
:102DB0008DF801008DF8020001208DF803006946AE
:102DC0001548FEF7CCFB0023012208211248FEF72C
:102DD00010FC012205211048FEF75FFC00210E487F
:102DE000FEF775FC01210C48FEF7FEFB0A48FEF7D2
:102DF000D3FB00BF0848FEF7D5FB0028FAD10648F0
:102E0000FEF7D9FB00BF0448FEF7DBFB0028FAD130
:102E10000EBD0000000C0140002401400EB501A8C9
:102E2000FFF7C2F903208DF80A000120019001A9E3
:102E30002248FFF7C4F903208DF80A000220019010
:102E400001A91E48FFF7BBF90220FEF73FFE6846C6
:102E5000FEF79BFB00208DF800008DF801008DF837
:102E6000020001208DF8030069461548FEF777FB44
:102E70000023012219461248FEF7BBFB012211462E
:102E80000F48FEF70AFC00210D48FEF720FC012147
:102E90000B48FEF7A9FB0A48FEF77EFB00BF084877
:102EA000FEF780FB0028FAD10548FEF784FB00BF3F
:102EB0000348FEF786FB0028FAD10EBD000801404A
:102EC000003C014000B58BB009A8FFF76DF9022066
:102ED0008DF82B0000208DF8280008208DF82A009E
:102EE0004002099004208DF8290009A92B48FFF71A
:102EF00066F901208DF82B0000208DF828008DF850
:102F00002A004FF40060099004208DF8290009A9D7
:102F10002248FFF754F907A8FEF71DFD00208DF8A1
:102F20001C008DF81D0001208DF81E008DF81F007B
:102F300000208DF820008DF821008DF8220007A9CF
:102F40001748FEF761FC1E20ADF8140000208DF834
:102F5000160005208DF8170000208DF8180005A92F
:102F60000F48FEF7AFFC01208DF8040000208DF81B
:102F700007008DF806008DF808008DF80500ADF803
:102F80000A00ADF80C00ADF80E00ADF8100001A974
:102F90000348FEF7E9FC0BB000BD0000000801404B
:102FA0000064004010B501210148FFF75DF910BD34
:102FB000020310301CB56846FFF7F6F84FF488712D
:102FC0001748FFF7EDF841F230011648FFF7E8F82F
:102FD00002208DF8070000208DF8040010208DF8E5
:102FE00006004FF48870009004208DF805006946B3
:102FF0000B48FFF7E4F802208DF8070000208DF859
:10300000040010208DF8060041F2300000900420EA
:103010008DF8050069460348FFF7D1F81CBD000094
:1030200000080140000C014070B50320FFF714FABE
:10303000FDF770FD054600221146FDF7A6FC04468B
:1030400021466FF00B00FDF76DFDFDF763FD0546B2
:1030500000221146FDF799FC044621466FF00A0054
:10306000FDF760FDFDF756FD054600221146FDF710
:103070008CFC044621466FF00900FDF753FDFDF777
:1030800049FD054600221146FDF77FFC0446214616
:103090006FF00400FDF746FDFDF73CFD05460022FC
:1030A0001146FDF772FC044621466FF00300FDF760
:1030B00039FDFDF72FFD054600221146FDF765FCA1
:1030C000044621466FF00100FDF72CFDFDF722FDBF
:1030D000054600220F21FDF758FC044621464FF01B
:1030E000FF30FDF71FFD002211461D20FFF750F9AC
:1030F00070BD000010B501214FF4C010FEF71EFE98
:1031000001211F48FEF71AFE01211D48401CFEF751
:1031100015FE01211A48C01CFEF710FE01211848B7
:10312000C01DFEF70BFE012115480A30FEF706FE12
:10313000012113480C30FEF701FE012110480D302B
:10314000FEF7FCFD01214FF4E010FEF7F7FD012131
:103150000C48FEF7F3FD01210A48401CFEF7EEFD86
:10316000012108480D30FEF7E9FD01210548113025
:10317000FEF7E4FD012103481830FEF7DFFD10BD26
:103180000200180001001C001FB502A8FFF70CF890
:103190006846FFF79DFA02208DF80F0000208DF899
:1031A0000C0008208DF80E002020029004208DF8DD
:1031B0000D0002A92648FFF702F802208DF80F0043
:1031C00000208DF80C008DF80E00402002900420A5
:1031D0008DF80D0002A91E48FEF7F1FF02208DF8C0
:1031E0000F0000208DF80C0008208DF80E008020C4
:1031F000029004208DF80D0002A91548FEF7DFFFAC
:1032000000208DF8000001208DF8010000208DF8CD
:1032100004008DF8030002208DF8020000208DF8D4
:10322000050001208DF806008DF807006946094861
:10323000FFF76CFA07210748FFF745FA0121054817
:10324000FFF73CFA01210348FFF74DFA1FBD0000CC
:1032500000080140003001401FB502A8FEF7A4FF9E
:103260006846FFF735FA02208DF80F0000208DF830
:103270000C0008208DF80E008002029004208DF8CA
:103280000D0002A92648FEF79AFF02208DF80F00D4
:1032900000208DF80C008DF80E004FF48040029055
:1032A00004208DF80D0002A91D48FEF788FF0220BA
:1032B0008DF80F0000208DF80C0008208DF80E000E
:1032C0000003029004208DF80D0002A91448FEF7B7
:1032D00076FF00208DF8000001208DF8010000200D
:1032E0008DF804008DF8030002208DF80200002004
:1032F0008DF8050001208DF806008DF8070069465D
:103300000848FFF703FA07210648FFF7DCF9012117
:103310000448FFF7D3F901210248FFF7E4F91FBD84
:10332000000C01400038004010B5FEF767FD012198
:103330000420FEF70DFC00BF2048FEF7CFFC01285B
:10334000FAD101210846FEF703FC00BFFEF7DEFCC0
:103350000028FBD001210020FEF7FAFB00BF01206E
:10336000FEF7BCFC0128FAD101221D211046FEF710
:1033700007FD01210220FEF7EBFB00BF1920FEF73D
:10338000ADFC0128FAD10020FEF7B0FB0420FEF7C7
:10339000C1FB0420FEF7B4FB0120FEF7C5FB0220B1
:1033A000FEF758FD00BFFEF773FD0228FBD1002099
:1033B000FEF7BAFBFFF73CFA10BD00000100240045
:1033C00010B586B0002401A8FEF7F2FB029C042091
:1033D000FFF7AAFA0948B4FBF0F009490860002099
:1033E0004FF0E02188616FF07F4048610846006936
:1033F00040F00100086106B010BD000040420F001F
:10340000040000201FB502A8FEF7CEFE04200290A3
:1034100008208DF80E0000208DF80C0004208DF897
:103420000D0002208DF80F0002A97E48FEF7C7FEAE
:10343000082002908DF80E0000208DF80C0004206A
:103440008DF80D0002208DF80F0002A97548FEF7D7
:10345000B6FE4FF40040029008208DF80E000020C8
:103460008DF80C0004208DF80D0002208DF80F005F
:1034700002A96C48FEF7A3FE082002908DF80E000A
:1034800000208DF80C0004208DF80D0002208DF82E
:103490000F0002A96448FEF792FE01216348FEF77F
:1034A000E3FE02214807FFF774FA00214FF0804045
:1034B000FFF76AFA00214FF08040FFF794FB0022EB
:1034C00041F26F714FF08040FFF742FA00214FF058
:1034D0008040FFF792FB00214FF08040FFF788FB10
:1034E00006208DF8000001208DF8050000208DF8E1
:1034F00006008DF803008DF804008DF801008DF8AA
:1035000002006A4600214FF08040FFF77BFA00225C
:1035100011464FF08040FFF723FA002211464FF08A
:103520008040FFF74EFA002211464FF08040FFF72F
:1035300039FB06208DF8000001208DF805000020E1
:103540008DF806008DF803008DF804008DF8010059
:103550008DF802006A4602214807FFF753FA00225D
:1035600002214807FFF7FCF9002202214807FFF774
:1035700028FA002202214807FFF714FB06208DF8E5
:10358000000001208DF8050000208DF806008DF860
:1035900003008DF804008DF801008DF802006A46E2
:1035A00004210807FFF72EFA002204210807FFF77D
:1035B000D7F9002204210807FFF703FA00220421AB
:1035C0000807FFF7EFFA06208DF8000001208DF8BC
:1035D000050000208DF806008DF803008DF804002A
:1035E0008DF801008DF802006A4606214FF08040F8
:1035F000FFF708FA002206214FF08040FFF7B0F9EC
:10360000002206214FF08040FFF7DBF9002206215F
:103610004FF08040FFF7C6FA01218807FFF7BEF997
:103620001FBD000000080140000C014001020424FD
:1036300010B500210E48FFF7ACF900210C48FFF748
:10364000A3F900210A48FFF7CEFA092240F65F11DC
:103650000748FFF77DF900210548FFF7CEFA002162
:103660000348FFF7C5FA01210148FFF797F910BD9C
:10367000000400401FB502A8FEF796FD402002900E
:1036800008208DF80E0000208DF80C0004208DF825
:103690000D0002208DF80F0002A96D48FEF78FFD86
:1036A0008020029008208DF80E0000208DF80C007C
:1036B00004208DF80D0002208DF80F0002A9644847
:1036C000FEF77DFD4FF48070029008208DF80E000B
:1036D00000208DF80C0004208DF80D0002208DF8DC
:1036E0000F0002A95A48FEF76AFD4FF400700290DD
:1036F00008208DF80E0000208DF80C0004208DF8B5
:103700000D0002208DF80F0002A95148FEF757FD69
:1037100000215048FFF73DF900214E48FFF734F9EA
:1037200000214C48FFF75FFA00224FF6FF7149482D
:10373000FFF70EF900214748FFF75FFA00214548DF
:10374000FFF756FA00208DF8000001208DF80500E3
:1037500000208DF806008DF803008DF804008DF828
:1037600001008DF802006A4600213A48FFF74AF945
:10377000002211463748FFF7F3F80022114635487A
:10378000FFF71FF900208DF8000001208DF80500DB
:1037900000208DF806008DF803008DF804008DF8E8
:1037A00001008DF802006A4602212A48FFF72AF933
:1037B000002202212748FFF7D3F8002202212548E2
:1037C000FFF7FFF800208DF8000001208DF80500BC
:1037D00000208DF806008DF803008DF804008DF8A8
:1037E00001008DF802006A4604211A48FFF70AF921
:1037F000002204211748FFF7B3F8002204211548DE
:10380000FFF7DFF800208DF8000001208DF805009B
:1038100000208DF806008DF803008DF804008DF867
:1038200001008DF802006A4606210A48FFF7EAF80F
:10383000002206210748FFF793F8002206210548D9
:10384000FFF7BFF801210348FFF7A8F81FBD0000EC
:10385000000C0140000800401CB56846FEF7A4FCBF
:1038600002208DF8070000208DF8040008208DF854
:1038700006008001009004208DF805006946184874
:10388000FEF79DFC02208DF8070000208DF8040053
:103890008DF806004FF48060009004208DF805003C
:1038A00069460F48FEF78BFC00231A464FF461214E
:1038B0000C48FFF7EBF901210A48FFF752FA012102
:1038C0000848FFF749FA00210648FFF71FFA0021D0
:1038D0000448FFF7A8F901210248FFF797F91CBD3A
:1038E00000080140003801401CB56846FEF75CFC4A
:1038F00002208DF8070000208DF8040008208DF8C4
:103900000600C001009004208DF8050069461848A3
:10391000FEF755FC02208DF8070000208DF804000A
:103920008DF806004FF40060009004208DF805002B
:1039300069460F48FEF743FC00231A464FF4E13175
:103940000C48FFF7A3F901210A48FFF70AFA012101
:103950000848FFF701FA00210648FFF7D7F90021D0
:103960000448FFF760F901210248FFF74FF91CBD39
:10397000000C014000480040000000000000000072
:103980000102030406070809000000000102030405
:10399000000000000102030402040608020C0810E3
:1039A00000000000000000000102030406070809EF
:1039B000D03900080000002048000000880C0008F2
:1039C000183A00084800002000040000980C000885
:1039D000000000000000000000127A00000000005B
:1039E00000000000000000000000000000000000D7
:1039F00000000000000000000000000000000000C7
:103A0000000000000000000000080140000100006C
:083A10000000000000000000AE
:040000050800018569
:00000001FF
